{
	"submissions/CCan_08/Day17/SubscriptionStorageLayout.sol": {
		"SubscriptionStorageLayout": {
			"abi": [
				{
					"inputs": [],
					"name": "logicContract",
					"outputs": [
						{
							"internalType": "address",
							"name": "",
							"type": "address"
						}
					],
					"stateMutability": "view",
					"type": "function"
				},
				{
					"inputs": [],
					"name": "owner",
					"outputs": [
						{
							"internalType": "address",
							"name": "",
							"type": "address"
						}
					],
					"stateMutability": "view",
					"type": "function"
				},
				{
					"inputs": [
						{
							"internalType": "uint8",
							"name": "",
							"type": "uint8"
						}
					],
					"name": "planDuration",
					"outputs": [
						{
							"internalType": "uint256",
							"name": "",
							"type": "uint256"
						}
					],
					"stateMutability": "view",
					"type": "function"
				},
				{
					"inputs": [
						{
							"internalType": "uint8",
							"name": "",
							"type": "uint8"
						}
					],
					"name": "planPrices",
					"outputs": [
						{
							"internalType": "uint256",
							"name": "",
							"type": "uint256"
						}
					],
					"stateMutability": "view",
					"type": "function"
				},
				{
					"inputs": [
						{
							"internalType": "address",
							"name": "",
							"type": "address"
						}
					],
					"name": "subscriptions",
					"outputs": [
						{
							"internalType": "uint8",
							"name": "planId",
							"type": "uint8"
						},
						{
							"internalType": "uint256",
							"name": "expiry",
							"type": "uint256"
						},
						{
							"internalType": "bool",
							"name": "paused",
							"type": "bool"
						}
					],
					"stateMutability": "view",
					"type": "function"
				}
			],
			"devdoc": {
				"kind": "dev",
				"methods": {},
				"version": 1
			},
			"evm": {
				"assembly": "    /* \"submissions/CCan_08/Day17/SubscriptionStorageLayout.sol\":59:417  contract SubscriptionStorageLayout {... */\n  mstore(0x40, 0x80)\n  callvalue\n  dup1\n  iszero\n  tag_1\n  jumpi\n  revert(0x00, 0x00)\ntag_1:\n  pop\n  dataSize(sub_0)\n  dup1\n  dataOffset(sub_0)\n  0x00\n  codecopy\n  0x00\n  return\nstop\n\nsub_0: assembly {\n        /* \"submissions/CCan_08/Day17/SubscriptionStorageLayout.sol\":59:417  contract SubscriptionStorageLayout {... */\n      mstore(0x40, 0x80)\n      callvalue\n      dup1\n      iszero\n      tag_1\n      jumpi\n      revert(0x00, 0x00)\n    tag_1:\n      pop\n      jumpi(tag_2, lt(calldatasize, 0x04))\n      shr(0xe0, calldataload(0x00))\n      dup1\n      0x76ca4f72\n      eq\n      tag_3\n      jumpi\n      dup1\n      0x8da5cb5b\n      eq\n      tag_4\n      jumpi\n      dup1\n      0xb33187e7\n      eq\n      tag_5\n      jumpi\n      dup1\n      0xcc0e97c9\n      eq\n      tag_6\n      jumpi\n      dup1\n      0xf046395a\n      eq\n      tag_7\n      jumpi\n    tag_2:\n      revert(0x00, 0x00)\n        /* \"submissions/CCan_08/Day17/SubscriptionStorageLayout.sol\":369:414  mapping(uint8 => uint256) public planDuration */\n    tag_3:\n      tag_8\n      0x04\n      dup1\n      calldatasize\n      sub\n      dup2\n      add\n      swap1\n      tag_9\n      swap2\n      swap1\n      tag_10\n      jump\t// in\n    tag_9:\n      tag_11\n      jump\t// in\n    tag_8:\n      mload(0x40)\n      tag_12\n      swap2\n      swap1\n      tag_13\n      jump\t// in\n    tag_12:\n      mload(0x40)\n      dup1\n      swap2\n      sub\n      swap1\n      return\n        /* \"submissions/CCan_08/Day17/SubscriptionStorageLayout.sol\":134:154  address public owner */\n    tag_4:\n      tag_14\n      tag_15\n      jump\t// in\n    tag_14:\n      mload(0x40)\n      tag_16\n      swap2\n      swap1\n      tag_17\n      jump\t// in\n    tag_16:\n      mload(0x40)\n      dup1\n      swap2\n      sub\n      swap1\n      return\n        /* \"submissions/CCan_08/Day17/SubscriptionStorageLayout.sol\":320:363  mapping(uint8 => uint256) public planPrices */\n    tag_5:\n      tag_18\n      0x04\n      dup1\n      calldatasize\n      sub\n      dup2\n      add\n      swap1\n      tag_19\n      swap2\n      swap1\n      tag_10\n      jump\t// in\n    tag_19:\n      tag_20\n      jump\t// in\n    tag_18:\n      mload(0x40)\n      tag_21\n      swap2\n      swap1\n      tag_13\n      jump\t// in\n    tag_21:\n      mload(0x40)\n      dup1\n      swap2\n      sub\n      swap1\n      return\n        /* \"submissions/CCan_08/Day17/SubscriptionStorageLayout.sol\":100:128  address public logicContract */\n    tag_6:\n      tag_22\n      tag_23\n      jump\t// in\n    tag_22:\n      mload(0x40)\n      tag_24\n      swap2\n      swap1\n      tag_17\n      jump\t// in\n    tag_24:\n      mload(0x40)\n      dup1\n      swap2\n      sub\n      swap1\n      return\n        /* \"submissions/CCan_08/Day17/SubscriptionStorageLayout.sol\":261:314  mapping(address => Subscription) public subscriptions */\n    tag_7:\n      tag_25\n      0x04\n      dup1\n      calldatasize\n      sub\n      dup2\n      add\n      swap1\n      tag_26\n      swap2\n      swap1\n      tag_27\n      jump\t// in\n    tag_26:\n      tag_28\n      jump\t// in\n    tag_25:\n      mload(0x40)\n      tag_29\n      swap4\n      swap3\n      swap2\n      swap1\n      tag_30\n      jump\t// in\n    tag_29:\n      mload(0x40)\n      dup1\n      swap2\n      sub\n      swap1\n      return\n        /* \"submissions/CCan_08/Day17/SubscriptionStorageLayout.sol\":369:414  mapping(uint8 => uint256) public planDuration */\n    tag_11:\n      mstore(0x20, 0x04)\n      dup1\n      0x00\n      mstore\n      keccak256(0x00, 0x40)\n      0x00\n      swap2\n      pop\n      swap1\n      pop\n      sload\n      dup2\n      jump\t// out\n        /* \"submissions/CCan_08/Day17/SubscriptionStorageLayout.sol\":134:154  address public owner */\n    tag_15:\n      0x01\n      0x00\n      swap1\n      sload\n      swap1\n      0x0100\n      exp\n      swap1\n      div\n      0xffffffffffffffffffffffffffffffffffffffff\n      and\n      dup2\n      jump\t// out\n        /* \"submissions/CCan_08/Day17/SubscriptionStorageLayout.sol\":320:363  mapping(uint8 => uint256) public planPrices */\n    tag_20:\n      mstore(0x20, 0x03)\n      dup1\n      0x00\n      mstore\n      keccak256(0x00, 0x40)\n      0x00\n      swap2\n      pop\n      swap1\n      pop\n      sload\n      dup2\n      jump\t// out\n        /* \"submissions/CCan_08/Day17/SubscriptionStorageLayout.sol\":100:128  address public logicContract */\n    tag_23:\n      0x00\n      0x00\n      swap1\n      sload\n      swap1\n      0x0100\n      exp\n      swap1\n      div\n      0xffffffffffffffffffffffffffffffffffffffff\n      and\n      dup2\n      jump\t// out\n        /* \"submissions/CCan_08/Day17/SubscriptionStorageLayout.sol\":261:314  mapping(address => Subscription) public subscriptions */\n    tag_28:\n      mstore(0x20, 0x02)\n      dup1\n      0x00\n      mstore\n      keccak256(0x00, 0x40)\n      0x00\n      swap2\n      pop\n      swap1\n      pop\n      dup1\n      0x00\n      add\n      0x00\n      swap1\n      sload\n      swap1\n      0x0100\n      exp\n      swap1\n      div\n      0xff\n      and\n      swap1\n      dup1\n      0x01\n      add\n      sload\n      swap1\n      dup1\n      0x02\n      add\n      0x00\n      swap1\n      sload\n      swap1\n      0x0100\n      exp\n      swap1\n      div\n      0xff\n      and\n      swap1\n      pop\n      dup4\n      jump\t// out\n        /* \"#utility.yul\":88:205   */\n    tag_32:\n        /* \"#utility.yul\":197:198   */\n      0x00\n        /* \"#utility.yul\":194:195   */\n      0x00\n        /* \"#utility.yul\":187:199   */\n      revert\n        /* \"#utility.yul\":334:420   */\n    tag_34:\n        /* \"#utility.yul\":369:376   */\n      0x00\n        /* \"#utility.yul\":409:413   */\n      0xff\n        /* \"#utility.yul\":402:407   */\n      dup3\n        /* \"#utility.yul\":398:414   */\n      and\n        /* \"#utility.yul\":387:414   */\n      swap1\n      pop\n        /* \"#utility.yul\":334:420   */\n      swap2\n      swap1\n      pop\n      jump\t// out\n        /* \"#utility.yul\":426:544   */\n    tag_35:\n        /* \"#utility.yul\":497:519   */\n      tag_53\n        /* \"#utility.yul\":513:518   */\n      dup2\n        /* \"#utility.yul\":497:519   */\n      tag_34\n      jump\t// in\n    tag_53:\n        /* \"#utility.yul\":490:495   */\n      dup2\n        /* \"#utility.yul\":487:520   */\n      eq\n        /* \"#utility.yul\":477:538   */\n      tag_54\n      jumpi\n        /* \"#utility.yul\":534:535   */\n      0x00\n        /* \"#utility.yul\":531:532   */\n      0x00\n        /* \"#utility.yul\":524:536   */\n      revert\n        /* \"#utility.yul\":477:538   */\n    tag_54:\n        /* \"#utility.yul\":426:544   */\n      pop\n      jump\t// out\n        /* \"#utility.yul\":550:685   */\n    tag_36:\n        /* \"#utility.yul\":594:599   */\n      0x00\n        /* \"#utility.yul\":632:638   */\n      dup2\n        /* \"#utility.yul\":619:639   */\n      calldataload\n        /* \"#utility.yul\":610:639   */\n      swap1\n      pop\n        /* \"#utility.yul\":648:679   */\n      tag_56\n        /* \"#utility.yul\":673:678   */\n      dup2\n        /* \"#utility.yul\":648:679   */\n      tag_35\n      jump\t// in\n    tag_56:\n        /* \"#utility.yul\":550:685   */\n      swap3\n      swap2\n      pop\n      pop\n      jump\t// out\n        /* \"#utility.yul\":691:1016   */\n    tag_10:\n        /* \"#utility.yul\":748:754   */\n      0x00\n        /* \"#utility.yul\":797:799   */\n      0x20\n        /* \"#utility.yul\":785:794   */\n      dup3\n        /* \"#utility.yul\":776:783   */\n      dup5\n        /* \"#utility.yul\":772:795   */\n      sub\n        /* \"#utility.yul\":768:800   */\n      slt\n        /* \"#utility.yul\":765:884   */\n      iszero\n      tag_58\n      jumpi\n        /* \"#utility.yul\":803:882   */\n      tag_59\n      tag_32\n      jump\t// in\n    tag_59:\n        /* \"#utility.yul\":765:884   */\n    tag_58:\n        /* \"#utility.yul\":923:924   */\n      0x00\n        /* \"#utility.yul\":948:999   */\n      tag_60\n        /* \"#utility.yul\":991:998   */\n      dup5\n        /* \"#utility.yul\":982:988   */\n      dup3\n        /* \"#utility.yul\":971:980   */\n      dup6\n        /* \"#utility.yul\":967:989   */\n      add\n        /* \"#utility.yul\":948:999   */\n      tag_36\n      jump\t// in\n    tag_60:\n        /* \"#utility.yul\":938:999   */\n      swap2\n      pop\n        /* \"#utility.yul\":894:1009   */\n      pop\n        /* \"#utility.yul\":691:1016   */\n      swap3\n      swap2\n      pop\n      pop\n      jump\t// out\n        /* \"#utility.yul\":1022:1099   */\n    tag_37:\n        /* \"#utility.yul\":1059:1066   */\n      0x00\n        /* \"#utility.yul\":1088:1093   */\n      dup2\n        /* \"#utility.yul\":1077:1093   */\n      swap1\n      pop\n        /* \"#utility.yul\":1022:1099   */\n      swap2\n      swap1\n      pop\n      jump\t// out\n        /* \"#utility.yul\":1105:1223   */\n    tag_38:\n        /* \"#utility.yul\":1192:1216   */\n      tag_63\n        /* \"#utility.yul\":1210:1215   */\n      dup2\n        /* \"#utility.yul\":1192:1216   */\n      tag_37\n      jump\t// in\n    tag_63:\n        /* \"#utility.yul\":1187:1190   */\n      dup3\n        /* \"#utility.yul\":1180:1217   */\n      mstore\n        /* \"#utility.yul\":1105:1223   */\n      pop\n      pop\n      jump\t// out\n        /* \"#utility.yul\":1229:1451   */\n    tag_13:\n        /* \"#utility.yul\":1322:1326   */\n      0x00\n        /* \"#utility.yul\":1360:1362   */\n      0x20\n        /* \"#utility.yul\":1349:1358   */\n      dup3\n        /* \"#utility.yul\":1345:1363   */\n      add\n        /* \"#utility.yul\":1337:1363   */\n      swap1\n      pop\n        /* \"#utility.yul\":1373:1444   */\n      tag_65\n        /* \"#utility.yul\":1441:1442   */\n      0x00\n        /* \"#utility.yul\":1430:1439   */\n      dup4\n        /* \"#utility.yul\":1426:1443   */\n      add\n        /* \"#utility.yul\":1417:1423   */\n      dup5\n        /* \"#utility.yul\":1373:1444   */\n      tag_38\n      jump\t// in\n    tag_65:\n        /* \"#utility.yul\":1229:1451   */\n      swap3\n      swap2\n      pop\n      pop\n      jump\t// out\n        /* \"#utility.yul\":1457:1583   */\n    tag_39:\n        /* \"#utility.yul\":1494:1501   */\n      0x00\n        /* \"#utility.yul\":1534:1576   */\n      0xffffffffffffffffffffffffffffffffffffffff\n        /* \"#utility.yul\":1527:1532   */\n      dup3\n        /* \"#utility.yul\":1523:1577   */\n      and\n        /* \"#utility.yul\":1512:1577   */\n      swap1\n      pop\n        /* \"#utility.yul\":1457:1583   */\n      swap2\n      swap1\n      pop\n      jump\t// out\n        /* \"#utility.yul\":1589:1685   */\n    tag_40:\n        /* \"#utility.yul\":1626:1633   */\n      0x00\n        /* \"#utility.yul\":1655:1679   */\n      tag_68\n        /* \"#utility.yul\":1673:1678   */\n      dup3\n        /* \"#utility.yul\":1655:1679   */\n      tag_39\n      jump\t// in\n    tag_68:\n        /* \"#utility.yul\":1644:1679   */\n      swap1\n      pop\n        /* \"#utility.yul\":1589:1685   */\n      swap2\n      swap1\n      pop\n      jump\t// out\n        /* \"#utility.yul\":1691:1809   */\n    tag_41:\n        /* \"#utility.yul\":1778:1802   */\n      tag_70\n        /* \"#utility.yul\":1796:1801   */\n      dup2\n        /* \"#utility.yul\":1778:1802   */\n      tag_40\n      jump\t// in\n    tag_70:\n        /* \"#utility.yul\":1773:1776   */\n      dup3\n        /* \"#utility.yul\":1766:1803   */\n      mstore\n        /* \"#utility.yul\":1691:1809   */\n      pop\n      pop\n      jump\t// out\n        /* \"#utility.yul\":1815:2037   */\n    tag_17:\n        /* \"#utility.yul\":1908:1912   */\n      0x00\n        /* \"#utility.yul\":1946:1948   */\n      0x20\n        /* \"#utility.yul\":1935:1944   */\n      dup3\n        /* \"#utility.yul\":1931:1949   */\n      add\n        /* \"#utility.yul\":1923:1949   */\n      swap1\n      pop\n        /* \"#utility.yul\":1959:2030   */\n      tag_72\n        /* \"#utility.yul\":2027:2028   */\n      0x00\n        /* \"#utility.yul\":2016:2025   */\n      dup4\n        /* \"#utility.yul\":2012:2029   */\n      add\n        /* \"#utility.yul\":2003:2009   */\n      dup5\n        /* \"#utility.yul\":1959:2030   */\n      tag_41\n      jump\t// in\n    tag_72:\n        /* \"#utility.yul\":1815:2037   */\n      swap3\n      swap2\n      pop\n      pop\n      jump\t// out\n        /* \"#utility.yul\":2043:2165   */\n    tag_42:\n        /* \"#utility.yul\":2116:2140   */\n      tag_74\n        /* \"#utility.yul\":2134:2139   */\n      dup2\n        /* \"#utility.yul\":2116:2140   */\n      tag_40\n      jump\t// in\n    tag_74:\n        /* \"#utility.yul\":2109:2114   */\n      dup2\n        /* \"#utility.yul\":2106:2141   */\n      eq\n        /* \"#utility.yul\":2096:2159   */\n      tag_75\n      jumpi\n        /* \"#utility.yul\":2155:2156   */\n      0x00\n        /* \"#utility.yul\":2152:2153   */\n      0x00\n        /* \"#utility.yul\":2145:2157   */\n      revert\n        /* \"#utility.yul\":2096:2159   */\n    tag_75:\n        /* \"#utility.yul\":2043:2165   */\n      pop\n      jump\t// out\n        /* \"#utility.yul\":2171:2310   */\n    tag_43:\n        /* \"#utility.yul\":2217:2222   */\n      0x00\n        /* \"#utility.yul\":2255:2261   */\n      dup2\n        /* \"#utility.yul\":2242:2262   */\n      calldataload\n        /* \"#utility.yul\":2233:2262   */\n      swap1\n      pop\n        /* \"#utility.yul\":2271:2304   */\n      tag_77\n        /* \"#utility.yul\":2298:2303   */\n      dup2\n        /* \"#utility.yul\":2271:2304   */\n      tag_42\n      jump\t// in\n    tag_77:\n        /* \"#utility.yul\":2171:2310   */\n      swap3\n      swap2\n      pop\n      pop\n      jump\t// out\n        /* \"#utility.yul\":2316:2645   */\n    tag_27:\n        /* \"#utility.yul\":2375:2381   */\n      0x00\n        /* \"#utility.yul\":2424:2426   */\n      0x20\n        /* \"#utility.yul\":2412:2421   */\n      dup3\n        /* \"#utility.yul\":2403:2410   */\n      dup5\n        /* \"#utility.yul\":2399:2422   */\n      sub\n        /* \"#utility.yul\":2395:2427   */\n      slt\n        /* \"#utility.yul\":2392:2511   */\n      iszero\n      tag_79\n      jumpi\n        /* \"#utility.yul\":2430:2509   */\n      tag_80\n      tag_32\n      jump\t// in\n    tag_80:\n        /* \"#utility.yul\":2392:2511   */\n    tag_79:\n        /* \"#utility.yul\":2550:2551   */\n      0x00\n        /* \"#utility.yul\":2575:2628   */\n      tag_81\n        /* \"#utility.yul\":2620:2627   */\n      dup5\n        /* \"#utility.yul\":2611:2617   */\n      dup3\n        /* \"#utility.yul\":2600:2609   */\n      dup6\n        /* \"#utility.yul\":2596:2618   */\n      add\n        /* \"#utility.yul\":2575:2628   */\n      tag_43\n      jump\t// in\n    tag_81:\n        /* \"#utility.yul\":2565:2628   */\n      swap2\n      pop\n        /* \"#utility.yul\":2521:2638   */\n      pop\n        /* \"#utility.yul\":2316:2645   */\n      swap3\n      swap2\n      pop\n      pop\n      jump\t// out\n        /* \"#utility.yul\":2651:2763   */\n    tag_44:\n        /* \"#utility.yul\":2734:2756   */\n      tag_83\n        /* \"#utility.yul\":2750:2755   */\n      dup2\n        /* \"#utility.yul\":2734:2756   */\n      tag_34\n      jump\t// in\n    tag_83:\n        /* \"#utility.yul\":2729:2732   */\n      dup3\n        /* \"#utility.yul\":2722:2757   */\n      mstore\n        /* \"#utility.yul\":2651:2763   */\n      pop\n      pop\n      jump\t// out\n        /* \"#utility.yul\":2769:2859   */\n    tag_45:\n        /* \"#utility.yul\":2803:2810   */\n      0x00\n        /* \"#utility.yul\":2846:2851   */\n      dup2\n        /* \"#utility.yul\":2839:2852   */\n      iszero\n        /* \"#utility.yul\":2832:2853   */\n      iszero\n        /* \"#utility.yul\":2821:2853   */\n      swap1\n      pop\n        /* \"#utility.yul\":2769:2859   */\n      swap2\n      swap1\n      pop\n      jump\t// out\n        /* \"#utility.yul\":2865:2974   */\n    tag_46:\n        /* \"#utility.yul\":2946:2967   */\n      tag_86\n        /* \"#utility.yul\":2961:2966   */\n      dup2\n        /* \"#utility.yul\":2946:2967   */\n      tag_45\n      jump\t// in\n    tag_86:\n        /* \"#utility.yul\":2941:2944   */\n      dup3\n        /* \"#utility.yul\":2934:2968   */\n      mstore\n        /* \"#utility.yul\":2865:2974   */\n      pop\n      pop\n      jump\t// out\n        /* \"#utility.yul\":2980:3402   */\n    tag_30:\n        /* \"#utility.yul\":3119:3123   */\n      0x00\n        /* \"#utility.yul\":3157:3159   */\n      0x60\n        /* \"#utility.yul\":3146:3155   */\n      dup3\n        /* \"#utility.yul\":3142:3160   */\n      add\n        /* \"#utility.yul\":3134:3160   */\n      swap1\n      pop\n        /* \"#utility.yul\":3170:3237   */\n      tag_88\n        /* \"#utility.yul\":3234:3235   */\n      0x00\n        /* \"#utility.yul\":3223:3232   */\n      dup4\n        /* \"#utility.yul\":3219:3236   */\n      add\n        /* \"#utility.yul\":3210:3216   */\n      dup7\n        /* \"#utility.yul\":3170:3237   */\n      tag_44\n      jump\t// in\n    tag_88:\n        /* \"#utility.yul\":3247:3319   */\n      tag_89\n        /* \"#utility.yul\":3315:3317   */\n      0x20\n        /* \"#utility.yul\":3304:3313   */\n      dup4\n        /* \"#utility.yul\":3300:3318   */\n      add\n        /* \"#utility.yul\":3291:3297   */\n      dup6\n        /* \"#utility.yul\":3247:3319   */\n      tag_38\n      jump\t// in\n    tag_89:\n        /* \"#utility.yul\":3329:3395   */\n      tag_90\n        /* \"#utility.yul\":3391:3393   */\n      0x40\n        /* \"#utility.yul\":3380:3389   */\n      dup4\n        /* \"#utility.yul\":3376:3394   */\n      add\n        /* \"#utility.yul\":3367:3373   */\n      dup5\n        /* \"#utility.yul\":3329:3395   */\n      tag_46\n      jump\t// in\n    tag_90:\n        /* \"#utility.yul\":2980:3402   */\n      swap5\n      swap4\n      pop\n      pop\n      pop\n      pop\n      jump\t// out\n\n    auxdata: 0xa2646970667358221220354a67134a2736d0513a0a78285f70bc44ea1cacf92ec6767e0363e052913bae64736f6c634300081e0033\n}\n",
				"bytecode": {
					"linkReferences": {},
					"object": "6080604052348015600e575f5ffd5b506103af8061001c5f395ff3fe608060405234801561000f575f5ffd5b5060043610610055575f3560e01c806376ca4f72146100595780638da5cb5b14610089578063b33187e7146100a7578063cc0e97c9146100d7578063f046395a146100f5575b5f5ffd5b610073600480360381019061006e9190610212565b610127565b6040516100809190610255565b60405180910390f35b61009161013c565b60405161009e91906102ad565b60405180910390f35b6100c160048036038101906100bc9190610212565b610161565b6040516100ce9190610255565b60405180910390f35b6100df610176565b6040516100ec91906102ad565b60405180910390f35b61010f600480360381019061010a91906102f0565b61019a565b60405161011e93929190610344565b60405180910390f35b6004602052805f5260405f205f915090505481565b60015f9054906101000a900473ffffffffffffffffffffffffffffffffffffffff1681565b6003602052805f5260405f205f915090505481565b5f5f9054906101000a900473ffffffffffffffffffffffffffffffffffffffff1681565b6002602052805f5260405f205f91509050805f015f9054906101000a900460ff1690806001015490806002015f9054906101000a900460ff16905083565b5f5ffd5b5f60ff82169050919050565b6101f1816101dc565b81146101fb575f5ffd5b50565b5f8135905061020c816101e8565b92915050565b5f60208284031215610227576102266101d8565b5b5f610234848285016101fe565b91505092915050565b5f819050919050565b61024f8161023d565b82525050565b5f6020820190506102685f830184610246565b92915050565b5f73ffffffffffffffffffffffffffffffffffffffff82169050919050565b5f6102978261026e565b9050919050565b6102a78161028d565b82525050565b5f6020820190506102c05f83018461029e565b92915050565b6102cf8161028d565b81146102d9575f5ffd5b50565b5f813590506102ea816102c6565b92915050565b5f60208284031215610305576103046101d8565b5b5f610312848285016102dc565b91505092915050565b610324816101dc565b82525050565b5f8115159050919050565b61033e8161032a565b82525050565b5f6060820190506103575f83018661031b565b6103646020830185610246565b6103716040830184610335565b94935050505056fea2646970667358221220354a67134a2736d0513a0a78285f70bc44ea1cacf92ec6767e0363e052913bae64736f6c634300081e0033",
					"opcodes": "PUSH1 0x80 PUSH1 0x40 MSTORE CALLVALUE DUP1 ISZERO PUSH1 0xE JUMPI PUSH0 PUSH0 REVERT JUMPDEST POP PUSH2 0x3AF DUP1 PUSH2 0x1C PUSH0 CODECOPY PUSH0 RETURN INVALID PUSH1 0x80 PUSH1 0x40 MSTORE CALLVALUE DUP1 ISZERO PUSH2 0xF JUMPI PUSH0 PUSH0 REVERT JUMPDEST POP PUSH1 0x4 CALLDATASIZE LT PUSH2 0x55 JUMPI PUSH0 CALLDATALOAD PUSH1 0xE0 SHR DUP1 PUSH4 0x76CA4F72 EQ PUSH2 0x59 JUMPI DUP1 PUSH4 0x8DA5CB5B EQ PUSH2 0x89 JUMPI DUP1 PUSH4 0xB33187E7 EQ PUSH2 0xA7 JUMPI DUP1 PUSH4 0xCC0E97C9 EQ PUSH2 0xD7 JUMPI DUP1 PUSH4 0xF046395A EQ PUSH2 0xF5 JUMPI JUMPDEST PUSH0 PUSH0 REVERT JUMPDEST PUSH2 0x73 PUSH1 0x4 DUP1 CALLDATASIZE SUB DUP2 ADD SWAP1 PUSH2 0x6E SWAP2 SWAP1 PUSH2 0x212 JUMP JUMPDEST PUSH2 0x127 JUMP JUMPDEST PUSH1 0x40 MLOAD PUSH2 0x80 SWAP2 SWAP1 PUSH2 0x255 JUMP JUMPDEST PUSH1 0x40 MLOAD DUP1 SWAP2 SUB SWAP1 RETURN JUMPDEST PUSH2 0x91 PUSH2 0x13C JUMP JUMPDEST PUSH1 0x40 MLOAD PUSH2 0x9E SWAP2 SWAP1 PUSH2 0x2AD JUMP JUMPDEST PUSH1 0x40 MLOAD DUP1 SWAP2 SUB SWAP1 RETURN JUMPDEST PUSH2 0xC1 PUSH1 0x4 DUP1 CALLDATASIZE SUB DUP2 ADD SWAP1 PUSH2 0xBC SWAP2 SWAP1 PUSH2 0x212 JUMP JUMPDEST PUSH2 0x161 JUMP JUMPDEST PUSH1 0x40 MLOAD PUSH2 0xCE SWAP2 SWAP1 PUSH2 0x255 JUMP JUMPDEST PUSH1 0x40 MLOAD DUP1 SWAP2 SUB SWAP1 RETURN JUMPDEST PUSH2 0xDF PUSH2 0x176 JUMP JUMPDEST PUSH1 0x40 MLOAD PUSH2 0xEC SWAP2 SWAP1 PUSH2 0x2AD JUMP JUMPDEST PUSH1 0x40 MLOAD DUP1 SWAP2 SUB SWAP1 RETURN JUMPDEST PUSH2 0x10F PUSH1 0x4 DUP1 CALLDATASIZE SUB DUP2 ADD SWAP1 PUSH2 0x10A SWAP2 SWAP1 PUSH2 0x2F0 JUMP JUMPDEST PUSH2 0x19A JUMP JUMPDEST PUSH1 0x40 MLOAD PUSH2 0x11E SWAP4 SWAP3 SWAP2 SWAP1 PUSH2 0x344 JUMP JUMPDEST PUSH1 0x40 MLOAD DUP1 SWAP2 SUB SWAP1 RETURN JUMPDEST PUSH1 0x4 PUSH1 0x20 MSTORE DUP1 PUSH0 MSTORE PUSH1 0x40 PUSH0 KECCAK256 PUSH0 SWAP2 POP SWAP1 POP SLOAD DUP2 JUMP JUMPDEST PUSH1 0x1 PUSH0 SWAP1 SLOAD SWAP1 PUSH2 0x100 EXP SWAP1 DIV PUSH20 0xFFFFFFFFFFFFFFFFFFFFFFFFFFFFFFFFFFFFFFFF AND DUP2 JUMP JUMPDEST PUSH1 0x3 PUSH1 0x20 MSTORE DUP1 PUSH0 MSTORE PUSH1 0x40 PUSH0 KECCAK256 PUSH0 SWAP2 POP SWAP1 POP SLOAD DUP2 JUMP JUMPDEST PUSH0 PUSH0 SWAP1 SLOAD SWAP1 PUSH2 0x100 EXP SWAP1 DIV PUSH20 0xFFFFFFFFFFFFFFFFFFFFFFFFFFFFFFFFFFFFFFFF AND DUP2 JUMP JUMPDEST PUSH1 0x2 PUSH1 0x20 MSTORE DUP1 PUSH0 MSTORE PUSH1 0x40 PUSH0 KECCAK256 PUSH0 SWAP2 POP SWAP1 POP DUP1 PUSH0 ADD PUSH0 SWAP1 SLOAD SWAP1 PUSH2 0x100 EXP SWAP1 DIV PUSH1 0xFF AND SWAP1 DUP1 PUSH1 0x1 ADD SLOAD SWAP1 DUP1 PUSH1 0x2 ADD PUSH0 SWAP1 SLOAD SWAP1 PUSH2 0x100 EXP SWAP1 DIV PUSH1 0xFF AND SWAP1 POP DUP4 JUMP JUMPDEST PUSH0 PUSH0 REVERT JUMPDEST PUSH0 PUSH1 0xFF DUP3 AND SWAP1 POP SWAP2 SWAP1 POP JUMP JUMPDEST PUSH2 0x1F1 DUP2 PUSH2 0x1DC JUMP JUMPDEST DUP2 EQ PUSH2 0x1FB JUMPI PUSH0 PUSH0 REVERT JUMPDEST POP JUMP JUMPDEST PUSH0 DUP2 CALLDATALOAD SWAP1 POP PUSH2 0x20C DUP2 PUSH2 0x1E8 JUMP JUMPDEST SWAP3 SWAP2 POP POP JUMP JUMPDEST PUSH0 PUSH1 0x20 DUP3 DUP5 SUB SLT ISZERO PUSH2 0x227 JUMPI PUSH2 0x226 PUSH2 0x1D8 JUMP JUMPDEST JUMPDEST PUSH0 PUSH2 0x234 DUP5 DUP3 DUP6 ADD PUSH2 0x1FE JUMP JUMPDEST SWAP2 POP POP SWAP3 SWAP2 POP POP JUMP JUMPDEST PUSH0 DUP2 SWAP1 POP SWAP2 SWAP1 POP JUMP JUMPDEST PUSH2 0x24F DUP2 PUSH2 0x23D JUMP JUMPDEST DUP3 MSTORE POP POP JUMP JUMPDEST PUSH0 PUSH1 0x20 DUP3 ADD SWAP1 POP PUSH2 0x268 PUSH0 DUP4 ADD DUP5 PUSH2 0x246 JUMP JUMPDEST SWAP3 SWAP2 POP POP JUMP JUMPDEST PUSH0 PUSH20 0xFFFFFFFFFFFFFFFFFFFFFFFFFFFFFFFFFFFFFFFF DUP3 AND SWAP1 POP SWAP2 SWAP1 POP JUMP JUMPDEST PUSH0 PUSH2 0x297 DUP3 PUSH2 0x26E JUMP JUMPDEST SWAP1 POP SWAP2 SWAP1 POP JUMP JUMPDEST PUSH2 0x2A7 DUP2 PUSH2 0x28D JUMP JUMPDEST DUP3 MSTORE POP POP JUMP JUMPDEST PUSH0 PUSH1 0x20 DUP3 ADD SWAP1 POP PUSH2 0x2C0 PUSH0 DUP4 ADD DUP5 PUSH2 0x29E JUMP JUMPDEST SWAP3 SWAP2 POP POP JUMP JUMPDEST PUSH2 0x2CF DUP2 PUSH2 0x28D JUMP JUMPDEST DUP2 EQ PUSH2 0x2D9 JUMPI PUSH0 PUSH0 REVERT JUMPDEST POP JUMP JUMPDEST PUSH0 DUP2 CALLDATALOAD SWAP1 POP PUSH2 0x2EA DUP2 PUSH2 0x2C6 JUMP JUMPDEST SWAP3 SWAP2 POP POP JUMP JUMPDEST PUSH0 PUSH1 0x20 DUP3 DUP5 SUB SLT ISZERO PUSH2 0x305 JUMPI PUSH2 0x304 PUSH2 0x1D8 JUMP JUMPDEST JUMPDEST PUSH0 PUSH2 0x312 DUP5 DUP3 DUP6 ADD PUSH2 0x2DC JUMP JUMPDEST SWAP2 POP POP SWAP3 SWAP2 POP POP JUMP JUMPDEST PUSH2 0x324 DUP2 PUSH2 0x1DC JUMP JUMPDEST DUP3 MSTORE POP POP JUMP JUMPDEST PUSH0 DUP2 ISZERO ISZERO SWAP1 POP SWAP2 SWAP1 POP JUMP JUMPDEST PUSH2 0x33E DUP2 PUSH2 0x32A JUMP JUMPDEST DUP3 MSTORE POP POP JUMP JUMPDEST PUSH0 PUSH1 0x60 DUP3 ADD SWAP1 POP PUSH2 0x357 PUSH0 DUP4 ADD DUP7 PUSH2 0x31B JUMP JUMPDEST PUSH2 0x364 PUSH1 0x20 DUP4 ADD DUP6 PUSH2 0x246 JUMP JUMPDEST PUSH2 0x371 PUSH1 0x40 DUP4 ADD DUP5 PUSH2 0x335 JUMP JUMPDEST SWAP5 SWAP4 POP POP POP POP JUMP INVALID LOG2 PUSH5 0x6970667358 0x22 SLT KECCAK256 CALLDATALOAD BLOBBASEFEE PUSH8 0x134A2736D0513A0A PUSH25 0x285F70BC44EA1CACF92EC6767E0363E052913BAE64736F6C63 NUMBER STOP ADDMOD 0x1E STOP CALLER "
				},
				"gasEstimates": {
					"creation": {
						"codeDepositCost": "188600",
						"executionCost": "230",
						"totalCost": "188830"
					},
					"external": {
						"logicContract()": "2551",
						"owner()": "2508",
						"planDuration(uint8)": "2738",
						"planPrices(uint8)": "2782",
						"subscriptions(address)": "7385"
					}
				},
				"methodIdentifiers": {
					"logicContract()": "cc0e97c9",
					"owner()": "8da5cb5b",
					"planDuration(uint8)": "76ca4f72",
					"planPrices(uint8)": "b33187e7",
					"subscriptions(address)": "f046395a"
				}
			},
			"storageLayout": {
				"storage": [
					{
						"astId": 129,
						"contract": "submissions/CCan_08/Day17/SubscriptionStorageLayout.sol:SubscriptionStorageLayout",
						"label": "logicContract",
						"offset": 0,
						"slot": "0",
						"type": "t_address"
					},
					{
						"astId": 131,
						"contract": "submissions/CCan_08/Day17/SubscriptionStorageLayout.sol:SubscriptionStorageLayout",
						"label": "owner",
						"offset": 0,
						"slot": "1",
						"type": "t_address"
					},
					{
						"astId": 143,
						"contract": "submissions/CCan_08/Day17/SubscriptionStorageLayout.sol:SubscriptionStorageLayout",
						"label": "subscriptions",
						"offset": 0,
						"slot": "2",
						"type": "t_mapping(t_address,t_struct(Subscription)138_storage)"
					},
					{
						"astId": 147,
						"contract": "submissions/CCan_08/Day17/SubscriptionStorageLayout.sol:SubscriptionStorageLayout",
						"label": "planPrices",
						"offset": 0,
						"slot": "3",
						"type": "t_mapping(t_uint8,t_uint256)"
					},
					{
						"astId": 151,
						"contract": "submissions/CCan_08/Day17/SubscriptionStorageLayout.sol:SubscriptionStorageLayout",
						"label": "planDuration",
						"offset": 0,
						"slot": "4",
						"type": "t_mapping(t_uint8,t_uint256)"
					}
				],
				"types": {
					"t_address": {
						"encoding": "inplace",
						"label": "address",
						"numberOfBytes": "20"
					},
					"t_bool": {
						"encoding": "inplace",
						"label": "bool",
						"numberOfBytes": "1"
					},
					"t_mapping(t_address,t_struct(Subscription)138_storage)": {
						"encoding": "mapping",
						"key": "t_address",
						"label": "mapping(address => struct SubscriptionStorageLayout.Subscription)",
						"numberOfBytes": "32",
						"value": "t_struct(Subscription)138_storage"
					},
					"t_mapping(t_uint8,t_uint256)": {
						"encoding": "mapping",
						"key": "t_uint8",
						"label": "mapping(uint8 => uint256)",
						"numberOfBytes": "32",
						"value": "t_uint256"
					},
					"t_struct(Subscription)138_storage": {
						"encoding": "inplace",
						"label": "struct SubscriptionStorageLayout.Subscription",
						"members": [
							{
								"astId": 133,
								"contract": "submissions/CCan_08/Day17/SubscriptionStorageLayout.sol:SubscriptionStorageLayout",
								"label": "planId",
								"offset": 0,
								"slot": "0",
								"type": "t_uint8"
							},
							{
								"astId": 135,
								"contract": "submissions/CCan_08/Day17/SubscriptionStorageLayout.sol:SubscriptionStorageLayout",
								"label": "expiry",
								"offset": 0,
								"slot": "1",
								"type": "t_uint256"
							},
							{
								"astId": 137,
								"contract": "submissions/CCan_08/Day17/SubscriptionStorageLayout.sol:SubscriptionStorageLayout",
								"label": "paused",
								"offset": 0,
								"slot": "2",
								"type": "t_bool"
							}
						],
						"numberOfBytes": "96"
					},
					"t_uint256": {
						"encoding": "inplace",
						"label": "uint256",
						"numberOfBytes": "32"
					},
					"t_uint8": {
						"encoding": "inplace",
						"label": "uint8",
						"numberOfBytes": "1"
					}
				}
			},
			"userdoc": {
				"kind": "user",
				"methods": {},
				"version": 1
			}
		}
	}
}