{
	"submissions/CCan_08/Day17/SubscriptionLogicV1.sol": {
		"SubscriptionLogicV1": {
			"abi": [
				{
					"inputs": [
						{
							"internalType": "uint8",
							"name": "planId",
							"type": "uint8"
						},
						{
							"internalType": "uint256",
							"name": "price",
							"type": "uint256"
						},
						{
							"internalType": "uint256",
							"name": "duration",
							"type": "uint256"
						}
					],
					"name": "addPlan",
					"outputs": [],
					"stateMutability": "nonpayable",
					"type": "function"
				},
				{
					"inputs": [
						{
							"internalType": "address",
							"name": "user",
							"type": "address"
						}
					],
					"name": "isActive",
					"outputs": [
						{
							"internalType": "bool",
							"name": "",
							"type": "bool"
						}
					],
					"stateMutability": "view",
					"type": "function"
				},
				{
					"inputs": [],
					"name": "logicContract",
					"outputs": [
						{
							"internalType": "address",
							"name": "",
							"type": "address"
						}
					],
					"stateMutability": "view",
					"type": "function"
				},
				{
					"inputs": [],
					"name": "owner",
					"outputs": [
						{
							"internalType": "address",
							"name": "",
							"type": "address"
						}
					],
					"stateMutability": "view",
					"type": "function"
				},
				{
					"inputs": [
						{
							"internalType": "uint8",
							"name": "",
							"type": "uint8"
						}
					],
					"name": "planDuration",
					"outputs": [
						{
							"internalType": "uint256",
							"name": "",
							"type": "uint256"
						}
					],
					"stateMutability": "view",
					"type": "function"
				},
				{
					"inputs": [
						{
							"internalType": "uint8",
							"name": "",
							"type": "uint8"
						}
					],
					"name": "planPrices",
					"outputs": [
						{
							"internalType": "uint256",
							"name": "",
							"type": "uint256"
						}
					],
					"stateMutability": "view",
					"type": "function"
				},
				{
					"inputs": [
						{
							"internalType": "uint8",
							"name": "planId",
							"type": "uint8"
						}
					],
					"name": "subscribe",
					"outputs": [],
					"stateMutability": "payable",
					"type": "function"
				},
				{
					"inputs": [
						{
							"internalType": "address",
							"name": "",
							"type": "address"
						}
					],
					"name": "subscriptions",
					"outputs": [
						{
							"internalType": "uint8",
							"name": "planId",
							"type": "uint8"
						},
						{
							"internalType": "uint256",
							"name": "expiry",
							"type": "uint256"
						},
						{
							"internalType": "bool",
							"name": "paused",
							"type": "bool"
						}
					],
					"stateMutability": "view",
					"type": "function"
				}
			],
			"devdoc": {
				"kind": "dev",
				"methods": {},
				"version": 1
			},
			"evm": {
				"assembly": "    /* \"submissions/CCan_08/Day17/SubscriptionLogicV1.sol\":102:997  contract SubscriptionLogicV1 is SubscriptionStorageLayout {... */\n  mstore(0x40, 0x80)\n  callvalue\n  dup1\n  iszero\n  tag_1\n  jumpi\n  revert(0x00, 0x00)\ntag_1:\n  pop\n  dataSize(sub_0)\n  dup1\n  dataOffset(sub_0)\n  0x00\n  codecopy\n  0x00\n  return\nstop\n\nsub_0: assembly {\n        /* \"submissions/CCan_08/Day17/SubscriptionLogicV1.sol\":102:997  contract SubscriptionLogicV1 is SubscriptionStorageLayout {... */\n      mstore(0x40, 0x80)\n      jumpi(tag_1, lt(calldatasize, 0x04))\n      shr(0xe0, calldataload(0x00))\n      dup1\n      0xb33187e7\n      gt\n      tag_10\n      jumpi\n      dup1\n      0xb33187e7\n      eq\n      tag_6\n      jumpi\n      dup1\n      0xcc0e97c9\n      eq\n      tag_7\n      jumpi\n      dup1\n      0xcc2d49d8\n      eq\n      tag_8\n      jumpi\n      dup1\n      0xf046395a\n      eq\n      tag_9\n      jumpi\n      jump(tag_1)\n    tag_10:\n      dup1\n      0x49c7e639\n      eq\n      tag_2\n      jumpi\n      dup1\n      0x76ca4f72\n      eq\n      tag_3\n      jumpi\n      dup1\n      0x8da5cb5b\n      eq\n      tag_4\n      jumpi\n      dup1\n      0x9f8a13d7\n      eq\n      tag_5\n      jumpi\n    tag_1:\n      revert(0x00, 0x00)\n        /* \"submissions/CCan_08/Day17/SubscriptionLogicV1.sol\":329:810  function subscribe(uint8 planId) external payable {... */\n    tag_2:\n      tag_11\n      0x04\n      dup1\n      calldatasize\n      sub\n      dup2\n      add\n      swap1\n      tag_12\n      swap2\n      swap1\n      tag_13\n      jump\t// in\n    tag_12:\n      tag_14\n      jump\t// in\n    tag_11:\n      stop\n        /* \"submissions/CCan_08/Day17/SubscriptionStorageLayout.sol\":369:414  mapping(uint8 => uint256) public planDuration */\n    tag_3:\n      callvalue\n      dup1\n      iszero\n      tag_15\n      jumpi\n      revert(0x00, 0x00)\n    tag_15:\n      pop\n      tag_16\n      0x04\n      dup1\n      calldatasize\n      sub\n      dup2\n      add\n      swap1\n      tag_17\n      swap2\n      swap1\n      tag_13\n      jump\t// in\n    tag_17:\n      tag_18\n      jump\t// in\n    tag_16:\n      mload(0x40)\n      tag_19\n      swap2\n      swap1\n      tag_20\n      jump\t// in\n    tag_19:\n      mload(0x40)\n      dup1\n      swap2\n      sub\n      swap1\n      return\n        /* \"submissions/CCan_08/Day17/SubscriptionStorageLayout.sol\":134:154  address public owner */\n    tag_4:\n      callvalue\n      dup1\n      iszero\n      tag_21\n      jumpi\n      revert(0x00, 0x00)\n    tag_21:\n      pop\n      tag_22\n      tag_23\n      jump\t// in\n    tag_22:\n      mload(0x40)\n      tag_24\n      swap2\n      swap1\n      tag_25\n      jump\t// in\n    tag_24:\n      mload(0x40)\n      dup1\n      swap2\n      sub\n      swap1\n      return\n        /* \"submissions/CCan_08/Day17/SubscriptionLogicV1.sol\":816:995  function isActive(address user) external view returns (bool) {... */\n    tag_5:\n      callvalue\n      dup1\n      iszero\n      tag_26\n      jumpi\n      revert(0x00, 0x00)\n    tag_26:\n      pop\n      tag_27\n      0x04\n      dup1\n      calldatasize\n      sub\n      dup2\n      add\n      swap1\n      tag_28\n      swap2\n      swap1\n      tag_29\n      jump\t// in\n    tag_28:\n      tag_30\n      jump\t// in\n    tag_27:\n      mload(0x40)\n      tag_31\n      swap2\n      swap1\n      tag_32\n      jump\t// in\n    tag_31:\n      mload(0x40)\n      dup1\n      swap2\n      sub\n      swap1\n      return\n        /* \"submissions/CCan_08/Day17/SubscriptionStorageLayout.sol\":320:363  mapping(uint8 => uint256) public planPrices */\n    tag_6:\n      callvalue\n      dup1\n      iszero\n      tag_33\n      jumpi\n      revert(0x00, 0x00)\n    tag_33:\n      pop\n      tag_34\n      0x04\n      dup1\n      calldatasize\n      sub\n      dup2\n      add\n      swap1\n      tag_35\n      swap2\n      swap1\n      tag_13\n      jump\t// in\n    tag_35:\n      tag_36\n      jump\t// in\n    tag_34:\n      mload(0x40)\n      tag_37\n      swap2\n      swap1\n      tag_20\n      jump\t// in\n    tag_37:\n      mload(0x40)\n      dup1\n      swap2\n      sub\n      swap1\n      return\n        /* \"submissions/CCan_08/Day17/SubscriptionStorageLayout.sol\":100:128  address public logicContract */\n    tag_7:\n      callvalue\n      dup1\n      iszero\n      tag_38\n      jumpi\n      revert(0x00, 0x00)\n    tag_38:\n      pop\n      tag_39\n      tag_40\n      jump\t// in\n    tag_39:\n      mload(0x40)\n      tag_41\n      swap2\n      swap1\n      tag_25\n      jump\t// in\n    tag_41:\n      mload(0x40)\n      dup1\n      swap2\n      sub\n      swap1\n      return\n        /* \"submissions/CCan_08/Day17/SubscriptionLogicV1.sol\":166:323  function addPlan(uint8 planId, uint256 price, uint256 duration) external {... */\n    tag_8:\n      callvalue\n      dup1\n      iszero\n      tag_42\n      jumpi\n      revert(0x00, 0x00)\n    tag_42:\n      pop\n      tag_43\n      0x04\n      dup1\n      calldatasize\n      sub\n      dup2\n      add\n      swap1\n      tag_44\n      swap2\n      swap1\n      tag_45\n      jump\t// in\n    tag_44:\n      tag_46\n      jump\t// in\n    tag_43:\n      stop\n        /* \"submissions/CCan_08/Day17/SubscriptionStorageLayout.sol\":261:314  mapping(address => Subscription) public subscriptions */\n    tag_9:\n      callvalue\n      dup1\n      iszero\n      tag_47\n      jumpi\n      revert(0x00, 0x00)\n    tag_47:\n      pop\n      tag_48\n      0x04\n      dup1\n      calldatasize\n      sub\n      dup2\n      add\n      swap1\n      tag_49\n      swap2\n      swap1\n      tag_29\n      jump\t// in\n    tag_49:\n      tag_50\n      jump\t// in\n    tag_48:\n      mload(0x40)\n      tag_51\n      swap4\n      swap3\n      swap2\n      swap1\n      tag_52\n      jump\t// in\n    tag_51:\n      mload(0x40)\n      dup1\n      swap2\n      sub\n      swap1\n      return\n        /* \"submissions/CCan_08/Day17/SubscriptionLogicV1.sol\":329:810  function subscribe(uint8 planId) external payable {... */\n    tag_14:\n        /* \"submissions/CCan_08/Day17/SubscriptionLogicV1.sol\":418:419  0 */\n      0x00\n        /* \"submissions/CCan_08/Day17/SubscriptionLogicV1.sol\":397:407  planPrices */\n      0x03\n        /* \"submissions/CCan_08/Day17/SubscriptionLogicV1.sol\":397:415  planPrices[planId] */\n      0x00\n        /* \"submissions/CCan_08/Day17/SubscriptionLogicV1.sol\":408:414  planId */\n      dup4\n        /* \"submissions/CCan_08/Day17/SubscriptionLogicV1.sol\":397:415  planPrices[planId] */\n      0xff\n      and\n      0xff\n      and\n      dup2\n      mstore\n      0x20\n      add\n      swap1\n      dup2\n      mstore\n      0x20\n      add\n      0x00\n      keccak256\n      sload\n        /* \"submissions/CCan_08/Day17/SubscriptionLogicV1.sol\":397:419  planPrices[planId] > 0 */\n      gt\n        /* \"submissions/CCan_08/Day17/SubscriptionLogicV1.sol\":389:436  require(planPrices[planId] > 0, \"Invalid plan\") */\n      tag_54\n      jumpi\n      mload(0x40)\n      0x08c379a000000000000000000000000000000000000000000000000000000000\n      dup2\n      mstore\n      0x04\n      add\n      tag_55\n      swap1\n      tag_56\n      jump\t// in\n    tag_55:\n      mload(0x40)\n      dup1\n      swap2\n      sub\n      swap1\n      revert\n    tag_54:\n        /* \"submissions/CCan_08/Day17/SubscriptionLogicV1.sol\":467:477  planPrices */\n      0x03\n        /* \"submissions/CCan_08/Day17/SubscriptionLogicV1.sol\":467:485  planPrices[planId] */\n      0x00\n        /* \"submissions/CCan_08/Day17/SubscriptionLogicV1.sol\":478:484  planId */\n      dup3\n        /* \"submissions/CCan_08/Day17/SubscriptionLogicV1.sol\":467:485  planPrices[planId] */\n      0xff\n      and\n      0xff\n      and\n      dup2\n      mstore\n      0x20\n      add\n      swap1\n      dup2\n      mstore\n      0x20\n      add\n      0x00\n      keccak256\n      sload\n        /* \"submissions/CCan_08/Day17/SubscriptionLogicV1.sol\":454:463  msg.value */\n      callvalue\n        /* \"submissions/CCan_08/Day17/SubscriptionLogicV1.sol\":454:485  msg.value >= planPrices[planId] */\n      lt\n      iszero\n        /* \"submissions/CCan_08/Day17/SubscriptionLogicV1.sol\":446:510  require(msg.value >= planPrices[planId], \"Insufficient payment\") */\n      tag_57\n      jumpi\n      mload(0x40)\n      0x08c379a000000000000000000000000000000000000000000000000000000000\n      dup2\n      mstore\n      0x04\n      add\n      tag_58\n      swap1\n      tag_59\n      jump\t// in\n    tag_58:\n      mload(0x40)\n      dup1\n      swap2\n      sub\n      swap1\n      revert\n    tag_57:\n        /* \"submissions/CCan_08/Day17/SubscriptionLogicV1.sol\":521:543  Subscription storage s */\n      0x00\n        /* \"submissions/CCan_08/Day17/SubscriptionLogicV1.sol\":546:559  subscriptions */\n      0x02\n        /* \"submissions/CCan_08/Day17/SubscriptionLogicV1.sol\":546:571  subscriptions[msg.sender] */\n      0x00\n        /* \"submissions/CCan_08/Day17/SubscriptionLogicV1.sol\":560:570  msg.sender */\n      caller\n        /* \"submissions/CCan_08/Day17/SubscriptionLogicV1.sol\":546:571  subscriptions[msg.sender] */\n      0xffffffffffffffffffffffffffffffffffffffff\n      and\n      0xffffffffffffffffffffffffffffffffffffffff\n      and\n      dup2\n      mstore\n      0x20\n      add\n      swap1\n      dup2\n      mstore\n      0x20\n      add\n      0x00\n      keccak256\n        /* \"submissions/CCan_08/Day17/SubscriptionLogicV1.sol\":521:571  Subscription storage s = subscriptions[msg.sender] */\n      swap1\n      pop\n        /* \"submissions/CCan_08/Day17/SubscriptionLogicV1.sol\":603:604  s */\n      dup1\n        /* \"submissions/CCan_08/Day17/SubscriptionLogicV1.sol\":603:611  s.expiry */\n      0x01\n      add\n      sload\n        /* \"submissions/CCan_08/Day17/SubscriptionLogicV1.sol\":585:600  block.timestamp */\n      timestamp\n        /* \"submissions/CCan_08/Day17/SubscriptionLogicV1.sol\":585:611  block.timestamp < s.expiry */\n      lt\n        /* \"submissions/CCan_08/Day17/SubscriptionLogicV1.sol\":581:750  if (block.timestamp < s.expiry) {... */\n      iszero\n      tag_60\n      jumpi\n        /* \"submissions/CCan_08/Day17/SubscriptionLogicV1.sol\":639:651  planDuration */\n      0x04\n        /* \"submissions/CCan_08/Day17/SubscriptionLogicV1.sol\":639:659  planDuration[planId] */\n      0x00\n        /* \"submissions/CCan_08/Day17/SubscriptionLogicV1.sol\":652:658  planId */\n      dup4\n        /* \"submissions/CCan_08/Day17/SubscriptionLogicV1.sol\":639:659  planDuration[planId] */\n      0xff\n      and\n      0xff\n      and\n      dup2\n      mstore\n      0x20\n      add\n      swap1\n      dup2\n      mstore\n      0x20\n      add\n      0x00\n      keccak256\n      sload\n        /* \"submissions/CCan_08/Day17/SubscriptionLogicV1.sol\":627:628  s */\n      dup2\n        /* \"submissions/CCan_08/Day17/SubscriptionLogicV1.sol\":627:635  s.expiry */\n      0x01\n      add\n      0x00\n        /* \"submissions/CCan_08/Day17/SubscriptionLogicV1.sol\":627:659  s.expiry += planDuration[planId] */\n      dup3\n      dup3\n      sload\n      tag_61\n      swap2\n      swap1\n      tag_62\n      jump\t// in\n    tag_61:\n      swap3\n      pop\n      pop\n      dup2\n      swap1\n      sstore\n      pop\n        /* \"submissions/CCan_08/Day17/SubscriptionLogicV1.sol\":581:750  if (block.timestamp < s.expiry) {... */\n      jump(tag_63)\n    tag_60:\n        /* \"submissions/CCan_08/Day17/SubscriptionLogicV1.sol\":719:731  planDuration */\n      0x04\n        /* \"submissions/CCan_08/Day17/SubscriptionLogicV1.sol\":719:739  planDuration[planId] */\n      0x00\n        /* \"submissions/CCan_08/Day17/SubscriptionLogicV1.sol\":732:738  planId */\n      dup4\n        /* \"submissions/CCan_08/Day17/SubscriptionLogicV1.sol\":719:739  planDuration[planId] */\n      0xff\n      and\n      0xff\n      and\n      dup2\n      mstore\n      0x20\n      add\n      swap1\n      dup2\n      mstore\n      0x20\n      add\n      0x00\n      keccak256\n      sload\n        /* \"submissions/CCan_08/Day17/SubscriptionLogicV1.sol\":701:716  block.timestamp */\n      timestamp\n        /* \"submissions/CCan_08/Day17/SubscriptionLogicV1.sol\":701:739  block.timestamp + planDuration[planId] */\n      tag_64\n      swap2\n      swap1\n      tag_62\n      jump\t// in\n    tag_64:\n        /* \"submissions/CCan_08/Day17/SubscriptionLogicV1.sol\":690:691  s */\n      dup2\n        /* \"submissions/CCan_08/Day17/SubscriptionLogicV1.sol\":690:698  s.expiry */\n      0x01\n      add\n        /* \"submissions/CCan_08/Day17/SubscriptionLogicV1.sol\":690:739  s.expiry = block.timestamp + planDuration[planId] */\n      dup2\n      swap1\n      sstore\n      pop\n        /* \"submissions/CCan_08/Day17/SubscriptionLogicV1.sol\":581:750  if (block.timestamp < s.expiry) {... */\n    tag_63:\n        /* \"submissions/CCan_08/Day17/SubscriptionLogicV1.sol\":771:777  planId */\n      dup2\n        /* \"submissions/CCan_08/Day17/SubscriptionLogicV1.sol\":760:761  s */\n      dup2\n        /* \"submissions/CCan_08/Day17/SubscriptionLogicV1.sol\":760:768  s.planId */\n      0x00\n      add\n      0x00\n        /* \"submissions/CCan_08/Day17/SubscriptionLogicV1.sol\":760:777  s.planId = planId */\n      0x0100\n      exp\n      dup2\n      sload\n      dup2\n      0xff\n      mul\n      not\n      and\n      swap1\n      dup4\n      0xff\n      and\n      mul\n      or\n      swap1\n      sstore\n      pop\n        /* \"submissions/CCan_08/Day17/SubscriptionLogicV1.sol\":798:803  false */\n      0x00\n        /* \"submissions/CCan_08/Day17/SubscriptionLogicV1.sol\":787:788  s */\n      dup2\n        /* \"submissions/CCan_08/Day17/SubscriptionLogicV1.sol\":787:795  s.paused */\n      0x02\n      add\n      0x00\n        /* \"submissions/CCan_08/Day17/SubscriptionLogicV1.sol\":787:803  s.paused = false */\n      0x0100\n      exp\n      dup2\n      sload\n      dup2\n      0xff\n      mul\n      not\n      and\n      swap1\n      dup4\n      iszero\n      iszero\n      mul\n      or\n      swap1\n      sstore\n      pop\n        /* \"submissions/CCan_08/Day17/SubscriptionLogicV1.sol\":379:810  {... */\n      pop\n        /* \"submissions/CCan_08/Day17/SubscriptionLogicV1.sol\":329:810  function subscribe(uint8 planId) external payable {... */\n      pop\n      jump\t// out\n        /* \"submissions/CCan_08/Day17/SubscriptionStorageLayout.sol\":369:414  mapping(uint8 => uint256) public planDuration */\n    tag_18:\n      mstore(0x20, 0x04)\n      dup1\n      0x00\n      mstore\n      keccak256(0x00, 0x40)\n      0x00\n      swap2\n      pop\n      swap1\n      pop\n      sload\n      dup2\n      jump\t// out\n        /* \"submissions/CCan_08/Day17/SubscriptionStorageLayout.sol\":134:154  address public owner */\n    tag_23:\n      0x01\n      0x00\n      swap1\n      sload\n      swap1\n      0x0100\n      exp\n      swap1\n      div\n      0xffffffffffffffffffffffffffffffffffffffff\n      and\n      dup2\n      jump\t// out\n        /* \"submissions/CCan_08/Day17/SubscriptionLogicV1.sol\":816:995  function isActive(address user) external view returns (bool) {... */\n    tag_30:\n        /* \"submissions/CCan_08/Day17/SubscriptionLogicV1.sol\":871:875  bool */\n      0x00\n        /* \"submissions/CCan_08/Day17/SubscriptionLogicV1.sol\":887:908  Subscription memory s */\n      0x00\n        /* \"submissions/CCan_08/Day17/SubscriptionLogicV1.sol\":911:924  subscriptions */\n      0x02\n        /* \"submissions/CCan_08/Day17/SubscriptionLogicV1.sol\":911:930  subscriptions[user] */\n      0x00\n        /* \"submissions/CCan_08/Day17/SubscriptionLogicV1.sol\":925:929  user */\n      dup5\n        /* \"submissions/CCan_08/Day17/SubscriptionLogicV1.sol\":911:930  subscriptions[user] */\n      0xffffffffffffffffffffffffffffffffffffffff\n      and\n      0xffffffffffffffffffffffffffffffffffffffff\n      and\n      dup2\n      mstore\n      0x20\n      add\n      swap1\n      dup2\n      mstore\n      0x20\n      add\n      0x00\n      keccak256\n        /* \"submissions/CCan_08/Day17/SubscriptionLogicV1.sol\":887:930  Subscription memory s = subscriptions[user] */\n      mload(0x40)\n      dup1\n      0x60\n      add\n      0x40\n      mstore\n      swap1\n      dup2\n      0x00\n      dup3\n      add\n      0x00\n      swap1\n      sload\n      swap1\n      0x0100\n      exp\n      swap1\n      div\n      0xff\n      and\n      0xff\n      and\n      0xff\n      and\n      dup2\n      mstore\n      0x20\n      add\n      0x01\n      dup3\n      add\n      sload\n      dup2\n      mstore\n      0x20\n      add\n      0x02\n      dup3\n      add\n      0x00\n      swap1\n      sload\n      swap1\n      0x0100\n      exp\n      swap1\n      div\n      0xff\n      and\n      iszero\n      iszero\n      iszero\n      iszero\n      dup2\n      mstore\n      pop\n      pop\n      swap1\n      pop\n        /* \"submissions/CCan_08/Day17/SubscriptionLogicV1.sol\":966:967  s */\n      dup1\n        /* \"submissions/CCan_08/Day17/SubscriptionLogicV1.sol\":966:974  s.expiry */\n      0x20\n      add\n      mload\n        /* \"submissions/CCan_08/Day17/SubscriptionLogicV1.sol\":948:963  block.timestamp */\n      timestamp\n        /* \"submissions/CCan_08/Day17/SubscriptionLogicV1.sol\":948:974  block.timestamp < s.expiry */\n      lt\n        /* \"submissions/CCan_08/Day17/SubscriptionLogicV1.sol\":948:987  block.timestamp < s.expiry && !s.paused */\n      dup1\n      iszero\n      tag_66\n      jumpi\n      pop\n        /* \"submissions/CCan_08/Day17/SubscriptionLogicV1.sol\":979:980  s */\n      dup1\n        /* \"submissions/CCan_08/Day17/SubscriptionLogicV1.sol\":979:987  s.paused */\n      0x40\n      add\n      mload\n        /* \"submissions/CCan_08/Day17/SubscriptionLogicV1.sol\":978:987  !s.paused */\n      iszero\n        /* \"submissions/CCan_08/Day17/SubscriptionLogicV1.sol\":948:987  block.timestamp < s.expiry && !s.paused */\n    tag_66:\n        /* \"submissions/CCan_08/Day17/SubscriptionLogicV1.sol\":940:988  return (block.timestamp < s.expiry && !s.paused) */\n      swap2\n      pop\n      pop\n        /* \"submissions/CCan_08/Day17/SubscriptionLogicV1.sol\":816:995  function isActive(address user) external view returns (bool) {... */\n      swap2\n      swap1\n      pop\n      jump\t// out\n        /* \"submissions/CCan_08/Day17/SubscriptionStorageLayout.sol\":320:363  mapping(uint8 => uint256) public planPrices */\n    tag_36:\n      mstore(0x20, 0x03)\n      dup1\n      0x00\n      mstore\n      keccak256(0x00, 0x40)\n      0x00\n      swap2\n      pop\n      swap1\n      pop\n      sload\n      dup2\n      jump\t// out\n        /* \"submissions/CCan_08/Day17/SubscriptionStorageLayout.sol\":100:128  address public logicContract */\n    tag_40:\n      0x00\n      0x00\n      swap1\n      sload\n      swap1\n      0x0100\n      exp\n      swap1\n      div\n      0xffffffffffffffffffffffffffffffffffffffff\n      and\n      dup2\n      jump\t// out\n        /* \"submissions/CCan_08/Day17/SubscriptionLogicV1.sol\":166:323  function addPlan(uint8 planId, uint256 price, uint256 duration) external {... */\n    tag_46:\n        /* \"submissions/CCan_08/Day17/SubscriptionLogicV1.sol\":270:275  price */\n      dup2\n        /* \"submissions/CCan_08/Day17/SubscriptionLogicV1.sol\":249:259  planPrices */\n      0x03\n        /* \"submissions/CCan_08/Day17/SubscriptionLogicV1.sol\":249:267  planPrices[planId] */\n      0x00\n        /* \"submissions/CCan_08/Day17/SubscriptionLogicV1.sol\":260:266  planId */\n      dup6\n        /* \"submissions/CCan_08/Day17/SubscriptionLogicV1.sol\":249:267  planPrices[planId] */\n      0xff\n      and\n      0xff\n      and\n      dup2\n      mstore\n      0x20\n      add\n      swap1\n      dup2\n      mstore\n      0x20\n      add\n      0x00\n      keccak256\n        /* \"submissions/CCan_08/Day17/SubscriptionLogicV1.sol\":249:275  planPrices[planId] = price */\n      dup2\n      swap1\n      sstore\n      pop\n        /* \"submissions/CCan_08/Day17/SubscriptionLogicV1.sol\":308:316  duration */\n      dup1\n        /* \"submissions/CCan_08/Day17/SubscriptionLogicV1.sol\":285:297  planDuration */\n      0x04\n        /* \"submissions/CCan_08/Day17/SubscriptionLogicV1.sol\":285:305  planDuration[planId] */\n      0x00\n        /* \"submissions/CCan_08/Day17/SubscriptionLogicV1.sol\":298:304  planId */\n      dup6\n        /* \"submissions/CCan_08/Day17/SubscriptionLogicV1.sol\":285:305  planDuration[planId] */\n      0xff\n      and\n      0xff\n      and\n      dup2\n      mstore\n      0x20\n      add\n      swap1\n      dup2\n      mstore\n      0x20\n      add\n      0x00\n      keccak256\n        /* \"submissions/CCan_08/Day17/SubscriptionLogicV1.sol\":285:316  planDuration[planId] = duration */\n      dup2\n      swap1\n      sstore\n      pop\n        /* \"submissions/CCan_08/Day17/SubscriptionLogicV1.sol\":166:323  function addPlan(uint8 planId, uint256 price, uint256 duration) external {... */\n      pop\n      pop\n      pop\n      jump\t// out\n        /* \"submissions/CCan_08/Day17/SubscriptionStorageLayout.sol\":261:314  mapping(address => Subscription) public subscriptions */\n    tag_50:\n      mstore(0x20, 0x02)\n      dup1\n      0x00\n      mstore\n      keccak256(0x00, 0x40)\n      0x00\n      swap2\n      pop\n      swap1\n      pop\n      dup1\n      0x00\n      add\n      0x00\n      swap1\n      sload\n      swap1\n      0x0100\n      exp\n      swap1\n      div\n      0xff\n      and\n      swap1\n      dup1\n      0x01\n      add\n      sload\n      swap1\n      dup1\n      0x02\n      add\n      0x00\n      swap1\n      sload\n      swap1\n      0x0100\n      exp\n      swap1\n      div\n      0xff\n      and\n      swap1\n      pop\n      dup4\n      jump\t// out\n        /* \"#utility.yul\":88:205   */\n    tag_69:\n        /* \"#utility.yul\":197:198   */\n      0x00\n        /* \"#utility.yul\":194:195   */\n      0x00\n        /* \"#utility.yul\":187:199   */\n      revert\n        /* \"#utility.yul\":334:420   */\n    tag_71:\n        /* \"#utility.yul\":369:376   */\n      0x00\n        /* \"#utility.yul\":409:413   */\n      0xff\n        /* \"#utility.yul\":402:407   */\n      dup3\n        /* \"#utility.yul\":398:414   */\n      and\n        /* \"#utility.yul\":387:414   */\n      swap1\n      pop\n        /* \"#utility.yul\":334:420   */\n      swap2\n      swap1\n      pop\n      jump\t// out\n        /* \"#utility.yul\":426:544   */\n    tag_72:\n        /* \"#utility.yul\":497:519   */\n      tag_98\n        /* \"#utility.yul\":513:518   */\n      dup2\n        /* \"#utility.yul\":497:519   */\n      tag_71\n      jump\t// in\n    tag_98:\n        /* \"#utility.yul\":490:495   */\n      dup2\n        /* \"#utility.yul\":487:520   */\n      eq\n        /* \"#utility.yul\":477:538   */\n      tag_99\n      jumpi\n        /* \"#utility.yul\":534:535   */\n      0x00\n        /* \"#utility.yul\":531:532   */\n      0x00\n        /* \"#utility.yul\":524:536   */\n      revert\n        /* \"#utility.yul\":477:538   */\n    tag_99:\n        /* \"#utility.yul\":426:544   */\n      pop\n      jump\t// out\n        /* \"#utility.yul\":550:685   */\n    tag_73:\n        /* \"#utility.yul\":594:599   */\n      0x00\n        /* \"#utility.yul\":632:638   */\n      dup2\n        /* \"#utility.yul\":619:639   */\n      calldataload\n        /* \"#utility.yul\":610:639   */\n      swap1\n      pop\n        /* \"#utility.yul\":648:679   */\n      tag_101\n        /* \"#utility.yul\":673:678   */\n      dup2\n        /* \"#utility.yul\":648:679   */\n      tag_72\n      jump\t// in\n    tag_101:\n        /* \"#utility.yul\":550:685   */\n      swap3\n      swap2\n      pop\n      pop\n      jump\t// out\n        /* \"#utility.yul\":691:1016   */\n    tag_13:\n        /* \"#utility.yul\":748:754   */\n      0x00\n        /* \"#utility.yul\":797:799   */\n      0x20\n        /* \"#utility.yul\":785:794   */\n      dup3\n        /* \"#utility.yul\":776:783   */\n      dup5\n        /* \"#utility.yul\":772:795   */\n      sub\n        /* \"#utility.yul\":768:800   */\n      slt\n        /* \"#utility.yul\":765:884   */\n      iszero\n      tag_103\n      jumpi\n        /* \"#utility.yul\":803:882   */\n      tag_104\n      tag_69\n      jump\t// in\n    tag_104:\n        /* \"#utility.yul\":765:884   */\n    tag_103:\n        /* \"#utility.yul\":923:924   */\n      0x00\n        /* \"#utility.yul\":948:999   */\n      tag_105\n        /* \"#utility.yul\":991:998   */\n      dup5\n        /* \"#utility.yul\":982:988   */\n      dup3\n        /* \"#utility.yul\":971:980   */\n      dup6\n        /* \"#utility.yul\":967:989   */\n      add\n        /* \"#utility.yul\":948:999   */\n      tag_73\n      jump\t// in\n    tag_105:\n        /* \"#utility.yul\":938:999   */\n      swap2\n      pop\n        /* \"#utility.yul\":894:1009   */\n      pop\n        /* \"#utility.yul\":691:1016   */\n      swap3\n      swap2\n      pop\n      pop\n      jump\t// out\n        /* \"#utility.yul\":1022:1099   */\n    tag_74:\n        /* \"#utility.yul\":1059:1066   */\n      0x00\n        /* \"#utility.yul\":1088:1093   */\n      dup2\n        /* \"#utility.yul\":1077:1093   */\n      swap1\n      pop\n        /* \"#utility.yul\":1022:1099   */\n      swap2\n      swap1\n      pop\n      jump\t// out\n        /* \"#utility.yul\":1105:1223   */\n    tag_75:\n        /* \"#utility.yul\":1192:1216   */\n      tag_108\n        /* \"#utility.yul\":1210:1215   */\n      dup2\n        /* \"#utility.yul\":1192:1216   */\n      tag_74\n      jump\t// in\n    tag_108:\n        /* \"#utility.yul\":1187:1190   */\n      dup3\n        /* \"#utility.yul\":1180:1217   */\n      mstore\n        /* \"#utility.yul\":1105:1223   */\n      pop\n      pop\n      jump\t// out\n        /* \"#utility.yul\":1229:1451   */\n    tag_20:\n        /* \"#utility.yul\":1322:1326   */\n      0x00\n        /* \"#utility.yul\":1360:1362   */\n      0x20\n        /* \"#utility.yul\":1349:1358   */\n      dup3\n        /* \"#utility.yul\":1345:1363   */\n      add\n        /* \"#utility.yul\":1337:1363   */\n      swap1\n      pop\n        /* \"#utility.yul\":1373:1444   */\n      tag_110\n        /* \"#utility.yul\":1441:1442   */\n      0x00\n        /* \"#utility.yul\":1430:1439   */\n      dup4\n        /* \"#utility.yul\":1426:1443   */\n      add\n        /* \"#utility.yul\":1417:1423   */\n      dup5\n        /* \"#utility.yul\":1373:1444   */\n      tag_75\n      jump\t// in\n    tag_110:\n        /* \"#utility.yul\":1229:1451   */\n      swap3\n      swap2\n      pop\n      pop\n      jump\t// out\n        /* \"#utility.yul\":1457:1583   */\n    tag_76:\n        /* \"#utility.yul\":1494:1501   */\n      0x00\n        /* \"#utility.yul\":1534:1576   */\n      0xffffffffffffffffffffffffffffffffffffffff\n        /* \"#utility.yul\":1527:1532   */\n      dup3\n        /* \"#utility.yul\":1523:1577   */\n      and\n        /* \"#utility.yul\":1512:1577   */\n      swap1\n      pop\n        /* \"#utility.yul\":1457:1583   */\n      swap2\n      swap1\n      pop\n      jump\t// out\n        /* \"#utility.yul\":1589:1685   */\n    tag_77:\n        /* \"#utility.yul\":1626:1633   */\n      0x00\n        /* \"#utility.yul\":1655:1679   */\n      tag_113\n        /* \"#utility.yul\":1673:1678   */\n      dup3\n        /* \"#utility.yul\":1655:1679   */\n      tag_76\n      jump\t// in\n    tag_113:\n        /* \"#utility.yul\":1644:1679   */\n      swap1\n      pop\n        /* \"#utility.yul\":1589:1685   */\n      swap2\n      swap1\n      pop\n      jump\t// out\n        /* \"#utility.yul\":1691:1809   */\n    tag_78:\n        /* \"#utility.yul\":1778:1802   */\n      tag_115\n        /* \"#utility.yul\":1796:1801   */\n      dup2\n        /* \"#utility.yul\":1778:1802   */\n      tag_77\n      jump\t// in\n    tag_115:\n        /* \"#utility.yul\":1773:1776   */\n      dup3\n        /* \"#utility.yul\":1766:1803   */\n      mstore\n        /* \"#utility.yul\":1691:1809   */\n      pop\n      pop\n      jump\t// out\n        /* \"#utility.yul\":1815:2037   */\n    tag_25:\n        /* \"#utility.yul\":1908:1912   */\n      0x00\n        /* \"#utility.yul\":1946:1948   */\n      0x20\n        /* \"#utility.yul\":1935:1944   */\n      dup3\n        /* \"#utility.yul\":1931:1949   */\n      add\n        /* \"#utility.yul\":1923:1949   */\n      swap1\n      pop\n        /* \"#utility.yul\":1959:2030   */\n      tag_117\n        /* \"#utility.yul\":2027:2028   */\n      0x00\n        /* \"#utility.yul\":2016:2025   */\n      dup4\n        /* \"#utility.yul\":2012:2029   */\n      add\n        /* \"#utility.yul\":2003:2009   */\n      dup5\n        /* \"#utility.yul\":1959:2030   */\n      tag_78\n      jump\t// in\n    tag_117:\n        /* \"#utility.yul\":1815:2037   */\n      swap3\n      swap2\n      pop\n      pop\n      jump\t// out\n        /* \"#utility.yul\":2043:2165   */\n    tag_79:\n        /* \"#utility.yul\":2116:2140   */\n      tag_119\n        /* \"#utility.yul\":2134:2139   */\n      dup2\n        /* \"#utility.yul\":2116:2140   */\n      tag_77\n      jump\t// in\n    tag_119:\n        /* \"#utility.yul\":2109:2114   */\n      dup2\n        /* \"#utility.yul\":2106:2141   */\n      eq\n        /* \"#utility.yul\":2096:2159   */\n      tag_120\n      jumpi\n        /* \"#utility.yul\":2155:2156   */\n      0x00\n        /* \"#utility.yul\":2152:2153   */\n      0x00\n        /* \"#utility.yul\":2145:2157   */\n      revert\n        /* \"#utility.yul\":2096:2159   */\n    tag_120:\n        /* \"#utility.yul\":2043:2165   */\n      pop\n      jump\t// out\n        /* \"#utility.yul\":2171:2310   */\n    tag_80:\n        /* \"#utility.yul\":2217:2222   */\n      0x00\n        /* \"#utility.yul\":2255:2261   */\n      dup2\n        /* \"#utility.yul\":2242:2262   */\n      calldataload\n        /* \"#utility.yul\":2233:2262   */\n      swap1\n      pop\n        /* \"#utility.yul\":2271:2304   */\n      tag_122\n        /* \"#utility.yul\":2298:2303   */\n      dup2\n        /* \"#utility.yul\":2271:2304   */\n      tag_79\n      jump\t// in\n    tag_122:\n        /* \"#utility.yul\":2171:2310   */\n      swap3\n      swap2\n      pop\n      pop\n      jump\t// out\n        /* \"#utility.yul\":2316:2645   */\n    tag_29:\n        /* \"#utility.yul\":2375:2381   */\n      0x00\n        /* \"#utility.yul\":2424:2426   */\n      0x20\n        /* \"#utility.yul\":2412:2421   */\n      dup3\n        /* \"#utility.yul\":2403:2410   */\n      dup5\n        /* \"#utility.yul\":2399:2422   */\n      sub\n        /* \"#utility.yul\":2395:2427   */\n      slt\n        /* \"#utility.yul\":2392:2511   */\n      iszero\n      tag_124\n      jumpi\n        /* \"#utility.yul\":2430:2509   */\n      tag_125\n      tag_69\n      jump\t// in\n    tag_125:\n        /* \"#utility.yul\":2392:2511   */\n    tag_124:\n        /* \"#utility.yul\":2550:2551   */\n      0x00\n        /* \"#utility.yul\":2575:2628   */\n      tag_126\n        /* \"#utility.yul\":2620:2627   */\n      dup5\n        /* \"#utility.yul\":2611:2617   */\n      dup3\n        /* \"#utility.yul\":2600:2609   */\n      dup6\n        /* \"#utility.yul\":2596:2618   */\n      add\n        /* \"#utility.yul\":2575:2628   */\n      tag_80\n      jump\t// in\n    tag_126:\n        /* \"#utility.yul\":2565:2628   */\n      swap2\n      pop\n        /* \"#utility.yul\":2521:2638   */\n      pop\n        /* \"#utility.yul\":2316:2645   */\n      swap3\n      swap2\n      pop\n      pop\n      jump\t// out\n        /* \"#utility.yul\":2651:2741   */\n    tag_81:\n        /* \"#utility.yul\":2685:2692   */\n      0x00\n        /* \"#utility.yul\":2728:2733   */\n      dup2\n        /* \"#utility.yul\":2721:2734   */\n      iszero\n        /* \"#utility.yul\":2714:2735   */\n      iszero\n        /* \"#utility.yul\":2703:2735   */\n      swap1\n      pop\n        /* \"#utility.yul\":2651:2741   */\n      swap2\n      swap1\n      pop\n      jump\t// out\n        /* \"#utility.yul\":2747:2856   */\n    tag_82:\n        /* \"#utility.yul\":2828:2849   */\n      tag_129\n        /* \"#utility.yul\":2843:2848   */\n      dup2\n        /* \"#utility.yul\":2828:2849   */\n      tag_81\n      jump\t// in\n    tag_129:\n        /* \"#utility.yul\":2823:2826   */\n      dup3\n        /* \"#utility.yul\":2816:2850   */\n      mstore\n        /* \"#utility.yul\":2747:2856   */\n      pop\n      pop\n      jump\t// out\n        /* \"#utility.yul\":2862:3072   */\n    tag_32:\n        /* \"#utility.yul\":2949:2953   */\n      0x00\n        /* \"#utility.yul\":2987:2989   */\n      0x20\n        /* \"#utility.yul\":2976:2985   */\n      dup3\n        /* \"#utility.yul\":2972:2990   */\n      add\n        /* \"#utility.yul\":2964:2990   */\n      swap1\n      pop\n        /* \"#utility.yul\":3000:3065   */\n      tag_131\n        /* \"#utility.yul\":3062:3063   */\n      0x00\n        /* \"#utility.yul\":3051:3060   */\n      dup4\n        /* \"#utility.yul\":3047:3064   */\n      add\n        /* \"#utility.yul\":3038:3044   */\n      dup5\n        /* \"#utility.yul\":3000:3065   */\n      tag_82\n      jump\t// in\n    tag_131:\n        /* \"#utility.yul\":2862:3072   */\n      swap3\n      swap2\n      pop\n      pop\n      jump\t// out\n        /* \"#utility.yul\":3078:3200   */\n    tag_83:\n        /* \"#utility.yul\":3151:3175   */\n      tag_133\n        /* \"#utility.yul\":3169:3174   */\n      dup2\n        /* \"#utility.yul\":3151:3175   */\n      tag_74\n      jump\t// in\n    tag_133:\n        /* \"#utility.yul\":3144:3149   */\n      dup2\n        /* \"#utility.yul\":3141:3176   */\n      eq\n        /* \"#utility.yul\":3131:3194   */\n      tag_134\n      jumpi\n        /* \"#utility.yul\":3190:3191   */\n      0x00\n        /* \"#utility.yul\":3187:3188   */\n      0x00\n        /* \"#utility.yul\":3180:3192   */\n      revert\n        /* \"#utility.yul\":3131:3194   */\n    tag_134:\n        /* \"#utility.yul\":3078:3200   */\n      pop\n      jump\t// out\n        /* \"#utility.yul\":3206:3345   */\n    tag_84:\n        /* \"#utility.yul\":3252:3257   */\n      0x00\n        /* \"#utility.yul\":3290:3296   */\n      dup2\n        /* \"#utility.yul\":3277:3297   */\n      calldataload\n        /* \"#utility.yul\":3268:3297   */\n      swap1\n      pop\n        /* \"#utility.yul\":3306:3339   */\n      tag_136\n        /* \"#utility.yul\":3333:3338   */\n      dup2\n        /* \"#utility.yul\":3306:3339   */\n      tag_83\n      jump\t// in\n    tag_136:\n        /* \"#utility.yul\":3206:3345   */\n      swap3\n      swap2\n      pop\n      pop\n      jump\t// out\n        /* \"#utility.yul\":3351:3966   */\n    tag_45:\n        /* \"#utility.yul\":3426:3432   */\n      0x00\n        /* \"#utility.yul\":3434:3440   */\n      0x00\n        /* \"#utility.yul\":3442:3448   */\n      0x00\n        /* \"#utility.yul\":3491:3493   */\n      0x60\n        /* \"#utility.yul\":3479:3488   */\n      dup5\n        /* \"#utility.yul\":3470:3477   */\n      dup7\n        /* \"#utility.yul\":3466:3489   */\n      sub\n        /* \"#utility.yul\":3462:3494   */\n      slt\n        /* \"#utility.yul\":3459:3578   */\n      iszero\n      tag_138\n      jumpi\n        /* \"#utility.yul\":3497:3576   */\n      tag_139\n      tag_69\n      jump\t// in\n    tag_139:\n        /* \"#utility.yul\":3459:3578   */\n    tag_138:\n        /* \"#utility.yul\":3617:3618   */\n      0x00\n        /* \"#utility.yul\":3642:3693   */\n      tag_140\n        /* \"#utility.yul\":3685:3692   */\n      dup7\n        /* \"#utility.yul\":3676:3682   */\n      dup3\n        /* \"#utility.yul\":3665:3674   */\n      dup8\n        /* \"#utility.yul\":3661:3683   */\n      add\n        /* \"#utility.yul\":3642:3693   */\n      tag_73\n      jump\t// in\n    tag_140:\n        /* \"#utility.yul\":3632:3693   */\n      swap4\n      pop\n        /* \"#utility.yul\":3588:3703   */\n      pop\n        /* \"#utility.yul\":3742:3744   */\n      0x20\n        /* \"#utility.yul\":3768:3821   */\n      tag_141\n        /* \"#utility.yul\":3813:3820   */\n      dup7\n        /* \"#utility.yul\":3804:3810   */\n      dup3\n        /* \"#utility.yul\":3793:3802   */\n      dup8\n        /* \"#utility.yul\":3789:3811   */\n      add\n        /* \"#utility.yul\":3768:3821   */\n      tag_84\n      jump\t// in\n    tag_141:\n        /* \"#utility.yul\":3758:3821   */\n      swap3\n      pop\n        /* \"#utility.yul\":3713:3831   */\n      pop\n        /* \"#utility.yul\":3870:3872   */\n      0x40\n        /* \"#utility.yul\":3896:3949   */\n      tag_142\n        /* \"#utility.yul\":3941:3948   */\n      dup7\n        /* \"#utility.yul\":3932:3938   */\n      dup3\n        /* \"#utility.yul\":3921:3930   */\n      dup8\n        /* \"#utility.yul\":3917:3939   */\n      add\n        /* \"#utility.yul\":3896:3949   */\n      tag_84\n      jump\t// in\n    tag_142:\n        /* \"#utility.yul\":3886:3949   */\n      swap2\n      pop\n        /* \"#utility.yul\":3841:3959   */\n      pop\n        /* \"#utility.yul\":3351:3966   */\n      swap3\n      pop\n      swap3\n      pop\n      swap3\n      jump\t// out\n        /* \"#utility.yul\":3972:4084   */\n    tag_85:\n        /* \"#utility.yul\":4055:4077   */\n      tag_144\n        /* \"#utility.yul\":4071:4076   */\n      dup2\n        /* \"#utility.yul\":4055:4077   */\n      tag_71\n      jump\t// in\n    tag_144:\n        /* \"#utility.yul\":4050:4053   */\n      dup3\n        /* \"#utility.yul\":4043:4078   */\n      mstore\n        /* \"#utility.yul\":3972:4084   */\n      pop\n      pop\n      jump\t// out\n        /* \"#utility.yul\":4090:4512   */\n    tag_52:\n        /* \"#utility.yul\":4229:4233   */\n      0x00\n        /* \"#utility.yul\":4267:4269   */\n      0x60\n        /* \"#utility.yul\":4256:4265   */\n      dup3\n        /* \"#utility.yul\":4252:4270   */\n      add\n        /* \"#utility.yul\":4244:4270   */\n      swap1\n      pop\n        /* \"#utility.yul\":4280:4347   */\n      tag_146\n        /* \"#utility.yul\":4344:4345   */\n      0x00\n        /* \"#utility.yul\":4333:4342   */\n      dup4\n        /* \"#utility.yul\":4329:4346   */\n      add\n        /* \"#utility.yul\":4320:4326   */\n      dup7\n        /* \"#utility.yul\":4280:4347   */\n      tag_85\n      jump\t// in\n    tag_146:\n        /* \"#utility.yul\":4357:4429   */\n      tag_147\n        /* \"#utility.yul\":4425:4427   */\n      0x20\n        /* \"#utility.yul\":4414:4423   */\n      dup4\n        /* \"#utility.yul\":4410:4428   */\n      add\n        /* \"#utility.yul\":4401:4407   */\n      dup6\n        /* \"#utility.yul\":4357:4429   */\n      tag_75\n      jump\t// in\n    tag_147:\n        /* \"#utility.yul\":4439:4505   */\n      tag_148\n        /* \"#utility.yul\":4501:4503   */\n      0x40\n        /* \"#utility.yul\":4490:4499   */\n      dup4\n        /* \"#utility.yul\":4486:4504   */\n      add\n        /* \"#utility.yul\":4477:4483   */\n      dup5\n        /* \"#utility.yul\":4439:4505   */\n      tag_82\n      jump\t// in\n    tag_148:\n        /* \"#utility.yul\":4090:4512   */\n      swap5\n      swap4\n      pop\n      pop\n      pop\n      pop\n      jump\t// out\n        /* \"#utility.yul\":4518:4687   */\n    tag_86:\n        /* \"#utility.yul\":4602:4613   */\n      0x00\n        /* \"#utility.yul\":4636:4642   */\n      dup3\n        /* \"#utility.yul\":4631:4634   */\n      dup3\n        /* \"#utility.yul\":4624:4643   */\n      mstore\n        /* \"#utility.yul\":4676:4680   */\n      0x20\n        /* \"#utility.yul\":4671:4674   */\n      dup3\n        /* \"#utility.yul\":4667:4681   */\n      add\n        /* \"#utility.yul\":4652:4681   */\n      swap1\n      pop\n        /* \"#utility.yul\":4518:4687   */\n      swap3\n      swap2\n      pop\n      pop\n      jump\t// out\n        /* \"#utility.yul\":4693:4855   */\n    tag_87:\n        /* \"#utility.yul\":4833:4847   */\n      0x496e76616c696420706c616e0000000000000000000000000000000000000000\n        /* \"#utility.yul\":4829:4830   */\n      0x00\n        /* \"#utility.yul\":4821:4827   */\n      dup3\n        /* \"#utility.yul\":4817:4831   */\n      add\n        /* \"#utility.yul\":4810:4848   */\n      mstore\n        /* \"#utility.yul\":4693:4855   */\n      pop\n      jump\t// out\n        /* \"#utility.yul\":4861:5227   */\n    tag_88:\n        /* \"#utility.yul\":5003:5006   */\n      0x00\n        /* \"#utility.yul\":5024:5091   */\n      tag_152\n        /* \"#utility.yul\":5088:5090   */\n      0x0c\n        /* \"#utility.yul\":5083:5086   */\n      dup4\n        /* \"#utility.yul\":5024:5091   */\n      tag_86\n      jump\t// in\n    tag_152:\n        /* \"#utility.yul\":5017:5091   */\n      swap2\n      pop\n        /* \"#utility.yul\":5100:5193   */\n      tag_153\n        /* \"#utility.yul\":5189:5192   */\n      dup3\n        /* \"#utility.yul\":5100:5193   */\n      tag_87\n      jump\t// in\n    tag_153:\n        /* \"#utility.yul\":5218:5220   */\n      0x20\n        /* \"#utility.yul\":5213:5216   */\n      dup3\n        /* \"#utility.yul\":5209:5221   */\n      add\n        /* \"#utility.yul\":5202:5221   */\n      swap1\n      pop\n        /* \"#utility.yul\":4861:5227   */\n      swap2\n      swap1\n      pop\n      jump\t// out\n        /* \"#utility.yul\":5233:5652   */\n    tag_56:\n        /* \"#utility.yul\":5399:5403   */\n      0x00\n        /* \"#utility.yul\":5437:5439   */\n      0x20\n        /* \"#utility.yul\":5426:5435   */\n      dup3\n        /* \"#utility.yul\":5422:5440   */\n      add\n        /* \"#utility.yul\":5414:5440   */\n      swap1\n      pop\n        /* \"#utility.yul\":5486:5495   */\n      dup2\n        /* \"#utility.yul\":5480:5484   */\n      dup2\n        /* \"#utility.yul\":5476:5496   */\n      sub\n        /* \"#utility.yul\":5472:5473   */\n      0x00\n        /* \"#utility.yul\":5461:5470   */\n      dup4\n        /* \"#utility.yul\":5457:5474   */\n      add\n        /* \"#utility.yul\":5450:5497   */\n      mstore\n        /* \"#utility.yul\":5514:5645   */\n      tag_155\n        /* \"#utility.yul\":5640:5644   */\n      dup2\n        /* \"#utility.yul\":5514:5645   */\n      tag_88\n      jump\t// in\n    tag_155:\n        /* \"#utility.yul\":5506:5645   */\n      swap1\n      pop\n        /* \"#utility.yul\":5233:5652   */\n      swap2\n      swap1\n      pop\n      jump\t// out\n        /* \"#utility.yul\":5658:5828   */\n    tag_89:\n        /* \"#utility.yul\":5798:5820   */\n      0x496e73756666696369656e74207061796d656e74000000000000000000000000\n        /* \"#utility.yul\":5794:5795   */\n      0x00\n        /* \"#utility.yul\":5786:5792   */\n      dup3\n        /* \"#utility.yul\":5782:5796   */\n      add\n        /* \"#utility.yul\":5775:5821   */\n      mstore\n        /* \"#utility.yul\":5658:5828   */\n      pop\n      jump\t// out\n        /* \"#utility.yul\":5834:6200   */\n    tag_90:\n        /* \"#utility.yul\":5976:5979   */\n      0x00\n        /* \"#utility.yul\":5997:6064   */\n      tag_158\n        /* \"#utility.yul\":6061:6063   */\n      0x14\n        /* \"#utility.yul\":6056:6059   */\n      dup4\n        /* \"#utility.yul\":5997:6064   */\n      tag_86\n      jump\t// in\n    tag_158:\n        /* \"#utility.yul\":5990:6064   */\n      swap2\n      pop\n        /* \"#utility.yul\":6073:6166   */\n      tag_159\n        /* \"#utility.yul\":6162:6165   */\n      dup3\n        /* \"#utility.yul\":6073:6166   */\n      tag_89\n      jump\t// in\n    tag_159:\n        /* \"#utility.yul\":6191:6193   */\n      0x20\n        /* \"#utility.yul\":6186:6189   */\n      dup3\n        /* \"#utility.yul\":6182:6194   */\n      add\n        /* \"#utility.yul\":6175:6194   */\n      swap1\n      pop\n        /* \"#utility.yul\":5834:6200   */\n      swap2\n      swap1\n      pop\n      jump\t// out\n        /* \"#utility.yul\":6206:6625   */\n    tag_59:\n        /* \"#utility.yul\":6372:6376   */\n      0x00\n        /* \"#utility.yul\":6410:6412   */\n      0x20\n        /* \"#utility.yul\":6399:6408   */\n      dup3\n        /* \"#utility.yul\":6395:6413   */\n      add\n        /* \"#utility.yul\":6387:6413   */\n      swap1\n      pop\n        /* \"#utility.yul\":6459:6468   */\n      dup2\n        /* \"#utility.yul\":6453:6457   */\n      dup2\n        /* \"#utility.yul\":6449:6469   */\n      sub\n        /* \"#utility.yul\":6445:6446   */\n      0x00\n        /* \"#utility.yul\":6434:6443   */\n      dup4\n        /* \"#utility.yul\":6430:6447   */\n      add\n        /* \"#utility.yul\":6423:6470   */\n      mstore\n        /* \"#utility.yul\":6487:6618   */\n      tag_161\n        /* \"#utility.yul\":6613:6617   */\n      dup2\n        /* \"#utility.yul\":6487:6618   */\n      tag_90\n      jump\t// in\n    tag_161:\n        /* \"#utility.yul\":6479:6618   */\n      swap1\n      pop\n        /* \"#utility.yul\":6206:6625   */\n      swap2\n      swap1\n      pop\n      jump\t// out\n        /* \"#utility.yul\":6631:6811   */\n    tag_91:\n        /* \"#utility.yul\":6679:6756   */\n      0x4e487b7100000000000000000000000000000000000000000000000000000000\n        /* \"#utility.yul\":6676:6677   */\n      0x00\n        /* \"#utility.yul\":6669:6757   */\n      mstore\n        /* \"#utility.yul\":6776:6780   */\n      0x11\n        /* \"#utility.yul\":6773:6774   */\n      0x04\n        /* \"#utility.yul\":6766:6781   */\n      mstore\n        /* \"#utility.yul\":6800:6804   */\n      0x24\n        /* \"#utility.yul\":6797:6798   */\n      0x00\n        /* \"#utility.yul\":6790:6805   */\n      revert\n        /* \"#utility.yul\":6817:7008   */\n    tag_62:\n        /* \"#utility.yul\":6857:6860   */\n      0x00\n        /* \"#utility.yul\":6876:6896   */\n      tag_164\n        /* \"#utility.yul\":6894:6895   */\n      dup3\n        /* \"#utility.yul\":6876:6896   */\n      tag_74\n      jump\t// in\n    tag_164:\n        /* \"#utility.yul\":6871:6896   */\n      swap2\n      pop\n        /* \"#utility.yul\":6910:6930   */\n      tag_165\n        /* \"#utility.yul\":6928:6929   */\n      dup4\n        /* \"#utility.yul\":6910:6930   */\n      tag_74\n      jump\t// in\n    tag_165:\n        /* \"#utility.yul\":6905:6930   */\n      swap3\n      pop\n        /* \"#utility.yul\":6953:6954   */\n      dup3\n        /* \"#utility.yul\":6950:6951   */\n      dup3\n        /* \"#utility.yul\":6946:6955   */\n      add\n        /* \"#utility.yul\":6939:6955   */\n      swap1\n      pop\n        /* \"#utility.yul\":6974:6977   */\n      dup1\n        /* \"#utility.yul\":6971:6972   */\n      dup3\n        /* \"#utility.yul\":6968:6978   */\n      gt\n        /* \"#utility.yul\":6965:7001   */\n      iszero\n      tag_166\n      jumpi\n        /* \"#utility.yul\":6981:6999   */\n      tag_167\n      tag_91\n      jump\t// in\n    tag_167:\n        /* \"#utility.yul\":6965:7001   */\n    tag_166:\n        /* \"#utility.yul\":6817:7008   */\n      swap3\n      swap2\n      pop\n      pop\n      jump\t// out\n\n    auxdata: 0xa26469706673582212204cad71cb0646f9dc9db1304a33b59a23ca54b8167158a6cbb3ee3e42946fc93064736f6c634300081e0033\n}\n",
				"bytecode": {
					"linkReferences": {},
					"object": "6080604052348015600e575f5ffd5b506108e38061001c5f395ff3fe60806040526004361061007a575f3560e01c8063b33187e71161004d578063b33187e71461013c578063cc0e97c914610178578063cc2d49d8146101a2578063f046395a146101ca5761007a565b806349c7e6391461007e57806376ca4f721461009a5780638da5cb5b146100d65780639f8a13d714610100575b5f5ffd5b61009860048036038101906100939190610573565b610208565b005b3480156100a5575f5ffd5b506100c060048036038101906100bb9190610573565b6103a3565b6040516100cd91906105b6565b60405180910390f35b3480156100e1575f5ffd5b506100ea6103b8565b6040516100f7919061060e565b60405180910390f35b34801561010b575f5ffd5b5061012660048036038101906101219190610651565b6103dd565b6040516101339190610696565b60405180910390f35b348015610147575f5ffd5b50610162600480360381019061015d9190610573565b610485565b60405161016f91906105b6565b60405180910390f35b348015610183575f5ffd5b5061018c61049a565b604051610199919061060e565b60405180910390f35b3480156101ad575f5ffd5b506101c860048036038101906101c391906106d9565b6104be565b005b3480156101d5575f5ffd5b506101f060048036038101906101eb9190610651565b6104fb565b6040516101ff93929190610738565b60405180910390f35b5f60035f8360ff1660ff1681526020019081526020015f205411610261576040517f08c379a0000000000000000000000000000000000000000000000000000000008152600401610258906107c7565b60405180910390fd5b60035f8260ff1660ff1681526020019081526020015f20543410156102bb576040517f08c379a00000000000000000000000000000000000000000000000000000000081526004016102b29061082f565b60405180910390fd5b5f60025f3373ffffffffffffffffffffffffffffffffffffffff1673ffffffffffffffffffffffffffffffffffffffff1681526020019081526020015f209050806001015442101561033d5760045f8360ff1660ff1681526020019081526020015f2054816001015f828254610331919061087a565b92505081905550610369565b60045f8360ff1660ff1681526020019081526020015f205442610360919061087a565b81600101819055505b81815f015f6101000a81548160ff021916908360ff1602179055505f816002015f6101000a81548160ff0219169083151502179055505050565b6004602052805f5260405f205f915090505481565b60015f9054906101000a900473ffffffffffffffffffffffffffffffffffffffff1681565b5f5f60025f8473ffffffffffffffffffffffffffffffffffffffff1673ffffffffffffffffffffffffffffffffffffffff1681526020019081526020015f206040518060600160405290815f82015f9054906101000a900460ff1660ff1660ff16815260200160018201548152602001600282015f9054906101000a900460ff161515151581525050905080602001514210801561047d57508060400151155b915050919050565b6003602052805f5260405f205f915090505481565b5f5f9054906101000a900473ffffffffffffffffffffffffffffffffffffffff1681565b8160035f8560ff1660ff1681526020019081526020015f20819055508060045f8560ff1660ff1681526020019081526020015f2081905550505050565b6002602052805f5260405f205f91509050805f015f9054906101000a900460ff1690806001015490806002015f9054906101000a900460ff16905083565b5f5ffd5b5f60ff82169050919050565b6105528161053d565b811461055c575f5ffd5b50565b5f8135905061056d81610549565b92915050565b5f6020828403121561058857610587610539565b5b5f6105958482850161055f565b91505092915050565b5f819050919050565b6105b08161059e565b82525050565b5f6020820190506105c95f8301846105a7565b92915050565b5f73ffffffffffffffffffffffffffffffffffffffff82169050919050565b5f6105f8826105cf565b9050919050565b610608816105ee565b82525050565b5f6020820190506106215f8301846105ff565b92915050565b610630816105ee565b811461063a575f5ffd5b50565b5f8135905061064b81610627565b92915050565b5f6020828403121561066657610665610539565b5b5f6106738482850161063d565b91505092915050565b5f8115159050919050565b6106908161067c565b82525050565b5f6020820190506106a95f830184610687565b92915050565b6106b88161059e565b81146106c2575f5ffd5b50565b5f813590506106d3816106af565b92915050565b5f5f5f606084860312156106f0576106ef610539565b5b5f6106fd8682870161055f565b935050602061070e868287016106c5565b925050604061071f868287016106c5565b9150509250925092565b6107328161053d565b82525050565b5f60608201905061074b5f830186610729565b61075860208301856105a7565b6107656040830184610687565b949350505050565b5f82825260208201905092915050565b7f496e76616c696420706c616e00000000000000000000000000000000000000005f82015250565b5f6107b1600c8361076d565b91506107bc8261077d565b602082019050919050565b5f6020820190508181035f8301526107de816107a5565b9050919050565b7f496e73756666696369656e74207061796d656e740000000000000000000000005f82015250565b5f61081960148361076d565b9150610824826107e5565b602082019050919050565b5f6020820190508181035f8301526108468161080d565b9050919050565b7f4e487b71000000000000000000000000000000000000000000000000000000005f52601160045260245ffd5b5f6108848261059e565b915061088f8361059e565b92508282019050808211156108a7576108a661084d565b5b9291505056fea26469706673582212204cad71cb0646f9dc9db1304a33b59a23ca54b8167158a6cbb3ee3e42946fc93064736f6c634300081e0033",
					"opcodes": "PUSH1 0x80 PUSH1 0x40 MSTORE CALLVALUE DUP1 ISZERO PUSH1 0xE JUMPI PUSH0 PUSH0 REVERT JUMPDEST POP PUSH2 0x8E3 DUP1 PUSH2 0x1C PUSH0 CODECOPY PUSH0 RETURN INVALID PUSH1 0x80 PUSH1 0x40 MSTORE PUSH1 0x4 CALLDATASIZE LT PUSH2 0x7A JUMPI PUSH0 CALLDATALOAD PUSH1 0xE0 SHR DUP1 PUSH4 0xB33187E7 GT PUSH2 0x4D JUMPI DUP1 PUSH4 0xB33187E7 EQ PUSH2 0x13C JUMPI DUP1 PUSH4 0xCC0E97C9 EQ PUSH2 0x178 JUMPI DUP1 PUSH4 0xCC2D49D8 EQ PUSH2 0x1A2 JUMPI DUP1 PUSH4 0xF046395A EQ PUSH2 0x1CA JUMPI PUSH2 0x7A JUMP JUMPDEST DUP1 PUSH4 0x49C7E639 EQ PUSH2 0x7E JUMPI DUP1 PUSH4 0x76CA4F72 EQ PUSH2 0x9A JUMPI DUP1 PUSH4 0x8DA5CB5B EQ PUSH2 0xD6 JUMPI DUP1 PUSH4 0x9F8A13D7 EQ PUSH2 0x100 JUMPI JUMPDEST PUSH0 PUSH0 REVERT JUMPDEST PUSH2 0x98 PUSH1 0x4 DUP1 CALLDATASIZE SUB DUP2 ADD SWAP1 PUSH2 0x93 SWAP2 SWAP1 PUSH2 0x573 JUMP JUMPDEST PUSH2 0x208 JUMP JUMPDEST STOP JUMPDEST CALLVALUE DUP1 ISZERO PUSH2 0xA5 JUMPI PUSH0 PUSH0 REVERT JUMPDEST POP PUSH2 0xC0 PUSH1 0x4 DUP1 CALLDATASIZE SUB DUP2 ADD SWAP1 PUSH2 0xBB SWAP2 SWAP1 PUSH2 0x573 JUMP JUMPDEST PUSH2 0x3A3 JUMP JUMPDEST PUSH1 0x40 MLOAD PUSH2 0xCD SWAP2 SWAP1 PUSH2 0x5B6 JUMP JUMPDEST PUSH1 0x40 MLOAD DUP1 SWAP2 SUB SWAP1 RETURN JUMPDEST CALLVALUE DUP1 ISZERO PUSH2 0xE1 JUMPI PUSH0 PUSH0 REVERT JUMPDEST POP PUSH2 0xEA PUSH2 0x3B8 JUMP JUMPDEST PUSH1 0x40 MLOAD PUSH2 0xF7 SWAP2 SWAP1 PUSH2 0x60E JUMP JUMPDEST PUSH1 0x40 MLOAD DUP1 SWAP2 SUB SWAP1 RETURN JUMPDEST CALLVALUE DUP1 ISZERO PUSH2 0x10B JUMPI PUSH0 PUSH0 REVERT JUMPDEST POP PUSH2 0x126 PUSH1 0x4 DUP1 CALLDATASIZE SUB DUP2 ADD SWAP1 PUSH2 0x121 SWAP2 SWAP1 PUSH2 0x651 JUMP JUMPDEST PUSH2 0x3DD JUMP JUMPDEST PUSH1 0x40 MLOAD PUSH2 0x133 SWAP2 SWAP1 PUSH2 0x696 JUMP JUMPDEST PUSH1 0x40 MLOAD DUP1 SWAP2 SUB SWAP1 RETURN JUMPDEST CALLVALUE DUP1 ISZERO PUSH2 0x147 JUMPI PUSH0 PUSH0 REVERT JUMPDEST POP PUSH2 0x162 PUSH1 0x4 DUP1 CALLDATASIZE SUB DUP2 ADD SWAP1 PUSH2 0x15D SWAP2 SWAP1 PUSH2 0x573 JUMP JUMPDEST PUSH2 0x485 JUMP JUMPDEST PUSH1 0x40 MLOAD PUSH2 0x16F SWAP2 SWAP1 PUSH2 0x5B6 JUMP JUMPDEST PUSH1 0x40 MLOAD DUP1 SWAP2 SUB SWAP1 RETURN JUMPDEST CALLVALUE DUP1 ISZERO PUSH2 0x183 JUMPI PUSH0 PUSH0 REVERT JUMPDEST POP PUSH2 0x18C PUSH2 0x49A JUMP JUMPDEST PUSH1 0x40 MLOAD PUSH2 0x199 SWAP2 SWAP1 PUSH2 0x60E JUMP JUMPDEST PUSH1 0x40 MLOAD DUP1 SWAP2 SUB SWAP1 RETURN JUMPDEST CALLVALUE DUP1 ISZERO PUSH2 0x1AD JUMPI PUSH0 PUSH0 REVERT JUMPDEST POP PUSH2 0x1C8 PUSH1 0x4 DUP1 CALLDATASIZE SUB DUP2 ADD SWAP1 PUSH2 0x1C3 SWAP2 SWAP1 PUSH2 0x6D9 JUMP JUMPDEST PUSH2 0x4BE JUMP JUMPDEST STOP JUMPDEST CALLVALUE DUP1 ISZERO PUSH2 0x1D5 JUMPI PUSH0 PUSH0 REVERT JUMPDEST POP PUSH2 0x1F0 PUSH1 0x4 DUP1 CALLDATASIZE SUB DUP2 ADD SWAP1 PUSH2 0x1EB SWAP2 SWAP1 PUSH2 0x651 JUMP JUMPDEST PUSH2 0x4FB JUMP JUMPDEST PUSH1 0x40 MLOAD PUSH2 0x1FF SWAP4 SWAP3 SWAP2 SWAP1 PUSH2 0x738 JUMP JUMPDEST PUSH1 0x40 MLOAD DUP1 SWAP2 SUB SWAP1 RETURN JUMPDEST PUSH0 PUSH1 0x3 PUSH0 DUP4 PUSH1 0xFF AND PUSH1 0xFF AND DUP2 MSTORE PUSH1 0x20 ADD SWAP1 DUP2 MSTORE PUSH1 0x20 ADD PUSH0 KECCAK256 SLOAD GT PUSH2 0x261 JUMPI PUSH1 0x40 MLOAD PUSH32 0x8C379A000000000000000000000000000000000000000000000000000000000 DUP2 MSTORE PUSH1 0x4 ADD PUSH2 0x258 SWAP1 PUSH2 0x7C7 JUMP JUMPDEST PUSH1 0x40 MLOAD DUP1 SWAP2 SUB SWAP1 REVERT JUMPDEST PUSH1 0x3 PUSH0 DUP3 PUSH1 0xFF AND PUSH1 0xFF AND DUP2 MSTORE PUSH1 0x20 ADD SWAP1 DUP2 MSTORE PUSH1 0x20 ADD PUSH0 KECCAK256 SLOAD CALLVALUE LT ISZERO PUSH2 0x2BB JUMPI PUSH1 0x40 MLOAD PUSH32 0x8C379A000000000000000000000000000000000000000000000000000000000 DUP2 MSTORE PUSH1 0x4 ADD PUSH2 0x2B2 SWAP1 PUSH2 0x82F JUMP JUMPDEST PUSH1 0x40 MLOAD DUP1 SWAP2 SUB SWAP1 REVERT JUMPDEST PUSH0 PUSH1 0x2 PUSH0 CALLER PUSH20 0xFFFFFFFFFFFFFFFFFFFFFFFFFFFFFFFFFFFFFFFF AND PUSH20 0xFFFFFFFFFFFFFFFFFFFFFFFFFFFFFFFFFFFFFFFF AND DUP2 MSTORE PUSH1 0x20 ADD SWAP1 DUP2 MSTORE PUSH1 0x20 ADD PUSH0 KECCAK256 SWAP1 POP DUP1 PUSH1 0x1 ADD SLOAD TIMESTAMP LT ISZERO PUSH2 0x33D JUMPI PUSH1 0x4 PUSH0 DUP4 PUSH1 0xFF AND PUSH1 0xFF AND DUP2 MSTORE PUSH1 0x20 ADD SWAP1 DUP2 MSTORE PUSH1 0x20 ADD PUSH0 KECCAK256 SLOAD DUP2 PUSH1 0x1 ADD PUSH0 DUP3 DUP3 SLOAD PUSH2 0x331 SWAP2 SWAP1 PUSH2 0x87A JUMP JUMPDEST SWAP3 POP POP DUP2 SWAP1 SSTORE POP PUSH2 0x369 JUMP JUMPDEST PUSH1 0x4 PUSH0 DUP4 PUSH1 0xFF AND PUSH1 0xFF AND DUP2 MSTORE PUSH1 0x20 ADD SWAP1 DUP2 MSTORE PUSH1 0x20 ADD PUSH0 KECCAK256 SLOAD TIMESTAMP PUSH2 0x360 SWAP2 SWAP1 PUSH2 0x87A JUMP JUMPDEST DUP2 PUSH1 0x1 ADD DUP2 SWAP1 SSTORE POP JUMPDEST DUP2 DUP2 PUSH0 ADD PUSH0 PUSH2 0x100 EXP DUP2 SLOAD DUP2 PUSH1 0xFF MUL NOT AND SWAP1 DUP4 PUSH1 0xFF AND MUL OR SWAP1 SSTORE POP PUSH0 DUP2 PUSH1 0x2 ADD PUSH0 PUSH2 0x100 EXP DUP2 SLOAD DUP2 PUSH1 0xFF MUL NOT AND SWAP1 DUP4 ISZERO ISZERO MUL OR SWAP1 SSTORE POP POP POP JUMP JUMPDEST PUSH1 0x4 PUSH1 0x20 MSTORE DUP1 PUSH0 MSTORE PUSH1 0x40 PUSH0 KECCAK256 PUSH0 SWAP2 POP SWAP1 POP SLOAD DUP2 JUMP JUMPDEST PUSH1 0x1 PUSH0 SWAP1 SLOAD SWAP1 PUSH2 0x100 EXP SWAP1 DIV PUSH20 0xFFFFFFFFFFFFFFFFFFFFFFFFFFFFFFFFFFFFFFFF AND DUP2 JUMP JUMPDEST PUSH0 PUSH0 PUSH1 0x2 PUSH0 DUP5 PUSH20 0xFFFFFFFFFFFFFFFFFFFFFFFFFFFFFFFFFFFFFFFF AND PUSH20 0xFFFFFFFFFFFFFFFFFFFFFFFFFFFFFFFFFFFFFFFF AND DUP2 MSTORE PUSH1 0x20 ADD SWAP1 DUP2 MSTORE PUSH1 0x20 ADD PUSH0 KECCAK256 PUSH1 0x40 MLOAD DUP1 PUSH1 0x60 ADD PUSH1 0x40 MSTORE SWAP1 DUP2 PUSH0 DUP3 ADD PUSH0 SWAP1 SLOAD SWAP1 PUSH2 0x100 EXP SWAP1 DIV PUSH1 0xFF AND PUSH1 0xFF AND PUSH1 0xFF AND DUP2 MSTORE PUSH1 0x20 ADD PUSH1 0x1 DUP3 ADD SLOAD DUP2 MSTORE PUSH1 0x20 ADD PUSH1 0x2 DUP3 ADD PUSH0 SWAP1 SLOAD SWAP1 PUSH2 0x100 EXP SWAP1 DIV PUSH1 0xFF AND ISZERO ISZERO ISZERO ISZERO DUP2 MSTORE POP POP SWAP1 POP DUP1 PUSH1 0x20 ADD MLOAD TIMESTAMP LT DUP1 ISZERO PUSH2 0x47D JUMPI POP DUP1 PUSH1 0x40 ADD MLOAD ISZERO JUMPDEST SWAP2 POP POP SWAP2 SWAP1 POP JUMP JUMPDEST PUSH1 0x3 PUSH1 0x20 MSTORE DUP1 PUSH0 MSTORE PUSH1 0x40 PUSH0 KECCAK256 PUSH0 SWAP2 POP SWAP1 POP SLOAD DUP2 JUMP JUMPDEST PUSH0 PUSH0 SWAP1 SLOAD SWAP1 PUSH2 0x100 EXP SWAP1 DIV PUSH20 0xFFFFFFFFFFFFFFFFFFFFFFFFFFFFFFFFFFFFFFFF AND DUP2 JUMP JUMPDEST DUP2 PUSH1 0x3 PUSH0 DUP6 PUSH1 0xFF AND PUSH1 0xFF AND DUP2 MSTORE PUSH1 0x20 ADD SWAP1 DUP2 MSTORE PUSH1 0x20 ADD PUSH0 KECCAK256 DUP2 SWAP1 SSTORE POP DUP1 PUSH1 0x4 PUSH0 DUP6 PUSH1 0xFF AND PUSH1 0xFF AND DUP2 MSTORE PUSH1 0x20 ADD SWAP1 DUP2 MSTORE PUSH1 0x20 ADD PUSH0 KECCAK256 DUP2 SWAP1 SSTORE POP POP POP POP JUMP JUMPDEST PUSH1 0x2 PUSH1 0x20 MSTORE DUP1 PUSH0 MSTORE PUSH1 0x40 PUSH0 KECCAK256 PUSH0 SWAP2 POP SWAP1 POP DUP1 PUSH0 ADD PUSH0 SWAP1 SLOAD SWAP1 PUSH2 0x100 EXP SWAP1 DIV PUSH1 0xFF AND SWAP1 DUP1 PUSH1 0x1 ADD SLOAD SWAP1 DUP1 PUSH1 0x2 ADD PUSH0 SWAP1 SLOAD SWAP1 PUSH2 0x100 EXP SWAP1 DIV PUSH1 0xFF AND SWAP1 POP DUP4 JUMP JUMPDEST PUSH0 PUSH0 REVERT JUMPDEST PUSH0 PUSH1 0xFF DUP3 AND SWAP1 POP SWAP2 SWAP1 POP JUMP JUMPDEST PUSH2 0x552 DUP2 PUSH2 0x53D JUMP JUMPDEST DUP2 EQ PUSH2 0x55C JUMPI PUSH0 PUSH0 REVERT JUMPDEST POP JUMP JUMPDEST PUSH0 DUP2 CALLDATALOAD SWAP1 POP PUSH2 0x56D DUP2 PUSH2 0x549 JUMP JUMPDEST SWAP3 SWAP2 POP POP JUMP JUMPDEST PUSH0 PUSH1 0x20 DUP3 DUP5 SUB SLT ISZERO PUSH2 0x588 JUMPI PUSH2 0x587 PUSH2 0x539 JUMP JUMPDEST JUMPDEST PUSH0 PUSH2 0x595 DUP5 DUP3 DUP6 ADD PUSH2 0x55F JUMP JUMPDEST SWAP2 POP POP SWAP3 SWAP2 POP POP JUMP JUMPDEST PUSH0 DUP2 SWAP1 POP SWAP2 SWAP1 POP JUMP JUMPDEST PUSH2 0x5B0 DUP2 PUSH2 0x59E JUMP JUMPDEST DUP3 MSTORE POP POP JUMP JUMPDEST PUSH0 PUSH1 0x20 DUP3 ADD SWAP1 POP PUSH2 0x5C9 PUSH0 DUP4 ADD DUP5 PUSH2 0x5A7 JUMP JUMPDEST SWAP3 SWAP2 POP POP JUMP JUMPDEST PUSH0 PUSH20 0xFFFFFFFFFFFFFFFFFFFFFFFFFFFFFFFFFFFFFFFF DUP3 AND SWAP1 POP SWAP2 SWAP1 POP JUMP JUMPDEST PUSH0 PUSH2 0x5F8 DUP3 PUSH2 0x5CF JUMP JUMPDEST SWAP1 POP SWAP2 SWAP1 POP JUMP JUMPDEST PUSH2 0x608 DUP2 PUSH2 0x5EE JUMP JUMPDEST DUP3 MSTORE POP POP JUMP JUMPDEST PUSH0 PUSH1 0x20 DUP3 ADD SWAP1 POP PUSH2 0x621 PUSH0 DUP4 ADD DUP5 PUSH2 0x5FF JUMP JUMPDEST SWAP3 SWAP2 POP POP JUMP JUMPDEST PUSH2 0x630 DUP2 PUSH2 0x5EE JUMP JUMPDEST DUP2 EQ PUSH2 0x63A JUMPI PUSH0 PUSH0 REVERT JUMPDEST POP JUMP JUMPDEST PUSH0 DUP2 CALLDATALOAD SWAP1 POP PUSH2 0x64B DUP2 PUSH2 0x627 JUMP JUMPDEST SWAP3 SWAP2 POP POP JUMP JUMPDEST PUSH0 PUSH1 0x20 DUP3 DUP5 SUB SLT ISZERO PUSH2 0x666 JUMPI PUSH2 0x665 PUSH2 0x539 JUMP JUMPDEST JUMPDEST PUSH0 PUSH2 0x673 DUP5 DUP3 DUP6 ADD PUSH2 0x63D JUMP JUMPDEST SWAP2 POP POP SWAP3 SWAP2 POP POP JUMP JUMPDEST PUSH0 DUP2 ISZERO ISZERO SWAP1 POP SWAP2 SWAP1 POP JUMP JUMPDEST PUSH2 0x690 DUP2 PUSH2 0x67C JUMP JUMPDEST DUP3 MSTORE POP POP JUMP JUMPDEST PUSH0 PUSH1 0x20 DUP3 ADD SWAP1 POP PUSH2 0x6A9 PUSH0 DUP4 ADD DUP5 PUSH2 0x687 JUMP JUMPDEST SWAP3 SWAP2 POP POP JUMP JUMPDEST PUSH2 0x6B8 DUP2 PUSH2 0x59E JUMP JUMPDEST DUP2 EQ PUSH2 0x6C2 JUMPI PUSH0 PUSH0 REVERT JUMPDEST POP JUMP JUMPDEST PUSH0 DUP2 CALLDATALOAD SWAP1 POP PUSH2 0x6D3 DUP2 PUSH2 0x6AF JUMP JUMPDEST SWAP3 SWAP2 POP POP JUMP JUMPDEST PUSH0 PUSH0 PUSH0 PUSH1 0x60 DUP5 DUP7 SUB SLT ISZERO PUSH2 0x6F0 JUMPI PUSH2 0x6EF PUSH2 0x539 JUMP JUMPDEST JUMPDEST PUSH0 PUSH2 0x6FD DUP7 DUP3 DUP8 ADD PUSH2 0x55F JUMP JUMPDEST SWAP4 POP POP PUSH1 0x20 PUSH2 0x70E DUP7 DUP3 DUP8 ADD PUSH2 0x6C5 JUMP JUMPDEST SWAP3 POP POP PUSH1 0x40 PUSH2 0x71F DUP7 DUP3 DUP8 ADD PUSH2 0x6C5 JUMP JUMPDEST SWAP2 POP POP SWAP3 POP SWAP3 POP SWAP3 JUMP JUMPDEST PUSH2 0x732 DUP2 PUSH2 0x53D JUMP JUMPDEST DUP3 MSTORE POP POP JUMP JUMPDEST PUSH0 PUSH1 0x60 DUP3 ADD SWAP1 POP PUSH2 0x74B PUSH0 DUP4 ADD DUP7 PUSH2 0x729 JUMP JUMPDEST PUSH2 0x758 PUSH1 0x20 DUP4 ADD DUP6 PUSH2 0x5A7 JUMP JUMPDEST PUSH2 0x765 PUSH1 0x40 DUP4 ADD DUP5 PUSH2 0x687 JUMP JUMPDEST SWAP5 SWAP4 POP POP POP POP JUMP JUMPDEST PUSH0 DUP3 DUP3 MSTORE PUSH1 0x20 DUP3 ADD SWAP1 POP SWAP3 SWAP2 POP POP JUMP JUMPDEST PUSH32 0x496E76616C696420706C616E0000000000000000000000000000000000000000 PUSH0 DUP3 ADD MSTORE POP JUMP JUMPDEST PUSH0 PUSH2 0x7B1 PUSH1 0xC DUP4 PUSH2 0x76D JUMP JUMPDEST SWAP2 POP PUSH2 0x7BC DUP3 PUSH2 0x77D JUMP JUMPDEST PUSH1 0x20 DUP3 ADD SWAP1 POP SWAP2 SWAP1 POP JUMP JUMPDEST PUSH0 PUSH1 0x20 DUP3 ADD SWAP1 POP DUP2 DUP2 SUB PUSH0 DUP4 ADD MSTORE PUSH2 0x7DE DUP2 PUSH2 0x7A5 JUMP JUMPDEST SWAP1 POP SWAP2 SWAP1 POP JUMP JUMPDEST PUSH32 0x496E73756666696369656E74207061796D656E74000000000000000000000000 PUSH0 DUP3 ADD MSTORE POP JUMP JUMPDEST PUSH0 PUSH2 0x819 PUSH1 0x14 DUP4 PUSH2 0x76D JUMP JUMPDEST SWAP2 POP PUSH2 0x824 DUP3 PUSH2 0x7E5 JUMP JUMPDEST PUSH1 0x20 DUP3 ADD SWAP1 POP SWAP2 SWAP1 POP JUMP JUMPDEST PUSH0 PUSH1 0x20 DUP3 ADD SWAP1 POP DUP2 DUP2 SUB PUSH0 DUP4 ADD MSTORE PUSH2 0x846 DUP2 PUSH2 0x80D JUMP JUMPDEST SWAP1 POP SWAP2 SWAP1 POP JUMP JUMPDEST PUSH32 0x4E487B7100000000000000000000000000000000000000000000000000000000 PUSH0 MSTORE PUSH1 0x11 PUSH1 0x4 MSTORE PUSH1 0x24 PUSH0 REVERT JUMPDEST PUSH0 PUSH2 0x884 DUP3 PUSH2 0x59E JUMP JUMPDEST SWAP2 POP PUSH2 0x88F DUP4 PUSH2 0x59E JUMP JUMPDEST SWAP3 POP DUP3 DUP3 ADD SWAP1 POP DUP1 DUP3 GT ISZERO PUSH2 0x8A7 JUMPI PUSH2 0x8A6 PUSH2 0x84D JUMP JUMPDEST JUMPDEST SWAP3 SWAP2 POP POP JUMP INVALID LOG2 PUSH5 0x6970667358 0x22 SLT KECCAK256 0x4C 0xAD PUSH18 0xCB0646F9DC9DB1304A33B59A23CA54B81671 PC 0xA6 0xCB 0xB3 RETURNCONTRACT 0x3E TIMESTAMP SWAP5 PUSH16 0xC93064736F6C634300081E0033000000 "
				},
				"gasEstimates": {
					"creation": {
						"codeDepositCost": "455000",
						"executionCost": "491",
						"totalCost": "455491"
					},
					"external": {
						"addPlan(uint8,uint256,uint256)": "infinite",
						"isActive(address)": "7355",
						"logicContract()": "2529",
						"owner()": "2553",
						"planDuration(uint8)": "2783",
						"planPrices(uint8)": "2760",
						"subscribe(uint8)": "infinite",
						"subscriptions(address)": "7385"
					}
				},
				"methodIdentifiers": {
					"addPlan(uint8,uint256,uint256)": "cc2d49d8",
					"isActive(address)": "9f8a13d7",
					"logicContract()": "cc0e97c9",
					"owner()": "8da5cb5b",
					"planDuration(uint8)": "76ca4f72",
					"planPrices(uint8)": "b33187e7",
					"subscribe(uint8)": "49c7e639",
					"subscriptions(address)": "f046395a"
				}
			},
			"storageLayout": {
				"storage": [
					{
						"astId": 129,
						"contract": "submissions/CCan_08/Day17/SubscriptionLogicV1.sol:SubscriptionLogicV1",
						"label": "logicContract",
						"offset": 0,
						"slot": "0",
						"type": "t_address"
					},
					{
						"astId": 131,
						"contract": "submissions/CCan_08/Day17/SubscriptionLogicV1.sol:SubscriptionLogicV1",
						"label": "owner",
						"offset": 0,
						"slot": "1",
						"type": "t_address"
					},
					{
						"astId": 143,
						"contract": "submissions/CCan_08/Day17/SubscriptionLogicV1.sol:SubscriptionLogicV1",
						"label": "subscriptions",
						"offset": 0,
						"slot": "2",
						"type": "t_mapping(t_address,t_struct(Subscription)138_storage)"
					},
					{
						"astId": 147,
						"contract": "submissions/CCan_08/Day17/SubscriptionLogicV1.sol:SubscriptionLogicV1",
						"label": "planPrices",
						"offset": 0,
						"slot": "3",
						"type": "t_mapping(t_uint8,t_uint256)"
					},
					{
						"astId": 151,
						"contract": "submissions/CCan_08/Day17/SubscriptionLogicV1.sol:SubscriptionLogicV1",
						"label": "planDuration",
						"offset": 0,
						"slot": "4",
						"type": "t_mapping(t_uint8,t_uint256)"
					}
				],
				"types": {
					"t_address": {
						"encoding": "inplace",
						"label": "address",
						"numberOfBytes": "20"
					},
					"t_bool": {
						"encoding": "inplace",
						"label": "bool",
						"numberOfBytes": "1"
					},
					"t_mapping(t_address,t_struct(Subscription)138_storage)": {
						"encoding": "mapping",
						"key": "t_address",
						"label": "mapping(address => struct SubscriptionStorageLayout.Subscription)",
						"numberOfBytes": "32",
						"value": "t_struct(Subscription)138_storage"
					},
					"t_mapping(t_uint8,t_uint256)": {
						"encoding": "mapping",
						"key": "t_uint8",
						"label": "mapping(uint8 => uint256)",
						"numberOfBytes": "32",
						"value": "t_uint256"
					},
					"t_struct(Subscription)138_storage": {
						"encoding": "inplace",
						"label": "struct SubscriptionStorageLayout.Subscription",
						"members": [
							{
								"astId": 133,
								"contract": "submissions/CCan_08/Day17/SubscriptionLogicV1.sol:SubscriptionLogicV1",
								"label": "planId",
								"offset": 0,
								"slot": "0",
								"type": "t_uint8"
							},
							{
								"astId": 135,
								"contract": "submissions/CCan_08/Day17/SubscriptionLogicV1.sol:SubscriptionLogicV1",
								"label": "expiry",
								"offset": 0,
								"slot": "1",
								"type": "t_uint256"
							},
							{
								"astId": 137,
								"contract": "submissions/CCan_08/Day17/SubscriptionLogicV1.sol:SubscriptionLogicV1",
								"label": "paused",
								"offset": 0,
								"slot": "2",
								"type": "t_bool"
							}
						],
						"numberOfBytes": "96"
					},
					"t_uint256": {
						"encoding": "inplace",
						"label": "uint256",
						"numberOfBytes": "32"
					},
					"t_uint8": {
						"encoding": "inplace",
						"label": "uint8",
						"numberOfBytes": "1"
					}
				}
			},
			"userdoc": {
				"kind": "user",
				"methods": {},
				"version": 1
			}
		}
	}
}