{
	"submissions/CCan_08/Day14/TimeLockedDepositBox.sol": {
		"TimeLockedDepositBox": {
			"abi": [
				{
					"inputs": [
						{
							"internalType": "uint256",
							"name": "lockDuration",
							"type": "uint256"
						}
					],
					"stateMutability": "nonpayable",
					"type": "constructor"
				},
				{
					"anonymous": false,
					"inputs": [
						{
							"indexed": true,
							"internalType": "address",
							"name": "previousOwner",
							"type": "address"
						},
						{
							"indexed": true,
							"internalType": "address",
							"name": "newOwner",
							"type": "address"
						}
					],
					"name": "OwnershipTransferred",
					"type": "event"
				},
				{
					"anonymous": false,
					"inputs": [
						{
							"indexed": true,
							"internalType": "address",
							"name": "owner",
							"type": "address"
						}
					],
					"name": "SecretStored",
					"type": "event"
				},
				{
					"inputs": [],
					"name": "getBoxType",
					"outputs": [
						{
							"internalType": "string",
							"name": "",
							"type": "string"
						}
					],
					"stateMutability": "pure",
					"type": "function"
				},
				{
					"inputs": [],
					"name": "getDepositTime",
					"outputs": [
						{
							"internalType": "uint256",
							"name": "",
							"type": "uint256"
						}
					],
					"stateMutability": "view",
					"type": "function"
				},
				{
					"inputs": [],
					"name": "getOwner",
					"outputs": [
						{
							"internalType": "address",
							"name": "",
							"type": "address"
						}
					],
					"stateMutability": "view",
					"type": "function"
				},
				{
					"inputs": [],
					"name": "getRemainingLockTime",
					"outputs": [
						{
							"internalType": "uint256",
							"name": "",
							"type": "uint256"
						}
					],
					"stateMutability": "view",
					"type": "function"
				},
				{
					"inputs": [],
					"name": "getSecret",
					"outputs": [
						{
							"internalType": "string",
							"name": "",
							"type": "string"
						}
					],
					"stateMutability": "view",
					"type": "function"
				},
				{
					"inputs": [],
					"name": "getUnlockTime",
					"outputs": [
						{
							"internalType": "uint256",
							"name": "",
							"type": "uint256"
						}
					],
					"stateMutability": "view",
					"type": "function"
				},
				{
					"inputs": [
						{
							"internalType": "string",
							"name": "_secret",
							"type": "string"
						}
					],
					"name": "storeSecret",
					"outputs": [],
					"stateMutability": "nonpayable",
					"type": "function"
				},
				{
					"inputs": [
						{
							"internalType": "address",
							"name": "newOwner",
							"type": "address"
						}
					],
					"name": "transferOwnership",
					"outputs": [],
					"stateMutability": "nonpayable",
					"type": "function"
				}
			],
			"devdoc": {
				"kind": "dev",
				"methods": {},
				"version": 1
			},
			"evm": {
				"assembly": "    /* \"submissions/CCan_08/Day14/TimeLockedDepositBox.sol\":90:889  contract TimeLockedDepositBox is BaseDepositBox{... */\n  mstore(0x40, 0x80)\n    /* \"submissions/CCan_08/Day14/TimeLockedDepositBox.sol\":176:269  constructor(uint256 lockDuration){... */\n  callvalue\n  dup1\n  iszero\n  tag_1\n  jumpi\n  revert(0x00, 0x00)\ntag_1:\n  pop\n  mload(0x40)\n  sub(codesize, bytecodeSize)\n  dup1\n  bytecodeSize\n  dup4\n  codecopy\n  dup2\n  dup2\n  add\n  0x40\n  mstore\n  dup2\n  add\n  swap1\n  tag_2\n  swap2\n  swap1\n  tag_3\n  jump\t// in\ntag_2:\n    /* \"submissions/CCan_08/Day14/BaseDepositBox.sol\":397:407  msg.sender */\n  caller\n    /* \"submissions/CCan_08/Day14/BaseDepositBox.sol\":389:394  owner */\n  0x00\n  0x00\n    /* \"submissions/CCan_08/Day14/BaseDepositBox.sol\":389:407  owner = msg.sender */\n  0x0100\n  exp\n  dup2\n  sload\n  dup2\n  0xffffffffffffffffffffffffffffffffffffffff\n  mul\n  not\n  and\n  swap1\n  dup4\n  0xffffffffffffffffffffffffffffffffffffffff\n  and\n  mul\n  or\n  swap1\n  sstore\n  pop\n    /* \"submissions/CCan_08/Day14/BaseDepositBox.sol\":431:446  block.timestamp */\n  timestamp\n    /* \"submissions/CCan_08/Day14/BaseDepositBox.sol\":417:428  depositTime */\n  0x02\n    /* \"submissions/CCan_08/Day14/BaseDepositBox.sol\":417:446  depositTime = block.timestamp */\n  dup2\n  swap1\n  sstore\n  pop\n    /* \"submissions/CCan_08/Day14/TimeLockedDepositBox.sol\":250:262  lockDuration */\n  dup1\n    /* \"submissions/CCan_08/Day14/TimeLockedDepositBox.sol\":232:247  block.timestamp */\n  timestamp\n    /* \"submissions/CCan_08/Day14/TimeLockedDepositBox.sol\":232:262  block.timestamp + lockDuration */\n  tag_8\n  swap2\n  swap1\n  tag_9\n  jump\t// in\ntag_8:\n    /* \"submissions/CCan_08/Day14/TimeLockedDepositBox.sol\":219:229  unlockTime */\n  0x03\n    /* \"submissions/CCan_08/Day14/TimeLockedDepositBox.sol\":219:262  unlockTime = block.timestamp + lockDuration */\n  dup2\n  swap1\n  sstore\n  pop\n    /* \"submissions/CCan_08/Day14/TimeLockedDepositBox.sol\":176:269  constructor(uint256 lockDuration){... */\n  pop\n    /* \"submissions/CCan_08/Day14/TimeLockedDepositBox.sol\":90:889  contract TimeLockedDepositBox is BaseDepositBox{... */\n  jump(tag_10)\n    /* \"#utility.yul\":88:205   */\ntag_12:\n    /* \"#utility.yul\":197:198   */\n  0x00\n    /* \"#utility.yul\":194:195   */\n  0x00\n    /* \"#utility.yul\":187:199   */\n  revert\n    /* \"#utility.yul\":334:411   */\ntag_14:\n    /* \"#utility.yul\":371:378   */\n  0x00\n    /* \"#utility.yul\":400:405   */\n  dup2\n    /* \"#utility.yul\":389:405   */\n  swap1\n  pop\n    /* \"#utility.yul\":334:411   */\n  swap2\n  swap1\n  pop\n  jump\t// out\n    /* \"#utility.yul\":417:539   */\ntag_15:\n    /* \"#utility.yul\":490:514   */\n  tag_24\n    /* \"#utility.yul\":508:513   */\n  dup2\n    /* \"#utility.yul\":490:514   */\n  tag_14\n  jump\t// in\ntag_24:\n    /* \"#utility.yul\":483:488   */\n  dup2\n    /* \"#utility.yul\":480:515   */\n  eq\n    /* \"#utility.yul\":470:533   */\n  tag_25\n  jumpi\n    /* \"#utility.yul\":529:530   */\n  0x00\n    /* \"#utility.yul\":526:527   */\n  0x00\n    /* \"#utility.yul\":519:531   */\n  revert\n    /* \"#utility.yul\":470:533   */\ntag_25:\n    /* \"#utility.yul\":417:539   */\n  pop\n  jump\t// out\n    /* \"#utility.yul\":545:688   */\ntag_16:\n    /* \"#utility.yul\":602:607   */\n  0x00\n    /* \"#utility.yul\":633:639   */\n  dup2\n    /* \"#utility.yul\":627:640   */\n  mload\n    /* \"#utility.yul\":618:640   */\n  swap1\n  pop\n    /* \"#utility.yul\":649:682   */\n  tag_27\n    /* \"#utility.yul\":676:681   */\n  dup2\n    /* \"#utility.yul\":649:682   */\n  tag_15\n  jump\t// in\ntag_27:\n    /* \"#utility.yul\":545:688   */\n  swap3\n  swap2\n  pop\n  pop\n  jump\t// out\n    /* \"#utility.yul\":694:1045   */\ntag_3:\n    /* \"#utility.yul\":764:770   */\n  0x00\n    /* \"#utility.yul\":813:815   */\n  0x20\n    /* \"#utility.yul\":801:810   */\n  dup3\n    /* \"#utility.yul\":792:799   */\n  dup5\n    /* \"#utility.yul\":788:811   */\n  sub\n    /* \"#utility.yul\":784:816   */\n  slt\n    /* \"#utility.yul\":781:900   */\n  iszero\n  tag_29\n  jumpi\n    /* \"#utility.yul\":819:898   */\n  tag_30\n  tag_12\n  jump\t// in\ntag_30:\n    /* \"#utility.yul\":781:900   */\ntag_29:\n    /* \"#utility.yul\":939:940   */\n  0x00\n    /* \"#utility.yul\":964:1028   */\n  tag_31\n    /* \"#utility.yul\":1020:1027   */\n  dup5\n    /* \"#utility.yul\":1011:1017   */\n  dup3\n    /* \"#utility.yul\":1000:1009   */\n  dup6\n    /* \"#utility.yul\":996:1018   */\n  add\n    /* \"#utility.yul\":964:1028   */\n  tag_16\n  jump\t// in\ntag_31:\n    /* \"#utility.yul\":954:1028   */\n  swap2\n  pop\n    /* \"#utility.yul\":910:1038   */\n  pop\n    /* \"#utility.yul\":694:1045   */\n  swap3\n  swap2\n  pop\n  pop\n  jump\t// out\n    /* \"#utility.yul\":1051:1231   */\ntag_17:\n    /* \"#utility.yul\":1099:1176   */\n  0x4e487b7100000000000000000000000000000000000000000000000000000000\n    /* \"#utility.yul\":1096:1097   */\n  0x00\n    /* \"#utility.yul\":1089:1177   */\n  mstore\n    /* \"#utility.yul\":1196:1200   */\n  0x11\n    /* \"#utility.yul\":1193:1194   */\n  0x04\n    /* \"#utility.yul\":1186:1201   */\n  mstore\n    /* \"#utility.yul\":1220:1224   */\n  0x24\n    /* \"#utility.yul\":1217:1218   */\n  0x00\n    /* \"#utility.yul\":1210:1225   */\n  revert\n    /* \"#utility.yul\":1237:1428   */\ntag_9:\n    /* \"#utility.yul\":1277:1280   */\n  0x00\n    /* \"#utility.yul\":1296:1316   */\n  tag_34\n    /* \"#utility.yul\":1314:1315   */\n  dup3\n    /* \"#utility.yul\":1296:1316   */\n  tag_14\n  jump\t// in\ntag_34:\n    /* \"#utility.yul\":1291:1316   */\n  swap2\n  pop\n    /* \"#utility.yul\":1330:1350   */\n  tag_35\n    /* \"#utility.yul\":1348:1349   */\n  dup4\n    /* \"#utility.yul\":1330:1350   */\n  tag_14\n  jump\t// in\ntag_35:\n    /* \"#utility.yul\":1325:1350   */\n  swap3\n  pop\n    /* \"#utility.yul\":1373:1374   */\n  dup3\n    /* \"#utility.yul\":1370:1371   */\n  dup3\n    /* \"#utility.yul\":1366:1375   */\n  add\n    /* \"#utility.yul\":1359:1375   */\n  swap1\n  pop\n    /* \"#utility.yul\":1394:1397   */\n  dup1\n    /* \"#utility.yul\":1391:1392   */\n  dup3\n    /* \"#utility.yul\":1388:1398   */\n  gt\n    /* \"#utility.yul\":1385:1421   */\n  iszero\n  tag_36\n  jumpi\n    /* \"#utility.yul\":1401:1419   */\n  tag_37\n  tag_17\n  jump\t// in\ntag_37:\n    /* \"#utility.yul\":1385:1421   */\ntag_36:\n    /* \"#utility.yul\":1237:1428   */\n  swap3\n  swap2\n  pop\n  pop\n  jump\t// out\n    /* \"submissions/CCan_08/Day14/TimeLockedDepositBox.sol\":90:889  contract TimeLockedDepositBox is BaseDepositBox{... */\ntag_10:\n  dataSize(sub_0)\n  dup1\n  dataOffset(sub_0)\n  0x00\n  codecopy\n  0x00\n  return\nstop\n\nsub_0: assembly {\n        /* \"submissions/CCan_08/Day14/TimeLockedDepositBox.sol\":90:889  contract TimeLockedDepositBox is BaseDepositBox{... */\n      mstore(0x40, 0x80)\n      callvalue\n      dup1\n      iszero\n      tag_1\n      jumpi\n      revert(0x00, 0x00)\n    tag_1:\n      pop\n      jumpi(tag_2, lt(calldatasize, 0x04))\n      shr(0xe0, calldataload(0x00))\n      dup1\n      0x7a8cd156\n      gt\n      tag_11\n      jumpi\n      dup1\n      0x7a8cd156\n      eq\n      tag_7\n      jumpi\n      dup1\n      0x893d20e8\n      eq\n      tag_8\n      jumpi\n      dup1\n      0xa14ab9f8\n      eq\n      tag_9\n      jumpi\n      dup1\n      0xf2fde38b\n      eq\n      tag_10\n      jumpi\n      jump(tag_2)\n    tag_11:\n      dup1\n      0x04199139\n      eq\n      tag_3\n      jumpi\n      dup1\n      0x51811f04\n      eq\n      tag_4\n      jumpi\n      dup1\n      0x5b9fdc30\n      eq\n      tag_5\n      jumpi\n      dup1\n      0x602bc62b\n      eq\n      tag_6\n      jumpi\n    tag_2:\n      revert(0x00, 0x00)\n        /* \"submissions/CCan_08/Day14/TimeLockedDepositBox.sol\":393:490  function getBoxType() external pure override returns (string memory) {... */\n    tag_3:\n      tag_12\n      tag_13\n      jump\t// in\n    tag_12:\n      mload(0x40)\n      tag_14\n      swap2\n      swap1\n      tag_15\n      jump\t// in\n    tag_14:\n      mload(0x40)\n      dup1\n      swap2\n      sub\n      swap1\n      return\n        /* \"submissions/CCan_08/Day14/BaseDepositBox.sol\":1160:1280  function getDepositTime() external view virtual override onlyOwner returns (uint256) {... */\n    tag_4:\n      tag_16\n      tag_17\n      jump\t// in\n    tag_16:\n      mload(0x40)\n      tag_18\n      swap2\n      swap1\n      tag_19\n      jump\t// in\n    tag_18:\n      mload(0x40)\n      dup1\n      swap2\n      sub\n      swap1\n      return\n        /* \"submissions/CCan_08/Day14/TimeLockedDepositBox.sol\":495:617  function getSecret() public view override onlyOwner timeUnlocked returns (string memory) {... */\n    tag_5:\n      tag_20\n      tag_21\n      jump\t// in\n    tag_20:\n      mload(0x40)\n      tag_22\n      swap2\n      swap1\n      tag_15\n      jump\t// in\n    tag_22:\n      mload(0x40)\n      dup1\n      swap2\n      sub\n      swap1\n      return\n        /* \"submissions/CCan_08/Day14/TimeLockedDepositBox.sol\":623:712  function getUnlockTime() external view returns(uint256){... */\n    tag_6:\n      tag_23\n      tag_24\n      jump\t// in\n    tag_23:\n      mload(0x40)\n      tag_25\n      swap2\n      swap1\n      tag_19\n      jump\t// in\n    tag_25:\n      mload(0x40)\n      dup1\n      swap2\n      sub\n      swap1\n      return\n        /* \"submissions/CCan_08/Day14/TimeLockedDepositBox.sol\":718:884  function getRemainingLockTime() external view returns(uint256){... */\n    tag_7:\n      tag_26\n      tag_27\n      jump\t// in\n    tag_26:\n      mload(0x40)\n      tag_28\n      swap2\n      swap1\n      tag_19\n      jump\t// in\n    tag_28:\n      mload(0x40)\n      dup1\n      swap2\n      sub\n      swap1\n      return\n        /* \"submissions/CCan_08/Day14/BaseDepositBox.sol\":558:645  function getOwner() public view override returns (address){... */\n    tag_8:\n      tag_29\n      tag_30\n      jump\t// in\n    tag_29:\n      mload(0x40)\n      tag_31\n      swap2\n      swap1\n      tag_32\n      jump\t// in\n    tag_31:\n      mload(0x40)\n      dup1\n      swap2\n      sub\n      swap1\n      return\n        /* \"submissions/CCan_08/Day14/BaseDepositBox.sol\":883:1035  function storeSecret(string calldata _secret)external virtual override onlyOwner{... */\n    tag_9:\n      tag_33\n      0x04\n      dup1\n      calldatasize\n      sub\n      dup2\n      add\n      swap1\n      tag_34\n      swap2\n      swap1\n      tag_35\n      jump\t// in\n    tag_34:\n      tag_36\n      jump\t// in\n    tag_33:\n      stop\n        /* \"submissions/CCan_08/Day14/BaseDepositBox.sol\":651:877  function transferOwnership(address newOwner) external virtual override onlyOwner{... */\n    tag_10:\n      tag_37\n      0x04\n      dup1\n      calldatasize\n      sub\n      dup2\n      add\n      swap1\n      tag_38\n      swap2\n      swap1\n      tag_39\n      jump\t// in\n    tag_38:\n      tag_40\n      jump\t// in\n    tag_37:\n      stop\n        /* \"submissions/CCan_08/Day14/TimeLockedDepositBox.sol\":393:490  function getBoxType() external pure override returns (string memory) {... */\n    tag_13:\n        /* \"submissions/CCan_08/Day14/TimeLockedDepositBox.sol\":447:460  string memory */\n      0x60\n        /* \"submissions/CCan_08/Day14/TimeLockedDepositBox.sol\":468:487  return \"TimeLocked\" */\n      mload(0x40)\n      dup1\n      0x40\n      add\n      0x40\n      mstore\n      dup1\n      0x0a\n      dup2\n      mstore\n      0x20\n      add\n      0x54696d654c6f636b656400000000000000000000000000000000000000000000\n      dup2\n      mstore\n      pop\n      swap1\n      pop\n        /* \"submissions/CCan_08/Day14/TimeLockedDepositBox.sol\":393:490  function getBoxType() external pure override returns (string memory) {... */\n      swap1\n      jump\t// out\n        /* \"submissions/CCan_08/Day14/BaseDepositBox.sol\":1160:1280  function getDepositTime() external view virtual override onlyOwner returns (uint256) {... */\n    tag_17:\n        /* \"submissions/CCan_08/Day14/BaseDepositBox.sol\":1236:1243  uint256 */\n      0x00\n        /* \"submissions/CCan_08/Day14/BaseDepositBox.sol\":506:516  msg.sender */\n      caller\n        /* \"submissions/CCan_08/Day14/BaseDepositBox.sol\":497:516  owner == msg.sender */\n      0xffffffffffffffffffffffffffffffffffffffff\n      and\n        /* \"submissions/CCan_08/Day14/BaseDepositBox.sol\":497:502  owner */\n      0x00\n      0x00\n      swap1\n      sload\n      swap1\n      0x0100\n      exp\n      swap1\n      div\n      0xffffffffffffffffffffffffffffffffffffffff\n      and\n        /* \"submissions/CCan_08/Day14/BaseDepositBox.sol\":497:516  owner == msg.sender */\n      0xffffffffffffffffffffffffffffffffffffffff\n      and\n      eq\n        /* \"submissions/CCan_08/Day14/BaseDepositBox.sol\":489:534  require(owner == msg.sender, \"Not the owner\") */\n      tag_43\n      jumpi\n      mload(0x40)\n      0x08c379a000000000000000000000000000000000000000000000000000000000\n      dup2\n      mstore\n      0x04\n      add\n      tag_44\n      swap1\n      tag_45\n      jump\t// in\n    tag_44:\n      mload(0x40)\n      dup1\n      swap2\n      sub\n      swap1\n      revert\n    tag_43:\n        /* \"submissions/CCan_08/Day14/BaseDepositBox.sol\":1262:1273  depositTime */\n      sload(0x02)\n        /* \"submissions/CCan_08/Day14/BaseDepositBox.sol\":1255:1273  return depositTime */\n      swap1\n      pop\n        /* \"submissions/CCan_08/Day14/BaseDepositBox.sol\":1160:1280  function getDepositTime() external view virtual override onlyOwner returns (uint256) {... */\n      swap1\n      jump\t// out\n        /* \"submissions/CCan_08/Day14/TimeLockedDepositBox.sol\":495:617  function getSecret() public view override onlyOwner timeUnlocked returns (string memory) {... */\n    tag_21:\n        /* \"submissions/CCan_08/Day14/TimeLockedDepositBox.sol\":569:582  string memory */\n      0x60\n        /* \"submissions/CCan_08/Day14/BaseDepositBox.sol\":506:516  msg.sender */\n      caller\n        /* \"submissions/CCan_08/Day14/BaseDepositBox.sol\":497:516  owner == msg.sender */\n      0xffffffffffffffffffffffffffffffffffffffff\n      and\n        /* \"submissions/CCan_08/Day14/BaseDepositBox.sol\":497:502  owner */\n      0x00\n      0x00\n      swap1\n      sload\n      swap1\n      0x0100\n      exp\n      swap1\n      div\n      0xffffffffffffffffffffffffffffffffffffffff\n      and\n        /* \"submissions/CCan_08/Day14/BaseDepositBox.sol\":497:516  owner == msg.sender */\n      0xffffffffffffffffffffffffffffffffffffffff\n      and\n      eq\n        /* \"submissions/CCan_08/Day14/BaseDepositBox.sol\":489:534  require(owner == msg.sender, \"Not the owner\") */\n      tag_48\n      jumpi\n      mload(0x40)\n      0x08c379a000000000000000000000000000000000000000000000000000000000\n      dup2\n      mstore\n      0x04\n      add\n      tag_49\n      swap1\n      tag_45\n      jump\t// in\n    tag_49:\n      mload(0x40)\n      dup1\n      swap2\n      sub\n      swap1\n      revert\n    tag_48:\n        /* \"submissions/CCan_08/Day14/TimeLockedDepositBox.sol\":335:345  unlockTime */\n      sload(0x03)\n        /* \"submissions/CCan_08/Day14/TimeLockedDepositBox.sol\":316:331  block.timestamp */\n      timestamp\n        /* \"submissions/CCan_08/Day14/TimeLockedDepositBox.sol\":316:345  block.timestamp >= unlockTime */\n      lt\n      iszero\n        /* \"submissions/CCan_08/Day14/TimeLockedDepositBox.sol\":308:369  require(block.timestamp >= unlockTime, \"Box is still locked\") */\n      tag_51\n      jumpi\n      mload(0x40)\n      0x08c379a000000000000000000000000000000000000000000000000000000000\n      dup2\n      mstore\n      0x04\n      add\n      tag_52\n      swap1\n      tag_53\n      jump\t// in\n    tag_52:\n      mload(0x40)\n      dup1\n      swap2\n      sub\n      swap1\n      revert\n    tag_51:\n        /* \"submissions/CCan_08/Day14/TimeLockedDepositBox.sol\":597:614  super.getSecret() */\n      tag_55\n        /* \"submissions/CCan_08/Day14/TimeLockedDepositBox.sol\":597:612  super.getSecret */\n      tag_56\n        /* \"submissions/CCan_08/Day14/TimeLockedDepositBox.sol\":597:614  super.getSecret() */\n      jump\t// in\n    tag_55:\n        /* \"submissions/CCan_08/Day14/TimeLockedDepositBox.sol\":590:614  return super.getSecret() */\n      swap1\n      pop\n        /* \"submissions/CCan_08/Day14/TimeLockedDepositBox.sol\":495:617  function getSecret() public view override onlyOwner timeUnlocked returns (string memory) {... */\n      swap1\n      jump\t// out\n        /* \"submissions/CCan_08/Day14/TimeLockedDepositBox.sol\":623:712  function getUnlockTime() external view returns(uint256){... */\n    tag_24:\n        /* \"submissions/CCan_08/Day14/TimeLockedDepositBox.sol\":670:677  uint256 */\n      0x00\n        /* \"submissions/CCan_08/Day14/TimeLockedDepositBox.sol\":695:705  unlockTime */\n      sload(0x03)\n        /* \"submissions/CCan_08/Day14/TimeLockedDepositBox.sol\":688:705  return unlockTime */\n      swap1\n      pop\n        /* \"submissions/CCan_08/Day14/TimeLockedDepositBox.sol\":623:712  function getUnlockTime() external view returns(uint256){... */\n      swap1\n      jump\t// out\n        /* \"submissions/CCan_08/Day14/TimeLockedDepositBox.sol\":718:884  function getRemainingLockTime() external view returns(uint256){... */\n    tag_27:\n        /* \"submissions/CCan_08/Day14/TimeLockedDepositBox.sol\":772:779  uint256 */\n      0x00\n        /* \"submissions/CCan_08/Day14/TimeLockedDepositBox.sol\":812:822  unlockTime */\n      sload(0x03)\n        /* \"submissions/CCan_08/Day14/TimeLockedDepositBox.sol\":793:808  block.timestamp */\n      timestamp\n        /* \"submissions/CCan_08/Day14/TimeLockedDepositBox.sol\":793:822  block.timestamp >= unlockTime */\n      lt\n        /* \"submissions/CCan_08/Day14/TimeLockedDepositBox.sol\":790:832  if(block.timestamp >= unlockTime) return 0 */\n      tag_59\n      jumpi\n        /* \"submissions/CCan_08/Day14/TimeLockedDepositBox.sol\":831:832  0 */\n      0x00\n        /* \"submissions/CCan_08/Day14/TimeLockedDepositBox.sol\":824:832  return 0 */\n      swap1\n      pop\n      jump(tag_58)\n        /* \"submissions/CCan_08/Day14/TimeLockedDepositBox.sol\":790:832  if(block.timestamp >= unlockTime) return 0 */\n    tag_59:\n        /* \"submissions/CCan_08/Day14/TimeLockedDepositBox.sol\":862:877  block.timestamp */\n      timestamp\n        /* \"submissions/CCan_08/Day14/TimeLockedDepositBox.sol\":849:859  unlockTime */\n      sload(0x03)\n        /* \"submissions/CCan_08/Day14/TimeLockedDepositBox.sol\":849:877  unlockTime - block.timestamp */\n      tag_60\n      swap2\n      swap1\n      tag_61\n      jump\t// in\n    tag_60:\n        /* \"submissions/CCan_08/Day14/TimeLockedDepositBox.sol\":842:877  return unlockTime - block.timestamp */\n      swap1\n      pop\n        /* \"submissions/CCan_08/Day14/TimeLockedDepositBox.sol\":718:884  function getRemainingLockTime() external view returns(uint256){... */\n    tag_58:\n      swap1\n      jump\t// out\n        /* \"submissions/CCan_08/Day14/BaseDepositBox.sol\":558:645  function getOwner() public view override returns (address){... */\n    tag_30:\n        /* \"submissions/CCan_08/Day14/BaseDepositBox.sol\":608:615  address */\n      0x00\n        /* \"submissions/CCan_08/Day14/BaseDepositBox.sol\":633:638  owner */\n      0x00\n      0x00\n      swap1\n      sload\n      swap1\n      0x0100\n      exp\n      swap1\n      div\n      0xffffffffffffffffffffffffffffffffffffffff\n      and\n        /* \"submissions/CCan_08/Day14/BaseDepositBox.sol\":626:638  return owner */\n      swap1\n      pop\n        /* \"submissions/CCan_08/Day14/BaseDepositBox.sol\":558:645  function getOwner() public view override returns (address){... */\n      swap1\n      jump\t// out\n        /* \"submissions/CCan_08/Day14/BaseDepositBox.sol\":883:1035  function storeSecret(string calldata _secret)external virtual override onlyOwner{... */\n    tag_36:\n        /* \"submissions/CCan_08/Day14/BaseDepositBox.sol\":506:516  msg.sender */\n      caller\n        /* \"submissions/CCan_08/Day14/BaseDepositBox.sol\":497:516  owner == msg.sender */\n      0xffffffffffffffffffffffffffffffffffffffff\n      and\n        /* \"submissions/CCan_08/Day14/BaseDepositBox.sol\":497:502  owner */\n      0x00\n      0x00\n      swap1\n      sload\n      swap1\n      0x0100\n      exp\n      swap1\n      div\n      0xffffffffffffffffffffffffffffffffffffffff\n      and\n        /* \"submissions/CCan_08/Day14/BaseDepositBox.sol\":497:516  owner == msg.sender */\n      0xffffffffffffffffffffffffffffffffffffffff\n      and\n      eq\n        /* \"submissions/CCan_08/Day14/BaseDepositBox.sol\":489:534  require(owner == msg.sender, \"Not the owner\") */\n      tag_64\n      jumpi\n      mload(0x40)\n      0x08c379a000000000000000000000000000000000000000000000000000000000\n      dup2\n      mstore\n      0x04\n      add\n      tag_65\n      swap1\n      tag_45\n      jump\t// in\n    tag_65:\n      mload(0x40)\n      dup1\n      swap2\n      sub\n      swap1\n      revert\n    tag_64:\n        /* \"submissions/CCan_08/Day14/BaseDepositBox.sol\":982:989  _secret */\n      dup2\n      dup2\n        /* \"submissions/CCan_08/Day14/BaseDepositBox.sol\":973:979  secret */\n      0x01\n        /* \"submissions/CCan_08/Day14/BaseDepositBox.sol\":973:989  secret = _secret */\n      swap2\n      dup3\n      tag_67\n      swap3\n      swap2\n      swap1\n      tag_68\n      jump\t// in\n    tag_67:\n      pop\n        /* \"submissions/CCan_08/Day14/BaseDepositBox.sol\":1017:1027  msg.sender */\n      caller\n        /* \"submissions/CCan_08/Day14/BaseDepositBox.sol\":1004:1028  SecretStored(msg.sender) */\n      0xffffffffffffffffffffffffffffffffffffffff\n      and\n      0x0977f4c93d6a66455eb4f1467e8a01fec7c62b1ce20353fb51b7269712e11967\n      mload(0x40)\n      mload(0x40)\n      dup1\n      swap2\n      sub\n      swap1\n      log2\n        /* \"submissions/CCan_08/Day14/BaseDepositBox.sol\":883:1035  function storeSecret(string calldata _secret)external virtual override onlyOwner{... */\n      pop\n      pop\n      jump\t// out\n        /* \"submissions/CCan_08/Day14/BaseDepositBox.sol\":651:877  function transferOwnership(address newOwner) external virtual override onlyOwner{... */\n    tag_40:\n        /* \"submissions/CCan_08/Day14/BaseDepositBox.sol\":506:516  msg.sender */\n      caller\n        /* \"submissions/CCan_08/Day14/BaseDepositBox.sol\":497:516  owner == msg.sender */\n      0xffffffffffffffffffffffffffffffffffffffff\n      and\n        /* \"submissions/CCan_08/Day14/BaseDepositBox.sol\":497:502  owner */\n      0x00\n      0x00\n      swap1\n      sload\n      swap1\n      0x0100\n      exp\n      swap1\n      div\n      0xffffffffffffffffffffffffffffffffffffffff\n      and\n        /* \"submissions/CCan_08/Day14/BaseDepositBox.sol\":497:516  owner == msg.sender */\n      0xffffffffffffffffffffffffffffffffffffffff\n      and\n      eq\n        /* \"submissions/CCan_08/Day14/BaseDepositBox.sol\":489:534  require(owner == msg.sender, \"Not the owner\") */\n      tag_70\n      jumpi\n      mload(0x40)\n      0x08c379a000000000000000000000000000000000000000000000000000000000\n      dup2\n      mstore\n      0x04\n      add\n      tag_71\n      swap1\n      tag_45\n      jump\t// in\n    tag_71:\n      mload(0x40)\n      dup1\n      swap2\n      sub\n      swap1\n      revert\n    tag_70:\n        /* \"submissions/CCan_08/Day14/BaseDepositBox.sol\":769:770  0 */\n      0x00\n        /* \"submissions/CCan_08/Day14/BaseDepositBox.sol\":749:771  newOwner != address(0) */\n      0xffffffffffffffffffffffffffffffffffffffff\n      and\n        /* \"submissions/CCan_08/Day14/BaseDepositBox.sol\":749:757  newOwner */\n      dup2\n        /* \"submissions/CCan_08/Day14/BaseDepositBox.sol\":749:771  newOwner != address(0) */\n      0xffffffffffffffffffffffffffffffffffffffff\n      and\n      sub\n        /* \"submissions/CCan_08/Day14/BaseDepositBox.sol\":741:791  require(newOwner != address(0), \"Invalid Address\") */\n      tag_73\n      jumpi\n      mload(0x40)\n      0x08c379a000000000000000000000000000000000000000000000000000000000\n      dup2\n      mstore\n      0x04\n      add\n      tag_74\n      swap1\n      tag_75\n      jump\t// in\n    tag_74:\n      mload(0x40)\n      dup1\n      swap2\n      sub\n      swap1\n      revert\n    tag_73:\n        /* \"submissions/CCan_08/Day14/BaseDepositBox.sol\":834:842  newOwner */\n      dup1\n        /* \"submissions/CCan_08/Day14/BaseDepositBox.sol\":806:843  OwnershipTransferred(owner, newOwner) */\n      0xffffffffffffffffffffffffffffffffffffffff\n      and\n        /* \"submissions/CCan_08/Day14/BaseDepositBox.sol\":827:832  owner */\n      0x00\n      0x00\n      swap1\n      sload\n      swap1\n      0x0100\n      exp\n      swap1\n      div\n      0xffffffffffffffffffffffffffffffffffffffff\n      and\n        /* \"submissions/CCan_08/Day14/BaseDepositBox.sol\":806:843  OwnershipTransferred(owner, newOwner) */\n      0xffffffffffffffffffffffffffffffffffffffff\n      and\n      0x8be0079c531659141344cd1fd0a4f28419497f9722a3daafe3b4186f6b6457e0\n      mload(0x40)\n      mload(0x40)\n      dup1\n      swap2\n      sub\n      swap1\n      log3\n        /* \"submissions/CCan_08/Day14/BaseDepositBox.sol\":862:870  newOwner */\n      dup1\n        /* \"submissions/CCan_08/Day14/BaseDepositBox.sol\":854:859  owner */\n      0x00\n      0x00\n        /* \"submissions/CCan_08/Day14/BaseDepositBox.sol\":854:870  owner = newOwner */\n      0x0100\n      exp\n      dup2\n      sload\n      dup2\n      0xffffffffffffffffffffffffffffffffffffffff\n      mul\n      not\n      and\n      swap1\n      dup4\n      0xffffffffffffffffffffffffffffffffffffffff\n      and\n      mul\n      or\n      swap1\n      sstore\n      pop\n        /* \"submissions/CCan_08/Day14/BaseDepositBox.sol\":651:877  function transferOwnership(address newOwner) external virtual override onlyOwner{... */\n      pop\n      jump\t// out\n        /* \"submissions/CCan_08/Day14/BaseDepositBox.sol\":1041:1154  function getSecret() public view virtual override onlyOwner returns (string memory){... */\n    tag_56:\n        /* \"submissions/CCan_08/Day14/BaseDepositBox.sol\":1110:1123  string memory */\n      0x60\n        /* \"submissions/CCan_08/Day14/BaseDepositBox.sol\":506:516  msg.sender */\n      caller\n        /* \"submissions/CCan_08/Day14/BaseDepositBox.sol\":497:516  owner == msg.sender */\n      0xffffffffffffffffffffffffffffffffffffffff\n      and\n        /* \"submissions/CCan_08/Day14/BaseDepositBox.sol\":497:502  owner */\n      0x00\n      0x00\n      swap1\n      sload\n      swap1\n      0x0100\n      exp\n      swap1\n      div\n      0xffffffffffffffffffffffffffffffffffffffff\n      and\n        /* \"submissions/CCan_08/Day14/BaseDepositBox.sol\":497:516  owner == msg.sender */\n      0xffffffffffffffffffffffffffffffffffffffff\n      and\n      eq\n        /* \"submissions/CCan_08/Day14/BaseDepositBox.sol\":489:534  require(owner == msg.sender, \"Not the owner\") */\n      tag_77\n      jumpi\n      mload(0x40)\n      0x08c379a000000000000000000000000000000000000000000000000000000000\n      dup2\n      mstore\n      0x04\n      add\n      tag_78\n      swap1\n      tag_45\n      jump\t// in\n    tag_78:\n      mload(0x40)\n      dup1\n      swap2\n      sub\n      swap1\n      revert\n    tag_77:\n        /* \"submissions/CCan_08/Day14/BaseDepositBox.sol\":1141:1147  secret */\n      0x01\n        /* \"submissions/CCan_08/Day14/BaseDepositBox.sol\":1134:1147  return secret */\n      dup1\n      sload\n      tag_80\n      swap1\n      tag_81\n      jump\t// in\n    tag_80:\n      dup1\n      0x1f\n      add\n      0x20\n      dup1\n      swap2\n      div\n      mul\n      0x20\n      add\n      mload(0x40)\n      swap1\n      dup2\n      add\n      0x40\n      mstore\n      dup1\n      swap3\n      swap2\n      swap1\n      dup2\n      dup2\n      mstore\n      0x20\n      add\n      dup3\n      dup1\n      sload\n      tag_82\n      swap1\n      tag_81\n      jump\t// in\n    tag_82:\n      dup1\n      iszero\n      tag_83\n      jumpi\n      dup1\n      0x1f\n      lt\n      tag_84\n      jumpi\n      0x0100\n      dup1\n      dup4\n      sload\n      div\n      mul\n      dup4\n      mstore\n      swap2\n      0x20\n      add\n      swap2\n      jump(tag_83)\n    tag_84:\n      dup3\n      add\n      swap2\n      swap1\n      0x00\n      mstore\n      keccak256(0x00, 0x20)\n      swap1\n    tag_85:\n      dup2\n      sload\n      dup2\n      mstore\n      swap1\n      0x01\n      add\n      swap1\n      0x20\n      add\n      dup1\n      dup4\n      gt\n      tag_85\n      jumpi\n      dup3\n      swap1\n      sub\n      0x1f\n      and\n      dup3\n      add\n      swap2\n    tag_83:\n      pop\n      pop\n      pop\n      pop\n      pop\n      swap1\n      pop\n        /* \"submissions/CCan_08/Day14/BaseDepositBox.sol\":1041:1154  function getSecret() public view virtual override onlyOwner returns (string memory){... */\n      swap1\n      jump\t// out\n        /* \"#utility.yul\":7:106   */\n    tag_86:\n        /* \"#utility.yul\":59:65   */\n      0x00\n        /* \"#utility.yul\":93:98   */\n      dup2\n        /* \"#utility.yul\":87:99   */\n      mload\n        /* \"#utility.yul\":77:99   */\n      swap1\n      pop\n        /* \"#utility.yul\":7:106   */\n      swap2\n      swap1\n      pop\n      jump\t// out\n        /* \"#utility.yul\":112:281   */\n    tag_87:\n        /* \"#utility.yul\":196:207   */\n      0x00\n        /* \"#utility.yul\":230:236   */\n      dup3\n        /* \"#utility.yul\":225:228   */\n      dup3\n        /* \"#utility.yul\":218:237   */\n      mstore\n        /* \"#utility.yul\":270:274   */\n      0x20\n        /* \"#utility.yul\":265:268   */\n      dup3\n        /* \"#utility.yul\":261:275   */\n      add\n        /* \"#utility.yul\":246:275   */\n      swap1\n      pop\n        /* \"#utility.yul\":112:281   */\n      swap3\n      swap2\n      pop\n      pop\n      jump\t// out\n        /* \"#utility.yul\":287:426   */\n    tag_88:\n        /* \"#utility.yul\":376:382   */\n      dup3\n        /* \"#utility.yul\":371:374   */\n      dup2\n        /* \"#utility.yul\":366:369   */\n      dup4\n        /* \"#utility.yul\":360:383   */\n      mcopy\n        /* \"#utility.yul\":417:418   */\n      0x00\n        /* \"#utility.yul\":408:414   */\n      dup4\n        /* \"#utility.yul\":403:406   */\n      dup4\n        /* \"#utility.yul\":399:415   */\n      add\n        /* \"#utility.yul\":392:419   */\n      mstore\n        /* \"#utility.yul\":287:426   */\n      pop\n      pop\n      pop\n      jump\t// out\n        /* \"#utility.yul\":432:534   */\n    tag_89:\n        /* \"#utility.yul\":473:479   */\n      0x00\n        /* \"#utility.yul\":524:526   */\n      0x1f\n        /* \"#utility.yul\":520:527   */\n      not\n        /* \"#utility.yul\":515:517   */\n      0x1f\n        /* \"#utility.yul\":508:513   */\n      dup4\n        /* \"#utility.yul\":504:518   */\n      add\n        /* \"#utility.yul\":500:528   */\n      and\n        /* \"#utility.yul\":490:528   */\n      swap1\n      pop\n        /* \"#utility.yul\":432:534   */\n      swap2\n      swap1\n      pop\n      jump\t// out\n        /* \"#utility.yul\":540:917   */\n    tag_90:\n        /* \"#utility.yul\":628:631   */\n      0x00\n        /* \"#utility.yul\":656:695   */\n      tag_136\n        /* \"#utility.yul\":689:694   */\n      dup3\n        /* \"#utility.yul\":656:695   */\n      tag_86\n      jump\t// in\n    tag_136:\n        /* \"#utility.yul\":711:782   */\n      tag_137\n        /* \"#utility.yul\":775:781   */\n      dup2\n        /* \"#utility.yul\":770:773   */\n      dup6\n        /* \"#utility.yul\":711:782   */\n      tag_87\n      jump\t// in\n    tag_137:\n        /* \"#utility.yul\":704:782   */\n      swap4\n      pop\n        /* \"#utility.yul\":791:856   */\n      tag_138\n        /* \"#utility.yul\":849:855   */\n      dup2\n        /* \"#utility.yul\":844:847   */\n      dup6\n        /* \"#utility.yul\":837:841   */\n      0x20\n        /* \"#utility.yul\":830:835   */\n      dup7\n        /* \"#utility.yul\":826:842   */\n      add\n        /* \"#utility.yul\":791:856   */\n      tag_88\n      jump\t// in\n    tag_138:\n        /* \"#utility.yul\":881:910   */\n      tag_139\n        /* \"#utility.yul\":903:909   */\n      dup2\n        /* \"#utility.yul\":881:910   */\n      tag_89\n      jump\t// in\n    tag_139:\n        /* \"#utility.yul\":876:879   */\n      dup5\n        /* \"#utility.yul\":872:911   */\n      add\n        /* \"#utility.yul\":865:911   */\n      swap2\n      pop\n        /* \"#utility.yul\":632:917   */\n      pop\n        /* \"#utility.yul\":540:917   */\n      swap3\n      swap2\n      pop\n      pop\n      jump\t// out\n        /* \"#utility.yul\":923:1236   */\n    tag_15:\n        /* \"#utility.yul\":1036:1040   */\n      0x00\n        /* \"#utility.yul\":1074:1076   */\n      0x20\n        /* \"#utility.yul\":1063:1072   */\n      dup3\n        /* \"#utility.yul\":1059:1077   */\n      add\n        /* \"#utility.yul\":1051:1077   */\n      swap1\n      pop\n        /* \"#utility.yul\":1123:1132   */\n      dup2\n        /* \"#utility.yul\":1117:1121   */\n      dup2\n        /* \"#utility.yul\":1113:1133   */\n      sub\n        /* \"#utility.yul\":1109:1110   */\n      0x00\n        /* \"#utility.yul\":1098:1107   */\n      dup4\n        /* \"#utility.yul\":1094:1111   */\n      add\n        /* \"#utility.yul\":1087:1134   */\n      mstore\n        /* \"#utility.yul\":1151:1229   */\n      tag_141\n        /* \"#utility.yul\":1224:1228   */\n      dup2\n        /* \"#utility.yul\":1215:1221   */\n      dup5\n        /* \"#utility.yul\":1151:1229   */\n      tag_90\n      jump\t// in\n    tag_141:\n        /* \"#utility.yul\":1143:1229   */\n      swap1\n      pop\n        /* \"#utility.yul\":923:1236   */\n      swap3\n      swap2\n      pop\n      pop\n      jump\t// out\n        /* \"#utility.yul\":1242:1319   */\n    tag_91:\n        /* \"#utility.yul\":1279:1286   */\n      0x00\n        /* \"#utility.yul\":1308:1313   */\n      dup2\n        /* \"#utility.yul\":1297:1313   */\n      swap1\n      pop\n        /* \"#utility.yul\":1242:1319   */\n      swap2\n      swap1\n      pop\n      jump\t// out\n        /* \"#utility.yul\":1325:1443   */\n    tag_92:\n        /* \"#utility.yul\":1412:1436   */\n      tag_144\n        /* \"#utility.yul\":1430:1435   */\n      dup2\n        /* \"#utility.yul\":1412:1436   */\n      tag_91\n      jump\t// in\n    tag_144:\n        /* \"#utility.yul\":1407:1410   */\n      dup3\n        /* \"#utility.yul\":1400:1437   */\n      mstore\n        /* \"#utility.yul\":1325:1443   */\n      pop\n      pop\n      jump\t// out\n        /* \"#utility.yul\":1449:1671   */\n    tag_19:\n        /* \"#utility.yul\":1542:1546   */\n      0x00\n        /* \"#utility.yul\":1580:1582   */\n      0x20\n        /* \"#utility.yul\":1569:1578   */\n      dup3\n        /* \"#utility.yul\":1565:1583   */\n      add\n        /* \"#utility.yul\":1557:1583   */\n      swap1\n      pop\n        /* \"#utility.yul\":1593:1664   */\n      tag_146\n        /* \"#utility.yul\":1661:1662   */\n      0x00\n        /* \"#utility.yul\":1650:1659   */\n      dup4\n        /* \"#utility.yul\":1646:1663   */\n      add\n        /* \"#utility.yul\":1637:1643   */\n      dup5\n        /* \"#utility.yul\":1593:1664   */\n      tag_92\n      jump\t// in\n    tag_146:\n        /* \"#utility.yul\":1449:1671   */\n      swap3\n      swap2\n      pop\n      pop\n      jump\t// out\n        /* \"#utility.yul\":1677:1803   */\n    tag_93:\n        /* \"#utility.yul\":1714:1721   */\n      0x00\n        /* \"#utility.yul\":1754:1796   */\n      0xffffffffffffffffffffffffffffffffffffffff\n        /* \"#utility.yul\":1747:1752   */\n      dup3\n        /* \"#utility.yul\":1743:1797   */\n      and\n        /* \"#utility.yul\":1732:1797   */\n      swap1\n      pop\n        /* \"#utility.yul\":1677:1803   */\n      swap2\n      swap1\n      pop\n      jump\t// out\n        /* \"#utility.yul\":1809:1905   */\n    tag_94:\n        /* \"#utility.yul\":1846:1853   */\n      0x00\n        /* \"#utility.yul\":1875:1899   */\n      tag_149\n        /* \"#utility.yul\":1893:1898   */\n      dup3\n        /* \"#utility.yul\":1875:1899   */\n      tag_93\n      jump\t// in\n    tag_149:\n        /* \"#utility.yul\":1864:1899   */\n      swap1\n      pop\n        /* \"#utility.yul\":1809:1905   */\n      swap2\n      swap1\n      pop\n      jump\t// out\n        /* \"#utility.yul\":1911:2029   */\n    tag_95:\n        /* \"#utility.yul\":1998:2022   */\n      tag_151\n        /* \"#utility.yul\":2016:2021   */\n      dup2\n        /* \"#utility.yul\":1998:2022   */\n      tag_94\n      jump\t// in\n    tag_151:\n        /* \"#utility.yul\":1993:1996   */\n      dup3\n        /* \"#utility.yul\":1986:2023   */\n      mstore\n        /* \"#utility.yul\":1911:2029   */\n      pop\n      pop\n      jump\t// out\n        /* \"#utility.yul\":2035:2257   */\n    tag_32:\n        /* \"#utility.yul\":2128:2132   */\n      0x00\n        /* \"#utility.yul\":2166:2168   */\n      0x20\n        /* \"#utility.yul\":2155:2164   */\n      dup3\n        /* \"#utility.yul\":2151:2169   */\n      add\n        /* \"#utility.yul\":2143:2169   */\n      swap1\n      pop\n        /* \"#utility.yul\":2179:2250   */\n      tag_153\n        /* \"#utility.yul\":2247:2248   */\n      0x00\n        /* \"#utility.yul\":2236:2245   */\n      dup4\n        /* \"#utility.yul\":2232:2249   */\n      add\n        /* \"#utility.yul\":2223:2229   */\n      dup5\n        /* \"#utility.yul\":2179:2250   */\n      tag_95\n      jump\t// in\n    tag_153:\n        /* \"#utility.yul\":2035:2257   */\n      swap3\n      swap2\n      pop\n      pop\n      jump\t// out\n        /* \"#utility.yul\":2344:2461   */\n    tag_97:\n        /* \"#utility.yul\":2453:2454   */\n      0x00\n        /* \"#utility.yul\":2450:2451   */\n      0x00\n        /* \"#utility.yul\":2443:2455   */\n      revert\n        /* \"#utility.yul\":2467:2584   */\n    tag_98:\n        /* \"#utility.yul\":2576:2577   */\n      0x00\n        /* \"#utility.yul\":2573:2574   */\n      0x00\n        /* \"#utility.yul\":2566:2578   */\n      revert\n        /* \"#utility.yul\":2590:2707   */\n    tag_99:\n        /* \"#utility.yul\":2699:2700   */\n      0x00\n        /* \"#utility.yul\":2696:2697   */\n      0x00\n        /* \"#utility.yul\":2689:2701   */\n      revert\n        /* \"#utility.yul\":2713:2830   */\n    tag_100:\n        /* \"#utility.yul\":2822:2823   */\n      0x00\n        /* \"#utility.yul\":2819:2820   */\n      0x00\n        /* \"#utility.yul\":2812:2824   */\n      revert\n        /* \"#utility.yul\":2836:2953   */\n    tag_101:\n        /* \"#utility.yul\":2945:2946   */\n      0x00\n        /* \"#utility.yul\":2942:2943   */\n      0x00\n        /* \"#utility.yul\":2935:2947   */\n      revert\n        /* \"#utility.yul\":2973:3526   */\n    tag_102:\n        /* \"#utility.yul\":3031:3039   */\n      0x00\n        /* \"#utility.yul\":3041:3047   */\n      0x00\n        /* \"#utility.yul\":3091:3094   */\n      dup4\n        /* \"#utility.yul\":3084:3088   */\n      0x1f\n        /* \"#utility.yul\":3076:3082   */\n      dup5\n        /* \"#utility.yul\":3072:3089   */\n      add\n        /* \"#utility.yul\":3068:3095   */\n      slt\n        /* \"#utility.yul\":3058:3180   */\n      tag_161\n      jumpi\n        /* \"#utility.yul\":3099:3178   */\n      tag_162\n      tag_99\n      jump\t// in\n    tag_162:\n        /* \"#utility.yul\":3058:3180   */\n    tag_161:\n        /* \"#utility.yul\":3212:3218   */\n      dup3\n        /* \"#utility.yul\":3199:3219   */\n      calldataload\n        /* \"#utility.yul\":3189:3219   */\n      swap1\n      pop\n        /* \"#utility.yul\":3242:3260   */\n      0xffffffffffffffff\n        /* \"#utility.yul\":3234:3240   */\n      dup2\n        /* \"#utility.yul\":3231:3261   */\n      gt\n        /* \"#utility.yul\":3228:3345   */\n      iszero\n      tag_163\n      jumpi\n        /* \"#utility.yul\":3264:3343   */\n      tag_164\n      tag_100\n      jump\t// in\n    tag_164:\n        /* \"#utility.yul\":3228:3345   */\n    tag_163:\n        /* \"#utility.yul\":3378:3382   */\n      0x20\n        /* \"#utility.yul\":3370:3376   */\n      dup4\n        /* \"#utility.yul\":3366:3383   */\n      add\n        /* \"#utility.yul\":3354:3383   */\n      swap2\n      pop\n        /* \"#utility.yul\":3432:3435   */\n      dup4\n        /* \"#utility.yul\":3424:3428   */\n      0x01\n        /* \"#utility.yul\":3416:3422   */\n      dup3\n        /* \"#utility.yul\":3412:3429   */\n      mul\n        /* \"#utility.yul\":3402:3410   */\n      dup4\n        /* \"#utility.yul\":3398:3430   */\n      add\n        /* \"#utility.yul\":3395:3436   */\n      gt\n        /* \"#utility.yul\":3392:3520   */\n      iszero\n      tag_165\n      jumpi\n        /* \"#utility.yul\":3439:3518   */\n      tag_166\n      tag_101\n      jump\t// in\n    tag_166:\n        /* \"#utility.yul\":3392:3520   */\n    tag_165:\n        /* \"#utility.yul\":2973:3526   */\n      swap3\n      pop\n      swap3\n      swap1\n      pop\n      jump\t// out\n        /* \"#utility.yul\":3532:4061   */\n    tag_35:\n        /* \"#utility.yul\":3603:3609   */\n      0x00\n        /* \"#utility.yul\":3611:3617   */\n      0x00\n        /* \"#utility.yul\":3660:3662   */\n      0x20\n        /* \"#utility.yul\":3648:3657   */\n      dup4\n        /* \"#utility.yul\":3639:3646   */\n      dup6\n        /* \"#utility.yul\":3635:3658   */\n      sub\n        /* \"#utility.yul\":3631:3663   */\n      slt\n        /* \"#utility.yul\":3628:3747   */\n      iszero\n      tag_168\n      jumpi\n        /* \"#utility.yul\":3666:3745   */\n      tag_169\n      tag_97\n      jump\t// in\n    tag_169:\n        /* \"#utility.yul\":3628:3747   */\n    tag_168:\n        /* \"#utility.yul\":3814:3815   */\n      0x00\n        /* \"#utility.yul\":3803:3812   */\n      dup4\n        /* \"#utility.yul\":3799:3816   */\n      add\n        /* \"#utility.yul\":3786:3817   */\n      calldataload\n        /* \"#utility.yul\":3844:3862   */\n      0xffffffffffffffff\n        /* \"#utility.yul\":3836:3842   */\n      dup2\n        /* \"#utility.yul\":3833:3863   */\n      gt\n        /* \"#utility.yul\":3830:3947   */\n      iszero\n      tag_170\n      jumpi\n        /* \"#utility.yul\":3866:3945   */\n      tag_171\n      tag_98\n      jump\t// in\n    tag_171:\n        /* \"#utility.yul\":3830:3947   */\n    tag_170:\n        /* \"#utility.yul\":3979:4044   */\n      tag_172\n        /* \"#utility.yul\":4036:4043   */\n      dup6\n        /* \"#utility.yul\":4027:4033   */\n      dup3\n        /* \"#utility.yul\":4016:4025   */\n      dup7\n        /* \"#utility.yul\":4012:4034   */\n      add\n        /* \"#utility.yul\":3979:4044   */\n      tag_102\n      jump\t// in\n    tag_172:\n        /* \"#utility.yul\":3961:4044   */\n      swap3\n      pop\n      swap3\n      pop\n        /* \"#utility.yul\":3757:4054   */\n      pop\n        /* \"#utility.yul\":3532:4061   */\n      swap3\n      pop\n      swap3\n      swap1\n      pop\n      jump\t// out\n        /* \"#utility.yul\":4067:4189   */\n    tag_103:\n        /* \"#utility.yul\":4140:4164   */\n      tag_174\n        /* \"#utility.yul\":4158:4163   */\n      dup2\n        /* \"#utility.yul\":4140:4164   */\n      tag_94\n      jump\t// in\n    tag_174:\n        /* \"#utility.yul\":4133:4138   */\n      dup2\n        /* \"#utility.yul\":4130:4165   */\n      eq\n        /* \"#utility.yul\":4120:4183   */\n      tag_175\n      jumpi\n        /* \"#utility.yul\":4179:4180   */\n      0x00\n        /* \"#utility.yul\":4176:4177   */\n      0x00\n        /* \"#utility.yul\":4169:4181   */\n      revert\n        /* \"#utility.yul\":4120:4183   */\n    tag_175:\n        /* \"#utility.yul\":4067:4189   */\n      pop\n      jump\t// out\n        /* \"#utility.yul\":4195:4334   */\n    tag_104:\n        /* \"#utility.yul\":4241:4246   */\n      0x00\n        /* \"#utility.yul\":4279:4285   */\n      dup2\n        /* \"#utility.yul\":4266:4286   */\n      calldataload\n        /* \"#utility.yul\":4257:4286   */\n      swap1\n      pop\n        /* \"#utility.yul\":4295:4328   */\n      tag_177\n        /* \"#utility.yul\":4322:4327   */\n      dup2\n        /* \"#utility.yul\":4295:4328   */\n      tag_103\n      jump\t// in\n    tag_177:\n        /* \"#utility.yul\":4195:4334   */\n      swap3\n      swap2\n      pop\n      pop\n      jump\t// out\n        /* \"#utility.yul\":4340:4669   */\n    tag_39:\n        /* \"#utility.yul\":4399:4405   */\n      0x00\n        /* \"#utility.yul\":4448:4450   */\n      0x20\n        /* \"#utility.yul\":4436:4445   */\n      dup3\n        /* \"#utility.yul\":4427:4434   */\n      dup5\n        /* \"#utility.yul\":4423:4446   */\n      sub\n        /* \"#utility.yul\":4419:4451   */\n      slt\n        /* \"#utility.yul\":4416:4535   */\n      iszero\n      tag_179\n      jumpi\n        /* \"#utility.yul\":4454:4533   */\n      tag_180\n      tag_97\n      jump\t// in\n    tag_180:\n        /* \"#utility.yul\":4416:4535   */\n    tag_179:\n        /* \"#utility.yul\":4574:4575   */\n      0x00\n        /* \"#utility.yul\":4599:4652   */\n      tag_181\n        /* \"#utility.yul\":4644:4651   */\n      dup5\n        /* \"#utility.yul\":4635:4641   */\n      dup3\n        /* \"#utility.yul\":4624:4633   */\n      dup6\n        /* \"#utility.yul\":4620:4642   */\n      add\n        /* \"#utility.yul\":4599:4652   */\n      tag_104\n      jump\t// in\n    tag_181:\n        /* \"#utility.yul\":4589:4652   */\n      swap2\n      pop\n        /* \"#utility.yul\":4545:4662   */\n      pop\n        /* \"#utility.yul\":4340:4669   */\n      swap3\n      swap2\n      pop\n      pop\n      jump\t// out\n        /* \"#utility.yul\":4675:4838   */\n    tag_105:\n        /* \"#utility.yul\":4815:4830   */\n      0x4e6f7420746865206f776e657200000000000000000000000000000000000000\n        /* \"#utility.yul\":4811:4812   */\n      0x00\n        /* \"#utility.yul\":4803:4809   */\n      dup3\n        /* \"#utility.yul\":4799:4813   */\n      add\n        /* \"#utility.yul\":4792:4831   */\n      mstore\n        /* \"#utility.yul\":4675:4838   */\n      pop\n      jump\t// out\n        /* \"#utility.yul\":4844:5210   */\n    tag_106:\n        /* \"#utility.yul\":4986:4989   */\n      0x00\n        /* \"#utility.yul\":5007:5074   */\n      tag_184\n        /* \"#utility.yul\":5071:5073   */\n      0x0d\n        /* \"#utility.yul\":5066:5069   */\n      dup4\n        /* \"#utility.yul\":5007:5074   */\n      tag_87\n      jump\t// in\n    tag_184:\n        /* \"#utility.yul\":5000:5074   */\n      swap2\n      pop\n        /* \"#utility.yul\":5083:5176   */\n      tag_185\n        /* \"#utility.yul\":5172:5175   */\n      dup3\n        /* \"#utility.yul\":5083:5176   */\n      tag_105\n      jump\t// in\n    tag_185:\n        /* \"#utility.yul\":5201:5203   */\n      0x20\n        /* \"#utility.yul\":5196:5199   */\n      dup3\n        /* \"#utility.yul\":5192:5204   */\n      add\n        /* \"#utility.yul\":5185:5204   */\n      swap1\n      pop\n        /* \"#utility.yul\":4844:5210   */\n      swap2\n      swap1\n      pop\n      jump\t// out\n        /* \"#utility.yul\":5216:5635   */\n    tag_45:\n        /* \"#utility.yul\":5382:5386   */\n      0x00\n        /* \"#utility.yul\":5420:5422   */\n      0x20\n        /* \"#utility.yul\":5409:5418   */\n      dup3\n        /* \"#utility.yul\":5405:5423   */\n      add\n        /* \"#utility.yul\":5397:5423   */\n      swap1\n      pop\n        /* \"#utility.yul\":5469:5478   */\n      dup2\n        /* \"#utility.yul\":5463:5467   */\n      dup2\n        /* \"#utility.yul\":5459:5479   */\n      sub\n        /* \"#utility.yul\":5455:5456   */\n      0x00\n        /* \"#utility.yul\":5444:5453   */\n      dup4\n        /* \"#utility.yul\":5440:5457   */\n      add\n        /* \"#utility.yul\":5433:5480   */\n      mstore\n        /* \"#utility.yul\":5497:5628   */\n      tag_187\n        /* \"#utility.yul\":5623:5627   */\n      dup2\n        /* \"#utility.yul\":5497:5628   */\n      tag_106\n      jump\t// in\n    tag_187:\n        /* \"#utility.yul\":5489:5628   */\n      swap1\n      pop\n        /* \"#utility.yul\":5216:5635   */\n      swap2\n      swap1\n      pop\n      jump\t// out\n        /* \"#utility.yul\":5641:5810   */\n    tag_107:\n        /* \"#utility.yul\":5781:5802   */\n      0x426f78206973207374696c6c206c6f636b656400000000000000000000000000\n        /* \"#utility.yul\":5777:5778   */\n      0x00\n        /* \"#utility.yul\":5769:5775   */\n      dup3\n        /* \"#utility.yul\":5765:5779   */\n      add\n        /* \"#utility.yul\":5758:5803   */\n      mstore\n        /* \"#utility.yul\":5641:5810   */\n      pop\n      jump\t// out\n        /* \"#utility.yul\":5816:6182   */\n    tag_108:\n        /* \"#utility.yul\":5958:5961   */\n      0x00\n        /* \"#utility.yul\":5979:6046   */\n      tag_190\n        /* \"#utility.yul\":6043:6045   */\n      0x13\n        /* \"#utility.yul\":6038:6041   */\n      dup4\n        /* \"#utility.yul\":5979:6046   */\n      tag_87\n      jump\t// in\n    tag_190:\n        /* \"#utility.yul\":5972:6046   */\n      swap2\n      pop\n        /* \"#utility.yul\":6055:6148   */\n      tag_191\n        /* \"#utility.yul\":6144:6147   */\n      dup3\n        /* \"#utility.yul\":6055:6148   */\n      tag_107\n      jump\t// in\n    tag_191:\n        /* \"#utility.yul\":6173:6175   */\n      0x20\n        /* \"#utility.yul\":6168:6171   */\n      dup3\n        /* \"#utility.yul\":6164:6176   */\n      add\n        /* \"#utility.yul\":6157:6176   */\n      swap1\n      pop\n        /* \"#utility.yul\":5816:6182   */\n      swap2\n      swap1\n      pop\n      jump\t// out\n        /* \"#utility.yul\":6188:6607   */\n    tag_53:\n        /* \"#utility.yul\":6354:6358   */\n      0x00\n        /* \"#utility.yul\":6392:6394   */\n      0x20\n        /* \"#utility.yul\":6381:6390   */\n      dup3\n        /* \"#utility.yul\":6377:6395   */\n      add\n        /* \"#utility.yul\":6369:6395   */\n      swap1\n      pop\n        /* \"#utility.yul\":6441:6450   */\n      dup2\n        /* \"#utility.yul\":6435:6439   */\n      dup2\n        /* \"#utility.yul\":6431:6451   */\n      sub\n        /* \"#utility.yul\":6427:6428   */\n      0x00\n        /* \"#utility.yul\":6416:6425   */\n      dup4\n        /* \"#utility.yul\":6412:6429   */\n      add\n        /* \"#utility.yul\":6405:6452   */\n      mstore\n        /* \"#utility.yul\":6469:6600   */\n      tag_193\n        /* \"#utility.yul\":6595:6599   */\n      dup2\n        /* \"#utility.yul\":6469:6600   */\n      tag_108\n      jump\t// in\n    tag_193:\n        /* \"#utility.yul\":6461:6600   */\n      swap1\n      pop\n        /* \"#utility.yul\":6188:6607   */\n      swap2\n      swap1\n      pop\n      jump\t// out\n        /* \"#utility.yul\":6613:6793   */\n    tag_109:\n        /* \"#utility.yul\":6661:6738   */\n      0x4e487b7100000000000000000000000000000000000000000000000000000000\n        /* \"#utility.yul\":6658:6659   */\n      0x00\n        /* \"#utility.yul\":6651:6739   */\n      mstore\n        /* \"#utility.yul\":6758:6762   */\n      0x11\n        /* \"#utility.yul\":6755:6756   */\n      0x04\n        /* \"#utility.yul\":6748:6763   */\n      mstore\n        /* \"#utility.yul\":6782:6786   */\n      0x24\n        /* \"#utility.yul\":6779:6780   */\n      0x00\n        /* \"#utility.yul\":6772:6787   */\n      revert\n        /* \"#utility.yul\":6799:6993   */\n    tag_61:\n        /* \"#utility.yul\":6839:6843   */\n      0x00\n        /* \"#utility.yul\":6859:6879   */\n      tag_196\n        /* \"#utility.yul\":6877:6878   */\n      dup3\n        /* \"#utility.yul\":6859:6879   */\n      tag_91\n      jump\t// in\n    tag_196:\n        /* \"#utility.yul\":6854:6879   */\n      swap2\n      pop\n        /* \"#utility.yul\":6893:6913   */\n      tag_197\n        /* \"#utility.yul\":6911:6912   */\n      dup4\n        /* \"#utility.yul\":6893:6913   */\n      tag_91\n      jump\t// in\n    tag_197:\n        /* \"#utility.yul\":6888:6913   */\n      swap3\n      pop\n        /* \"#utility.yul\":6937:6938   */\n      dup3\n        /* \"#utility.yul\":6934:6935   */\n      dup3\n        /* \"#utility.yul\":6930:6939   */\n      sub\n        /* \"#utility.yul\":6922:6939   */\n      swap1\n      pop\n        /* \"#utility.yul\":6961:6962   */\n      dup2\n        /* \"#utility.yul\":6955:6959   */\n      dup2\n        /* \"#utility.yul\":6952:6963   */\n      gt\n        /* \"#utility.yul\":6949:6986   */\n      iszero\n      tag_198\n      jumpi\n        /* \"#utility.yul\":6966:6984   */\n      tag_199\n      tag_109\n      jump\t// in\n    tag_199:\n        /* \"#utility.yul\":6949:6986   */\n    tag_198:\n        /* \"#utility.yul\":6799:6993   */\n      swap3\n      swap2\n      pop\n      pop\n      jump\t// out\n        /* \"#utility.yul\":6999:7096   */\n    tag_110:\n        /* \"#utility.yul\":7058:7064   */\n      0x00\n        /* \"#utility.yul\":7086:7089   */\n      dup3\n        /* \"#utility.yul\":7076:7089   */\n      swap1\n      pop\n        /* \"#utility.yul\":6999:7096   */\n      swap3\n      swap2\n      pop\n      pop\n      jump\t// out\n        /* \"#utility.yul\":7102:7282   */\n    tag_111:\n        /* \"#utility.yul\":7150:7227   */\n      0x4e487b7100000000000000000000000000000000000000000000000000000000\n        /* \"#utility.yul\":7147:7148   */\n      0x00\n        /* \"#utility.yul\":7140:7228   */\n      mstore\n        /* \"#utility.yul\":7247:7251   */\n      0x41\n        /* \"#utility.yul\":7244:7245   */\n      0x04\n        /* \"#utility.yul\":7237:7252   */\n      mstore\n        /* \"#utility.yul\":7271:7275   */\n      0x24\n        /* \"#utility.yul\":7268:7269   */\n      0x00\n        /* \"#utility.yul\":7261:7276   */\n      revert\n        /* \"#utility.yul\":7288:7468   */\n    tag_112:\n        /* \"#utility.yul\":7336:7413   */\n      0x4e487b7100000000000000000000000000000000000000000000000000000000\n        /* \"#utility.yul\":7333:7334   */\n      0x00\n        /* \"#utility.yul\":7326:7414   */\n      mstore\n        /* \"#utility.yul\":7433:7437   */\n      0x22\n        /* \"#utility.yul\":7430:7431   */\n      0x04\n        /* \"#utility.yul\":7423:7438   */\n      mstore\n        /* \"#utility.yul\":7457:7461   */\n      0x24\n        /* \"#utility.yul\":7454:7455   */\n      0x00\n        /* \"#utility.yul\":7447:7462   */\n      revert\n        /* \"#utility.yul\":7474:7794   */\n    tag_81:\n        /* \"#utility.yul\":7518:7524   */\n      0x00\n        /* \"#utility.yul\":7555:7556   */\n      0x02\n        /* \"#utility.yul\":7549:7553   */\n      dup3\n        /* \"#utility.yul\":7545:7557   */\n      div\n        /* \"#utility.yul\":7535:7557   */\n      swap1\n      pop\n        /* \"#utility.yul\":7602:7603   */\n      0x01\n        /* \"#utility.yul\":7596:7600   */\n      dup3\n        /* \"#utility.yul\":7592:7604   */\n      and\n        /* \"#utility.yul\":7623:7641   */\n      dup1\n        /* \"#utility.yul\":7613:7694   */\n      tag_204\n      jumpi\n        /* \"#utility.yul\":7679:7683   */\n      0x7f\n        /* \"#utility.yul\":7671:7677   */\n      dup3\n        /* \"#utility.yul\":7667:7684   */\n      and\n        /* \"#utility.yul\":7657:7684   */\n      swap2\n      pop\n        /* \"#utility.yul\":7613:7694   */\n    tag_204:\n        /* \"#utility.yul\":7741:7743   */\n      0x20\n        /* \"#utility.yul\":7733:7739   */\n      dup3\n        /* \"#utility.yul\":7730:7744   */\n      lt\n        /* \"#utility.yul\":7710:7728   */\n      dup2\n        /* \"#utility.yul\":7707:7745   */\n      sub\n        /* \"#utility.yul\":7704:7788   */\n      tag_205\n      jumpi\n        /* \"#utility.yul\":7760:7778   */\n      tag_206\n      tag_112\n      jump\t// in\n    tag_206:\n        /* \"#utility.yul\":7704:7788   */\n    tag_205:\n        /* \"#utility.yul\":7525:7794   */\n      pop\n        /* \"#utility.yul\":7474:7794   */\n      swap2\n      swap1\n      pop\n      jump\t// out\n        /* \"#utility.yul\":7800:7941   */\n    tag_113:\n        /* \"#utility.yul\":7849:7853   */\n      0x00\n        /* \"#utility.yul\":7872:7875   */\n      dup2\n        /* \"#utility.yul\":7864:7875   */\n      swap1\n      pop\n        /* \"#utility.yul\":7895:7898   */\n      dup2\n        /* \"#utility.yul\":7892:7893   */\n      0x00\n        /* \"#utility.yul\":7885:7899   */\n      mstore\n        /* \"#utility.yul\":7929:7933   */\n      0x20\n        /* \"#utility.yul\":7926:7927   */\n      0x00\n        /* \"#utility.yul\":7916:7934   */\n      keccak256\n        /* \"#utility.yul\":7908:7934   */\n      swap1\n      pop\n        /* \"#utility.yul\":7800:7941   */\n      swap2\n      swap1\n      pop\n      jump\t// out\n        /* \"#utility.yul\":7947:8040   */\n    tag_114:\n        /* \"#utility.yul\":7984:7990   */\n      0x00\n        /* \"#utility.yul\":8031:8033   */\n      0x20\n        /* \"#utility.yul\":8026:8028   */\n      0x1f\n        /* \"#utility.yul\":8019:8024   */\n      dup4\n        /* \"#utility.yul\":8015:8029   */\n      add\n        /* \"#utility.yul\":8011:8034   */\n      div\n        /* \"#utility.yul\":8001:8034   */\n      swap1\n      pop\n        /* \"#utility.yul\":7947:8040   */\n      swap2\n      swap1\n      pop\n      jump\t// out\n        /* \"#utility.yul\":8046:8153   */\n    tag_115:\n        /* \"#utility.yul\":8090:8098   */\n      0x00\n        /* \"#utility.yul\":8140:8145   */\n      dup3\n        /* \"#utility.yul\":8134:8138   */\n      dup3\n        /* \"#utility.yul\":8130:8146   */\n      shl\n        /* \"#utility.yul\":8109:8146   */\n      swap1\n      pop\n        /* \"#utility.yul\":8046:8153   */\n      swap3\n      swap2\n      pop\n      pop\n      jump\t// out\n        /* \"#utility.yul\":8159:8552   */\n    tag_116:\n        /* \"#utility.yul\":8228:8234   */\n      0x00\n        /* \"#utility.yul\":8278:8279   */\n      0x08\n        /* \"#utility.yul\":8266:8276   */\n      dup4\n        /* \"#utility.yul\":8262:8280   */\n      mul\n        /* \"#utility.yul\":8301:8398   */\n      tag_211\n        /* \"#utility.yul\":8331:8397   */\n      0xffffffffffffffffffffffffffffffffffffffffffffffffffffffffffffffff\n        /* \"#utility.yul\":8320:8329   */\n      dup3\n        /* \"#utility.yul\":8301:8398   */\n      tag_115\n      jump\t// in\n    tag_211:\n        /* \"#utility.yul\":8419:8458   */\n      tag_212\n        /* \"#utility.yul\":8449:8457   */\n      dup7\n        /* \"#utility.yul\":8438:8447   */\n      dup4\n        /* \"#utility.yul\":8419:8458   */\n      tag_115\n      jump\t// in\n    tag_212:\n        /* \"#utility.yul\":8407:8458   */\n      swap6\n      pop\n        /* \"#utility.yul\":8491:8495   */\n      dup1\n        /* \"#utility.yul\":8487:8496   */\n      not\n        /* \"#utility.yul\":8480:8485   */\n      dup5\n        /* \"#utility.yul\":8476:8497   */\n      and\n        /* \"#utility.yul\":8467:8497   */\n      swap4\n      pop\n        /* \"#utility.yul\":8540:8544   */\n      dup1\n        /* \"#utility.yul\":8530:8538   */\n      dup7\n        /* \"#utility.yul\":8526:8545   */\n      and\n        /* \"#utility.yul\":8519:8524   */\n      dup5\n        /* \"#utility.yul\":8516:8546   */\n      or\n        /* \"#utility.yul\":8506:8546   */\n      swap3\n      pop\n        /* \"#utility.yul\":8235:8552   */\n      pop\n      pop\n        /* \"#utility.yul\":8159:8552   */\n      swap4\n      swap3\n      pop\n      pop\n      pop\n      jump\t// out\n        /* \"#utility.yul\":8558:8618   */\n    tag_117:\n        /* \"#utility.yul\":8586:8589   */\n      0x00\n        /* \"#utility.yul\":8607:8612   */\n      dup2\n        /* \"#utility.yul\":8600:8612   */\n      swap1\n      pop\n        /* \"#utility.yul\":8558:8618   */\n      swap2\n      swap1\n      pop\n      jump\t// out\n        /* \"#utility.yul\":8624:8766   */\n    tag_118:\n        /* \"#utility.yul\":8674:8683   */\n      0x00\n        /* \"#utility.yul\":8707:8760   */\n      tag_215\n        /* \"#utility.yul\":8725:8759   */\n      tag_216\n        /* \"#utility.yul\":8734:8758   */\n      tag_217\n        /* \"#utility.yul\":8752:8757   */\n      dup5\n        /* \"#utility.yul\":8734:8758   */\n      tag_91\n      jump\t// in\n    tag_217:\n        /* \"#utility.yul\":8725:8759   */\n      tag_117\n      jump\t// in\n    tag_216:\n        /* \"#utility.yul\":8707:8760   */\n      tag_91\n      jump\t// in\n    tag_215:\n        /* \"#utility.yul\":8694:8760   */\n      swap1\n      pop\n        /* \"#utility.yul\":8624:8766   */\n      swap2\n      swap1\n      pop\n      jump\t// out\n        /* \"#utility.yul\":8772:8847   */\n    tag_119:\n        /* \"#utility.yul\":8815:8818   */\n      0x00\n        /* \"#utility.yul\":8836:8841   */\n      dup2\n        /* \"#utility.yul\":8829:8841   */\n      swap1\n      pop\n        /* \"#utility.yul\":8772:8847   */\n      swap2\n      swap1\n      pop\n      jump\t// out\n        /* \"#utility.yul\":8853:9122   */\n    tag_120:\n        /* \"#utility.yul\":8963:9002   */\n      tag_220\n        /* \"#utility.yul\":8994:9001   */\n      dup4\n        /* \"#utility.yul\":8963:9002   */\n      tag_118\n      jump\t// in\n    tag_220:\n        /* \"#utility.yul\":9024:9115   */\n      tag_221\n        /* \"#utility.yul\":9073:9114   */\n      tag_222\n        /* \"#utility.yul\":9097:9113   */\n      dup3\n        /* \"#utility.yul\":9073:9114   */\n      tag_119\n      jump\t// in\n    tag_222:\n        /* \"#utility.yul\":9065:9071   */\n      dup5\n        /* \"#utility.yul\":9058:9062   */\n      dup5\n        /* \"#utility.yul\":9052:9063   */\n      sload\n        /* \"#utility.yul\":9024:9115   */\n      tag_116\n      jump\t// in\n    tag_221:\n        /* \"#utility.yul\":9018:9022   */\n      dup3\n        /* \"#utility.yul\":9011:9116   */\n      sstore\n        /* \"#utility.yul\":8929:9122   */\n      pop\n        /* \"#utility.yul\":8853:9122   */\n      pop\n      pop\n      pop\n      jump\t// out\n        /* \"#utility.yul\":9128:9201   */\n    tag_121:\n        /* \"#utility.yul\":9173:9176   */\n      0x00\n        /* \"#utility.yul\":9194:9195   */\n      0x00\n        /* \"#utility.yul\":9187:9195   */\n      swap1\n      pop\n        /* \"#utility.yul\":9128:9201   */\n      swap1\n      jump\t// out\n        /* \"#utility.yul\":9207:9396   */\n    tag_122:\n        /* \"#utility.yul\":9284:9316   */\n      tag_225\n      tag_121\n      jump\t// in\n    tag_225:\n        /* \"#utility.yul\":9325:9390   */\n      tag_226\n        /* \"#utility.yul\":9383:9389   */\n      dup2\n        /* \"#utility.yul\":9375:9381   */\n      dup5\n        /* \"#utility.yul\":9369:9373   */\n      dup5\n        /* \"#utility.yul\":9325:9390   */\n      tag_120\n      jump\t// in\n    tag_226:\n        /* \"#utility.yul\":9260:9396   */\n      pop\n        /* \"#utility.yul\":9207:9396   */\n      pop\n      pop\n      jump\t// out\n        /* \"#utility.yul\":9402:9588   */\n    tag_123:\n        /* \"#utility.yul\":9462:9582   */\n    tag_228:\n        /* \"#utility.yul\":9479:9482   */\n      dup2\n        /* \"#utility.yul\":9472:9477   */\n      dup2\n        /* \"#utility.yul\":9469:9483   */\n      lt\n        /* \"#utility.yul\":9462:9582   */\n      iszero\n      tag_230\n      jumpi\n        /* \"#utility.yul\":9533:9572   */\n      tag_231\n        /* \"#utility.yul\":9570:9571   */\n      0x00\n        /* \"#utility.yul\":9563:9568   */\n      dup3\n        /* \"#utility.yul\":9533:9572   */\n      tag_122\n      jump\t// in\n    tag_231:\n        /* \"#utility.yul\":9506:9507   */\n      0x01\n        /* \"#utility.yul\":9499:9504   */\n      dup2\n        /* \"#utility.yul\":9495:9508   */\n      add\n        /* \"#utility.yul\":9486:9508   */\n      swap1\n      pop\n        /* \"#utility.yul\":9462:9582   */\n      jump(tag_228)\n    tag_230:\n        /* \"#utility.yul\":9402:9588   */\n      pop\n      pop\n      jump\t// out\n        /* \"#utility.yul\":9594:10137   */\n    tag_124:\n        /* \"#utility.yul\":9695:9697   */\n      0x1f\n        /* \"#utility.yul\":9690:9693   */\n      dup3\n        /* \"#utility.yul\":9687:9698   */\n      gt\n        /* \"#utility.yul\":9684:10130   */\n      iszero\n      tag_233\n      jumpi\n        /* \"#utility.yul\":9729:9767   */\n      tag_234\n        /* \"#utility.yul\":9761:9766   */\n      dup2\n        /* \"#utility.yul\":9729:9767   */\n      tag_113\n      jump\t// in\n    tag_234:\n        /* \"#utility.yul\":9813:9842   */\n      tag_235\n        /* \"#utility.yul\":9831:9841   */\n      dup5\n        /* \"#utility.yul\":9813:9842   */\n      tag_114\n      jump\t// in\n    tag_235:\n        /* \"#utility.yul\":9803:9811   */\n      dup2\n        /* \"#utility.yul\":9799:9843   */\n      add\n        /* \"#utility.yul\":9996:9998   */\n      0x20\n        /* \"#utility.yul\":9984:9994   */\n      dup6\n        /* \"#utility.yul\":9981:9999   */\n      lt\n        /* \"#utility.yul\":9978:10027   */\n      iszero\n      tag_236\n      jumpi\n        /* \"#utility.yul\":10017:10025   */\n      dup2\n        /* \"#utility.yul\":10002:10025   */\n      swap1\n      pop\n        /* \"#utility.yul\":9978:10027   */\n    tag_236:\n        /* \"#utility.yul\":10040:10120   */\n      tag_237\n        /* \"#utility.yul\":10096:10118   */\n      tag_238\n        /* \"#utility.yul\":10114:10117   */\n      dup6\n        /* \"#utility.yul\":10096:10118   */\n      tag_114\n      jump\t// in\n    tag_238:\n        /* \"#utility.yul\":10086:10094   */\n      dup4\n        /* \"#utility.yul\":10082:10119   */\n      add\n        /* \"#utility.yul\":10069:10080   */\n      dup3\n        /* \"#utility.yul\":10040:10120   */\n      tag_123\n      jump\t// in\n    tag_237:\n        /* \"#utility.yul\":9699:10130   */\n      pop\n      pop\n        /* \"#utility.yul\":9684:10130   */\n    tag_233:\n        /* \"#utility.yul\":9594:10137   */\n      pop\n      pop\n      pop\n      jump\t// out\n        /* \"#utility.yul\":10143:10260   */\n    tag_125:\n        /* \"#utility.yul\":10197:10205   */\n      0x00\n        /* \"#utility.yul\":10247:10252   */\n      dup3\n        /* \"#utility.yul\":10241:10245   */\n      dup3\n        /* \"#utility.yul\":10237:10253   */\n      shr\n        /* \"#utility.yul\":10216:10253   */\n      swap1\n      pop\n        /* \"#utility.yul\":10143:10260   */\n      swap3\n      swap2\n      pop\n      pop\n      jump\t// out\n        /* \"#utility.yul\":10266:10435   */\n    tag_126:\n        /* \"#utility.yul\":10310:10316   */\n      0x00\n        /* \"#utility.yul\":10343:10394   */\n      tag_241\n        /* \"#utility.yul\":10391:10392   */\n      0x00\n        /* \"#utility.yul\":10387:10393   */\n      not\n        /* \"#utility.yul\":10379:10384   */\n      dup5\n        /* \"#utility.yul\":10376:10377   */\n      0x08\n        /* \"#utility.yul\":10372:10385   */\n      mul\n        /* \"#utility.yul\":10343:10394   */\n      tag_125\n      jump\t// in\n    tag_241:\n        /* \"#utility.yul\":10339:10395   */\n      not\n        /* \"#utility.yul\":10424:10428   */\n      dup1\n        /* \"#utility.yul\":10418:10422   */\n      dup4\n        /* \"#utility.yul\":10414:10429   */\n      and\n        /* \"#utility.yul\":10404:10429   */\n      swap2\n      pop\n        /* \"#utility.yul\":10317:10435   */\n      pop\n        /* \"#utility.yul\":10266:10435   */\n      swap3\n      swap2\n      pop\n      pop\n      jump\t// out\n        /* \"#utility.yul\":10440:10735   */\n    tag_127:\n        /* \"#utility.yul\":10516:10520   */\n      0x00\n        /* \"#utility.yul\":10662:10691   */\n      tag_243\n        /* \"#utility.yul\":10687:10690   */\n      dup4\n        /* \"#utility.yul\":10681:10685   */\n      dup4\n        /* \"#utility.yul\":10662:10691   */\n      tag_126\n      jump\t// in\n    tag_243:\n        /* \"#utility.yul\":10654:10691   */\n      swap2\n      pop\n        /* \"#utility.yul\":10724:10727   */\n      dup3\n        /* \"#utility.yul\":10721:10722   */\n      0x02\n        /* \"#utility.yul\":10717:10728   */\n      mul\n        /* \"#utility.yul\":10711:10715   */\n      dup3\n        /* \"#utility.yul\":10708:10729   */\n      or\n        /* \"#utility.yul\":10700:10729   */\n      swap1\n      pop\n        /* \"#utility.yul\":10440:10735   */\n      swap3\n      swap2\n      pop\n      pop\n      jump\t// out\n        /* \"#utility.yul\":10740:12143   */\n    tag_68:\n        /* \"#utility.yul\":10864:10908   */\n      tag_245\n        /* \"#utility.yul\":10904:10907   */\n      dup4\n        /* \"#utility.yul\":10899:10902   */\n      dup4\n        /* \"#utility.yul\":10864:10908   */\n      tag_110\n      jump\t// in\n    tag_245:\n        /* \"#utility.yul\":10973:10991   */\n      0xffffffffffffffff\n        /* \"#utility.yul\":10965:10971   */\n      dup2\n        /* \"#utility.yul\":10962:10992   */\n      gt\n        /* \"#utility.yul\":10959:11015   */\n      iszero\n      tag_246\n      jumpi\n        /* \"#utility.yul\":10995:11013   */\n      tag_247\n      tag_111\n      jump\t// in\n    tag_247:\n        /* \"#utility.yul\":10959:11015   */\n    tag_246:\n        /* \"#utility.yul\":11039:11077   */\n      tag_248\n        /* \"#utility.yul\":11071:11075   */\n      dup3\n        /* \"#utility.yul\":11065:11076   */\n      sload\n        /* \"#utility.yul\":11039:11077   */\n      tag_81\n      jump\t// in\n    tag_248:\n        /* \"#utility.yul\":11124:11191   */\n      tag_249\n        /* \"#utility.yul\":11184:11190   */\n      dup3\n        /* \"#utility.yul\":11176:11182   */\n      dup3\n        /* \"#utility.yul\":11170:11174   */\n      dup6\n        /* \"#utility.yul\":11124:11191   */\n      tag_124\n      jump\t// in\n    tag_249:\n        /* \"#utility.yul\":11218:11219   */\n      0x00\n        /* \"#utility.yul\":11247:11249   */\n      0x1f\n        /* \"#utility.yul\":11239:11245   */\n      dup4\n        /* \"#utility.yul\":11236:11250   */\n      gt\n        /* \"#utility.yul\":11264:11265   */\n      0x01\n        /* \"#utility.yul\":11259:11891   */\n      dup2\n      eq\n      tag_251\n      jumpi\n        /* \"#utility.yul\":11935:11936   */\n      0x00\n        /* \"#utility.yul\":11952:11958   */\n      dup5\n        /* \"#utility.yul\":11949:12033   */\n      iszero\n      tag_252\n      jumpi\n        /* \"#utility.yul\":12008:12017   */\n      dup3\n        /* \"#utility.yul\":12003:12006   */\n      dup8\n        /* \"#utility.yul\":11999:12018   */\n      add\n        /* \"#utility.yul\":11986:12019   */\n      calldataload\n        /* \"#utility.yul\":11977:12019   */\n      swap1\n      pop\n        /* \"#utility.yul\":11949:12033   */\n    tag_252:\n        /* \"#utility.yul\":12059:12126   */\n      tag_253\n        /* \"#utility.yul\":12119:12125   */\n      dup6\n        /* \"#utility.yul\":12112:12117   */\n      dup3\n        /* \"#utility.yul\":12059:12126   */\n      tag_127\n      jump\t// in\n    tag_253:\n        /* \"#utility.yul\":12053:12057   */\n      dup7\n        /* \"#utility.yul\":12046:12127   */\n      sstore\n        /* \"#utility.yul\":11908:12137   */\n      pop\n        /* \"#utility.yul\":11229:12137   */\n      jump(tag_250)\n        /* \"#utility.yul\":11259:11891   */\n    tag_251:\n        /* \"#utility.yul\":11311:11315   */\n      0x1f\n        /* \"#utility.yul\":11307:11316   */\n      not\n        /* \"#utility.yul\":11299:11305   */\n      dup5\n        /* \"#utility.yul\":11295:11317   */\n      and\n        /* \"#utility.yul\":11345:11382   */\n      tag_254\n        /* \"#utility.yul\":11377:11381   */\n      dup7\n        /* \"#utility.yul\":11345:11382   */\n      tag_113\n      jump\t// in\n    tag_254:\n        /* \"#utility.yul\":11404:11405   */\n      0x00\n        /* \"#utility.yul\":11418:11633   */\n    tag_255:\n        /* \"#utility.yul\":11432:11439   */\n      dup3\n        /* \"#utility.yul\":11429:11430   */\n      dup2\n        /* \"#utility.yul\":11426:11440   */\n      lt\n        /* \"#utility.yul\":11418:11633   */\n      iszero\n      tag_257\n      jumpi\n        /* \"#utility.yul\":11518:11527   */\n      dup5\n        /* \"#utility.yul\":11513:11516   */\n      dup10\n        /* \"#utility.yul\":11509:11528   */\n      add\n        /* \"#utility.yul\":11496:11529   */\n      calldataload\n        /* \"#utility.yul\":11488:11494   */\n      dup3\n        /* \"#utility.yul\":11481:11530   */\n      sstore\n        /* \"#utility.yul\":11569:11570   */\n      0x01\n        /* \"#utility.yul\":11561:11567   */\n      dup3\n        /* \"#utility.yul\":11557:11571   */\n      add\n        /* \"#utility.yul\":11547:11571   */\n      swap2\n      pop\n        /* \"#utility.yul\":11616:11618   */\n      0x20\n        /* \"#utility.yul\":11605:11614   */\n      dup6\n        /* \"#utility.yul\":11601:11619   */\n      add\n        /* \"#utility.yul\":11588:11619   */\n      swap5\n      pop\n        /* \"#utility.yul\":11455:11459   */\n      0x20\n        /* \"#utility.yul\":11452:11453   */\n      dup2\n        /* \"#utility.yul\":11448:11460   */\n      add\n        /* \"#utility.yul\":11443:11460   */\n      swap1\n      pop\n        /* \"#utility.yul\":11418:11633   */\n      jump(tag_255)\n    tag_257:\n        /* \"#utility.yul\":11661:11667   */\n      dup7\n        /* \"#utility.yul\":11652:11659   */\n      dup4\n        /* \"#utility.yul\":11649:11668   */\n      lt\n        /* \"#utility.yul\":11646:11832   */\n      iszero\n      tag_258\n      jumpi\n        /* \"#utility.yul\":11726:11735   */\n      dup5\n        /* \"#utility.yul\":11721:11724   */\n      dup10\n        /* \"#utility.yul\":11717:11736   */\n      add\n        /* \"#utility.yul\":11704:11737   */\n      calldataload\n        /* \"#utility.yul\":11769:11817   */\n      tag_259\n        /* \"#utility.yul\":11811:11815   */\n      0x1f\n        /* \"#utility.yul\":11803:11809   */\n      dup10\n        /* \"#utility.yul\":11799:11816   */\n      and\n        /* \"#utility.yul\":11788:11797   */\n      dup3\n        /* \"#utility.yul\":11769:11817   */\n      tag_126\n      jump\t// in\n    tag_259:\n        /* \"#utility.yul\":11761:11767   */\n      dup4\n        /* \"#utility.yul\":11754:11818   */\n      sstore\n        /* \"#utility.yul\":11669:11832   */\n      pop\n        /* \"#utility.yul\":11646:11832   */\n    tag_258:\n        /* \"#utility.yul\":11878:11879   */\n      0x01\n        /* \"#utility.yul\":11874:11875   */\n      0x02\n        /* \"#utility.yul\":11866:11872   */\n      dup9\n        /* \"#utility.yul\":11862:11876   */\n      mul\n        /* \"#utility.yul\":11858:11880   */\n      add\n        /* \"#utility.yul\":11852:11856   */\n      dup9\n        /* \"#utility.yul\":11845:11881   */\n      sstore\n        /* \"#utility.yul\":11266:11891   */\n      pop\n      pop\n      pop\n        /* \"#utility.yul\":11229:12137   */\n    tag_250:\n      pop\n        /* \"#utility.yul\":10839:12143   */\n      pop\n      pop\n      pop\n        /* \"#utility.yul\":10740:12143   */\n      pop\n      pop\n      pop\n      jump\t// out\n        /* \"#utility.yul\":12149:12314   */\n    tag_128:\n        /* \"#utility.yul\":12289:12306   */\n      0x496e76616c696420416464726573730000000000000000000000000000000000\n        /* \"#utility.yul\":12285:12286   */\n      0x00\n        /* \"#utility.yul\":12277:12283   */\n      dup3\n        /* \"#utility.yul\":12273:12287   */\n      add\n        /* \"#utility.yul\":12266:12307   */\n      mstore\n        /* \"#utility.yul\":12149:12314   */\n      pop\n      jump\t// out\n        /* \"#utility.yul\":12320:12686   */\n    tag_129:\n        /* \"#utility.yul\":12462:12465   */\n      0x00\n        /* \"#utility.yul\":12483:12550   */\n      tag_262\n        /* \"#utility.yul\":12547:12549   */\n      0x0f\n        /* \"#utility.yul\":12542:12545   */\n      dup4\n        /* \"#utility.yul\":12483:12550   */\n      tag_87\n      jump\t// in\n    tag_262:\n        /* \"#utility.yul\":12476:12550   */\n      swap2\n      pop\n        /* \"#utility.yul\":12559:12652   */\n      tag_263\n        /* \"#utility.yul\":12648:12651   */\n      dup3\n        /* \"#utility.yul\":12559:12652   */\n      tag_128\n      jump\t// in\n    tag_263:\n        /* \"#utility.yul\":12677:12679   */\n      0x20\n        /* \"#utility.yul\":12672:12675   */\n      dup3\n        /* \"#utility.yul\":12668:12680   */\n      add\n        /* \"#utility.yul\":12661:12680   */\n      swap1\n      pop\n        /* \"#utility.yul\":12320:12686   */\n      swap2\n      swap1\n      pop\n      jump\t// out\n        /* \"#utility.yul\":12692:13111   */\n    tag_75:\n        /* \"#utility.yul\":12858:12862   */\n      0x00\n        /* \"#utility.yul\":12896:12898   */\n      0x20\n        /* \"#utility.yul\":12885:12894   */\n      dup3\n        /* \"#utility.yul\":12881:12899   */\n      add\n        /* \"#utility.yul\":12873:12899   */\n      swap1\n      pop\n        /* \"#utility.yul\":12945:12954   */\n      dup2\n        /* \"#utility.yul\":12939:12943   */\n      dup2\n        /* \"#utility.yul\":12935:12955   */\n      sub\n        /* \"#utility.yul\":12931:12932   */\n      0x00\n        /* \"#utility.yul\":12920:12929   */\n      dup4\n        /* \"#utility.yul\":12916:12933   */\n      add\n        /* \"#utility.yul\":12909:12956   */\n      mstore\n        /* \"#utility.yul\":12973:13104   */\n      tag_265\n        /* \"#utility.yul\":13099:13103   */\n      dup2\n        /* \"#utility.yul\":12973:13104   */\n      tag_129\n      jump\t// in\n    tag_265:\n        /* \"#utility.yul\":12965:13104   */\n      swap1\n      pop\n        /* \"#utility.yul\":12692:13111   */\n      swap2\n      swap1\n      pop\n      jump\t// out\n\n    auxdata: 0xa2646970667358221220114bbf1db0fa4f6e17dd22228672b2804d19675f55ce1228bf8add4c6d32bb9a64736f6c634300081e0033\n}\n",
				"bytecode": {
					"linkReferences": {},
					"object": "608060405234801561000f575f5ffd5b50604051610f8e380380610f8e833981810160405281019061003191906100c6565b335f5f6101000a81548173ffffffffffffffffffffffffffffffffffffffff021916908373ffffffffffffffffffffffffffffffffffffffff160217905550426002819055508042610083919061011e565b60038190555050610151565b5f5ffd5b5f819050919050565b6100a581610093565b81146100af575f5ffd5b50565b5f815190506100c08161009c565b92915050565b5f602082840312156100db576100da61008f565b5b5f6100e8848285016100b2565b91505092915050565b7f4e487b71000000000000000000000000000000000000000000000000000000005f52601160045260245ffd5b5f61012882610093565b915061013383610093565b925082820190508082111561014b5761014a6100f1565b5b92915050565b610e308061015e5f395ff3fe608060405234801561000f575f5ffd5b5060043610610086575f3560e01c80637a8cd156116100595780637a8cd15614610102578063893d20e814610120578063a14ab9f81461013e578063f2fde38b1461015a57610086565b8063041991391461008a57806351811f04146100a85780635b9fdc30146100c6578063602bc62b146100e4575b5f5ffd5b610092610176565b60405161009f91906107af565b60405180910390f35b6100b06101b3565b6040516100bd91906107e7565b60405180910390f35b6100ce61024a565b6040516100db91906107af565b60405180910390f35b6100ec61032c565b6040516100f991906107e7565b60405180910390f35b61010a610335565b60405161011791906107e7565b60405180910390f35b61012861035b565b604051610135919061083f565b60405180910390f35b610158600480360381019061015391906108c1565b610382565b005b610174600480360381019061016f9190610936565b610469565b005b60606040518060400160405280600a81526020017f54696d654c6f636b656400000000000000000000000000000000000000000000815250905090565b5f3373ffffffffffffffffffffffffffffffffffffffff165f5f9054906101000a900473ffffffffffffffffffffffffffffffffffffffff1673ffffffffffffffffffffffffffffffffffffffff1614610242576040517f08c379a0000000000000000000000000000000000000000000000000000000008152600401610239906109ab565b60405180910390fd5b600254905090565b60603373ffffffffffffffffffffffffffffffffffffffff165f5f9054906101000a900473ffffffffffffffffffffffffffffffffffffffff1673ffffffffffffffffffffffffffffffffffffffff16146102da576040517f08c379a00000000000000000000000000000000000000000000000000000000081526004016102d1906109ab565b60405180910390fd5b60035442101561031f576040517f08c379a000000000000000000000000000000000000000000000000000000000815260040161031690610a13565b60405180910390fd5b610327610621565b905090565b5f600354905090565b5f6003544210610347575f9050610358565b426003546103559190610a5e565b90505b90565b5f5f5f9054906101000a900473ffffffffffffffffffffffffffffffffffffffff16905090565b3373ffffffffffffffffffffffffffffffffffffffff165f5f9054906101000a900473ffffffffffffffffffffffffffffffffffffffff1673ffffffffffffffffffffffffffffffffffffffff1614610410576040517f08c379a0000000000000000000000000000000000000000000000000000000008152600401610407906109ab565b60405180910390fd5b818160019182610421929190610cc5565b503373ffffffffffffffffffffffffffffffffffffffff167f0977f4c93d6a66455eb4f1467e8a01fec7c62b1ce20353fb51b7269712e1196760405160405180910390a25050565b3373ffffffffffffffffffffffffffffffffffffffff165f5f9054906101000a900473ffffffffffffffffffffffffffffffffffffffff1673ffffffffffffffffffffffffffffffffffffffff16146104f7576040517f08c379a00000000000000000000000000000000000000000000000000000000081526004016104ee906109ab565b60405180910390fd5b5f73ffffffffffffffffffffffffffffffffffffffff168173ffffffffffffffffffffffffffffffffffffffff1603610565576040517f08c379a000000000000000000000000000000000000000000000000000000000815260040161055c90610ddc565b60405180910390fd5b8073ffffffffffffffffffffffffffffffffffffffff165f5f9054906101000a900473ffffffffffffffffffffffffffffffffffffffff1673ffffffffffffffffffffffffffffffffffffffff167f8be0079c531659141344cd1fd0a4f28419497f9722a3daafe3b4186f6b6457e060405160405180910390a3805f5f6101000a81548173ffffffffffffffffffffffffffffffffffffffff021916908373ffffffffffffffffffffffffffffffffffffffff16021790555050565b60603373ffffffffffffffffffffffffffffffffffffffff165f5f9054906101000a900473ffffffffffffffffffffffffffffffffffffffff1673ffffffffffffffffffffffffffffffffffffffff16146106b1576040517f08c379a00000000000000000000000000000000000000000000000000000000081526004016106a8906109ab565b60405180910390fd5b600180546106be90610af5565b80601f01602080910402602001604051908101604052809291908181526020018280546106ea90610af5565b80156107355780601f1061070c57610100808354040283529160200191610735565b820191905f5260205f20905b81548152906001019060200180831161071857829003601f168201915b5050505050905090565b5f81519050919050565b5f82825260208201905092915050565b8281835e5f83830152505050565b5f601f19601f8301169050919050565b5f6107818261073f565b61078b8185610749565b935061079b818560208601610759565b6107a481610767565b840191505092915050565b5f6020820190508181035f8301526107c78184610777565b905092915050565b5f819050919050565b6107e1816107cf565b82525050565b5f6020820190506107fa5f8301846107d8565b92915050565b5f73ffffffffffffffffffffffffffffffffffffffff82169050919050565b5f61082982610800565b9050919050565b6108398161081f565b82525050565b5f6020820190506108525f830184610830565b92915050565b5f5ffd5b5f5ffd5b5f5ffd5b5f5ffd5b5f5ffd5b5f5f83601f84011261088157610880610860565b5b8235905067ffffffffffffffff81111561089e5761089d610864565b5b6020830191508360018202830111156108ba576108b9610868565b5b9250929050565b5f5f602083850312156108d7576108d6610858565b5b5f83013567ffffffffffffffff8111156108f4576108f361085c565b5b6109008582860161086c565b92509250509250929050565b6109158161081f565b811461091f575f5ffd5b50565b5f813590506109308161090c565b92915050565b5f6020828403121561094b5761094a610858565b5b5f61095884828501610922565b91505092915050565b7f4e6f7420746865206f776e6572000000000000000000000000000000000000005f82015250565b5f610995600d83610749565b91506109a082610961565b602082019050919050565b5f6020820190508181035f8301526109c281610989565b9050919050565b7f426f78206973207374696c6c206c6f636b6564000000000000000000000000005f82015250565b5f6109fd601383610749565b9150610a08826109c9565b602082019050919050565b5f6020820190508181035f830152610a2a816109f1565b9050919050565b7f4e487b71000000000000000000000000000000000000000000000000000000005f52601160045260245ffd5b5f610a68826107cf565b9150610a73836107cf565b9250828203905081811115610a8b57610a8a610a31565b5b92915050565b5f82905092915050565b7f4e487b71000000000000000000000000000000000000000000000000000000005f52604160045260245ffd5b7f4e487b71000000000000000000000000000000000000000000000000000000005f52602260045260245ffd5b5f6002820490506001821680610b0c57607f821691505b602082108103610b1f57610b1e610ac8565b5b50919050565b5f819050815f5260205f209050919050565b5f6020601f8301049050919050565b5f82821b905092915050565b5f60088302610b817fffffffffffffffffffffffffffffffffffffffffffffffffffffffffffffffff82610b46565b610b8b8683610b46565b95508019841693508086168417925050509392505050565b5f819050919050565b5f610bc6610bc1610bbc846107cf565b610ba3565b6107cf565b9050919050565b5f819050919050565b610bdf83610bac565b610bf3610beb82610bcd565b848454610b52565b825550505050565b5f5f905090565b610c0a610bfb565b610c15818484610bd6565b505050565b5b81811015610c3857610c2d5f82610c02565b600181019050610c1b565b5050565b601f821115610c7d57610c4e81610b25565b610c5784610b37565b81016020851015610c66578190505b610c7a610c7285610b37565b830182610c1a565b50505b505050565b5f82821c905092915050565b5f610c9d5f1984600802610c82565b1980831691505092915050565b5f610cb58383610c8e565b9150826002028217905092915050565b610ccf8383610a91565b67ffffffffffffffff811115610ce857610ce7610a9b565b5b610cf28254610af5565b610cfd828285610c3c565b5f601f831160018114610d2a575f8415610d18578287013590505b610d228582610caa565b865550610d89565b601f198416610d3886610b25565b5f5b82811015610d5f57848901358255600182019150602085019450602081019050610d3a565b86831015610d7c5784890135610d78601f891682610c8e565b8355505b6001600288020188555050505b50505050505050565b7f496e76616c6964204164647265737300000000000000000000000000000000005f82015250565b5f610dc6600f83610749565b9150610dd182610d92565b602082019050919050565b5f6020820190508181035f830152610df381610dba565b905091905056fea2646970667358221220114bbf1db0fa4f6e17dd22228672b2804d19675f55ce1228bf8add4c6d32bb9a64736f6c634300081e0033",
					"opcodes": "PUSH1 0x80 PUSH1 0x40 MSTORE CALLVALUE DUP1 ISZERO PUSH2 0xF JUMPI PUSH0 PUSH0 REVERT JUMPDEST POP PUSH1 0x40 MLOAD PUSH2 0xF8E CODESIZE SUB DUP1 PUSH2 0xF8E DUP4 CODECOPY DUP2 DUP2 ADD PUSH1 0x40 MSTORE DUP2 ADD SWAP1 PUSH2 0x31 SWAP2 SWAP1 PUSH2 0xC6 JUMP JUMPDEST CALLER PUSH0 PUSH0 PUSH2 0x100 EXP DUP2 SLOAD DUP2 PUSH20 0xFFFFFFFFFFFFFFFFFFFFFFFFFFFFFFFFFFFFFFFF MUL NOT AND SWAP1 DUP4 PUSH20 0xFFFFFFFFFFFFFFFFFFFFFFFFFFFFFFFFFFFFFFFF AND MUL OR SWAP1 SSTORE POP TIMESTAMP PUSH1 0x2 DUP2 SWAP1 SSTORE POP DUP1 TIMESTAMP PUSH2 0x83 SWAP2 SWAP1 PUSH2 0x11E JUMP JUMPDEST PUSH1 0x3 DUP2 SWAP1 SSTORE POP POP PUSH2 0x151 JUMP JUMPDEST PUSH0 PUSH0 REVERT JUMPDEST PUSH0 DUP2 SWAP1 POP SWAP2 SWAP1 POP JUMP JUMPDEST PUSH2 0xA5 DUP2 PUSH2 0x93 JUMP JUMPDEST DUP2 EQ PUSH2 0xAF JUMPI PUSH0 PUSH0 REVERT JUMPDEST POP JUMP JUMPDEST PUSH0 DUP2 MLOAD SWAP1 POP PUSH2 0xC0 DUP2 PUSH2 0x9C JUMP JUMPDEST SWAP3 SWAP2 POP POP JUMP JUMPDEST PUSH0 PUSH1 0x20 DUP3 DUP5 SUB SLT ISZERO PUSH2 0xDB JUMPI PUSH2 0xDA PUSH2 0x8F JUMP JUMPDEST JUMPDEST PUSH0 PUSH2 0xE8 DUP5 DUP3 DUP6 ADD PUSH2 0xB2 JUMP JUMPDEST SWAP2 POP POP SWAP3 SWAP2 POP POP JUMP JUMPDEST PUSH32 0x4E487B7100000000000000000000000000000000000000000000000000000000 PUSH0 MSTORE PUSH1 0x11 PUSH1 0x4 MSTORE PUSH1 0x24 PUSH0 REVERT JUMPDEST PUSH0 PUSH2 0x128 DUP3 PUSH2 0x93 JUMP JUMPDEST SWAP2 POP PUSH2 0x133 DUP4 PUSH2 0x93 JUMP JUMPDEST SWAP3 POP DUP3 DUP3 ADD SWAP1 POP DUP1 DUP3 GT ISZERO PUSH2 0x14B JUMPI PUSH2 0x14A PUSH2 0xF1 JUMP JUMPDEST JUMPDEST SWAP3 SWAP2 POP POP JUMP JUMPDEST PUSH2 0xE30 DUP1 PUSH2 0x15E PUSH0 CODECOPY PUSH0 RETURN INVALID PUSH1 0x80 PUSH1 0x40 MSTORE CALLVALUE DUP1 ISZERO PUSH2 0xF JUMPI PUSH0 PUSH0 REVERT JUMPDEST POP PUSH1 0x4 CALLDATASIZE LT PUSH2 0x86 JUMPI PUSH0 CALLDATALOAD PUSH1 0xE0 SHR DUP1 PUSH4 0x7A8CD156 GT PUSH2 0x59 JUMPI DUP1 PUSH4 0x7A8CD156 EQ PUSH2 0x102 JUMPI DUP1 PUSH4 0x893D20E8 EQ PUSH2 0x120 JUMPI DUP1 PUSH4 0xA14AB9F8 EQ PUSH2 0x13E JUMPI DUP1 PUSH4 0xF2FDE38B EQ PUSH2 0x15A JUMPI PUSH2 0x86 JUMP JUMPDEST DUP1 PUSH4 0x4199139 EQ PUSH2 0x8A JUMPI DUP1 PUSH4 0x51811F04 EQ PUSH2 0xA8 JUMPI DUP1 PUSH4 0x5B9FDC30 EQ PUSH2 0xC6 JUMPI DUP1 PUSH4 0x602BC62B EQ PUSH2 0xE4 JUMPI JUMPDEST PUSH0 PUSH0 REVERT JUMPDEST PUSH2 0x92 PUSH2 0x176 JUMP JUMPDEST PUSH1 0x40 MLOAD PUSH2 0x9F SWAP2 SWAP1 PUSH2 0x7AF JUMP JUMPDEST PUSH1 0x40 MLOAD DUP1 SWAP2 SUB SWAP1 RETURN JUMPDEST PUSH2 0xB0 PUSH2 0x1B3 JUMP JUMPDEST PUSH1 0x40 MLOAD PUSH2 0xBD SWAP2 SWAP1 PUSH2 0x7E7 JUMP JUMPDEST PUSH1 0x40 MLOAD DUP1 SWAP2 SUB SWAP1 RETURN JUMPDEST PUSH2 0xCE PUSH2 0x24A JUMP JUMPDEST PUSH1 0x40 MLOAD PUSH2 0xDB SWAP2 SWAP1 PUSH2 0x7AF JUMP JUMPDEST PUSH1 0x40 MLOAD DUP1 SWAP2 SUB SWAP1 RETURN JUMPDEST PUSH2 0xEC PUSH2 0x32C JUMP JUMPDEST PUSH1 0x40 MLOAD PUSH2 0xF9 SWAP2 SWAP1 PUSH2 0x7E7 JUMP JUMPDEST PUSH1 0x40 MLOAD DUP1 SWAP2 SUB SWAP1 RETURN JUMPDEST PUSH2 0x10A PUSH2 0x335 JUMP JUMPDEST PUSH1 0x40 MLOAD PUSH2 0x117 SWAP2 SWAP1 PUSH2 0x7E7 JUMP JUMPDEST PUSH1 0x40 MLOAD DUP1 SWAP2 SUB SWAP1 RETURN JUMPDEST PUSH2 0x128 PUSH2 0x35B JUMP JUMPDEST PUSH1 0x40 MLOAD PUSH2 0x135 SWAP2 SWAP1 PUSH2 0x83F JUMP JUMPDEST PUSH1 0x40 MLOAD DUP1 SWAP2 SUB SWAP1 RETURN JUMPDEST PUSH2 0x158 PUSH1 0x4 DUP1 CALLDATASIZE SUB DUP2 ADD SWAP1 PUSH2 0x153 SWAP2 SWAP1 PUSH2 0x8C1 JUMP JUMPDEST PUSH2 0x382 JUMP JUMPDEST STOP JUMPDEST PUSH2 0x174 PUSH1 0x4 DUP1 CALLDATASIZE SUB DUP2 ADD SWAP1 PUSH2 0x16F SWAP2 SWAP1 PUSH2 0x936 JUMP JUMPDEST PUSH2 0x469 JUMP JUMPDEST STOP JUMPDEST PUSH1 0x60 PUSH1 0x40 MLOAD DUP1 PUSH1 0x40 ADD PUSH1 0x40 MSTORE DUP1 PUSH1 0xA DUP2 MSTORE PUSH1 0x20 ADD PUSH32 0x54696D654C6F636B656400000000000000000000000000000000000000000000 DUP2 MSTORE POP SWAP1 POP SWAP1 JUMP JUMPDEST PUSH0 CALLER PUSH20 0xFFFFFFFFFFFFFFFFFFFFFFFFFFFFFFFFFFFFFFFF AND PUSH0 PUSH0 SWAP1 SLOAD SWAP1 PUSH2 0x100 EXP SWAP1 DIV PUSH20 0xFFFFFFFFFFFFFFFFFFFFFFFFFFFFFFFFFFFFFFFF AND PUSH20 0xFFFFFFFFFFFFFFFFFFFFFFFFFFFFFFFFFFFFFFFF AND EQ PUSH2 0x242 JUMPI PUSH1 0x40 MLOAD PUSH32 0x8C379A000000000000000000000000000000000000000000000000000000000 DUP2 MSTORE PUSH1 0x4 ADD PUSH2 0x239 SWAP1 PUSH2 0x9AB JUMP JUMPDEST PUSH1 0x40 MLOAD DUP1 SWAP2 SUB SWAP1 REVERT JUMPDEST PUSH1 0x2 SLOAD SWAP1 POP SWAP1 JUMP JUMPDEST PUSH1 0x60 CALLER PUSH20 0xFFFFFFFFFFFFFFFFFFFFFFFFFFFFFFFFFFFFFFFF AND PUSH0 PUSH0 SWAP1 SLOAD SWAP1 PUSH2 0x100 EXP SWAP1 DIV PUSH20 0xFFFFFFFFFFFFFFFFFFFFFFFFFFFFFFFFFFFFFFFF AND PUSH20 0xFFFFFFFFFFFFFFFFFFFFFFFFFFFFFFFFFFFFFFFF AND EQ PUSH2 0x2DA JUMPI PUSH1 0x40 MLOAD PUSH32 0x8C379A000000000000000000000000000000000000000000000000000000000 DUP2 MSTORE PUSH1 0x4 ADD PUSH2 0x2D1 SWAP1 PUSH2 0x9AB JUMP JUMPDEST PUSH1 0x40 MLOAD DUP1 SWAP2 SUB SWAP1 REVERT JUMPDEST PUSH1 0x3 SLOAD TIMESTAMP LT ISZERO PUSH2 0x31F JUMPI PUSH1 0x40 MLOAD PUSH32 0x8C379A000000000000000000000000000000000000000000000000000000000 DUP2 MSTORE PUSH1 0x4 ADD PUSH2 0x316 SWAP1 PUSH2 0xA13 JUMP JUMPDEST PUSH1 0x40 MLOAD DUP1 SWAP2 SUB SWAP1 REVERT JUMPDEST PUSH2 0x327 PUSH2 0x621 JUMP JUMPDEST SWAP1 POP SWAP1 JUMP JUMPDEST PUSH0 PUSH1 0x3 SLOAD SWAP1 POP SWAP1 JUMP JUMPDEST PUSH0 PUSH1 0x3 SLOAD TIMESTAMP LT PUSH2 0x347 JUMPI PUSH0 SWAP1 POP PUSH2 0x358 JUMP JUMPDEST TIMESTAMP PUSH1 0x3 SLOAD PUSH2 0x355 SWAP2 SWAP1 PUSH2 0xA5E JUMP JUMPDEST SWAP1 POP JUMPDEST SWAP1 JUMP JUMPDEST PUSH0 PUSH0 PUSH0 SWAP1 SLOAD SWAP1 PUSH2 0x100 EXP SWAP1 DIV PUSH20 0xFFFFFFFFFFFFFFFFFFFFFFFFFFFFFFFFFFFFFFFF AND SWAP1 POP SWAP1 JUMP JUMPDEST CALLER PUSH20 0xFFFFFFFFFFFFFFFFFFFFFFFFFFFFFFFFFFFFFFFF AND PUSH0 PUSH0 SWAP1 SLOAD SWAP1 PUSH2 0x100 EXP SWAP1 DIV PUSH20 0xFFFFFFFFFFFFFFFFFFFFFFFFFFFFFFFFFFFFFFFF AND PUSH20 0xFFFFFFFFFFFFFFFFFFFFFFFFFFFFFFFFFFFFFFFF AND EQ PUSH2 0x410 JUMPI PUSH1 0x40 MLOAD PUSH32 0x8C379A000000000000000000000000000000000000000000000000000000000 DUP2 MSTORE PUSH1 0x4 ADD PUSH2 0x407 SWAP1 PUSH2 0x9AB JUMP JUMPDEST PUSH1 0x40 MLOAD DUP1 SWAP2 SUB SWAP1 REVERT JUMPDEST DUP2 DUP2 PUSH1 0x1 SWAP2 DUP3 PUSH2 0x421 SWAP3 SWAP2 SWAP1 PUSH2 0xCC5 JUMP JUMPDEST POP CALLER PUSH20 0xFFFFFFFFFFFFFFFFFFFFFFFFFFFFFFFFFFFFFFFF AND PUSH32 0x977F4C93D6A66455EB4F1467E8A01FEC7C62B1CE20353FB51B7269712E11967 PUSH1 0x40 MLOAD PUSH1 0x40 MLOAD DUP1 SWAP2 SUB SWAP1 LOG2 POP POP JUMP JUMPDEST CALLER PUSH20 0xFFFFFFFFFFFFFFFFFFFFFFFFFFFFFFFFFFFFFFFF AND PUSH0 PUSH0 SWAP1 SLOAD SWAP1 PUSH2 0x100 EXP SWAP1 DIV PUSH20 0xFFFFFFFFFFFFFFFFFFFFFFFFFFFFFFFFFFFFFFFF AND PUSH20 0xFFFFFFFFFFFFFFFFFFFFFFFFFFFFFFFFFFFFFFFF AND EQ PUSH2 0x4F7 JUMPI PUSH1 0x40 MLOAD PUSH32 0x8C379A000000000000000000000000000000000000000000000000000000000 DUP2 MSTORE PUSH1 0x4 ADD PUSH2 0x4EE SWAP1 PUSH2 0x9AB JUMP JUMPDEST PUSH1 0x40 MLOAD DUP1 SWAP2 SUB SWAP1 REVERT JUMPDEST PUSH0 PUSH20 0xFFFFFFFFFFFFFFFFFFFFFFFFFFFFFFFFFFFFFFFF AND DUP2 PUSH20 0xFFFFFFFFFFFFFFFFFFFFFFFFFFFFFFFFFFFFFFFF AND SUB PUSH2 0x565 JUMPI PUSH1 0x40 MLOAD PUSH32 0x8C379A000000000000000000000000000000000000000000000000000000000 DUP2 MSTORE PUSH1 0x4 ADD PUSH2 0x55C SWAP1 PUSH2 0xDDC JUMP JUMPDEST PUSH1 0x40 MLOAD DUP1 SWAP2 SUB SWAP1 REVERT JUMPDEST DUP1 PUSH20 0xFFFFFFFFFFFFFFFFFFFFFFFFFFFFFFFFFFFFFFFF AND PUSH0 PUSH0 SWAP1 SLOAD SWAP1 PUSH2 0x100 EXP SWAP1 DIV PUSH20 0xFFFFFFFFFFFFFFFFFFFFFFFFFFFFFFFFFFFFFFFF AND PUSH20 0xFFFFFFFFFFFFFFFFFFFFFFFFFFFFFFFFFFFFFFFF AND PUSH32 0x8BE0079C531659141344CD1FD0A4F28419497F9722A3DAAFE3B4186F6B6457E0 PUSH1 0x40 MLOAD PUSH1 0x40 MLOAD DUP1 SWAP2 SUB SWAP1 LOG3 DUP1 PUSH0 PUSH0 PUSH2 0x100 EXP DUP2 SLOAD DUP2 PUSH20 0xFFFFFFFFFFFFFFFFFFFFFFFFFFFFFFFFFFFFFFFF MUL NOT AND SWAP1 DUP4 PUSH20 0xFFFFFFFFFFFFFFFFFFFFFFFFFFFFFFFFFFFFFFFF AND MUL OR SWAP1 SSTORE POP POP JUMP JUMPDEST PUSH1 0x60 CALLER PUSH20 0xFFFFFFFFFFFFFFFFFFFFFFFFFFFFFFFFFFFFFFFF AND PUSH0 PUSH0 SWAP1 SLOAD SWAP1 PUSH2 0x100 EXP SWAP1 DIV PUSH20 0xFFFFFFFFFFFFFFFFFFFFFFFFFFFFFFFFFFFFFFFF AND PUSH20 0xFFFFFFFFFFFFFFFFFFFFFFFFFFFFFFFFFFFFFFFF AND EQ PUSH2 0x6B1 JUMPI PUSH1 0x40 MLOAD PUSH32 0x8C379A000000000000000000000000000000000000000000000000000000000 DUP2 MSTORE PUSH1 0x4 ADD PUSH2 0x6A8 SWAP1 PUSH2 0x9AB JUMP JUMPDEST PUSH1 0x40 MLOAD DUP1 SWAP2 SUB SWAP1 REVERT JUMPDEST PUSH1 0x1 DUP1 SLOAD PUSH2 0x6BE SWAP1 PUSH2 0xAF5 JUMP JUMPDEST DUP1 PUSH1 0x1F ADD PUSH1 0x20 DUP1 SWAP2 DIV MUL PUSH1 0x20 ADD PUSH1 0x40 MLOAD SWAP1 DUP2 ADD PUSH1 0x40 MSTORE DUP1 SWAP3 SWAP2 SWAP1 DUP2 DUP2 MSTORE PUSH1 0x20 ADD DUP3 DUP1 SLOAD PUSH2 0x6EA SWAP1 PUSH2 0xAF5 JUMP JUMPDEST DUP1 ISZERO PUSH2 0x735 JUMPI DUP1 PUSH1 0x1F LT PUSH2 0x70C JUMPI PUSH2 0x100 DUP1 DUP4 SLOAD DIV MUL DUP4 MSTORE SWAP2 PUSH1 0x20 ADD SWAP2 PUSH2 0x735 JUMP JUMPDEST DUP3 ADD SWAP2 SWAP1 PUSH0 MSTORE PUSH1 0x20 PUSH0 KECCAK256 SWAP1 JUMPDEST DUP2 SLOAD DUP2 MSTORE SWAP1 PUSH1 0x1 ADD SWAP1 PUSH1 0x20 ADD DUP1 DUP4 GT PUSH2 0x718 JUMPI DUP3 SWAP1 SUB PUSH1 0x1F AND DUP3 ADD SWAP2 JUMPDEST POP POP POP POP POP SWAP1 POP SWAP1 JUMP JUMPDEST PUSH0 DUP2 MLOAD SWAP1 POP SWAP2 SWAP1 POP JUMP JUMPDEST PUSH0 DUP3 DUP3 MSTORE PUSH1 0x20 DUP3 ADD SWAP1 POP SWAP3 SWAP2 POP POP JUMP JUMPDEST DUP3 DUP2 DUP4 MCOPY PUSH0 DUP4 DUP4 ADD MSTORE POP POP POP JUMP JUMPDEST PUSH0 PUSH1 0x1F NOT PUSH1 0x1F DUP4 ADD AND SWAP1 POP SWAP2 SWAP1 POP JUMP JUMPDEST PUSH0 PUSH2 0x781 DUP3 PUSH2 0x73F JUMP JUMPDEST PUSH2 0x78B DUP2 DUP6 PUSH2 0x749 JUMP JUMPDEST SWAP4 POP PUSH2 0x79B DUP2 DUP6 PUSH1 0x20 DUP7 ADD PUSH2 0x759 JUMP JUMPDEST PUSH2 0x7A4 DUP2 PUSH2 0x767 JUMP JUMPDEST DUP5 ADD SWAP2 POP POP SWAP3 SWAP2 POP POP JUMP JUMPDEST PUSH0 PUSH1 0x20 DUP3 ADD SWAP1 POP DUP2 DUP2 SUB PUSH0 DUP4 ADD MSTORE PUSH2 0x7C7 DUP2 DUP5 PUSH2 0x777 JUMP JUMPDEST SWAP1 POP SWAP3 SWAP2 POP POP JUMP JUMPDEST PUSH0 DUP2 SWAP1 POP SWAP2 SWAP1 POP JUMP JUMPDEST PUSH2 0x7E1 DUP2 PUSH2 0x7CF JUMP JUMPDEST DUP3 MSTORE POP POP JUMP JUMPDEST PUSH0 PUSH1 0x20 DUP3 ADD SWAP1 POP PUSH2 0x7FA PUSH0 DUP4 ADD DUP5 PUSH2 0x7D8 JUMP JUMPDEST SWAP3 SWAP2 POP POP JUMP JUMPDEST PUSH0 PUSH20 0xFFFFFFFFFFFFFFFFFFFFFFFFFFFFFFFFFFFFFFFF DUP3 AND SWAP1 POP SWAP2 SWAP1 POP JUMP JUMPDEST PUSH0 PUSH2 0x829 DUP3 PUSH2 0x800 JUMP JUMPDEST SWAP1 POP SWAP2 SWAP1 POP JUMP JUMPDEST PUSH2 0x839 DUP2 PUSH2 0x81F JUMP JUMPDEST DUP3 MSTORE POP POP JUMP JUMPDEST PUSH0 PUSH1 0x20 DUP3 ADD SWAP1 POP PUSH2 0x852 PUSH0 DUP4 ADD DUP5 PUSH2 0x830 JUMP JUMPDEST SWAP3 SWAP2 POP POP JUMP JUMPDEST PUSH0 PUSH0 REVERT JUMPDEST PUSH0 PUSH0 REVERT JUMPDEST PUSH0 PUSH0 REVERT JUMPDEST PUSH0 PUSH0 REVERT JUMPDEST PUSH0 PUSH0 REVERT JUMPDEST PUSH0 PUSH0 DUP4 PUSH1 0x1F DUP5 ADD SLT PUSH2 0x881 JUMPI PUSH2 0x880 PUSH2 0x860 JUMP JUMPDEST JUMPDEST DUP3 CALLDATALOAD SWAP1 POP PUSH8 0xFFFFFFFFFFFFFFFF DUP2 GT ISZERO PUSH2 0x89E JUMPI PUSH2 0x89D PUSH2 0x864 JUMP JUMPDEST JUMPDEST PUSH1 0x20 DUP4 ADD SWAP2 POP DUP4 PUSH1 0x1 DUP3 MUL DUP4 ADD GT ISZERO PUSH2 0x8BA JUMPI PUSH2 0x8B9 PUSH2 0x868 JUMP JUMPDEST JUMPDEST SWAP3 POP SWAP3 SWAP1 POP JUMP JUMPDEST PUSH0 PUSH0 PUSH1 0x20 DUP4 DUP6 SUB SLT ISZERO PUSH2 0x8D7 JUMPI PUSH2 0x8D6 PUSH2 0x858 JUMP JUMPDEST JUMPDEST PUSH0 DUP4 ADD CALLDATALOAD PUSH8 0xFFFFFFFFFFFFFFFF DUP2 GT ISZERO PUSH2 0x8F4 JUMPI PUSH2 0x8F3 PUSH2 0x85C JUMP JUMPDEST JUMPDEST PUSH2 0x900 DUP6 DUP3 DUP7 ADD PUSH2 0x86C JUMP JUMPDEST SWAP3 POP SWAP3 POP POP SWAP3 POP SWAP3 SWAP1 POP JUMP JUMPDEST PUSH2 0x915 DUP2 PUSH2 0x81F JUMP JUMPDEST DUP2 EQ PUSH2 0x91F JUMPI PUSH0 PUSH0 REVERT JUMPDEST POP JUMP JUMPDEST PUSH0 DUP2 CALLDATALOAD SWAP1 POP PUSH2 0x930 DUP2 PUSH2 0x90C JUMP JUMPDEST SWAP3 SWAP2 POP POP JUMP JUMPDEST PUSH0 PUSH1 0x20 DUP3 DUP5 SUB SLT ISZERO PUSH2 0x94B JUMPI PUSH2 0x94A PUSH2 0x858 JUMP JUMPDEST JUMPDEST PUSH0 PUSH2 0x958 DUP5 DUP3 DUP6 ADD PUSH2 0x922 JUMP JUMPDEST SWAP2 POP POP SWAP3 SWAP2 POP POP JUMP JUMPDEST PUSH32 0x4E6F7420746865206F776E657200000000000000000000000000000000000000 PUSH0 DUP3 ADD MSTORE POP JUMP JUMPDEST PUSH0 PUSH2 0x995 PUSH1 0xD DUP4 PUSH2 0x749 JUMP JUMPDEST SWAP2 POP PUSH2 0x9A0 DUP3 PUSH2 0x961 JUMP JUMPDEST PUSH1 0x20 DUP3 ADD SWAP1 POP SWAP2 SWAP1 POP JUMP JUMPDEST PUSH0 PUSH1 0x20 DUP3 ADD SWAP1 POP DUP2 DUP2 SUB PUSH0 DUP4 ADD MSTORE PUSH2 0x9C2 DUP2 PUSH2 0x989 JUMP JUMPDEST SWAP1 POP SWAP2 SWAP1 POP JUMP JUMPDEST PUSH32 0x426F78206973207374696C6C206C6F636B656400000000000000000000000000 PUSH0 DUP3 ADD MSTORE POP JUMP JUMPDEST PUSH0 PUSH2 0x9FD PUSH1 0x13 DUP4 PUSH2 0x749 JUMP JUMPDEST SWAP2 POP PUSH2 0xA08 DUP3 PUSH2 0x9C9 JUMP JUMPDEST PUSH1 0x20 DUP3 ADD SWAP1 POP SWAP2 SWAP1 POP JUMP JUMPDEST PUSH0 PUSH1 0x20 DUP3 ADD SWAP1 POP DUP2 DUP2 SUB PUSH0 DUP4 ADD MSTORE PUSH2 0xA2A DUP2 PUSH2 0x9F1 JUMP JUMPDEST SWAP1 POP SWAP2 SWAP1 POP JUMP JUMPDEST PUSH32 0x4E487B7100000000000000000000000000000000000000000000000000000000 PUSH0 MSTORE PUSH1 0x11 PUSH1 0x4 MSTORE PUSH1 0x24 PUSH0 REVERT JUMPDEST PUSH0 PUSH2 0xA68 DUP3 PUSH2 0x7CF JUMP JUMPDEST SWAP2 POP PUSH2 0xA73 DUP4 PUSH2 0x7CF JUMP JUMPDEST SWAP3 POP DUP3 DUP3 SUB SWAP1 POP DUP2 DUP2 GT ISZERO PUSH2 0xA8B JUMPI PUSH2 0xA8A PUSH2 0xA31 JUMP JUMPDEST JUMPDEST SWAP3 SWAP2 POP POP JUMP JUMPDEST PUSH0 DUP3 SWAP1 POP SWAP3 SWAP2 POP POP JUMP JUMPDEST PUSH32 0x4E487B7100000000000000000000000000000000000000000000000000000000 PUSH0 MSTORE PUSH1 0x41 PUSH1 0x4 MSTORE PUSH1 0x24 PUSH0 REVERT JUMPDEST PUSH32 0x4E487B7100000000000000000000000000000000000000000000000000000000 PUSH0 MSTORE PUSH1 0x22 PUSH1 0x4 MSTORE PUSH1 0x24 PUSH0 REVERT JUMPDEST PUSH0 PUSH1 0x2 DUP3 DIV SWAP1 POP PUSH1 0x1 DUP3 AND DUP1 PUSH2 0xB0C JUMPI PUSH1 0x7F DUP3 AND SWAP2 POP JUMPDEST PUSH1 0x20 DUP3 LT DUP2 SUB PUSH2 0xB1F JUMPI PUSH2 0xB1E PUSH2 0xAC8 JUMP JUMPDEST JUMPDEST POP SWAP2 SWAP1 POP JUMP JUMPDEST PUSH0 DUP2 SWAP1 POP DUP2 PUSH0 MSTORE PUSH1 0x20 PUSH0 KECCAK256 SWAP1 POP SWAP2 SWAP1 POP JUMP JUMPDEST PUSH0 PUSH1 0x20 PUSH1 0x1F DUP4 ADD DIV SWAP1 POP SWAP2 SWAP1 POP JUMP JUMPDEST PUSH0 DUP3 DUP3 SHL SWAP1 POP SWAP3 SWAP2 POP POP JUMP JUMPDEST PUSH0 PUSH1 0x8 DUP4 MUL PUSH2 0xB81 PUSH32 0xFFFFFFFFFFFFFFFFFFFFFFFFFFFFFFFFFFFFFFFFFFFFFFFFFFFFFFFFFFFFFFFF DUP3 PUSH2 0xB46 JUMP JUMPDEST PUSH2 0xB8B DUP7 DUP4 PUSH2 0xB46 JUMP JUMPDEST SWAP6 POP DUP1 NOT DUP5 AND SWAP4 POP DUP1 DUP7 AND DUP5 OR SWAP3 POP POP POP SWAP4 SWAP3 POP POP POP JUMP JUMPDEST PUSH0 DUP2 SWAP1 POP SWAP2 SWAP1 POP JUMP JUMPDEST PUSH0 PUSH2 0xBC6 PUSH2 0xBC1 PUSH2 0xBBC DUP5 PUSH2 0x7CF JUMP JUMPDEST PUSH2 0xBA3 JUMP JUMPDEST PUSH2 0x7CF JUMP JUMPDEST SWAP1 POP SWAP2 SWAP1 POP JUMP JUMPDEST PUSH0 DUP2 SWAP1 POP SWAP2 SWAP1 POP JUMP JUMPDEST PUSH2 0xBDF DUP4 PUSH2 0xBAC JUMP JUMPDEST PUSH2 0xBF3 PUSH2 0xBEB DUP3 PUSH2 0xBCD JUMP JUMPDEST DUP5 DUP5 SLOAD PUSH2 0xB52 JUMP JUMPDEST DUP3 SSTORE POP POP POP POP JUMP JUMPDEST PUSH0 PUSH0 SWAP1 POP SWAP1 JUMP JUMPDEST PUSH2 0xC0A PUSH2 0xBFB JUMP JUMPDEST PUSH2 0xC15 DUP2 DUP5 DUP5 PUSH2 0xBD6 JUMP JUMPDEST POP POP POP JUMP JUMPDEST JUMPDEST DUP2 DUP2 LT ISZERO PUSH2 0xC38 JUMPI PUSH2 0xC2D PUSH0 DUP3 PUSH2 0xC02 JUMP JUMPDEST PUSH1 0x1 DUP2 ADD SWAP1 POP PUSH2 0xC1B JUMP JUMPDEST POP POP JUMP JUMPDEST PUSH1 0x1F DUP3 GT ISZERO PUSH2 0xC7D JUMPI PUSH2 0xC4E DUP2 PUSH2 0xB25 JUMP JUMPDEST PUSH2 0xC57 DUP5 PUSH2 0xB37 JUMP JUMPDEST DUP2 ADD PUSH1 0x20 DUP6 LT ISZERO PUSH2 0xC66 JUMPI DUP2 SWAP1 POP JUMPDEST PUSH2 0xC7A PUSH2 0xC72 DUP6 PUSH2 0xB37 JUMP JUMPDEST DUP4 ADD DUP3 PUSH2 0xC1A JUMP JUMPDEST POP POP JUMPDEST POP POP POP JUMP JUMPDEST PUSH0 DUP3 DUP3 SHR SWAP1 POP SWAP3 SWAP2 POP POP JUMP JUMPDEST PUSH0 PUSH2 0xC9D PUSH0 NOT DUP5 PUSH1 0x8 MUL PUSH2 0xC82 JUMP JUMPDEST NOT DUP1 DUP4 AND SWAP2 POP POP SWAP3 SWAP2 POP POP JUMP JUMPDEST PUSH0 PUSH2 0xCB5 DUP4 DUP4 PUSH2 0xC8E JUMP JUMPDEST SWAP2 POP DUP3 PUSH1 0x2 MUL DUP3 OR SWAP1 POP SWAP3 SWAP2 POP POP JUMP JUMPDEST PUSH2 0xCCF DUP4 DUP4 PUSH2 0xA91 JUMP JUMPDEST PUSH8 0xFFFFFFFFFFFFFFFF DUP2 GT ISZERO PUSH2 0xCE8 JUMPI PUSH2 0xCE7 PUSH2 0xA9B JUMP JUMPDEST JUMPDEST PUSH2 0xCF2 DUP3 SLOAD PUSH2 0xAF5 JUMP JUMPDEST PUSH2 0xCFD DUP3 DUP3 DUP6 PUSH2 0xC3C JUMP JUMPDEST PUSH0 PUSH1 0x1F DUP4 GT PUSH1 0x1 DUP2 EQ PUSH2 0xD2A JUMPI PUSH0 DUP5 ISZERO PUSH2 0xD18 JUMPI DUP3 DUP8 ADD CALLDATALOAD SWAP1 POP JUMPDEST PUSH2 0xD22 DUP6 DUP3 PUSH2 0xCAA JUMP JUMPDEST DUP7 SSTORE POP PUSH2 0xD89 JUMP JUMPDEST PUSH1 0x1F NOT DUP5 AND PUSH2 0xD38 DUP7 PUSH2 0xB25 JUMP JUMPDEST PUSH0 JUMPDEST DUP3 DUP2 LT ISZERO PUSH2 0xD5F JUMPI DUP5 DUP10 ADD CALLDATALOAD DUP3 SSTORE PUSH1 0x1 DUP3 ADD SWAP2 POP PUSH1 0x20 DUP6 ADD SWAP5 POP PUSH1 0x20 DUP2 ADD SWAP1 POP PUSH2 0xD3A JUMP JUMPDEST DUP7 DUP4 LT ISZERO PUSH2 0xD7C JUMPI DUP5 DUP10 ADD CALLDATALOAD PUSH2 0xD78 PUSH1 0x1F DUP10 AND DUP3 PUSH2 0xC8E JUMP JUMPDEST DUP4 SSTORE POP JUMPDEST PUSH1 0x1 PUSH1 0x2 DUP9 MUL ADD DUP9 SSTORE POP POP POP JUMPDEST POP POP POP POP POP POP POP JUMP JUMPDEST PUSH32 0x496E76616C696420416464726573730000000000000000000000000000000000 PUSH0 DUP3 ADD MSTORE POP JUMP JUMPDEST PUSH0 PUSH2 0xDC6 PUSH1 0xF DUP4 PUSH2 0x749 JUMP JUMPDEST SWAP2 POP PUSH2 0xDD1 DUP3 PUSH2 0xD92 JUMP JUMPDEST PUSH1 0x20 DUP3 ADD SWAP1 POP SWAP2 SWAP1 POP JUMP JUMPDEST PUSH0 PUSH1 0x20 DUP3 ADD SWAP1 POP DUP2 DUP2 SUB PUSH0 DUP4 ADD MSTORE PUSH2 0xDF3 DUP2 PUSH2 0xDBA JUMP JUMPDEST SWAP1 POP SWAP2 SWAP1 POP JUMP INVALID LOG2 PUSH5 0x6970667358 0x22 SLT KECCAK256 GT 0x4B 0xBF SAR 0xB0 STATICCALL 0x4F PUSH15 0x17DD22228672B2804D19675F55CE12 0x28 0xBF DUP11 0xDD 0x4C PUSH14 0x32BB9A64736F6C634300081E0033 "
				},
				"gasEstimates": {
					"creation": {
						"codeDepositCost": "726400",
						"executionCost": "infinite",
						"totalCost": "infinite"
					},
					"external": {
						"getBoxType()": "infinite",
						"getDepositTime()": "4623",
						"getOwner()": "2536",
						"getRemainingLockTime()": "infinite",
						"getSecret()": "infinite",
						"getUnlockTime()": "2499",
						"storeSecret(string)": "infinite",
						"transferOwnership(address)": "30661"
					}
				},
				"methodIdentifiers": {
					"getBoxType()": "04199139",
					"getDepositTime()": "51811f04",
					"getOwner()": "893d20e8",
					"getRemainingLockTime()": "7a8cd156",
					"getSecret()": "5b9fdc30",
					"getUnlockTime()": "602bc62b",
					"storeSecret(string)": "a14ab9f8",
					"transferOwnership(address)": "f2fde38b"
				}
			},
			"storageLayout": {
				"storage": [
					{
						"astId": 6,
						"contract": "submissions/CCan_08/Day14/TimeLockedDepositBox.sol:TimeLockedDepositBox",
						"label": "owner",
						"offset": 0,
						"slot": "0",
						"type": "t_address"
					},
					{
						"astId": 8,
						"contract": "submissions/CCan_08/Day14/TimeLockedDepositBox.sol:TimeLockedDepositBox",
						"label": "secret",
						"offset": 0,
						"slot": "1",
						"type": "t_string_storage"
					},
					{
						"astId": 10,
						"contract": "submissions/CCan_08/Day14/TimeLockedDepositBox.sol:TimeLockedDepositBox",
						"label": "depositTime",
						"offset": 0,
						"slot": "2",
						"type": "t_uint256"
					},
					{
						"astId": 164,
						"contract": "submissions/CCan_08/Day14/TimeLockedDepositBox.sol:TimeLockedDepositBox",
						"label": "unlockTime",
						"offset": 0,
						"slot": "3",
						"type": "t_uint256"
					}
				],
				"types": {
					"t_address": {
						"encoding": "inplace",
						"label": "address",
						"numberOfBytes": "20"
					},
					"t_string_storage": {
						"encoding": "bytes",
						"label": "string",
						"numberOfBytes": "32"
					},
					"t_uint256": {
						"encoding": "inplace",
						"label": "uint256",
						"numberOfBytes": "32"
					}
				}
			},
			"userdoc": {
				"kind": "user",
				"methods": {},
				"version": 1
			}
		}
	}
}