{
	"submissions/CCan_08/Day14/PremiumDepositBox.sol": {
		"PremiumDepositBox": {
			"abi": [
				{
					"anonymous": false,
					"inputs": [
						{
							"indexed": true,
							"internalType": "address",
							"name": "owner",
							"type": "address"
						}
					],
					"name": "MetadataUpdated",
					"type": "event"
				},
				{
					"anonymous": false,
					"inputs": [
						{
							"indexed": true,
							"internalType": "address",
							"name": "previousOwner",
							"type": "address"
						},
						{
							"indexed": true,
							"internalType": "address",
							"name": "newOwner",
							"type": "address"
						}
					],
					"name": "OwnershipTransferred",
					"type": "event"
				},
				{
					"anonymous": false,
					"inputs": [
						{
							"indexed": true,
							"internalType": "address",
							"name": "owner",
							"type": "address"
						}
					],
					"name": "SecretStored",
					"type": "event"
				},
				{
					"inputs": [],
					"name": "getBoxType",
					"outputs": [
						{
							"internalType": "string",
							"name": "",
							"type": "string"
						}
					],
					"stateMutability": "pure",
					"type": "function"
				},
				{
					"inputs": [],
					"name": "getDepositTime",
					"outputs": [
						{
							"internalType": "uint256",
							"name": "",
							"type": "uint256"
						}
					],
					"stateMutability": "view",
					"type": "function"
				},
				{
					"inputs": [],
					"name": "getMetadata",
					"outputs": [
						{
							"internalType": "string",
							"name": "",
							"type": "string"
						}
					],
					"stateMutability": "view",
					"type": "function"
				},
				{
					"inputs": [],
					"name": "getOwner",
					"outputs": [
						{
							"internalType": "address",
							"name": "",
							"type": "address"
						}
					],
					"stateMutability": "view",
					"type": "function"
				},
				{
					"inputs": [],
					"name": "getSecret",
					"outputs": [
						{
							"internalType": "string",
							"name": "",
							"type": "string"
						}
					],
					"stateMutability": "view",
					"type": "function"
				},
				{
					"inputs": [
						{
							"internalType": "string",
							"name": "_metadata",
							"type": "string"
						}
					],
					"name": "setMetadata",
					"outputs": [],
					"stateMutability": "nonpayable",
					"type": "function"
				},
				{
					"inputs": [
						{
							"internalType": "string",
							"name": "_secret",
							"type": "string"
						}
					],
					"name": "storeSecret",
					"outputs": [],
					"stateMutability": "nonpayable",
					"type": "function"
				},
				{
					"inputs": [
						{
							"internalType": "address",
							"name": "newOwner",
							"type": "address"
						}
					],
					"name": "transferOwnership",
					"outputs": [],
					"stateMutability": "nonpayable",
					"type": "function"
				}
			],
			"devdoc": {
				"kind": "dev",
				"methods": {},
				"version": 1
			},
			"evm": {
				"assembly": "    /* \"submissions/CCan_08/Day14/PremiumDepositBox.sol\":90:582  contract PremiumDepositBox is BaseDepositBox{... */\n  mstore(0x40, 0x80)\n  callvalue\n  dup1\n  iszero\n  tag_1\n  jumpi\n  revert(0x00, 0x00)\ntag_1:\n  pop\n    /* \"submissions/CCan_08/Day14/BaseDepositBox.sol\":397:407  msg.sender */\n  caller\n    /* \"submissions/CCan_08/Day14/BaseDepositBox.sol\":389:394  owner */\n  0x00\n  0x00\n    /* \"submissions/CCan_08/Day14/BaseDepositBox.sol\":389:407  owner = msg.sender */\n  0x0100\n  exp\n  dup2\n  sload\n  dup2\n  0xffffffffffffffffffffffffffffffffffffffff\n  mul\n  not\n  and\n  swap1\n  dup4\n  0xffffffffffffffffffffffffffffffffffffffff\n  and\n  mul\n  or\n  swap1\n  sstore\n  pop\n    /* \"submissions/CCan_08/Day14/BaseDepositBox.sol\":431:446  block.timestamp */\n  timestamp\n    /* \"submissions/CCan_08/Day14/BaseDepositBox.sol\":417:428  depositTime */\n  0x02\n    /* \"submissions/CCan_08/Day14/BaseDepositBox.sol\":417:446  depositTime = block.timestamp */\n  dup2\n  swap1\n  sstore\n  pop\n    /* \"submissions/CCan_08/Day14/PremiumDepositBox.sol\":90:582  contract PremiumDepositBox is BaseDepositBox{... */\n  dataSize(sub_0)\n  dup1\n  dataOffset(sub_0)\n  0x00\n  codecopy\n  0x00\n  return\nstop\n\nsub_0: assembly {\n        /* \"submissions/CCan_08/Day14/PremiumDepositBox.sol\":90:582  contract PremiumDepositBox is BaseDepositBox{... */\n      mstore(0x40, 0x80)\n      callvalue\n      dup1\n      iszero\n      tag_1\n      jumpi\n      revert(0x00, 0x00)\n    tag_1:\n      pop\n      jumpi(tag_2, lt(calldatasize, 0x04))\n      shr(0xe0, calldataload(0x00))\n      dup1\n      0x893d20e8\n      gt\n      tag_11\n      jumpi\n      dup1\n      0x893d20e8\n      eq\n      tag_7\n      jumpi\n      dup1\n      0xa14ab9f8\n      eq\n      tag_8\n      jumpi\n      dup1\n      0xa49a1e7d\n      eq\n      tag_9\n      jumpi\n      dup1\n      0xf2fde38b\n      eq\n      tag_10\n      jumpi\n      jump(tag_2)\n    tag_11:\n      dup1\n      0x04199139\n      eq\n      tag_3\n      jumpi\n      dup1\n      0x51811f04\n      eq\n      tag_4\n      jumpi\n      dup1\n      0x5b9fdc30\n      eq\n      tag_5\n      jumpi\n      dup1\n      0x7a5b4f59\n      eq\n      tag_6\n      jumpi\n    tag_2:\n      revert(0x00, 0x00)\n        /* \"submissions/CCan_08/Day14/PremiumDepositBox.sol\":221:319  function getBoxType() override public pure returns(string memory){... */\n    tag_3:\n      tag_12\n      tag_13\n      jump\t// in\n    tag_12:\n      mload(0x40)\n      tag_14\n      swap2\n      swap1\n      tag_15\n      jump\t// in\n    tag_14:\n      mload(0x40)\n      dup1\n      swap2\n      sub\n      swap1\n      return\n        /* \"submissions/CCan_08/Day14/BaseDepositBox.sol\":1160:1280  function getDepositTime() external view virtual override onlyOwner returns (uint256) {... */\n    tag_4:\n      tag_16\n      tag_17\n      jump\t// in\n    tag_16:\n      mload(0x40)\n      tag_18\n      swap2\n      swap1\n      tag_19\n      jump\t// in\n    tag_18:\n      mload(0x40)\n      dup1\n      swap2\n      sub\n      swap1\n      return\n        /* \"submissions/CCan_08/Day14/BaseDepositBox.sol\":1041:1154  function getSecret() public view virtual override onlyOwner returns (string memory){... */\n    tag_5:\n      tag_20\n      tag_21\n      jump\t// in\n    tag_20:\n      mload(0x40)\n      tag_22\n      swap2\n      swap1\n      tag_15\n      jump\t// in\n    tag_22:\n      mload(0x40)\n      dup1\n      swap2\n      sub\n      swap1\n      return\n        /* \"submissions/CCan_08/Day14/PremiumDepositBox.sol\":477:578  function getMetadata() external view onlyOwner returns(string memory){... */\n    tag_6:\n      tag_23\n      tag_24\n      jump\t// in\n    tag_23:\n      mload(0x40)\n      tag_25\n      swap2\n      swap1\n      tag_15\n      jump\t// in\n    tag_25:\n      mload(0x40)\n      dup1\n      swap2\n      sub\n      swap1\n      return\n        /* \"submissions/CCan_08/Day14/BaseDepositBox.sol\":558:645  function getOwner() public view override returns (address){... */\n    tag_7:\n      tag_26\n      tag_27\n      jump\t// in\n    tag_26:\n      mload(0x40)\n      tag_28\n      swap2\n      swap1\n      tag_29\n      jump\t// in\n    tag_28:\n      mload(0x40)\n      dup1\n      swap2\n      sub\n      swap1\n      return\n        /* \"submissions/CCan_08/Day14/BaseDepositBox.sol\":883:1035  function storeSecret(string calldata _secret)external virtual override onlyOwner{... */\n    tag_8:\n      tag_30\n      0x04\n      dup1\n      calldatasize\n      sub\n      dup2\n      add\n      swap1\n      tag_31\n      swap2\n      swap1\n      tag_32\n      jump\t// in\n    tag_31:\n      tag_33\n      jump\t// in\n    tag_30:\n      stop\n        /* \"submissions/CCan_08/Day14/PremiumDepositBox.sol\":326:471  function setMetadata(string calldata _metadata) external onlyOwner{... */\n    tag_9:\n      tag_34\n      0x04\n      dup1\n      calldatasize\n      sub\n      dup2\n      add\n      swap1\n      tag_35\n      swap2\n      swap1\n      tag_32\n      jump\t// in\n    tag_35:\n      tag_36\n      jump\t// in\n    tag_34:\n      stop\n        /* \"submissions/CCan_08/Day14/BaseDepositBox.sol\":651:877  function transferOwnership(address newOwner) external virtual override onlyOwner{... */\n    tag_10:\n      tag_37\n      0x04\n      dup1\n      calldatasize\n      sub\n      dup2\n      add\n      swap1\n      tag_38\n      swap2\n      swap1\n      tag_39\n      jump\t// in\n    tag_38:\n      tag_40\n      jump\t// in\n    tag_37:\n      stop\n        /* \"submissions/CCan_08/Day14/PremiumDepositBox.sol\":221:319  function getBoxType() override public pure returns(string memory){... */\n    tag_13:\n        /* \"submissions/CCan_08/Day14/PremiumDepositBox.sol\":272:285  string memory */\n      0x60\n        /* \"submissions/CCan_08/Day14/PremiumDepositBox.sol\":296:312  return \"Premium\" */\n      mload(0x40)\n      dup1\n      0x40\n      add\n      0x40\n      mstore\n      dup1\n      0x07\n      dup2\n      mstore\n      0x20\n      add\n      0x5072656d69756d00000000000000000000000000000000000000000000000000\n      dup2\n      mstore\n      pop\n      swap1\n      pop\n        /* \"submissions/CCan_08/Day14/PremiumDepositBox.sol\":221:319  function getBoxType() override public pure returns(string memory){... */\n      swap1\n      jump\t// out\n        /* \"submissions/CCan_08/Day14/BaseDepositBox.sol\":1160:1280  function getDepositTime() external view virtual override onlyOwner returns (uint256) {... */\n    tag_17:\n        /* \"submissions/CCan_08/Day14/BaseDepositBox.sol\":1236:1243  uint256 */\n      0x00\n        /* \"submissions/CCan_08/Day14/BaseDepositBox.sol\":506:516  msg.sender */\n      caller\n        /* \"submissions/CCan_08/Day14/BaseDepositBox.sol\":497:516  owner == msg.sender */\n      0xffffffffffffffffffffffffffffffffffffffff\n      and\n        /* \"submissions/CCan_08/Day14/BaseDepositBox.sol\":497:502  owner */\n      0x00\n      0x00\n      swap1\n      sload\n      swap1\n      0x0100\n      exp\n      swap1\n      div\n      0xffffffffffffffffffffffffffffffffffffffff\n      and\n        /* \"submissions/CCan_08/Day14/BaseDepositBox.sol\":497:516  owner == msg.sender */\n      0xffffffffffffffffffffffffffffffffffffffff\n      and\n      eq\n        /* \"submissions/CCan_08/Day14/BaseDepositBox.sol\":489:534  require(owner == msg.sender, \"Not the owner\") */\n      tag_43\n      jumpi\n      mload(0x40)\n      0x08c379a000000000000000000000000000000000000000000000000000000000\n      dup2\n      mstore\n      0x04\n      add\n      tag_44\n      swap1\n      tag_45\n      jump\t// in\n    tag_44:\n      mload(0x40)\n      dup1\n      swap2\n      sub\n      swap1\n      revert\n    tag_43:\n        /* \"submissions/CCan_08/Day14/BaseDepositBox.sol\":1262:1273  depositTime */\n      sload(0x02)\n        /* \"submissions/CCan_08/Day14/BaseDepositBox.sol\":1255:1273  return depositTime */\n      swap1\n      pop\n        /* \"submissions/CCan_08/Day14/BaseDepositBox.sol\":1160:1280  function getDepositTime() external view virtual override onlyOwner returns (uint256) {... */\n      swap1\n      jump\t// out\n        /* \"submissions/CCan_08/Day14/BaseDepositBox.sol\":1041:1154  function getSecret() public view virtual override onlyOwner returns (string memory){... */\n    tag_21:\n        /* \"submissions/CCan_08/Day14/BaseDepositBox.sol\":1110:1123  string memory */\n      0x60\n        /* \"submissions/CCan_08/Day14/BaseDepositBox.sol\":506:516  msg.sender */\n      caller\n        /* \"submissions/CCan_08/Day14/BaseDepositBox.sol\":497:516  owner == msg.sender */\n      0xffffffffffffffffffffffffffffffffffffffff\n      and\n        /* \"submissions/CCan_08/Day14/BaseDepositBox.sol\":497:502  owner */\n      0x00\n      0x00\n      swap1\n      sload\n      swap1\n      0x0100\n      exp\n      swap1\n      div\n      0xffffffffffffffffffffffffffffffffffffffff\n      and\n        /* \"submissions/CCan_08/Day14/BaseDepositBox.sol\":497:516  owner == msg.sender */\n      0xffffffffffffffffffffffffffffffffffffffff\n      and\n      eq\n        /* \"submissions/CCan_08/Day14/BaseDepositBox.sol\":489:534  require(owner == msg.sender, \"Not the owner\") */\n      tag_48\n      jumpi\n      mload(0x40)\n      0x08c379a000000000000000000000000000000000000000000000000000000000\n      dup2\n      mstore\n      0x04\n      add\n      tag_49\n      swap1\n      tag_45\n      jump\t// in\n    tag_49:\n      mload(0x40)\n      dup1\n      swap2\n      sub\n      swap1\n      revert\n    tag_48:\n        /* \"submissions/CCan_08/Day14/BaseDepositBox.sol\":1141:1147  secret */\n      0x01\n        /* \"submissions/CCan_08/Day14/BaseDepositBox.sol\":1134:1147  return secret */\n      dup1\n      sload\n      tag_51\n      swap1\n      tag_52\n      jump\t// in\n    tag_51:\n      dup1\n      0x1f\n      add\n      0x20\n      dup1\n      swap2\n      div\n      mul\n      0x20\n      add\n      mload(0x40)\n      swap1\n      dup2\n      add\n      0x40\n      mstore\n      dup1\n      swap3\n      swap2\n      swap1\n      dup2\n      dup2\n      mstore\n      0x20\n      add\n      dup3\n      dup1\n      sload\n      tag_53\n      swap1\n      tag_52\n      jump\t// in\n    tag_53:\n      dup1\n      iszero\n      tag_54\n      jumpi\n      dup1\n      0x1f\n      lt\n      tag_55\n      jumpi\n      0x0100\n      dup1\n      dup4\n      sload\n      div\n      mul\n      dup4\n      mstore\n      swap2\n      0x20\n      add\n      swap2\n      jump(tag_54)\n    tag_55:\n      dup3\n      add\n      swap2\n      swap1\n      0x00\n      mstore\n      keccak256(0x00, 0x20)\n      swap1\n    tag_56:\n      dup2\n      sload\n      dup2\n      mstore\n      swap1\n      0x01\n      add\n      swap1\n      0x20\n      add\n      dup1\n      dup4\n      gt\n      tag_56\n      jumpi\n      dup3\n      swap1\n      sub\n      0x1f\n      and\n      dup3\n      add\n      swap2\n    tag_54:\n      pop\n      pop\n      pop\n      pop\n      pop\n      swap1\n      pop\n        /* \"submissions/CCan_08/Day14/BaseDepositBox.sol\":1041:1154  function getSecret() public view virtual override onlyOwner returns (string memory){... */\n      swap1\n      jump\t// out\n        /* \"submissions/CCan_08/Day14/PremiumDepositBox.sol\":477:578  function getMetadata() external view onlyOwner returns(string memory){... */\n    tag_24:\n        /* \"submissions/CCan_08/Day14/PremiumDepositBox.sol\":532:545  string memory */\n      0x60\n        /* \"submissions/CCan_08/Day14/BaseDepositBox.sol\":506:516  msg.sender */\n      caller\n        /* \"submissions/CCan_08/Day14/BaseDepositBox.sol\":497:516  owner == msg.sender */\n      0xffffffffffffffffffffffffffffffffffffffff\n      and\n        /* \"submissions/CCan_08/Day14/BaseDepositBox.sol\":497:502  owner */\n      0x00\n      0x00\n      swap1\n      sload\n      swap1\n      0x0100\n      exp\n      swap1\n      div\n      0xffffffffffffffffffffffffffffffffffffffff\n      and\n        /* \"submissions/CCan_08/Day14/BaseDepositBox.sol\":497:516  owner == msg.sender */\n      0xffffffffffffffffffffffffffffffffffffffff\n      and\n      eq\n        /* \"submissions/CCan_08/Day14/BaseDepositBox.sol\":489:534  require(owner == msg.sender, \"Not the owner\") */\n      tag_58\n      jumpi\n      mload(0x40)\n      0x08c379a000000000000000000000000000000000000000000000000000000000\n      dup2\n      mstore\n      0x04\n      add\n      tag_59\n      swap1\n      tag_45\n      jump\t// in\n    tag_59:\n      mload(0x40)\n      dup1\n      swap2\n      sub\n      swap1\n      revert\n    tag_58:\n        /* \"submissions/CCan_08/Day14/PremiumDepositBox.sol\":563:571  metadata */\n      0x03\n        /* \"submissions/CCan_08/Day14/PremiumDepositBox.sol\":556:571  return metadata */\n      dup1\n      sload\n      tag_61\n      swap1\n      tag_52\n      jump\t// in\n    tag_61:\n      dup1\n      0x1f\n      add\n      0x20\n      dup1\n      swap2\n      div\n      mul\n      0x20\n      add\n      mload(0x40)\n      swap1\n      dup2\n      add\n      0x40\n      mstore\n      dup1\n      swap3\n      swap2\n      swap1\n      dup2\n      dup2\n      mstore\n      0x20\n      add\n      dup3\n      dup1\n      sload\n      tag_62\n      swap1\n      tag_52\n      jump\t// in\n    tag_62:\n      dup1\n      iszero\n      tag_63\n      jumpi\n      dup1\n      0x1f\n      lt\n      tag_64\n      jumpi\n      0x0100\n      dup1\n      dup4\n      sload\n      div\n      mul\n      dup4\n      mstore\n      swap2\n      0x20\n      add\n      swap2\n      jump(tag_63)\n    tag_64:\n      dup3\n      add\n      swap2\n      swap1\n      0x00\n      mstore\n      keccak256(0x00, 0x20)\n      swap1\n    tag_65:\n      dup2\n      sload\n      dup2\n      mstore\n      swap1\n      0x01\n      add\n      swap1\n      0x20\n      add\n      dup1\n      dup4\n      gt\n      tag_65\n      jumpi\n      dup3\n      swap1\n      sub\n      0x1f\n      and\n      dup3\n      add\n      swap2\n    tag_63:\n      pop\n      pop\n      pop\n      pop\n      pop\n      swap1\n      pop\n        /* \"submissions/CCan_08/Day14/PremiumDepositBox.sol\":477:578  function getMetadata() external view onlyOwner returns(string memory){... */\n      swap1\n      jump\t// out\n        /* \"submissions/CCan_08/Day14/BaseDepositBox.sol\":558:645  function getOwner() public view override returns (address){... */\n    tag_27:\n        /* \"submissions/CCan_08/Day14/BaseDepositBox.sol\":608:615  address */\n      0x00\n        /* \"submissions/CCan_08/Day14/BaseDepositBox.sol\":633:638  owner */\n      0x00\n      0x00\n      swap1\n      sload\n      swap1\n      0x0100\n      exp\n      swap1\n      div\n      0xffffffffffffffffffffffffffffffffffffffff\n      and\n        /* \"submissions/CCan_08/Day14/BaseDepositBox.sol\":626:638  return owner */\n      swap1\n      pop\n        /* \"submissions/CCan_08/Day14/BaseDepositBox.sol\":558:645  function getOwner() public view override returns (address){... */\n      swap1\n      jump\t// out\n        /* \"submissions/CCan_08/Day14/BaseDepositBox.sol\":883:1035  function storeSecret(string calldata _secret)external virtual override onlyOwner{... */\n    tag_33:\n        /* \"submissions/CCan_08/Day14/BaseDepositBox.sol\":506:516  msg.sender */\n      caller\n        /* \"submissions/CCan_08/Day14/BaseDepositBox.sol\":497:516  owner == msg.sender */\n      0xffffffffffffffffffffffffffffffffffffffff\n      and\n        /* \"submissions/CCan_08/Day14/BaseDepositBox.sol\":497:502  owner */\n      0x00\n      0x00\n      swap1\n      sload\n      swap1\n      0x0100\n      exp\n      swap1\n      div\n      0xffffffffffffffffffffffffffffffffffffffff\n      and\n        /* \"submissions/CCan_08/Day14/BaseDepositBox.sol\":497:516  owner == msg.sender */\n      0xffffffffffffffffffffffffffffffffffffffff\n      and\n      eq\n        /* \"submissions/CCan_08/Day14/BaseDepositBox.sol\":489:534  require(owner == msg.sender, \"Not the owner\") */\n      tag_68\n      jumpi\n      mload(0x40)\n      0x08c379a000000000000000000000000000000000000000000000000000000000\n      dup2\n      mstore\n      0x04\n      add\n      tag_69\n      swap1\n      tag_45\n      jump\t// in\n    tag_69:\n      mload(0x40)\n      dup1\n      swap2\n      sub\n      swap1\n      revert\n    tag_68:\n        /* \"submissions/CCan_08/Day14/BaseDepositBox.sol\":982:989  _secret */\n      dup2\n      dup2\n        /* \"submissions/CCan_08/Day14/BaseDepositBox.sol\":973:979  secret */\n      0x01\n        /* \"submissions/CCan_08/Day14/BaseDepositBox.sol\":973:989  secret = _secret */\n      swap2\n      dup3\n      tag_71\n      swap3\n      swap2\n      swap1\n      tag_72\n      jump\t// in\n    tag_71:\n      pop\n        /* \"submissions/CCan_08/Day14/BaseDepositBox.sol\":1017:1027  msg.sender */\n      caller\n        /* \"submissions/CCan_08/Day14/BaseDepositBox.sol\":1004:1028  SecretStored(msg.sender) */\n      0xffffffffffffffffffffffffffffffffffffffff\n      and\n      0x0977f4c93d6a66455eb4f1467e8a01fec7c62b1ce20353fb51b7269712e11967\n      mload(0x40)\n      mload(0x40)\n      dup1\n      swap2\n      sub\n      swap1\n      log2\n        /* \"submissions/CCan_08/Day14/BaseDepositBox.sol\":883:1035  function storeSecret(string calldata _secret)external virtual override onlyOwner{... */\n      pop\n      pop\n      jump\t// out\n        /* \"submissions/CCan_08/Day14/PremiumDepositBox.sol\":326:471  function setMetadata(string calldata _metadata) external onlyOwner{... */\n    tag_36:\n        /* \"submissions/CCan_08/Day14/BaseDepositBox.sol\":506:516  msg.sender */\n      caller\n        /* \"submissions/CCan_08/Day14/BaseDepositBox.sol\":497:516  owner == msg.sender */\n      0xffffffffffffffffffffffffffffffffffffffff\n      and\n        /* \"submissions/CCan_08/Day14/BaseDepositBox.sol\":497:502  owner */\n      0x00\n      0x00\n      swap1\n      sload\n      swap1\n      0x0100\n      exp\n      swap1\n      div\n      0xffffffffffffffffffffffffffffffffffffffff\n      and\n        /* \"submissions/CCan_08/Day14/BaseDepositBox.sol\":497:516  owner == msg.sender */\n      0xffffffffffffffffffffffffffffffffffffffff\n      and\n      eq\n        /* \"submissions/CCan_08/Day14/BaseDepositBox.sol\":489:534  require(owner == msg.sender, \"Not the owner\") */\n      tag_74\n      jumpi\n      mload(0x40)\n      0x08c379a000000000000000000000000000000000000000000000000000000000\n      dup2\n      mstore\n      0x04\n      add\n      tag_75\n      swap1\n      tag_45\n      jump\t// in\n    tag_75:\n      mload(0x40)\n      dup1\n      swap2\n      sub\n      swap1\n      revert\n    tag_74:\n        /* \"submissions/CCan_08/Day14/PremiumDepositBox.sol\":413:422  _metadata */\n      dup2\n      dup2\n        /* \"submissions/CCan_08/Day14/PremiumDepositBox.sol\":402:410  metadata */\n      0x03\n        /* \"submissions/CCan_08/Day14/PremiumDepositBox.sol\":402:422  metadata = _metadata */\n      swap2\n      dup3\n      tag_77\n      swap3\n      swap2\n      swap1\n      tag_72\n      jump\t// in\n    tag_77:\n      pop\n        /* \"submissions/CCan_08/Day14/PremiumDepositBox.sol\":453:463  msg.sender */\n      caller\n        /* \"submissions/CCan_08/Day14/PremiumDepositBox.sol\":437:464  MetadataUpdated(msg.sender) */\n      0xffffffffffffffffffffffffffffffffffffffff\n      and\n      0xe08224dc11618a1e23016c28d3fb80e30630f4df34d9f95890fe9ce89a85d07e\n      mload(0x40)\n      mload(0x40)\n      dup1\n      swap2\n      sub\n      swap1\n      log2\n        /* \"submissions/CCan_08/Day14/PremiumDepositBox.sol\":326:471  function setMetadata(string calldata _metadata) external onlyOwner{... */\n      pop\n      pop\n      jump\t// out\n        /* \"submissions/CCan_08/Day14/BaseDepositBox.sol\":651:877  function transferOwnership(address newOwner) external virtual override onlyOwner{... */\n    tag_40:\n        /* \"submissions/CCan_08/Day14/BaseDepositBox.sol\":506:516  msg.sender */\n      caller\n        /* \"submissions/CCan_08/Day14/BaseDepositBox.sol\":497:516  owner == msg.sender */\n      0xffffffffffffffffffffffffffffffffffffffff\n      and\n        /* \"submissions/CCan_08/Day14/BaseDepositBox.sol\":497:502  owner */\n      0x00\n      0x00\n      swap1\n      sload\n      swap1\n      0x0100\n      exp\n      swap1\n      div\n      0xffffffffffffffffffffffffffffffffffffffff\n      and\n        /* \"submissions/CCan_08/Day14/BaseDepositBox.sol\":497:516  owner == msg.sender */\n      0xffffffffffffffffffffffffffffffffffffffff\n      and\n      eq\n        /* \"submissions/CCan_08/Day14/BaseDepositBox.sol\":489:534  require(owner == msg.sender, \"Not the owner\") */\n      tag_79\n      jumpi\n      mload(0x40)\n      0x08c379a000000000000000000000000000000000000000000000000000000000\n      dup2\n      mstore\n      0x04\n      add\n      tag_80\n      swap1\n      tag_45\n      jump\t// in\n    tag_80:\n      mload(0x40)\n      dup1\n      swap2\n      sub\n      swap1\n      revert\n    tag_79:\n        /* \"submissions/CCan_08/Day14/BaseDepositBox.sol\":769:770  0 */\n      0x00\n        /* \"submissions/CCan_08/Day14/BaseDepositBox.sol\":749:771  newOwner != address(0) */\n      0xffffffffffffffffffffffffffffffffffffffff\n      and\n        /* \"submissions/CCan_08/Day14/BaseDepositBox.sol\":749:757  newOwner */\n      dup2\n        /* \"submissions/CCan_08/Day14/BaseDepositBox.sol\":749:771  newOwner != address(0) */\n      0xffffffffffffffffffffffffffffffffffffffff\n      and\n      sub\n        /* \"submissions/CCan_08/Day14/BaseDepositBox.sol\":741:791  require(newOwner != address(0), \"Invalid Address\") */\n      tag_82\n      jumpi\n      mload(0x40)\n      0x08c379a000000000000000000000000000000000000000000000000000000000\n      dup2\n      mstore\n      0x04\n      add\n      tag_83\n      swap1\n      tag_84\n      jump\t// in\n    tag_83:\n      mload(0x40)\n      dup1\n      swap2\n      sub\n      swap1\n      revert\n    tag_82:\n        /* \"submissions/CCan_08/Day14/BaseDepositBox.sol\":834:842  newOwner */\n      dup1\n        /* \"submissions/CCan_08/Day14/BaseDepositBox.sol\":806:843  OwnershipTransferred(owner, newOwner) */\n      0xffffffffffffffffffffffffffffffffffffffff\n      and\n        /* \"submissions/CCan_08/Day14/BaseDepositBox.sol\":827:832  owner */\n      0x00\n      0x00\n      swap1\n      sload\n      swap1\n      0x0100\n      exp\n      swap1\n      div\n      0xffffffffffffffffffffffffffffffffffffffff\n      and\n        /* \"submissions/CCan_08/Day14/BaseDepositBox.sol\":806:843  OwnershipTransferred(owner, newOwner) */\n      0xffffffffffffffffffffffffffffffffffffffff\n      and\n      0x8be0079c531659141344cd1fd0a4f28419497f9722a3daafe3b4186f6b6457e0\n      mload(0x40)\n      mload(0x40)\n      dup1\n      swap2\n      sub\n      swap1\n      log3\n        /* \"submissions/CCan_08/Day14/BaseDepositBox.sol\":862:870  newOwner */\n      dup1\n        /* \"submissions/CCan_08/Day14/BaseDepositBox.sol\":854:859  owner */\n      0x00\n      0x00\n        /* \"submissions/CCan_08/Day14/BaseDepositBox.sol\":854:870  owner = newOwner */\n      0x0100\n      exp\n      dup2\n      sload\n      dup2\n      0xffffffffffffffffffffffffffffffffffffffff\n      mul\n      not\n      and\n      swap1\n      dup4\n      0xffffffffffffffffffffffffffffffffffffffff\n      and\n      mul\n      or\n      swap1\n      sstore\n      pop\n        /* \"submissions/CCan_08/Day14/BaseDepositBox.sol\":651:877  function transferOwnership(address newOwner) external virtual override onlyOwner{... */\n      pop\n      jump\t// out\n        /* \"#utility.yul\":7:106   */\n    tag_85:\n        /* \"#utility.yul\":59:65   */\n      0x00\n        /* \"#utility.yul\":93:98   */\n      dup2\n        /* \"#utility.yul\":87:99   */\n      mload\n        /* \"#utility.yul\":77:99   */\n      swap1\n      pop\n        /* \"#utility.yul\":7:106   */\n      swap2\n      swap1\n      pop\n      jump\t// out\n        /* \"#utility.yul\":112:281   */\n    tag_86:\n        /* \"#utility.yul\":196:207   */\n      0x00\n        /* \"#utility.yul\":230:236   */\n      dup3\n        /* \"#utility.yul\":225:228   */\n      dup3\n        /* \"#utility.yul\":218:237   */\n      mstore\n        /* \"#utility.yul\":270:274   */\n      0x20\n        /* \"#utility.yul\":265:268   */\n      dup3\n        /* \"#utility.yul\":261:275   */\n      add\n        /* \"#utility.yul\":246:275   */\n      swap1\n      pop\n        /* \"#utility.yul\":112:281   */\n      swap3\n      swap2\n      pop\n      pop\n      jump\t// out\n        /* \"#utility.yul\":287:426   */\n    tag_87:\n        /* \"#utility.yul\":376:382   */\n      dup3\n        /* \"#utility.yul\":371:374   */\n      dup2\n        /* \"#utility.yul\":366:369   */\n      dup4\n        /* \"#utility.yul\":360:383   */\n      mcopy\n        /* \"#utility.yul\":417:418   */\n      0x00\n        /* \"#utility.yul\":408:414   */\n      dup4\n        /* \"#utility.yul\":403:406   */\n      dup4\n        /* \"#utility.yul\":399:415   */\n      add\n        /* \"#utility.yul\":392:419   */\n      mstore\n        /* \"#utility.yul\":287:426   */\n      pop\n      pop\n      pop\n      jump\t// out\n        /* \"#utility.yul\":432:534   */\n    tag_88:\n        /* \"#utility.yul\":473:479   */\n      0x00\n        /* \"#utility.yul\":524:526   */\n      0x1f\n        /* \"#utility.yul\":520:527   */\n      not\n        /* \"#utility.yul\":515:517   */\n      0x1f\n        /* \"#utility.yul\":508:513   */\n      dup4\n        /* \"#utility.yul\":504:518   */\n      add\n        /* \"#utility.yul\":500:528   */\n      and\n        /* \"#utility.yul\":490:528   */\n      swap1\n      pop\n        /* \"#utility.yul\":432:534   */\n      swap2\n      swap1\n      pop\n      jump\t// out\n        /* \"#utility.yul\":540:917   */\n    tag_89:\n        /* \"#utility.yul\":628:631   */\n      0x00\n        /* \"#utility.yul\":656:695   */\n      tag_132\n        /* \"#utility.yul\":689:694   */\n      dup3\n        /* \"#utility.yul\":656:695   */\n      tag_85\n      jump\t// in\n    tag_132:\n        /* \"#utility.yul\":711:782   */\n      tag_133\n        /* \"#utility.yul\":775:781   */\n      dup2\n        /* \"#utility.yul\":770:773   */\n      dup6\n        /* \"#utility.yul\":711:782   */\n      tag_86\n      jump\t// in\n    tag_133:\n        /* \"#utility.yul\":704:782   */\n      swap4\n      pop\n        /* \"#utility.yul\":791:856   */\n      tag_134\n        /* \"#utility.yul\":849:855   */\n      dup2\n        /* \"#utility.yul\":844:847   */\n      dup6\n        /* \"#utility.yul\":837:841   */\n      0x20\n        /* \"#utility.yul\":830:835   */\n      dup7\n        /* \"#utility.yul\":826:842   */\n      add\n        /* \"#utility.yul\":791:856   */\n      tag_87\n      jump\t// in\n    tag_134:\n        /* \"#utility.yul\":881:910   */\n      tag_135\n        /* \"#utility.yul\":903:909   */\n      dup2\n        /* \"#utility.yul\":881:910   */\n      tag_88\n      jump\t// in\n    tag_135:\n        /* \"#utility.yul\":876:879   */\n      dup5\n        /* \"#utility.yul\":872:911   */\n      add\n        /* \"#utility.yul\":865:911   */\n      swap2\n      pop\n        /* \"#utility.yul\":632:917   */\n      pop\n        /* \"#utility.yul\":540:917   */\n      swap3\n      swap2\n      pop\n      pop\n      jump\t// out\n        /* \"#utility.yul\":923:1236   */\n    tag_15:\n        /* \"#utility.yul\":1036:1040   */\n      0x00\n        /* \"#utility.yul\":1074:1076   */\n      0x20\n        /* \"#utility.yul\":1063:1072   */\n      dup3\n        /* \"#utility.yul\":1059:1077   */\n      add\n        /* \"#utility.yul\":1051:1077   */\n      swap1\n      pop\n        /* \"#utility.yul\":1123:1132   */\n      dup2\n        /* \"#utility.yul\":1117:1121   */\n      dup2\n        /* \"#utility.yul\":1113:1133   */\n      sub\n        /* \"#utility.yul\":1109:1110   */\n      0x00\n        /* \"#utility.yul\":1098:1107   */\n      dup4\n        /* \"#utility.yul\":1094:1111   */\n      add\n        /* \"#utility.yul\":1087:1134   */\n      mstore\n        /* \"#utility.yul\":1151:1229   */\n      tag_137\n        /* \"#utility.yul\":1224:1228   */\n      dup2\n        /* \"#utility.yul\":1215:1221   */\n      dup5\n        /* \"#utility.yul\":1151:1229   */\n      tag_89\n      jump\t// in\n    tag_137:\n        /* \"#utility.yul\":1143:1229   */\n      swap1\n      pop\n        /* \"#utility.yul\":923:1236   */\n      swap3\n      swap2\n      pop\n      pop\n      jump\t// out\n        /* \"#utility.yul\":1242:1319   */\n    tag_90:\n        /* \"#utility.yul\":1279:1286   */\n      0x00\n        /* \"#utility.yul\":1308:1313   */\n      dup2\n        /* \"#utility.yul\":1297:1313   */\n      swap1\n      pop\n        /* \"#utility.yul\":1242:1319   */\n      swap2\n      swap1\n      pop\n      jump\t// out\n        /* \"#utility.yul\":1325:1443   */\n    tag_91:\n        /* \"#utility.yul\":1412:1436   */\n      tag_140\n        /* \"#utility.yul\":1430:1435   */\n      dup2\n        /* \"#utility.yul\":1412:1436   */\n      tag_90\n      jump\t// in\n    tag_140:\n        /* \"#utility.yul\":1407:1410   */\n      dup3\n        /* \"#utility.yul\":1400:1437   */\n      mstore\n        /* \"#utility.yul\":1325:1443   */\n      pop\n      pop\n      jump\t// out\n        /* \"#utility.yul\":1449:1671   */\n    tag_19:\n        /* \"#utility.yul\":1542:1546   */\n      0x00\n        /* \"#utility.yul\":1580:1582   */\n      0x20\n        /* \"#utility.yul\":1569:1578   */\n      dup3\n        /* \"#utility.yul\":1565:1583   */\n      add\n        /* \"#utility.yul\":1557:1583   */\n      swap1\n      pop\n        /* \"#utility.yul\":1593:1664   */\n      tag_142\n        /* \"#utility.yul\":1661:1662   */\n      0x00\n        /* \"#utility.yul\":1650:1659   */\n      dup4\n        /* \"#utility.yul\":1646:1663   */\n      add\n        /* \"#utility.yul\":1637:1643   */\n      dup5\n        /* \"#utility.yul\":1593:1664   */\n      tag_91\n      jump\t// in\n    tag_142:\n        /* \"#utility.yul\":1449:1671   */\n      swap3\n      swap2\n      pop\n      pop\n      jump\t// out\n        /* \"#utility.yul\":1677:1803   */\n    tag_92:\n        /* \"#utility.yul\":1714:1721   */\n      0x00\n        /* \"#utility.yul\":1754:1796   */\n      0xffffffffffffffffffffffffffffffffffffffff\n        /* \"#utility.yul\":1747:1752   */\n      dup3\n        /* \"#utility.yul\":1743:1797   */\n      and\n        /* \"#utility.yul\":1732:1797   */\n      swap1\n      pop\n        /* \"#utility.yul\":1677:1803   */\n      swap2\n      swap1\n      pop\n      jump\t// out\n        /* \"#utility.yul\":1809:1905   */\n    tag_93:\n        /* \"#utility.yul\":1846:1853   */\n      0x00\n        /* \"#utility.yul\":1875:1899   */\n      tag_145\n        /* \"#utility.yul\":1893:1898   */\n      dup3\n        /* \"#utility.yul\":1875:1899   */\n      tag_92\n      jump\t// in\n    tag_145:\n        /* \"#utility.yul\":1864:1899   */\n      swap1\n      pop\n        /* \"#utility.yul\":1809:1905   */\n      swap2\n      swap1\n      pop\n      jump\t// out\n        /* \"#utility.yul\":1911:2029   */\n    tag_94:\n        /* \"#utility.yul\":1998:2022   */\n      tag_147\n        /* \"#utility.yul\":2016:2021   */\n      dup2\n        /* \"#utility.yul\":1998:2022   */\n      tag_93\n      jump\t// in\n    tag_147:\n        /* \"#utility.yul\":1993:1996   */\n      dup3\n        /* \"#utility.yul\":1986:2023   */\n      mstore\n        /* \"#utility.yul\":1911:2029   */\n      pop\n      pop\n      jump\t// out\n        /* \"#utility.yul\":2035:2257   */\n    tag_29:\n        /* \"#utility.yul\":2128:2132   */\n      0x00\n        /* \"#utility.yul\":2166:2168   */\n      0x20\n        /* \"#utility.yul\":2155:2164   */\n      dup3\n        /* \"#utility.yul\":2151:2169   */\n      add\n        /* \"#utility.yul\":2143:2169   */\n      swap1\n      pop\n        /* \"#utility.yul\":2179:2250   */\n      tag_149\n        /* \"#utility.yul\":2247:2248   */\n      0x00\n        /* \"#utility.yul\":2236:2245   */\n      dup4\n        /* \"#utility.yul\":2232:2249   */\n      add\n        /* \"#utility.yul\":2223:2229   */\n      dup5\n        /* \"#utility.yul\":2179:2250   */\n      tag_94\n      jump\t// in\n    tag_149:\n        /* \"#utility.yul\":2035:2257   */\n      swap3\n      swap2\n      pop\n      pop\n      jump\t// out\n        /* \"#utility.yul\":2344:2461   */\n    tag_96:\n        /* \"#utility.yul\":2453:2454   */\n      0x00\n        /* \"#utility.yul\":2450:2451   */\n      0x00\n        /* \"#utility.yul\":2443:2455   */\n      revert\n        /* \"#utility.yul\":2467:2584   */\n    tag_97:\n        /* \"#utility.yul\":2576:2577   */\n      0x00\n        /* \"#utility.yul\":2573:2574   */\n      0x00\n        /* \"#utility.yul\":2566:2578   */\n      revert\n        /* \"#utility.yul\":2590:2707   */\n    tag_98:\n        /* \"#utility.yul\":2699:2700   */\n      0x00\n        /* \"#utility.yul\":2696:2697   */\n      0x00\n        /* \"#utility.yul\":2689:2701   */\n      revert\n        /* \"#utility.yul\":2713:2830   */\n    tag_99:\n        /* \"#utility.yul\":2822:2823   */\n      0x00\n        /* \"#utility.yul\":2819:2820   */\n      0x00\n        /* \"#utility.yul\":2812:2824   */\n      revert\n        /* \"#utility.yul\":2836:2953   */\n    tag_100:\n        /* \"#utility.yul\":2945:2946   */\n      0x00\n        /* \"#utility.yul\":2942:2943   */\n      0x00\n        /* \"#utility.yul\":2935:2947   */\n      revert\n        /* \"#utility.yul\":2973:3526   */\n    tag_101:\n        /* \"#utility.yul\":3031:3039   */\n      0x00\n        /* \"#utility.yul\":3041:3047   */\n      0x00\n        /* \"#utility.yul\":3091:3094   */\n      dup4\n        /* \"#utility.yul\":3084:3088   */\n      0x1f\n        /* \"#utility.yul\":3076:3082   */\n      dup5\n        /* \"#utility.yul\":3072:3089   */\n      add\n        /* \"#utility.yul\":3068:3095   */\n      slt\n        /* \"#utility.yul\":3058:3180   */\n      tag_157\n      jumpi\n        /* \"#utility.yul\":3099:3178   */\n      tag_158\n      tag_98\n      jump\t// in\n    tag_158:\n        /* \"#utility.yul\":3058:3180   */\n    tag_157:\n        /* \"#utility.yul\":3212:3218   */\n      dup3\n        /* \"#utility.yul\":3199:3219   */\n      calldataload\n        /* \"#utility.yul\":3189:3219   */\n      swap1\n      pop\n        /* \"#utility.yul\":3242:3260   */\n      0xffffffffffffffff\n        /* \"#utility.yul\":3234:3240   */\n      dup2\n        /* \"#utility.yul\":3231:3261   */\n      gt\n        /* \"#utility.yul\":3228:3345   */\n      iszero\n      tag_159\n      jumpi\n        /* \"#utility.yul\":3264:3343   */\n      tag_160\n      tag_99\n      jump\t// in\n    tag_160:\n        /* \"#utility.yul\":3228:3345   */\n    tag_159:\n        /* \"#utility.yul\":3378:3382   */\n      0x20\n        /* \"#utility.yul\":3370:3376   */\n      dup4\n        /* \"#utility.yul\":3366:3383   */\n      add\n        /* \"#utility.yul\":3354:3383   */\n      swap2\n      pop\n        /* \"#utility.yul\":3432:3435   */\n      dup4\n        /* \"#utility.yul\":3424:3428   */\n      0x01\n        /* \"#utility.yul\":3416:3422   */\n      dup3\n        /* \"#utility.yul\":3412:3429   */\n      mul\n        /* \"#utility.yul\":3402:3410   */\n      dup4\n        /* \"#utility.yul\":3398:3430   */\n      add\n        /* \"#utility.yul\":3395:3436   */\n      gt\n        /* \"#utility.yul\":3392:3520   */\n      iszero\n      tag_161\n      jumpi\n        /* \"#utility.yul\":3439:3518   */\n      tag_162\n      tag_100\n      jump\t// in\n    tag_162:\n        /* \"#utility.yul\":3392:3520   */\n    tag_161:\n        /* \"#utility.yul\":2973:3526   */\n      swap3\n      pop\n      swap3\n      swap1\n      pop\n      jump\t// out\n        /* \"#utility.yul\":3532:4061   */\n    tag_32:\n        /* \"#utility.yul\":3603:3609   */\n      0x00\n        /* \"#utility.yul\":3611:3617   */\n      0x00\n        /* \"#utility.yul\":3660:3662   */\n      0x20\n        /* \"#utility.yul\":3648:3657   */\n      dup4\n        /* \"#utility.yul\":3639:3646   */\n      dup6\n        /* \"#utility.yul\":3635:3658   */\n      sub\n        /* \"#utility.yul\":3631:3663   */\n      slt\n        /* \"#utility.yul\":3628:3747   */\n      iszero\n      tag_164\n      jumpi\n        /* \"#utility.yul\":3666:3745   */\n      tag_165\n      tag_96\n      jump\t// in\n    tag_165:\n        /* \"#utility.yul\":3628:3747   */\n    tag_164:\n        /* \"#utility.yul\":3814:3815   */\n      0x00\n        /* \"#utility.yul\":3803:3812   */\n      dup4\n        /* \"#utility.yul\":3799:3816   */\n      add\n        /* \"#utility.yul\":3786:3817   */\n      calldataload\n        /* \"#utility.yul\":3844:3862   */\n      0xffffffffffffffff\n        /* \"#utility.yul\":3836:3842   */\n      dup2\n        /* \"#utility.yul\":3833:3863   */\n      gt\n        /* \"#utility.yul\":3830:3947   */\n      iszero\n      tag_166\n      jumpi\n        /* \"#utility.yul\":3866:3945   */\n      tag_167\n      tag_97\n      jump\t// in\n    tag_167:\n        /* \"#utility.yul\":3830:3947   */\n    tag_166:\n        /* \"#utility.yul\":3979:4044   */\n      tag_168\n        /* \"#utility.yul\":4036:4043   */\n      dup6\n        /* \"#utility.yul\":4027:4033   */\n      dup3\n        /* \"#utility.yul\":4016:4025   */\n      dup7\n        /* \"#utility.yul\":4012:4034   */\n      add\n        /* \"#utility.yul\":3979:4044   */\n      tag_101\n      jump\t// in\n    tag_168:\n        /* \"#utility.yul\":3961:4044   */\n      swap3\n      pop\n      swap3\n      pop\n        /* \"#utility.yul\":3757:4054   */\n      pop\n        /* \"#utility.yul\":3532:4061   */\n      swap3\n      pop\n      swap3\n      swap1\n      pop\n      jump\t// out\n        /* \"#utility.yul\":4067:4189   */\n    tag_102:\n        /* \"#utility.yul\":4140:4164   */\n      tag_170\n        /* \"#utility.yul\":4158:4163   */\n      dup2\n        /* \"#utility.yul\":4140:4164   */\n      tag_93\n      jump\t// in\n    tag_170:\n        /* \"#utility.yul\":4133:4138   */\n      dup2\n        /* \"#utility.yul\":4130:4165   */\n      eq\n        /* \"#utility.yul\":4120:4183   */\n      tag_171\n      jumpi\n        /* \"#utility.yul\":4179:4180   */\n      0x00\n        /* \"#utility.yul\":4176:4177   */\n      0x00\n        /* \"#utility.yul\":4169:4181   */\n      revert\n        /* \"#utility.yul\":4120:4183   */\n    tag_171:\n        /* \"#utility.yul\":4067:4189   */\n      pop\n      jump\t// out\n        /* \"#utility.yul\":4195:4334   */\n    tag_103:\n        /* \"#utility.yul\":4241:4246   */\n      0x00\n        /* \"#utility.yul\":4279:4285   */\n      dup2\n        /* \"#utility.yul\":4266:4286   */\n      calldataload\n        /* \"#utility.yul\":4257:4286   */\n      swap1\n      pop\n        /* \"#utility.yul\":4295:4328   */\n      tag_173\n        /* \"#utility.yul\":4322:4327   */\n      dup2\n        /* \"#utility.yul\":4295:4328   */\n      tag_102\n      jump\t// in\n    tag_173:\n        /* \"#utility.yul\":4195:4334   */\n      swap3\n      swap2\n      pop\n      pop\n      jump\t// out\n        /* \"#utility.yul\":4340:4669   */\n    tag_39:\n        /* \"#utility.yul\":4399:4405   */\n      0x00\n        /* \"#utility.yul\":4448:4450   */\n      0x20\n        /* \"#utility.yul\":4436:4445   */\n      dup3\n        /* \"#utility.yul\":4427:4434   */\n      dup5\n        /* \"#utility.yul\":4423:4446   */\n      sub\n        /* \"#utility.yul\":4419:4451   */\n      slt\n        /* \"#utility.yul\":4416:4535   */\n      iszero\n      tag_175\n      jumpi\n        /* \"#utility.yul\":4454:4533   */\n      tag_176\n      tag_96\n      jump\t// in\n    tag_176:\n        /* \"#utility.yul\":4416:4535   */\n    tag_175:\n        /* \"#utility.yul\":4574:4575   */\n      0x00\n        /* \"#utility.yul\":4599:4652   */\n      tag_177\n        /* \"#utility.yul\":4644:4651   */\n      dup5\n        /* \"#utility.yul\":4635:4641   */\n      dup3\n        /* \"#utility.yul\":4624:4633   */\n      dup6\n        /* \"#utility.yul\":4620:4642   */\n      add\n        /* \"#utility.yul\":4599:4652   */\n      tag_103\n      jump\t// in\n    tag_177:\n        /* \"#utility.yul\":4589:4652   */\n      swap2\n      pop\n        /* \"#utility.yul\":4545:4662   */\n      pop\n        /* \"#utility.yul\":4340:4669   */\n      swap3\n      swap2\n      pop\n      pop\n      jump\t// out\n        /* \"#utility.yul\":4675:4838   */\n    tag_104:\n        /* \"#utility.yul\":4815:4830   */\n      0x4e6f7420746865206f776e657200000000000000000000000000000000000000\n        /* \"#utility.yul\":4811:4812   */\n      0x00\n        /* \"#utility.yul\":4803:4809   */\n      dup3\n        /* \"#utility.yul\":4799:4813   */\n      add\n        /* \"#utility.yul\":4792:4831   */\n      mstore\n        /* \"#utility.yul\":4675:4838   */\n      pop\n      jump\t// out\n        /* \"#utility.yul\":4844:5210   */\n    tag_105:\n        /* \"#utility.yul\":4986:4989   */\n      0x00\n        /* \"#utility.yul\":5007:5074   */\n      tag_180\n        /* \"#utility.yul\":5071:5073   */\n      0x0d\n        /* \"#utility.yul\":5066:5069   */\n      dup4\n        /* \"#utility.yul\":5007:5074   */\n      tag_86\n      jump\t// in\n    tag_180:\n        /* \"#utility.yul\":5000:5074   */\n      swap2\n      pop\n        /* \"#utility.yul\":5083:5176   */\n      tag_181\n        /* \"#utility.yul\":5172:5175   */\n      dup3\n        /* \"#utility.yul\":5083:5176   */\n      tag_104\n      jump\t// in\n    tag_181:\n        /* \"#utility.yul\":5201:5203   */\n      0x20\n        /* \"#utility.yul\":5196:5199   */\n      dup3\n        /* \"#utility.yul\":5192:5204   */\n      add\n        /* \"#utility.yul\":5185:5204   */\n      swap1\n      pop\n        /* \"#utility.yul\":4844:5210   */\n      swap2\n      swap1\n      pop\n      jump\t// out\n        /* \"#utility.yul\":5216:5635   */\n    tag_45:\n        /* \"#utility.yul\":5382:5386   */\n      0x00\n        /* \"#utility.yul\":5420:5422   */\n      0x20\n        /* \"#utility.yul\":5409:5418   */\n      dup3\n        /* \"#utility.yul\":5405:5423   */\n      add\n        /* \"#utility.yul\":5397:5423   */\n      swap1\n      pop\n        /* \"#utility.yul\":5469:5478   */\n      dup2\n        /* \"#utility.yul\":5463:5467   */\n      dup2\n        /* \"#utility.yul\":5459:5479   */\n      sub\n        /* \"#utility.yul\":5455:5456   */\n      0x00\n        /* \"#utility.yul\":5444:5453   */\n      dup4\n        /* \"#utility.yul\":5440:5457   */\n      add\n        /* \"#utility.yul\":5433:5480   */\n      mstore\n        /* \"#utility.yul\":5497:5628   */\n      tag_183\n        /* \"#utility.yul\":5623:5627   */\n      dup2\n        /* \"#utility.yul\":5497:5628   */\n      tag_105\n      jump\t// in\n    tag_183:\n        /* \"#utility.yul\":5489:5628   */\n      swap1\n      pop\n        /* \"#utility.yul\":5216:5635   */\n      swap2\n      swap1\n      pop\n      jump\t// out\n        /* \"#utility.yul\":5641:5821   */\n    tag_106:\n        /* \"#utility.yul\":5689:5766   */\n      0x4e487b7100000000000000000000000000000000000000000000000000000000\n        /* \"#utility.yul\":5686:5687   */\n      0x00\n        /* \"#utility.yul\":5679:5767   */\n      mstore\n        /* \"#utility.yul\":5786:5790   */\n      0x22\n        /* \"#utility.yul\":5783:5784   */\n      0x04\n        /* \"#utility.yul\":5776:5791   */\n      mstore\n        /* \"#utility.yul\":5810:5814   */\n      0x24\n        /* \"#utility.yul\":5807:5808   */\n      0x00\n        /* \"#utility.yul\":5800:5815   */\n      revert\n        /* \"#utility.yul\":5827:6147   */\n    tag_52:\n        /* \"#utility.yul\":5871:5877   */\n      0x00\n        /* \"#utility.yul\":5908:5909   */\n      0x02\n        /* \"#utility.yul\":5902:5906   */\n      dup3\n        /* \"#utility.yul\":5898:5910   */\n      div\n        /* \"#utility.yul\":5888:5910   */\n      swap1\n      pop\n        /* \"#utility.yul\":5955:5956   */\n      0x01\n        /* \"#utility.yul\":5949:5953   */\n      dup3\n        /* \"#utility.yul\":5945:5957   */\n      and\n        /* \"#utility.yul\":5976:5994   */\n      dup1\n        /* \"#utility.yul\":5966:6047   */\n      tag_186\n      jumpi\n        /* \"#utility.yul\":6032:6036   */\n      0x7f\n        /* \"#utility.yul\":6024:6030   */\n      dup3\n        /* \"#utility.yul\":6020:6037   */\n      and\n        /* \"#utility.yul\":6010:6037   */\n      swap2\n      pop\n        /* \"#utility.yul\":5966:6047   */\n    tag_186:\n        /* \"#utility.yul\":6094:6096   */\n      0x20\n        /* \"#utility.yul\":6086:6092   */\n      dup3\n        /* \"#utility.yul\":6083:6097   */\n      lt\n        /* \"#utility.yul\":6063:6081   */\n      dup2\n        /* \"#utility.yul\":6060:6098   */\n      sub\n        /* \"#utility.yul\":6057:6141   */\n      tag_187\n      jumpi\n        /* \"#utility.yul\":6113:6131   */\n      tag_188\n      tag_106\n      jump\t// in\n    tag_188:\n        /* \"#utility.yul\":6057:6141   */\n    tag_187:\n        /* \"#utility.yul\":5878:6147   */\n      pop\n        /* \"#utility.yul\":5827:6147   */\n      swap2\n      swap1\n      pop\n      jump\t// out\n        /* \"#utility.yul\":6153:6250   */\n    tag_107:\n        /* \"#utility.yul\":6212:6218   */\n      0x00\n        /* \"#utility.yul\":6240:6243   */\n      dup3\n        /* \"#utility.yul\":6230:6243   */\n      swap1\n      pop\n        /* \"#utility.yul\":6153:6250   */\n      swap3\n      swap2\n      pop\n      pop\n      jump\t// out\n        /* \"#utility.yul\":6256:6436   */\n    tag_108:\n        /* \"#utility.yul\":6304:6381   */\n      0x4e487b7100000000000000000000000000000000000000000000000000000000\n        /* \"#utility.yul\":6301:6302   */\n      0x00\n        /* \"#utility.yul\":6294:6382   */\n      mstore\n        /* \"#utility.yul\":6401:6405   */\n      0x41\n        /* \"#utility.yul\":6398:6399   */\n      0x04\n        /* \"#utility.yul\":6391:6406   */\n      mstore\n        /* \"#utility.yul\":6425:6429   */\n      0x24\n        /* \"#utility.yul\":6422:6423   */\n      0x00\n        /* \"#utility.yul\":6415:6430   */\n      revert\n        /* \"#utility.yul\":6442:6583   */\n    tag_109:\n        /* \"#utility.yul\":6491:6495   */\n      0x00\n        /* \"#utility.yul\":6514:6517   */\n      dup2\n        /* \"#utility.yul\":6506:6517   */\n      swap1\n      pop\n        /* \"#utility.yul\":6537:6540   */\n      dup2\n        /* \"#utility.yul\":6534:6535   */\n      0x00\n        /* \"#utility.yul\":6527:6541   */\n      mstore\n        /* \"#utility.yul\":6571:6575   */\n      0x20\n        /* \"#utility.yul\":6568:6569   */\n      0x00\n        /* \"#utility.yul\":6558:6576   */\n      keccak256\n        /* \"#utility.yul\":6550:6576   */\n      swap1\n      pop\n        /* \"#utility.yul\":6442:6583   */\n      swap2\n      swap1\n      pop\n      jump\t// out\n        /* \"#utility.yul\":6589:6682   */\n    tag_110:\n        /* \"#utility.yul\":6626:6632   */\n      0x00\n        /* \"#utility.yul\":6673:6675   */\n      0x20\n        /* \"#utility.yul\":6668:6670   */\n      0x1f\n        /* \"#utility.yul\":6661:6666   */\n      dup4\n        /* \"#utility.yul\":6657:6671   */\n      add\n        /* \"#utility.yul\":6653:6676   */\n      div\n        /* \"#utility.yul\":6643:6676   */\n      swap1\n      pop\n        /* \"#utility.yul\":6589:6682   */\n      swap2\n      swap1\n      pop\n      jump\t// out\n        /* \"#utility.yul\":6688:6795   */\n    tag_111:\n        /* \"#utility.yul\":6732:6740   */\n      0x00\n        /* \"#utility.yul\":6782:6787   */\n      dup3\n        /* \"#utility.yul\":6776:6780   */\n      dup3\n        /* \"#utility.yul\":6772:6788   */\n      shl\n        /* \"#utility.yul\":6751:6788   */\n      swap1\n      pop\n        /* \"#utility.yul\":6688:6795   */\n      swap3\n      swap2\n      pop\n      pop\n      jump\t// out\n        /* \"#utility.yul\":6801:7194   */\n    tag_112:\n        /* \"#utility.yul\":6870:6876   */\n      0x00\n        /* \"#utility.yul\":6920:6921   */\n      0x08\n        /* \"#utility.yul\":6908:6918   */\n      dup4\n        /* \"#utility.yul\":6904:6922   */\n      mul\n        /* \"#utility.yul\":6943:7040   */\n      tag_195\n        /* \"#utility.yul\":6973:7039   */\n      0xffffffffffffffffffffffffffffffffffffffffffffffffffffffffffffffff\n        /* \"#utility.yul\":6962:6971   */\n      dup3\n        /* \"#utility.yul\":6943:7040   */\n      tag_111\n      jump\t// in\n    tag_195:\n        /* \"#utility.yul\":7061:7100   */\n      tag_196\n        /* \"#utility.yul\":7091:7099   */\n      dup7\n        /* \"#utility.yul\":7080:7089   */\n      dup4\n        /* \"#utility.yul\":7061:7100   */\n      tag_111\n      jump\t// in\n    tag_196:\n        /* \"#utility.yul\":7049:7100   */\n      swap6\n      pop\n        /* \"#utility.yul\":7133:7137   */\n      dup1\n        /* \"#utility.yul\":7129:7138   */\n      not\n        /* \"#utility.yul\":7122:7127   */\n      dup5\n        /* \"#utility.yul\":7118:7139   */\n      and\n        /* \"#utility.yul\":7109:7139   */\n      swap4\n      pop\n        /* \"#utility.yul\":7182:7186   */\n      dup1\n        /* \"#utility.yul\":7172:7180   */\n      dup7\n        /* \"#utility.yul\":7168:7187   */\n      and\n        /* \"#utility.yul\":7161:7166   */\n      dup5\n        /* \"#utility.yul\":7158:7188   */\n      or\n        /* \"#utility.yul\":7148:7188   */\n      swap3\n      pop\n        /* \"#utility.yul\":6877:7194   */\n      pop\n      pop\n        /* \"#utility.yul\":6801:7194   */\n      swap4\n      swap3\n      pop\n      pop\n      pop\n      jump\t// out\n        /* \"#utility.yul\":7200:7260   */\n    tag_113:\n        /* \"#utility.yul\":7228:7231   */\n      0x00\n        /* \"#utility.yul\":7249:7254   */\n      dup2\n        /* \"#utility.yul\":7242:7254   */\n      swap1\n      pop\n        /* \"#utility.yul\":7200:7260   */\n      swap2\n      swap1\n      pop\n      jump\t// out\n        /* \"#utility.yul\":7266:7408   */\n    tag_114:\n        /* \"#utility.yul\":7316:7325   */\n      0x00\n        /* \"#utility.yul\":7349:7402   */\n      tag_199\n        /* \"#utility.yul\":7367:7401   */\n      tag_200\n        /* \"#utility.yul\":7376:7400   */\n      tag_201\n        /* \"#utility.yul\":7394:7399   */\n      dup5\n        /* \"#utility.yul\":7376:7400   */\n      tag_90\n      jump\t// in\n    tag_201:\n        /* \"#utility.yul\":7367:7401   */\n      tag_113\n      jump\t// in\n    tag_200:\n        /* \"#utility.yul\":7349:7402   */\n      tag_90\n      jump\t// in\n    tag_199:\n        /* \"#utility.yul\":7336:7402   */\n      swap1\n      pop\n        /* \"#utility.yul\":7266:7408   */\n      swap2\n      swap1\n      pop\n      jump\t// out\n        /* \"#utility.yul\":7414:7489   */\n    tag_115:\n        /* \"#utility.yul\":7457:7460   */\n      0x00\n        /* \"#utility.yul\":7478:7483   */\n      dup2\n        /* \"#utility.yul\":7471:7483   */\n      swap1\n      pop\n        /* \"#utility.yul\":7414:7489   */\n      swap2\n      swap1\n      pop\n      jump\t// out\n        /* \"#utility.yul\":7495:7764   */\n    tag_116:\n        /* \"#utility.yul\":7605:7644   */\n      tag_204\n        /* \"#utility.yul\":7636:7643   */\n      dup4\n        /* \"#utility.yul\":7605:7644   */\n      tag_114\n      jump\t// in\n    tag_204:\n        /* \"#utility.yul\":7666:7757   */\n      tag_205\n        /* \"#utility.yul\":7715:7756   */\n      tag_206\n        /* \"#utility.yul\":7739:7755   */\n      dup3\n        /* \"#utility.yul\":7715:7756   */\n      tag_115\n      jump\t// in\n    tag_206:\n        /* \"#utility.yul\":7707:7713   */\n      dup5\n        /* \"#utility.yul\":7700:7704   */\n      dup5\n        /* \"#utility.yul\":7694:7705   */\n      sload\n        /* \"#utility.yul\":7666:7757   */\n      tag_112\n      jump\t// in\n    tag_205:\n        /* \"#utility.yul\":7660:7664   */\n      dup3\n        /* \"#utility.yul\":7653:7758   */\n      sstore\n        /* \"#utility.yul\":7571:7764   */\n      pop\n        /* \"#utility.yul\":7495:7764   */\n      pop\n      pop\n      pop\n      jump\t// out\n        /* \"#utility.yul\":7770:7843   */\n    tag_117:\n        /* \"#utility.yul\":7815:7818   */\n      0x00\n        /* \"#utility.yul\":7836:7837   */\n      0x00\n        /* \"#utility.yul\":7829:7837   */\n      swap1\n      pop\n        /* \"#utility.yul\":7770:7843   */\n      swap1\n      jump\t// out\n        /* \"#utility.yul\":7849:8038   */\n    tag_118:\n        /* \"#utility.yul\":7926:7958   */\n      tag_209\n      tag_117\n      jump\t// in\n    tag_209:\n        /* \"#utility.yul\":7967:8032   */\n      tag_210\n        /* \"#utility.yul\":8025:8031   */\n      dup2\n        /* \"#utility.yul\":8017:8023   */\n      dup5\n        /* \"#utility.yul\":8011:8015   */\n      dup5\n        /* \"#utility.yul\":7967:8032   */\n      tag_116\n      jump\t// in\n    tag_210:\n        /* \"#utility.yul\":7902:8038   */\n      pop\n        /* \"#utility.yul\":7849:8038   */\n      pop\n      pop\n      jump\t// out\n        /* \"#utility.yul\":8044:8230   */\n    tag_119:\n        /* \"#utility.yul\":8104:8224   */\n    tag_212:\n        /* \"#utility.yul\":8121:8124   */\n      dup2\n        /* \"#utility.yul\":8114:8119   */\n      dup2\n        /* \"#utility.yul\":8111:8125   */\n      lt\n        /* \"#utility.yul\":8104:8224   */\n      iszero\n      tag_214\n      jumpi\n        /* \"#utility.yul\":8175:8214   */\n      tag_215\n        /* \"#utility.yul\":8212:8213   */\n      0x00\n        /* \"#utility.yul\":8205:8210   */\n      dup3\n        /* \"#utility.yul\":8175:8214   */\n      tag_118\n      jump\t// in\n    tag_215:\n        /* \"#utility.yul\":8148:8149   */\n      0x01\n        /* \"#utility.yul\":8141:8146   */\n      dup2\n        /* \"#utility.yul\":8137:8150   */\n      add\n        /* \"#utility.yul\":8128:8150   */\n      swap1\n      pop\n        /* \"#utility.yul\":8104:8224   */\n      jump(tag_212)\n    tag_214:\n        /* \"#utility.yul\":8044:8230   */\n      pop\n      pop\n      jump\t// out\n        /* \"#utility.yul\":8236:8779   */\n    tag_120:\n        /* \"#utility.yul\":8337:8339   */\n      0x1f\n        /* \"#utility.yul\":8332:8335   */\n      dup3\n        /* \"#utility.yul\":8329:8340   */\n      gt\n        /* \"#utility.yul\":8326:8772   */\n      iszero\n      tag_217\n      jumpi\n        /* \"#utility.yul\":8371:8409   */\n      tag_218\n        /* \"#utility.yul\":8403:8408   */\n      dup2\n        /* \"#utility.yul\":8371:8409   */\n      tag_109\n      jump\t// in\n    tag_218:\n        /* \"#utility.yul\":8455:8484   */\n      tag_219\n        /* \"#utility.yul\":8473:8483   */\n      dup5\n        /* \"#utility.yul\":8455:8484   */\n      tag_110\n      jump\t// in\n    tag_219:\n        /* \"#utility.yul\":8445:8453   */\n      dup2\n        /* \"#utility.yul\":8441:8485   */\n      add\n        /* \"#utility.yul\":8638:8640   */\n      0x20\n        /* \"#utility.yul\":8626:8636   */\n      dup6\n        /* \"#utility.yul\":8623:8641   */\n      lt\n        /* \"#utility.yul\":8620:8669   */\n      iszero\n      tag_220\n      jumpi\n        /* \"#utility.yul\":8659:8667   */\n      dup2\n        /* \"#utility.yul\":8644:8667   */\n      swap1\n      pop\n        /* \"#utility.yul\":8620:8669   */\n    tag_220:\n        /* \"#utility.yul\":8682:8762   */\n      tag_221\n        /* \"#utility.yul\":8738:8760   */\n      tag_222\n        /* \"#utility.yul\":8756:8759   */\n      dup6\n        /* \"#utility.yul\":8738:8760   */\n      tag_110\n      jump\t// in\n    tag_222:\n        /* \"#utility.yul\":8728:8736   */\n      dup4\n        /* \"#utility.yul\":8724:8761   */\n      add\n        /* \"#utility.yul\":8711:8722   */\n      dup3\n        /* \"#utility.yul\":8682:8762   */\n      tag_119\n      jump\t// in\n    tag_221:\n        /* \"#utility.yul\":8341:8772   */\n      pop\n      pop\n        /* \"#utility.yul\":8326:8772   */\n    tag_217:\n        /* \"#utility.yul\":8236:8779   */\n      pop\n      pop\n      pop\n      jump\t// out\n        /* \"#utility.yul\":8785:8902   */\n    tag_121:\n        /* \"#utility.yul\":8839:8847   */\n      0x00\n        /* \"#utility.yul\":8889:8894   */\n      dup3\n        /* \"#utility.yul\":8883:8887   */\n      dup3\n        /* \"#utility.yul\":8879:8895   */\n      shr\n        /* \"#utility.yul\":8858:8895   */\n      swap1\n      pop\n        /* \"#utility.yul\":8785:8902   */\n      swap3\n      swap2\n      pop\n      pop\n      jump\t// out\n        /* \"#utility.yul\":8908:9077   */\n    tag_122:\n        /* \"#utility.yul\":8952:8958   */\n      0x00\n        /* \"#utility.yul\":8985:9036   */\n      tag_225\n        /* \"#utility.yul\":9033:9034   */\n      0x00\n        /* \"#utility.yul\":9029:9035   */\n      not\n        /* \"#utility.yul\":9021:9026   */\n      dup5\n        /* \"#utility.yul\":9018:9019   */\n      0x08\n        /* \"#utility.yul\":9014:9027   */\n      mul\n        /* \"#utility.yul\":8985:9036   */\n      tag_121\n      jump\t// in\n    tag_225:\n        /* \"#utility.yul\":8981:9037   */\n      not\n        /* \"#utility.yul\":9066:9070   */\n      dup1\n        /* \"#utility.yul\":9060:9064   */\n      dup4\n        /* \"#utility.yul\":9056:9071   */\n      and\n        /* \"#utility.yul\":9046:9071   */\n      swap2\n      pop\n        /* \"#utility.yul\":8959:9077   */\n      pop\n        /* \"#utility.yul\":8908:9077   */\n      swap3\n      swap2\n      pop\n      pop\n      jump\t// out\n        /* \"#utility.yul\":9082:9377   */\n    tag_123:\n        /* \"#utility.yul\":9158:9162   */\n      0x00\n        /* \"#utility.yul\":9304:9333   */\n      tag_227\n        /* \"#utility.yul\":9329:9332   */\n      dup4\n        /* \"#utility.yul\":9323:9327   */\n      dup4\n        /* \"#utility.yul\":9304:9333   */\n      tag_122\n      jump\t// in\n    tag_227:\n        /* \"#utility.yul\":9296:9333   */\n      swap2\n      pop\n        /* \"#utility.yul\":9366:9369   */\n      dup3\n        /* \"#utility.yul\":9363:9364   */\n      0x02\n        /* \"#utility.yul\":9359:9370   */\n      mul\n        /* \"#utility.yul\":9353:9357   */\n      dup3\n        /* \"#utility.yul\":9350:9371   */\n      or\n        /* \"#utility.yul\":9342:9371   */\n      swap1\n      pop\n        /* \"#utility.yul\":9082:9377   */\n      swap3\n      swap2\n      pop\n      pop\n      jump\t// out\n        /* \"#utility.yul\":9382:10785   */\n    tag_72:\n        /* \"#utility.yul\":9506:9550   */\n      tag_229\n        /* \"#utility.yul\":9546:9549   */\n      dup4\n        /* \"#utility.yul\":9541:9544   */\n      dup4\n        /* \"#utility.yul\":9506:9550   */\n      tag_107\n      jump\t// in\n    tag_229:\n        /* \"#utility.yul\":9615:9633   */\n      0xffffffffffffffff\n        /* \"#utility.yul\":9607:9613   */\n      dup2\n        /* \"#utility.yul\":9604:9634   */\n      gt\n        /* \"#utility.yul\":9601:9657   */\n      iszero\n      tag_230\n      jumpi\n        /* \"#utility.yul\":9637:9655   */\n      tag_231\n      tag_108\n      jump\t// in\n    tag_231:\n        /* \"#utility.yul\":9601:9657   */\n    tag_230:\n        /* \"#utility.yul\":9681:9719   */\n      tag_232\n        /* \"#utility.yul\":9713:9717   */\n      dup3\n        /* \"#utility.yul\":9707:9718   */\n      sload\n        /* \"#utility.yul\":9681:9719   */\n      tag_52\n      jump\t// in\n    tag_232:\n        /* \"#utility.yul\":9766:9833   */\n      tag_233\n        /* \"#utility.yul\":9826:9832   */\n      dup3\n        /* \"#utility.yul\":9818:9824   */\n      dup3\n        /* \"#utility.yul\":9812:9816   */\n      dup6\n        /* \"#utility.yul\":9766:9833   */\n      tag_120\n      jump\t// in\n    tag_233:\n        /* \"#utility.yul\":9860:9861   */\n      0x00\n        /* \"#utility.yul\":9889:9891   */\n      0x1f\n        /* \"#utility.yul\":9881:9887   */\n      dup4\n        /* \"#utility.yul\":9878:9892   */\n      gt\n        /* \"#utility.yul\":9906:9907   */\n      0x01\n        /* \"#utility.yul\":9901:10533   */\n      dup2\n      eq\n      tag_235\n      jumpi\n        /* \"#utility.yul\":10577:10578   */\n      0x00\n        /* \"#utility.yul\":10594:10600   */\n      dup5\n        /* \"#utility.yul\":10591:10675   */\n      iszero\n      tag_236\n      jumpi\n        /* \"#utility.yul\":10650:10659   */\n      dup3\n        /* \"#utility.yul\":10645:10648   */\n      dup8\n        /* \"#utility.yul\":10641:10660   */\n      add\n        /* \"#utility.yul\":10628:10661   */\n      calldataload\n        /* \"#utility.yul\":10619:10661   */\n      swap1\n      pop\n        /* \"#utility.yul\":10591:10675   */\n    tag_236:\n        /* \"#utility.yul\":10701:10768   */\n      tag_237\n        /* \"#utility.yul\":10761:10767   */\n      dup6\n        /* \"#utility.yul\":10754:10759   */\n      dup3\n        /* \"#utility.yul\":10701:10768   */\n      tag_123\n      jump\t// in\n    tag_237:\n        /* \"#utility.yul\":10695:10699   */\n      dup7\n        /* \"#utility.yul\":10688:10769   */\n      sstore\n        /* \"#utility.yul\":10550:10779   */\n      pop\n        /* \"#utility.yul\":9871:10779   */\n      jump(tag_234)\n        /* \"#utility.yul\":9901:10533   */\n    tag_235:\n        /* \"#utility.yul\":9953:9957   */\n      0x1f\n        /* \"#utility.yul\":9949:9958   */\n      not\n        /* \"#utility.yul\":9941:9947   */\n      dup5\n        /* \"#utility.yul\":9937:9959   */\n      and\n        /* \"#utility.yul\":9987:10024   */\n      tag_238\n        /* \"#utility.yul\":10019:10023   */\n      dup7\n        /* \"#utility.yul\":9987:10024   */\n      tag_109\n      jump\t// in\n    tag_238:\n        /* \"#utility.yul\":10046:10047   */\n      0x00\n        /* \"#utility.yul\":10060:10275   */\n    tag_239:\n        /* \"#utility.yul\":10074:10081   */\n      dup3\n        /* \"#utility.yul\":10071:10072   */\n      dup2\n        /* \"#utility.yul\":10068:10082   */\n      lt\n        /* \"#utility.yul\":10060:10275   */\n      iszero\n      tag_241\n      jumpi\n        /* \"#utility.yul\":10160:10169   */\n      dup5\n        /* \"#utility.yul\":10155:10158   */\n      dup10\n        /* \"#utility.yul\":10151:10170   */\n      add\n        /* \"#utility.yul\":10138:10171   */\n      calldataload\n        /* \"#utility.yul\":10130:10136   */\n      dup3\n        /* \"#utility.yul\":10123:10172   */\n      sstore\n        /* \"#utility.yul\":10211:10212   */\n      0x01\n        /* \"#utility.yul\":10203:10209   */\n      dup3\n        /* \"#utility.yul\":10199:10213   */\n      add\n        /* \"#utility.yul\":10189:10213   */\n      swap2\n      pop\n        /* \"#utility.yul\":10258:10260   */\n      0x20\n        /* \"#utility.yul\":10247:10256   */\n      dup6\n        /* \"#utility.yul\":10243:10261   */\n      add\n        /* \"#utility.yul\":10230:10261   */\n      swap5\n      pop\n        /* \"#utility.yul\":10097:10101   */\n      0x20\n        /* \"#utility.yul\":10094:10095   */\n      dup2\n        /* \"#utility.yul\":10090:10102   */\n      add\n        /* \"#utility.yul\":10085:10102   */\n      swap1\n      pop\n        /* \"#utility.yul\":10060:10275   */\n      jump(tag_239)\n    tag_241:\n        /* \"#utility.yul\":10303:10309   */\n      dup7\n        /* \"#utility.yul\":10294:10301   */\n      dup4\n        /* \"#utility.yul\":10291:10310   */\n      lt\n        /* \"#utility.yul\":10288:10474   */\n      iszero\n      tag_242\n      jumpi\n        /* \"#utility.yul\":10368:10377   */\n      dup5\n        /* \"#utility.yul\":10363:10366   */\n      dup10\n        /* \"#utility.yul\":10359:10378   */\n      add\n        /* \"#utility.yul\":10346:10379   */\n      calldataload\n        /* \"#utility.yul\":10411:10459   */\n      tag_243\n        /* \"#utility.yul\":10453:10457   */\n      0x1f\n        /* \"#utility.yul\":10445:10451   */\n      dup10\n        /* \"#utility.yul\":10441:10458   */\n      and\n        /* \"#utility.yul\":10430:10439   */\n      dup3\n        /* \"#utility.yul\":10411:10459   */\n      tag_122\n      jump\t// in\n    tag_243:\n        /* \"#utility.yul\":10403:10409   */\n      dup4\n        /* \"#utility.yul\":10396:10460   */\n      sstore\n        /* \"#utility.yul\":10311:10474   */\n      pop\n        /* \"#utility.yul\":10288:10474   */\n    tag_242:\n        /* \"#utility.yul\":10520:10521   */\n      0x01\n        /* \"#utility.yul\":10516:10517   */\n      0x02\n        /* \"#utility.yul\":10508:10514   */\n      dup9\n        /* \"#utility.yul\":10504:10518   */\n      mul\n        /* \"#utility.yul\":10500:10522   */\n      add\n        /* \"#utility.yul\":10494:10498   */\n      dup9\n        /* \"#utility.yul\":10487:10523   */\n      sstore\n        /* \"#utility.yul\":9908:10533   */\n      pop\n      pop\n      pop\n        /* \"#utility.yul\":9871:10779   */\n    tag_234:\n      pop\n        /* \"#utility.yul\":9481:10785   */\n      pop\n      pop\n      pop\n        /* \"#utility.yul\":9382:10785   */\n      pop\n      pop\n      pop\n      jump\t// out\n        /* \"#utility.yul\":10791:10956   */\n    tag_124:\n        /* \"#utility.yul\":10931:10948   */\n      0x496e76616c696420416464726573730000000000000000000000000000000000\n        /* \"#utility.yul\":10927:10928   */\n      0x00\n        /* \"#utility.yul\":10919:10925   */\n      dup3\n        /* \"#utility.yul\":10915:10929   */\n      add\n        /* \"#utility.yul\":10908:10949   */\n      mstore\n        /* \"#utility.yul\":10791:10956   */\n      pop\n      jump\t// out\n        /* \"#utility.yul\":10962:11328   */\n    tag_125:\n        /* \"#utility.yul\":11104:11107   */\n      0x00\n        /* \"#utility.yul\":11125:11192   */\n      tag_246\n        /* \"#utility.yul\":11189:11191   */\n      0x0f\n        /* \"#utility.yul\":11184:11187   */\n      dup4\n        /* \"#utility.yul\":11125:11192   */\n      tag_86\n      jump\t// in\n    tag_246:\n        /* \"#utility.yul\":11118:11192   */\n      swap2\n      pop\n        /* \"#utility.yul\":11201:11294   */\n      tag_247\n        /* \"#utility.yul\":11290:11293   */\n      dup3\n        /* \"#utility.yul\":11201:11294   */\n      tag_124\n      jump\t// in\n    tag_247:\n        /* \"#utility.yul\":11319:11321   */\n      0x20\n        /* \"#utility.yul\":11314:11317   */\n      dup3\n        /* \"#utility.yul\":11310:11322   */\n      add\n        /* \"#utility.yul\":11303:11322   */\n      swap1\n      pop\n        /* \"#utility.yul\":10962:11328   */\n      swap2\n      swap1\n      pop\n      jump\t// out\n        /* \"#utility.yul\":11334:11753   */\n    tag_84:\n        /* \"#utility.yul\":11500:11504   */\n      0x00\n        /* \"#utility.yul\":11538:11540   */\n      0x20\n        /* \"#utility.yul\":11527:11536   */\n      dup3\n        /* \"#utility.yul\":11523:11541   */\n      add\n        /* \"#utility.yul\":11515:11541   */\n      swap1\n      pop\n        /* \"#utility.yul\":11587:11596   */\n      dup2\n        /* \"#utility.yul\":11581:11585   */\n      dup2\n        /* \"#utility.yul\":11577:11597   */\n      sub\n        /* \"#utility.yul\":11573:11574   */\n      0x00\n        /* \"#utility.yul\":11562:11571   */\n      dup4\n        /* \"#utility.yul\":11558:11575   */\n      add\n        /* \"#utility.yul\":11551:11598   */\n      mstore\n        /* \"#utility.yul\":11615:11746   */\n      tag_249\n        /* \"#utility.yul\":11741:11745   */\n      dup2\n        /* \"#utility.yul\":11615:11746   */\n      tag_125\n      jump\t// in\n    tag_249:\n        /* \"#utility.yul\":11607:11746   */\n      swap1\n      pop\n        /* \"#utility.yul\":11334:11753   */\n      swap2\n      swap1\n      pop\n      jump\t// out\n\n    auxdata: 0xa2646970667358221220735d356461ad5eede993a85df9808a86c5482143516a081ecab723962d283cb964736f6c634300081e0033\n}\n",
				"bytecode": {
					"linkReferences": {},
					"object": "6080604052348015600e575f5ffd5b50335f5f6101000a81548173ffffffffffffffffffffffffffffffffffffffff021916908373ffffffffffffffffffffffffffffffffffffffff16021790555042600281905550610e5a806100625f395ff3fe608060405234801561000f575f5ffd5b5060043610610086575f3560e01c8063893d20e811610059578063893d20e814610102578063a14ab9f814610120578063a49a1e7d1461013c578063f2fde38b1461015857610086565b8063041991391461008a57806351811f04146100a85780635b9fdc30146100c65780637a5b4f59146100e4575b5f5ffd5b610092610174565b60405161009f91906108a1565b60405180910390f35b6100b06101b1565b6040516100bd91906108d9565b60405180910390f35b6100ce610248565b6040516100db91906108a1565b60405180910390f35b6100ec610366565b6040516100f991906108a1565b60405180910390f35b61010a610484565b6040516101179190610931565b60405180910390f35b61013a600480360381019061013591906109b3565b6104ab565b005b610156600480360381019061015191906109b3565b610592565b005b610172600480360381019061016d9190610a28565b610679565b005b60606040518060400160405280600781526020017f5072656d69756d00000000000000000000000000000000000000000000000000815250905090565b5f3373ffffffffffffffffffffffffffffffffffffffff165f5f9054906101000a900473ffffffffffffffffffffffffffffffffffffffff1673ffffffffffffffffffffffffffffffffffffffff1614610240576040517f08c379a000000000000000000000000000000000000000000000000000000000815260040161023790610a9d565b60405180910390fd5b600254905090565b60603373ffffffffffffffffffffffffffffffffffffffff165f5f9054906101000a900473ffffffffffffffffffffffffffffffffffffffff1673ffffffffffffffffffffffffffffffffffffffff16146102d8576040517f08c379a00000000000000000000000000000000000000000000000000000000081526004016102cf90610a9d565b60405180910390fd5b600180546102e590610ae8565b80601f016020809104026020016040519081016040528092919081815260200182805461031190610ae8565b801561035c5780601f106103335761010080835404028352916020019161035c565b820191905f5260205f20905b81548152906001019060200180831161033f57829003601f168201915b5050505050905090565b60603373ffffffffffffffffffffffffffffffffffffffff165f5f9054906101000a900473ffffffffffffffffffffffffffffffffffffffff1673ffffffffffffffffffffffffffffffffffffffff16146103f6576040517f08c379a00000000000000000000000000000000000000000000000000000000081526004016103ed90610a9d565b60405180910390fd5b6003805461040390610ae8565b80601f016020809104026020016040519081016040528092919081815260200182805461042f90610ae8565b801561047a5780601f106104515761010080835404028352916020019161047a565b820191905f5260205f20905b81548152906001019060200180831161045d57829003601f168201915b5050505050905090565b5f5f5f9054906101000a900473ffffffffffffffffffffffffffffffffffffffff16905090565b3373ffffffffffffffffffffffffffffffffffffffff165f5f9054906101000a900473ffffffffffffffffffffffffffffffffffffffff1673ffffffffffffffffffffffffffffffffffffffff1614610539576040517f08c379a000000000000000000000000000000000000000000000000000000000815260040161053090610a9d565b60405180910390fd5b81816001918261054a929190610cef565b503373ffffffffffffffffffffffffffffffffffffffff167f0977f4c93d6a66455eb4f1467e8a01fec7c62b1ce20353fb51b7269712e1196760405160405180910390a25050565b3373ffffffffffffffffffffffffffffffffffffffff165f5f9054906101000a900473ffffffffffffffffffffffffffffffffffffffff1673ffffffffffffffffffffffffffffffffffffffff1614610620576040517f08c379a000000000000000000000000000000000000000000000000000000000815260040161061790610a9d565b60405180910390fd5b818160039182610631929190610cef565b503373ffffffffffffffffffffffffffffffffffffffff167fe08224dc11618a1e23016c28d3fb80e30630f4df34d9f95890fe9ce89a85d07e60405160405180910390a25050565b3373ffffffffffffffffffffffffffffffffffffffff165f5f9054906101000a900473ffffffffffffffffffffffffffffffffffffffff1673ffffffffffffffffffffffffffffffffffffffff1614610707576040517f08c379a00000000000000000000000000000000000000000000000000000000081526004016106fe90610a9d565b60405180910390fd5b5f73ffffffffffffffffffffffffffffffffffffffff168173ffffffffffffffffffffffffffffffffffffffff1603610775576040517f08c379a000000000000000000000000000000000000000000000000000000000815260040161076c90610e06565b60405180910390fd5b8073ffffffffffffffffffffffffffffffffffffffff165f5f9054906101000a900473ffffffffffffffffffffffffffffffffffffffff1673ffffffffffffffffffffffffffffffffffffffff167f8be0079c531659141344cd1fd0a4f28419497f9722a3daafe3b4186f6b6457e060405160405180910390a3805f5f6101000a81548173ffffffffffffffffffffffffffffffffffffffff021916908373ffffffffffffffffffffffffffffffffffffffff16021790555050565b5f81519050919050565b5f82825260208201905092915050565b8281835e5f83830152505050565b5f601f19601f8301169050919050565b5f61087382610831565b61087d818561083b565b935061088d81856020860161084b565b61089681610859565b840191505092915050565b5f6020820190508181035f8301526108b98184610869565b905092915050565b5f819050919050565b6108d3816108c1565b82525050565b5f6020820190506108ec5f8301846108ca565b92915050565b5f73ffffffffffffffffffffffffffffffffffffffff82169050919050565b5f61091b826108f2565b9050919050565b61092b81610911565b82525050565b5f6020820190506109445f830184610922565b92915050565b5f5ffd5b5f5ffd5b5f5ffd5b5f5ffd5b5f5ffd5b5f5f83601f84011261097357610972610952565b5b8235905067ffffffffffffffff8111156109905761098f610956565b5b6020830191508360018202830111156109ac576109ab61095a565b5b9250929050565b5f5f602083850312156109c9576109c861094a565b5b5f83013567ffffffffffffffff8111156109e6576109e561094e565b5b6109f28582860161095e565b92509250509250929050565b610a0781610911565b8114610a11575f5ffd5b50565b5f81359050610a22816109fe565b92915050565b5f60208284031215610a3d57610a3c61094a565b5b5f610a4a84828501610a14565b91505092915050565b7f4e6f7420746865206f776e6572000000000000000000000000000000000000005f82015250565b5f610a87600d8361083b565b9150610a9282610a53565b602082019050919050565b5f6020820190508181035f830152610ab481610a7b565b9050919050565b7f4e487b71000000000000000000000000000000000000000000000000000000005f52602260045260245ffd5b5f6002820490506001821680610aff57607f821691505b602082108103610b1257610b11610abb565b5b50919050565b5f82905092915050565b7f4e487b71000000000000000000000000000000000000000000000000000000005f52604160045260245ffd5b5f819050815f5260205f209050919050565b5f6020601f8301049050919050565b5f82821b905092915050565b5f60088302610bab7fffffffffffffffffffffffffffffffffffffffffffffffffffffffffffffffff82610b70565b610bb58683610b70565b95508019841693508086168417925050509392505050565b5f819050919050565b5f610bf0610beb610be6846108c1565b610bcd565b6108c1565b9050919050565b5f819050919050565b610c0983610bd6565b610c1d610c1582610bf7565b848454610b7c565b825550505050565b5f5f905090565b610c34610c25565b610c3f818484610c00565b505050565b5b81811015610c6257610c575f82610c2c565b600181019050610c45565b5050565b601f821115610ca757610c7881610b4f565b610c8184610b61565b81016020851015610c90578190505b610ca4610c9c85610b61565b830182610c44565b50505b505050565b5f82821c905092915050565b5f610cc75f1984600802610cac565b1980831691505092915050565b5f610cdf8383610cb8565b9150826002028217905092915050565b610cf98383610b18565b67ffffffffffffffff811115610d1257610d11610b22565b5b610d1c8254610ae8565b610d27828285610c66565b5f601f831160018114610d54575f8415610d42578287013590505b610d4c8582610cd4565b865550610db3565b601f198416610d6286610b4f565b5f5b82811015610d8957848901358255600182019150602085019450602081019050610d64565b86831015610da65784890135610da2601f891682610cb8565b8355505b6001600288020188555050505b50505050505050565b7f496e76616c6964204164647265737300000000000000000000000000000000005f82015250565b5f610df0600f8361083b565b9150610dfb82610dbc565b602082019050919050565b5f6020820190508181035f830152610e1d81610de4565b905091905056fea2646970667358221220735d356461ad5eede993a85df9808a86c5482143516a081ecab723962d283cb964736f6c634300081e0033",
					"opcodes": "PUSH1 0x80 PUSH1 0x40 MSTORE CALLVALUE DUP1 ISZERO PUSH1 0xE JUMPI PUSH0 PUSH0 REVERT JUMPDEST POP CALLER PUSH0 PUSH0 PUSH2 0x100 EXP DUP2 SLOAD DUP2 PUSH20 0xFFFFFFFFFFFFFFFFFFFFFFFFFFFFFFFFFFFFFFFF MUL NOT AND SWAP1 DUP4 PUSH20 0xFFFFFFFFFFFFFFFFFFFFFFFFFFFFFFFFFFFFFFFF AND MUL OR SWAP1 SSTORE POP TIMESTAMP PUSH1 0x2 DUP2 SWAP1 SSTORE POP PUSH2 0xE5A DUP1 PUSH2 0x62 PUSH0 CODECOPY PUSH0 RETURN INVALID PUSH1 0x80 PUSH1 0x40 MSTORE CALLVALUE DUP1 ISZERO PUSH2 0xF JUMPI PUSH0 PUSH0 REVERT JUMPDEST POP PUSH1 0x4 CALLDATASIZE LT PUSH2 0x86 JUMPI PUSH0 CALLDATALOAD PUSH1 0xE0 SHR DUP1 PUSH4 0x893D20E8 GT PUSH2 0x59 JUMPI DUP1 PUSH4 0x893D20E8 EQ PUSH2 0x102 JUMPI DUP1 PUSH4 0xA14AB9F8 EQ PUSH2 0x120 JUMPI DUP1 PUSH4 0xA49A1E7D EQ PUSH2 0x13C JUMPI DUP1 PUSH4 0xF2FDE38B EQ PUSH2 0x158 JUMPI PUSH2 0x86 JUMP JUMPDEST DUP1 PUSH4 0x4199139 EQ PUSH2 0x8A JUMPI DUP1 PUSH4 0x51811F04 EQ PUSH2 0xA8 JUMPI DUP1 PUSH4 0x5B9FDC30 EQ PUSH2 0xC6 JUMPI DUP1 PUSH4 0x7A5B4F59 EQ PUSH2 0xE4 JUMPI JUMPDEST PUSH0 PUSH0 REVERT JUMPDEST PUSH2 0x92 PUSH2 0x174 JUMP JUMPDEST PUSH1 0x40 MLOAD PUSH2 0x9F SWAP2 SWAP1 PUSH2 0x8A1 JUMP JUMPDEST PUSH1 0x40 MLOAD DUP1 SWAP2 SUB SWAP1 RETURN JUMPDEST PUSH2 0xB0 PUSH2 0x1B1 JUMP JUMPDEST PUSH1 0x40 MLOAD PUSH2 0xBD SWAP2 SWAP1 PUSH2 0x8D9 JUMP JUMPDEST PUSH1 0x40 MLOAD DUP1 SWAP2 SUB SWAP1 RETURN JUMPDEST PUSH2 0xCE PUSH2 0x248 JUMP JUMPDEST PUSH1 0x40 MLOAD PUSH2 0xDB SWAP2 SWAP1 PUSH2 0x8A1 JUMP JUMPDEST PUSH1 0x40 MLOAD DUP1 SWAP2 SUB SWAP1 RETURN JUMPDEST PUSH2 0xEC PUSH2 0x366 JUMP JUMPDEST PUSH1 0x40 MLOAD PUSH2 0xF9 SWAP2 SWAP1 PUSH2 0x8A1 JUMP JUMPDEST PUSH1 0x40 MLOAD DUP1 SWAP2 SUB SWAP1 RETURN JUMPDEST PUSH2 0x10A PUSH2 0x484 JUMP JUMPDEST PUSH1 0x40 MLOAD PUSH2 0x117 SWAP2 SWAP1 PUSH2 0x931 JUMP JUMPDEST PUSH1 0x40 MLOAD DUP1 SWAP2 SUB SWAP1 RETURN JUMPDEST PUSH2 0x13A PUSH1 0x4 DUP1 CALLDATASIZE SUB DUP2 ADD SWAP1 PUSH2 0x135 SWAP2 SWAP1 PUSH2 0x9B3 JUMP JUMPDEST PUSH2 0x4AB JUMP JUMPDEST STOP JUMPDEST PUSH2 0x156 PUSH1 0x4 DUP1 CALLDATASIZE SUB DUP2 ADD SWAP1 PUSH2 0x151 SWAP2 SWAP1 PUSH2 0x9B3 JUMP JUMPDEST PUSH2 0x592 JUMP JUMPDEST STOP JUMPDEST PUSH2 0x172 PUSH1 0x4 DUP1 CALLDATASIZE SUB DUP2 ADD SWAP1 PUSH2 0x16D SWAP2 SWAP1 PUSH2 0xA28 JUMP JUMPDEST PUSH2 0x679 JUMP JUMPDEST STOP JUMPDEST PUSH1 0x60 PUSH1 0x40 MLOAD DUP1 PUSH1 0x40 ADD PUSH1 0x40 MSTORE DUP1 PUSH1 0x7 DUP2 MSTORE PUSH1 0x20 ADD PUSH32 0x5072656D69756D00000000000000000000000000000000000000000000000000 DUP2 MSTORE POP SWAP1 POP SWAP1 JUMP JUMPDEST PUSH0 CALLER PUSH20 0xFFFFFFFFFFFFFFFFFFFFFFFFFFFFFFFFFFFFFFFF AND PUSH0 PUSH0 SWAP1 SLOAD SWAP1 PUSH2 0x100 EXP SWAP1 DIV PUSH20 0xFFFFFFFFFFFFFFFFFFFFFFFFFFFFFFFFFFFFFFFF AND PUSH20 0xFFFFFFFFFFFFFFFFFFFFFFFFFFFFFFFFFFFFFFFF AND EQ PUSH2 0x240 JUMPI PUSH1 0x40 MLOAD PUSH32 0x8C379A000000000000000000000000000000000000000000000000000000000 DUP2 MSTORE PUSH1 0x4 ADD PUSH2 0x237 SWAP1 PUSH2 0xA9D JUMP JUMPDEST PUSH1 0x40 MLOAD DUP1 SWAP2 SUB SWAP1 REVERT JUMPDEST PUSH1 0x2 SLOAD SWAP1 POP SWAP1 JUMP JUMPDEST PUSH1 0x60 CALLER PUSH20 0xFFFFFFFFFFFFFFFFFFFFFFFFFFFFFFFFFFFFFFFF AND PUSH0 PUSH0 SWAP1 SLOAD SWAP1 PUSH2 0x100 EXP SWAP1 DIV PUSH20 0xFFFFFFFFFFFFFFFFFFFFFFFFFFFFFFFFFFFFFFFF AND PUSH20 0xFFFFFFFFFFFFFFFFFFFFFFFFFFFFFFFFFFFFFFFF AND EQ PUSH2 0x2D8 JUMPI PUSH1 0x40 MLOAD PUSH32 0x8C379A000000000000000000000000000000000000000000000000000000000 DUP2 MSTORE PUSH1 0x4 ADD PUSH2 0x2CF SWAP1 PUSH2 0xA9D JUMP JUMPDEST PUSH1 0x40 MLOAD DUP1 SWAP2 SUB SWAP1 REVERT JUMPDEST PUSH1 0x1 DUP1 SLOAD PUSH2 0x2E5 SWAP1 PUSH2 0xAE8 JUMP JUMPDEST DUP1 PUSH1 0x1F ADD PUSH1 0x20 DUP1 SWAP2 DIV MUL PUSH1 0x20 ADD PUSH1 0x40 MLOAD SWAP1 DUP2 ADD PUSH1 0x40 MSTORE DUP1 SWAP3 SWAP2 SWAP1 DUP2 DUP2 MSTORE PUSH1 0x20 ADD DUP3 DUP1 SLOAD PUSH2 0x311 SWAP1 PUSH2 0xAE8 JUMP JUMPDEST DUP1 ISZERO PUSH2 0x35C JUMPI DUP1 PUSH1 0x1F LT PUSH2 0x333 JUMPI PUSH2 0x100 DUP1 DUP4 SLOAD DIV MUL DUP4 MSTORE SWAP2 PUSH1 0x20 ADD SWAP2 PUSH2 0x35C JUMP JUMPDEST DUP3 ADD SWAP2 SWAP1 PUSH0 MSTORE PUSH1 0x20 PUSH0 KECCAK256 SWAP1 JUMPDEST DUP2 SLOAD DUP2 MSTORE SWAP1 PUSH1 0x1 ADD SWAP1 PUSH1 0x20 ADD DUP1 DUP4 GT PUSH2 0x33F JUMPI DUP3 SWAP1 SUB PUSH1 0x1F AND DUP3 ADD SWAP2 JUMPDEST POP POP POP POP POP SWAP1 POP SWAP1 JUMP JUMPDEST PUSH1 0x60 CALLER PUSH20 0xFFFFFFFFFFFFFFFFFFFFFFFFFFFFFFFFFFFFFFFF AND PUSH0 PUSH0 SWAP1 SLOAD SWAP1 PUSH2 0x100 EXP SWAP1 DIV PUSH20 0xFFFFFFFFFFFFFFFFFFFFFFFFFFFFFFFFFFFFFFFF AND PUSH20 0xFFFFFFFFFFFFFFFFFFFFFFFFFFFFFFFFFFFFFFFF AND EQ PUSH2 0x3F6 JUMPI PUSH1 0x40 MLOAD PUSH32 0x8C379A000000000000000000000000000000000000000000000000000000000 DUP2 MSTORE PUSH1 0x4 ADD PUSH2 0x3ED SWAP1 PUSH2 0xA9D JUMP JUMPDEST PUSH1 0x40 MLOAD DUP1 SWAP2 SUB SWAP1 REVERT JUMPDEST PUSH1 0x3 DUP1 SLOAD PUSH2 0x403 SWAP1 PUSH2 0xAE8 JUMP JUMPDEST DUP1 PUSH1 0x1F ADD PUSH1 0x20 DUP1 SWAP2 DIV MUL PUSH1 0x20 ADD PUSH1 0x40 MLOAD SWAP1 DUP2 ADD PUSH1 0x40 MSTORE DUP1 SWAP3 SWAP2 SWAP1 DUP2 DUP2 MSTORE PUSH1 0x20 ADD DUP3 DUP1 SLOAD PUSH2 0x42F SWAP1 PUSH2 0xAE8 JUMP JUMPDEST DUP1 ISZERO PUSH2 0x47A JUMPI DUP1 PUSH1 0x1F LT PUSH2 0x451 JUMPI PUSH2 0x100 DUP1 DUP4 SLOAD DIV MUL DUP4 MSTORE SWAP2 PUSH1 0x20 ADD SWAP2 PUSH2 0x47A JUMP JUMPDEST DUP3 ADD SWAP2 SWAP1 PUSH0 MSTORE PUSH1 0x20 PUSH0 KECCAK256 SWAP1 JUMPDEST DUP2 SLOAD DUP2 MSTORE SWAP1 PUSH1 0x1 ADD SWAP1 PUSH1 0x20 ADD DUP1 DUP4 GT PUSH2 0x45D JUMPI DUP3 SWAP1 SUB PUSH1 0x1F AND DUP3 ADD SWAP2 JUMPDEST POP POP POP POP POP SWAP1 POP SWAP1 JUMP JUMPDEST PUSH0 PUSH0 PUSH0 SWAP1 SLOAD SWAP1 PUSH2 0x100 EXP SWAP1 DIV PUSH20 0xFFFFFFFFFFFFFFFFFFFFFFFFFFFFFFFFFFFFFFFF AND SWAP1 POP SWAP1 JUMP JUMPDEST CALLER PUSH20 0xFFFFFFFFFFFFFFFFFFFFFFFFFFFFFFFFFFFFFFFF AND PUSH0 PUSH0 SWAP1 SLOAD SWAP1 PUSH2 0x100 EXP SWAP1 DIV PUSH20 0xFFFFFFFFFFFFFFFFFFFFFFFFFFFFFFFFFFFFFFFF AND PUSH20 0xFFFFFFFFFFFFFFFFFFFFFFFFFFFFFFFFFFFFFFFF AND EQ PUSH2 0x539 JUMPI PUSH1 0x40 MLOAD PUSH32 0x8C379A000000000000000000000000000000000000000000000000000000000 DUP2 MSTORE PUSH1 0x4 ADD PUSH2 0x530 SWAP1 PUSH2 0xA9D JUMP JUMPDEST PUSH1 0x40 MLOAD DUP1 SWAP2 SUB SWAP1 REVERT JUMPDEST DUP2 DUP2 PUSH1 0x1 SWAP2 DUP3 PUSH2 0x54A SWAP3 SWAP2 SWAP1 PUSH2 0xCEF JUMP JUMPDEST POP CALLER PUSH20 0xFFFFFFFFFFFFFFFFFFFFFFFFFFFFFFFFFFFFFFFF AND PUSH32 0x977F4C93D6A66455EB4F1467E8A01FEC7C62B1CE20353FB51B7269712E11967 PUSH1 0x40 MLOAD PUSH1 0x40 MLOAD DUP1 SWAP2 SUB SWAP1 LOG2 POP POP JUMP JUMPDEST CALLER PUSH20 0xFFFFFFFFFFFFFFFFFFFFFFFFFFFFFFFFFFFFFFFF AND PUSH0 PUSH0 SWAP1 SLOAD SWAP1 PUSH2 0x100 EXP SWAP1 DIV PUSH20 0xFFFFFFFFFFFFFFFFFFFFFFFFFFFFFFFFFFFFFFFF AND PUSH20 0xFFFFFFFFFFFFFFFFFFFFFFFFFFFFFFFFFFFFFFFF AND EQ PUSH2 0x620 JUMPI PUSH1 0x40 MLOAD PUSH32 0x8C379A000000000000000000000000000000000000000000000000000000000 DUP2 MSTORE PUSH1 0x4 ADD PUSH2 0x617 SWAP1 PUSH2 0xA9D JUMP JUMPDEST PUSH1 0x40 MLOAD DUP1 SWAP2 SUB SWAP1 REVERT JUMPDEST DUP2 DUP2 PUSH1 0x3 SWAP2 DUP3 PUSH2 0x631 SWAP3 SWAP2 SWAP1 PUSH2 0xCEF JUMP JUMPDEST POP CALLER PUSH20 0xFFFFFFFFFFFFFFFFFFFFFFFFFFFFFFFFFFFFFFFF AND PUSH32 0xE08224DC11618A1E23016C28D3FB80E30630F4DF34D9F95890FE9CE89A85D07E PUSH1 0x40 MLOAD PUSH1 0x40 MLOAD DUP1 SWAP2 SUB SWAP1 LOG2 POP POP JUMP JUMPDEST CALLER PUSH20 0xFFFFFFFFFFFFFFFFFFFFFFFFFFFFFFFFFFFFFFFF AND PUSH0 PUSH0 SWAP1 SLOAD SWAP1 PUSH2 0x100 EXP SWAP1 DIV PUSH20 0xFFFFFFFFFFFFFFFFFFFFFFFFFFFFFFFFFFFFFFFF AND PUSH20 0xFFFFFFFFFFFFFFFFFFFFFFFFFFFFFFFFFFFFFFFF AND EQ PUSH2 0x707 JUMPI PUSH1 0x40 MLOAD PUSH32 0x8C379A000000000000000000000000000000000000000000000000000000000 DUP2 MSTORE PUSH1 0x4 ADD PUSH2 0x6FE SWAP1 PUSH2 0xA9D JUMP JUMPDEST PUSH1 0x40 MLOAD DUP1 SWAP2 SUB SWAP1 REVERT JUMPDEST PUSH0 PUSH20 0xFFFFFFFFFFFFFFFFFFFFFFFFFFFFFFFFFFFFFFFF AND DUP2 PUSH20 0xFFFFFFFFFFFFFFFFFFFFFFFFFFFFFFFFFFFFFFFF AND SUB PUSH2 0x775 JUMPI PUSH1 0x40 MLOAD PUSH32 0x8C379A000000000000000000000000000000000000000000000000000000000 DUP2 MSTORE PUSH1 0x4 ADD PUSH2 0x76C SWAP1 PUSH2 0xE06 JUMP JUMPDEST PUSH1 0x40 MLOAD DUP1 SWAP2 SUB SWAP1 REVERT JUMPDEST DUP1 PUSH20 0xFFFFFFFFFFFFFFFFFFFFFFFFFFFFFFFFFFFFFFFF AND PUSH0 PUSH0 SWAP1 SLOAD SWAP1 PUSH2 0x100 EXP SWAP1 DIV PUSH20 0xFFFFFFFFFFFFFFFFFFFFFFFFFFFFFFFFFFFFFFFF AND PUSH20 0xFFFFFFFFFFFFFFFFFFFFFFFFFFFFFFFFFFFFFFFF AND PUSH32 0x8BE0079C531659141344CD1FD0A4F28419497F9722A3DAAFE3B4186F6B6457E0 PUSH1 0x40 MLOAD PUSH1 0x40 MLOAD DUP1 SWAP2 SUB SWAP1 LOG3 DUP1 PUSH0 PUSH0 PUSH2 0x100 EXP DUP2 SLOAD DUP2 PUSH20 0xFFFFFFFFFFFFFFFFFFFFFFFFFFFFFFFFFFFFFFFF MUL NOT AND SWAP1 DUP4 PUSH20 0xFFFFFFFFFFFFFFFFFFFFFFFFFFFFFFFFFFFFFFFF AND MUL OR SWAP1 SSTORE POP POP JUMP JUMPDEST PUSH0 DUP2 MLOAD SWAP1 POP SWAP2 SWAP1 POP JUMP JUMPDEST PUSH0 DUP3 DUP3 MSTORE PUSH1 0x20 DUP3 ADD SWAP1 POP SWAP3 SWAP2 POP POP JUMP JUMPDEST DUP3 DUP2 DUP4 MCOPY PUSH0 DUP4 DUP4 ADD MSTORE POP POP POP JUMP JUMPDEST PUSH0 PUSH1 0x1F NOT PUSH1 0x1F DUP4 ADD AND SWAP1 POP SWAP2 SWAP1 POP JUMP JUMPDEST PUSH0 PUSH2 0x873 DUP3 PUSH2 0x831 JUMP JUMPDEST PUSH2 0x87D DUP2 DUP6 PUSH2 0x83B JUMP JUMPDEST SWAP4 POP PUSH2 0x88D DUP2 DUP6 PUSH1 0x20 DUP7 ADD PUSH2 0x84B JUMP JUMPDEST PUSH2 0x896 DUP2 PUSH2 0x859 JUMP JUMPDEST DUP5 ADD SWAP2 POP POP SWAP3 SWAP2 POP POP JUMP JUMPDEST PUSH0 PUSH1 0x20 DUP3 ADD SWAP1 POP DUP2 DUP2 SUB PUSH0 DUP4 ADD MSTORE PUSH2 0x8B9 DUP2 DUP5 PUSH2 0x869 JUMP JUMPDEST SWAP1 POP SWAP3 SWAP2 POP POP JUMP JUMPDEST PUSH0 DUP2 SWAP1 POP SWAP2 SWAP1 POP JUMP JUMPDEST PUSH2 0x8D3 DUP2 PUSH2 0x8C1 JUMP JUMPDEST DUP3 MSTORE POP POP JUMP JUMPDEST PUSH0 PUSH1 0x20 DUP3 ADD SWAP1 POP PUSH2 0x8EC PUSH0 DUP4 ADD DUP5 PUSH2 0x8CA JUMP JUMPDEST SWAP3 SWAP2 POP POP JUMP JUMPDEST PUSH0 PUSH20 0xFFFFFFFFFFFFFFFFFFFFFFFFFFFFFFFFFFFFFFFF DUP3 AND SWAP1 POP SWAP2 SWAP1 POP JUMP JUMPDEST PUSH0 PUSH2 0x91B DUP3 PUSH2 0x8F2 JUMP JUMPDEST SWAP1 POP SWAP2 SWAP1 POP JUMP JUMPDEST PUSH2 0x92B DUP2 PUSH2 0x911 JUMP JUMPDEST DUP3 MSTORE POP POP JUMP JUMPDEST PUSH0 PUSH1 0x20 DUP3 ADD SWAP1 POP PUSH2 0x944 PUSH0 DUP4 ADD DUP5 PUSH2 0x922 JUMP JUMPDEST SWAP3 SWAP2 POP POP JUMP JUMPDEST PUSH0 PUSH0 REVERT JUMPDEST PUSH0 PUSH0 REVERT JUMPDEST PUSH0 PUSH0 REVERT JUMPDEST PUSH0 PUSH0 REVERT JUMPDEST PUSH0 PUSH0 REVERT JUMPDEST PUSH0 PUSH0 DUP4 PUSH1 0x1F DUP5 ADD SLT PUSH2 0x973 JUMPI PUSH2 0x972 PUSH2 0x952 JUMP JUMPDEST JUMPDEST DUP3 CALLDATALOAD SWAP1 POP PUSH8 0xFFFFFFFFFFFFFFFF DUP2 GT ISZERO PUSH2 0x990 JUMPI PUSH2 0x98F PUSH2 0x956 JUMP JUMPDEST JUMPDEST PUSH1 0x20 DUP4 ADD SWAP2 POP DUP4 PUSH1 0x1 DUP3 MUL DUP4 ADD GT ISZERO PUSH2 0x9AC JUMPI PUSH2 0x9AB PUSH2 0x95A JUMP JUMPDEST JUMPDEST SWAP3 POP SWAP3 SWAP1 POP JUMP JUMPDEST PUSH0 PUSH0 PUSH1 0x20 DUP4 DUP6 SUB SLT ISZERO PUSH2 0x9C9 JUMPI PUSH2 0x9C8 PUSH2 0x94A JUMP JUMPDEST JUMPDEST PUSH0 DUP4 ADD CALLDATALOAD PUSH8 0xFFFFFFFFFFFFFFFF DUP2 GT ISZERO PUSH2 0x9E6 JUMPI PUSH2 0x9E5 PUSH2 0x94E JUMP JUMPDEST JUMPDEST PUSH2 0x9F2 DUP6 DUP3 DUP7 ADD PUSH2 0x95E JUMP JUMPDEST SWAP3 POP SWAP3 POP POP SWAP3 POP SWAP3 SWAP1 POP JUMP JUMPDEST PUSH2 0xA07 DUP2 PUSH2 0x911 JUMP JUMPDEST DUP2 EQ PUSH2 0xA11 JUMPI PUSH0 PUSH0 REVERT JUMPDEST POP JUMP JUMPDEST PUSH0 DUP2 CALLDATALOAD SWAP1 POP PUSH2 0xA22 DUP2 PUSH2 0x9FE JUMP JUMPDEST SWAP3 SWAP2 POP POP JUMP JUMPDEST PUSH0 PUSH1 0x20 DUP3 DUP5 SUB SLT ISZERO PUSH2 0xA3D JUMPI PUSH2 0xA3C PUSH2 0x94A JUMP JUMPDEST JUMPDEST PUSH0 PUSH2 0xA4A DUP5 DUP3 DUP6 ADD PUSH2 0xA14 JUMP JUMPDEST SWAP2 POP POP SWAP3 SWAP2 POP POP JUMP JUMPDEST PUSH32 0x4E6F7420746865206F776E657200000000000000000000000000000000000000 PUSH0 DUP3 ADD MSTORE POP JUMP JUMPDEST PUSH0 PUSH2 0xA87 PUSH1 0xD DUP4 PUSH2 0x83B JUMP JUMPDEST SWAP2 POP PUSH2 0xA92 DUP3 PUSH2 0xA53 JUMP JUMPDEST PUSH1 0x20 DUP3 ADD SWAP1 POP SWAP2 SWAP1 POP JUMP JUMPDEST PUSH0 PUSH1 0x20 DUP3 ADD SWAP1 POP DUP2 DUP2 SUB PUSH0 DUP4 ADD MSTORE PUSH2 0xAB4 DUP2 PUSH2 0xA7B JUMP JUMPDEST SWAP1 POP SWAP2 SWAP1 POP JUMP JUMPDEST PUSH32 0x4E487B7100000000000000000000000000000000000000000000000000000000 PUSH0 MSTORE PUSH1 0x22 PUSH1 0x4 MSTORE PUSH1 0x24 PUSH0 REVERT JUMPDEST PUSH0 PUSH1 0x2 DUP3 DIV SWAP1 POP PUSH1 0x1 DUP3 AND DUP1 PUSH2 0xAFF JUMPI PUSH1 0x7F DUP3 AND SWAP2 POP JUMPDEST PUSH1 0x20 DUP3 LT DUP2 SUB PUSH2 0xB12 JUMPI PUSH2 0xB11 PUSH2 0xABB JUMP JUMPDEST JUMPDEST POP SWAP2 SWAP1 POP JUMP JUMPDEST PUSH0 DUP3 SWAP1 POP SWAP3 SWAP2 POP POP JUMP JUMPDEST PUSH32 0x4E487B7100000000000000000000000000000000000000000000000000000000 PUSH0 MSTORE PUSH1 0x41 PUSH1 0x4 MSTORE PUSH1 0x24 PUSH0 REVERT JUMPDEST PUSH0 DUP2 SWAP1 POP DUP2 PUSH0 MSTORE PUSH1 0x20 PUSH0 KECCAK256 SWAP1 POP SWAP2 SWAP1 POP JUMP JUMPDEST PUSH0 PUSH1 0x20 PUSH1 0x1F DUP4 ADD DIV SWAP1 POP SWAP2 SWAP1 POP JUMP JUMPDEST PUSH0 DUP3 DUP3 SHL SWAP1 POP SWAP3 SWAP2 POP POP JUMP JUMPDEST PUSH0 PUSH1 0x8 DUP4 MUL PUSH2 0xBAB PUSH32 0xFFFFFFFFFFFFFFFFFFFFFFFFFFFFFFFFFFFFFFFFFFFFFFFFFFFFFFFFFFFFFFFF DUP3 PUSH2 0xB70 JUMP JUMPDEST PUSH2 0xBB5 DUP7 DUP4 PUSH2 0xB70 JUMP JUMPDEST SWAP6 POP DUP1 NOT DUP5 AND SWAP4 POP DUP1 DUP7 AND DUP5 OR SWAP3 POP POP POP SWAP4 SWAP3 POP POP POP JUMP JUMPDEST PUSH0 DUP2 SWAP1 POP SWAP2 SWAP1 POP JUMP JUMPDEST PUSH0 PUSH2 0xBF0 PUSH2 0xBEB PUSH2 0xBE6 DUP5 PUSH2 0x8C1 JUMP JUMPDEST PUSH2 0xBCD JUMP JUMPDEST PUSH2 0x8C1 JUMP JUMPDEST SWAP1 POP SWAP2 SWAP1 POP JUMP JUMPDEST PUSH0 DUP2 SWAP1 POP SWAP2 SWAP1 POP JUMP JUMPDEST PUSH2 0xC09 DUP4 PUSH2 0xBD6 JUMP JUMPDEST PUSH2 0xC1D PUSH2 0xC15 DUP3 PUSH2 0xBF7 JUMP JUMPDEST DUP5 DUP5 SLOAD PUSH2 0xB7C JUMP JUMPDEST DUP3 SSTORE POP POP POP POP JUMP JUMPDEST PUSH0 PUSH0 SWAP1 POP SWAP1 JUMP JUMPDEST PUSH2 0xC34 PUSH2 0xC25 JUMP JUMPDEST PUSH2 0xC3F DUP2 DUP5 DUP5 PUSH2 0xC00 JUMP JUMPDEST POP POP POP JUMP JUMPDEST JUMPDEST DUP2 DUP2 LT ISZERO PUSH2 0xC62 JUMPI PUSH2 0xC57 PUSH0 DUP3 PUSH2 0xC2C JUMP JUMPDEST PUSH1 0x1 DUP2 ADD SWAP1 POP PUSH2 0xC45 JUMP JUMPDEST POP POP JUMP JUMPDEST PUSH1 0x1F DUP3 GT ISZERO PUSH2 0xCA7 JUMPI PUSH2 0xC78 DUP2 PUSH2 0xB4F JUMP JUMPDEST PUSH2 0xC81 DUP5 PUSH2 0xB61 JUMP JUMPDEST DUP2 ADD PUSH1 0x20 DUP6 LT ISZERO PUSH2 0xC90 JUMPI DUP2 SWAP1 POP JUMPDEST PUSH2 0xCA4 PUSH2 0xC9C DUP6 PUSH2 0xB61 JUMP JUMPDEST DUP4 ADD DUP3 PUSH2 0xC44 JUMP JUMPDEST POP POP JUMPDEST POP POP POP JUMP JUMPDEST PUSH0 DUP3 DUP3 SHR SWAP1 POP SWAP3 SWAP2 POP POP JUMP JUMPDEST PUSH0 PUSH2 0xCC7 PUSH0 NOT DUP5 PUSH1 0x8 MUL PUSH2 0xCAC JUMP JUMPDEST NOT DUP1 DUP4 AND SWAP2 POP POP SWAP3 SWAP2 POP POP JUMP JUMPDEST PUSH0 PUSH2 0xCDF DUP4 DUP4 PUSH2 0xCB8 JUMP JUMPDEST SWAP2 POP DUP3 PUSH1 0x2 MUL DUP3 OR SWAP1 POP SWAP3 SWAP2 POP POP JUMP JUMPDEST PUSH2 0xCF9 DUP4 DUP4 PUSH2 0xB18 JUMP JUMPDEST PUSH8 0xFFFFFFFFFFFFFFFF DUP2 GT ISZERO PUSH2 0xD12 JUMPI PUSH2 0xD11 PUSH2 0xB22 JUMP JUMPDEST JUMPDEST PUSH2 0xD1C DUP3 SLOAD PUSH2 0xAE8 JUMP JUMPDEST PUSH2 0xD27 DUP3 DUP3 DUP6 PUSH2 0xC66 JUMP JUMPDEST PUSH0 PUSH1 0x1F DUP4 GT PUSH1 0x1 DUP2 EQ PUSH2 0xD54 JUMPI PUSH0 DUP5 ISZERO PUSH2 0xD42 JUMPI DUP3 DUP8 ADD CALLDATALOAD SWAP1 POP JUMPDEST PUSH2 0xD4C DUP6 DUP3 PUSH2 0xCD4 JUMP JUMPDEST DUP7 SSTORE POP PUSH2 0xDB3 JUMP JUMPDEST PUSH1 0x1F NOT DUP5 AND PUSH2 0xD62 DUP7 PUSH2 0xB4F JUMP JUMPDEST PUSH0 JUMPDEST DUP3 DUP2 LT ISZERO PUSH2 0xD89 JUMPI DUP5 DUP10 ADD CALLDATALOAD DUP3 SSTORE PUSH1 0x1 DUP3 ADD SWAP2 POP PUSH1 0x20 DUP6 ADD SWAP5 POP PUSH1 0x20 DUP2 ADD SWAP1 POP PUSH2 0xD64 JUMP JUMPDEST DUP7 DUP4 LT ISZERO PUSH2 0xDA6 JUMPI DUP5 DUP10 ADD CALLDATALOAD PUSH2 0xDA2 PUSH1 0x1F DUP10 AND DUP3 PUSH2 0xCB8 JUMP JUMPDEST DUP4 SSTORE POP JUMPDEST PUSH1 0x1 PUSH1 0x2 DUP9 MUL ADD DUP9 SSTORE POP POP POP JUMPDEST POP POP POP POP POP POP POP JUMP JUMPDEST PUSH32 0x496E76616C696420416464726573730000000000000000000000000000000000 PUSH0 DUP3 ADD MSTORE POP JUMP JUMPDEST PUSH0 PUSH2 0xDF0 PUSH1 0xF DUP4 PUSH2 0x83B JUMP JUMPDEST SWAP2 POP PUSH2 0xDFB DUP3 PUSH2 0xDBC JUMP JUMPDEST PUSH1 0x20 DUP3 ADD SWAP1 POP SWAP2 SWAP1 POP JUMP JUMPDEST PUSH0 PUSH1 0x20 DUP3 ADD SWAP1 POP DUP2 DUP2 SUB PUSH0 DUP4 ADD MSTORE PUSH2 0xE1D DUP2 PUSH2 0xDE4 JUMP JUMPDEST SWAP1 POP SWAP2 SWAP1 POP JUMP INVALID LOG2 PUSH5 0x6970667358 0x22 SLT KECCAK256 PUSH20 0x5D356461AD5EEDE993A85DF9808A86C548214351 PUSH11 0x81ECAB723962D283CB964 PUSH20 0x6F6C634300081E00330000000000000000000000 "
				},
				"gasEstimates": {
					"creation": {
						"codeDepositCost": "734800",
						"executionCost": "47141",
						"totalCost": "781941"
					},
					"external": {
						"getBoxType()": "infinite",
						"getDepositTime()": "4623",
						"getMetadata()": "infinite",
						"getOwner()": "2514",
						"getSecret()": "infinite",
						"setMetadata(string)": "infinite",
						"storeSecret(string)": "infinite",
						"transferOwnership(address)": "30661"
					}
				},
				"methodIdentifiers": {
					"getBoxType()": "04199139",
					"getDepositTime()": "51811f04",
					"getMetadata()": "7a5b4f59",
					"getOwner()": "893d20e8",
					"getSecret()": "5b9fdc30",
					"setMetadata(string)": "a49a1e7d",
					"storeSecret(string)": "a14ab9f8",
					"transferOwnership(address)": "f2fde38b"
				}
			},
			"storageLayout": {
				"storage": [
					{
						"astId": 6,
						"contract": "submissions/CCan_08/Day14/PremiumDepositBox.sol:PremiumDepositBox",
						"label": "owner",
						"offset": 0,
						"slot": "0",
						"type": "t_address"
					},
					{
						"astId": 8,
						"contract": "submissions/CCan_08/Day14/PremiumDepositBox.sol:PremiumDepositBox",
						"label": "secret",
						"offset": 0,
						"slot": "1",
						"type": "t_string_storage"
					},
					{
						"astId": 10,
						"contract": "submissions/CCan_08/Day14/PremiumDepositBox.sol:PremiumDepositBox",
						"label": "depositTime",
						"offset": 0,
						"slot": "2",
						"type": "t_uint256"
					},
					{
						"astId": 164,
						"contract": "submissions/CCan_08/Day14/PremiumDepositBox.sol:PremiumDepositBox",
						"label": "metadata",
						"offset": 0,
						"slot": "3",
						"type": "t_string_storage"
					}
				],
				"types": {
					"t_address": {
						"encoding": "inplace",
						"label": "address",
						"numberOfBytes": "20"
					},
					"t_string_storage": {
						"encoding": "bytes",
						"label": "string",
						"numberOfBytes": "32"
					},
					"t_uint256": {
						"encoding": "inplace",
						"label": "uint256",
						"numberOfBytes": "32"
					}
				}
			},
			"userdoc": {
				"kind": "user",
				"methods": {},
				"version": 1
			}
		}
	}
}