{
	"submissions/CCan_08/Day3.sol": {
		"PullStation": {
			"abi": [
				{
					"inputs": [
						{
							"internalType": "uint256",
							"name": "",
							"type": "uint256"
						}
					],
					"name": "CandidateNames",
					"outputs": [
						{
							"internalType": "string",
							"name": "",
							"type": "string"
						}
					],
					"stateMutability": "view",
					"type": "function"
				},
				{
					"inputs": [
						{
							"internalType": "string",
							"name": "_CandidateNames",
							"type": "string"
						}
					],
					"name": "addCandidateNames",
					"outputs": [],
					"stateMutability": "nonpayable",
					"type": "function"
				},
				{
					"inputs": [],
					"name": "getCandidateNames",
					"outputs": [
						{
							"internalType": "string[]",
							"name": "",
							"type": "string[]"
						}
					],
					"stateMutability": "view",
					"type": "function"
				},
				{
					"inputs": [
						{
							"internalType": "string",
							"name": "_CandidateNames",
							"type": "string"
						}
					],
					"name": "getVote",
					"outputs": [
						{
							"internalType": "uint256",
							"name": "",
							"type": "uint256"
						}
					],
					"stateMutability": "view",
					"type": "function"
				},
				{
					"inputs": [
						{
							"internalType": "string",
							"name": "_CandidateNames",
							"type": "string"
						}
					],
					"name": "vote",
					"outputs": [],
					"stateMutability": "nonpayable",
					"type": "function"
				}
			],
			"devdoc": {
				"kind": "dev",
				"methods": {},
				"version": 1
			},
			"evm": {
				"assembly": "    /* \"submissions/CCan_08/Day3.sol\":56:615  contract PullStation{... */\n  mstore(0x40, 0x80)\n  callvalue\n  dup1\n  iszero\n  tag_1\n  jumpi\n  revert(0x00, 0x00)\ntag_1:\n  pop\n  dataSize(sub_0)\n  dup1\n  dataOffset(sub_0)\n  0x00\n  codecopy\n  0x00\n  return\nstop\n\nsub_0: assembly {\n        /* \"submissions/CCan_08/Day3.sol\":56:615  contract PullStation{... */\n      mstore(0x40, 0x80)\n      callvalue\n      dup1\n      iszero\n      tag_1\n      jumpi\n      revert(0x00, 0x00)\n    tag_1:\n      pop\n      jumpi(tag_2, lt(calldatasize, 0x04))\n      shr(0xe0, calldataload(0x00))\n      dup1\n      0x186d9aaa\n      eq\n      tag_3\n      jumpi\n      dup1\n      0x72b9d616\n      eq\n      tag_4\n      jumpi\n      dup1\n      0xb13593cb\n      eq\n      tag_5\n      jumpi\n      dup1\n      0xbaa40e5c\n      eq\n      tag_6\n      jumpi\n      dup1\n      0xfc36e15b\n      eq\n      tag_7\n      jumpi\n    tag_2:\n      revert(0x00, 0x00)\n        /* \"submissions/CCan_08/Day3.sol\":82:112  string[] public CandidateNames */\n    tag_3:\n      tag_8\n      0x04\n      dup1\n      calldatasize\n      sub\n      dup2\n      add\n      swap1\n      tag_9\n      swap2\n      swap1\n      tag_10\n      jump\t// in\n    tag_9:\n      tag_11\n      jump\t// in\n    tag_8:\n      mload(0x40)\n      tag_12\n      swap2\n      swap1\n      tag_13\n      jump\t// in\n    tag_12:\n      mload(0x40)\n      dup1\n      swap2\n      sub\n      swap1\n      return\n        /* \"submissions/CCan_08/Day3.sol\":303:399  function getCandidateNames() public view returns (string[] memory){... */\n    tag_4:\n      tag_14\n      tag_15\n      jump\t// in\n    tag_14:\n      mload(0x40)\n      tag_16\n      swap2\n      swap1\n      tag_17\n      jump\t// in\n    tag_16:\n      mload(0x40)\n      dup1\n      swap2\n      sub\n      swap1\n      return\n        /* \"submissions/CCan_08/Day3.sol\":158:302  function addCandidateNames(string memory _CandidateNames) public {... */\n    tag_5:\n      tag_18\n      0x04\n      dup1\n      calldatasize\n      sub\n      dup2\n      add\n      swap1\n      tag_19\n      swap2\n      swap1\n      tag_20\n      jump\t// in\n    tag_19:\n      tag_21\n      jump\t// in\n    tag_18:\n      stop\n        /* \"submissions/CCan_08/Day3.sol\":493:613  function getVote(string memory _CandidateNames) public  view returns (uint256){... */\n    tag_6:\n      tag_22\n      0x04\n      dup1\n      calldatasize\n      sub\n      dup2\n      add\n      swap1\n      tag_23\n      swap2\n      swap1\n      tag_20\n      jump\t// in\n    tag_23:\n      tag_24\n      jump\t// in\n    tag_22:\n      mload(0x40)\n      tag_25\n      swap2\n      swap1\n      tag_26\n      jump\t// in\n    tag_25:\n      mload(0x40)\n      dup1\n      swap2\n      sub\n      swap1\n      return\n        /* \"submissions/CCan_08/Day3.sol\":400:492  function vote(string memory _CandidateNames) public {... */\n    tag_7:\n      tag_27\n      0x04\n      dup1\n      calldatasize\n      sub\n      dup2\n      add\n      swap1\n      tag_28\n      swap2\n      swap1\n      tag_20\n      jump\t// in\n    tag_28:\n      tag_29\n      jump\t// in\n    tag_27:\n      stop\n        /* \"submissions/CCan_08/Day3.sol\":82:112  string[] public CandidateNames */\n    tag_11:\n      0x00\n      dup2\n      dup2\n      sload\n      dup2\n      lt\n      tag_30\n      jumpi\n      0x00\n      dup1\n      revert\n    tag_30:\n      swap1\n      0x00\n      mstore\n      keccak256(0x00, 0x20)\n      add\n      0x00\n      swap2\n      pop\n      swap1\n      pop\n      dup1\n      sload\n      tag_32\n      swap1\n      tag_33\n      jump\t// in\n    tag_32:\n      dup1\n      0x1f\n      add\n      0x20\n      dup1\n      swap2\n      div\n      mul\n      0x20\n      add\n      mload(0x40)\n      swap1\n      dup2\n      add\n      0x40\n      mstore\n      dup1\n      swap3\n      swap2\n      swap1\n      dup2\n      dup2\n      mstore\n      0x20\n      add\n      dup3\n      dup1\n      sload\n      tag_34\n      swap1\n      tag_33\n      jump\t// in\n    tag_34:\n      dup1\n      iszero\n      tag_35\n      jumpi\n      dup1\n      0x1f\n      lt\n      tag_36\n      jumpi\n      0x0100\n      dup1\n      dup4\n      sload\n      div\n      mul\n      dup4\n      mstore\n      swap2\n      0x20\n      add\n      swap2\n      jump(tag_35)\n    tag_36:\n      dup3\n      add\n      swap2\n      swap1\n      0x00\n      mstore\n      keccak256(0x00, 0x20)\n      swap1\n    tag_37:\n      dup2\n      sload\n      dup2\n      mstore\n      swap1\n      0x01\n      add\n      swap1\n      0x20\n      add\n      dup1\n      dup4\n      gt\n      tag_37\n      jumpi\n      dup3\n      swap1\n      sub\n      0x1f\n      and\n      dup3\n      add\n      swap2\n    tag_35:\n      pop\n      pop\n      pop\n      pop\n      pop\n      dup2\n      jump\t// out\n        /* \"submissions/CCan_08/Day3.sol\":303:399  function getCandidateNames() public view returns (string[] memory){... */\n    tag_15:\n        /* \"submissions/CCan_08/Day3.sol\":353:368  string[] memory */\n      0x60\n        /* \"submissions/CCan_08/Day3.sol\":382:396  CandidateNames */\n      0x00\n        /* \"submissions/CCan_08/Day3.sol\":375:396  return CandidateNames */\n      dup1\n      sload\n      dup1\n      0x20\n      mul\n      0x20\n      add\n      mload(0x40)\n      swap1\n      dup2\n      add\n      0x40\n      mstore\n      dup1\n      swap3\n      swap2\n      swap1\n      dup2\n      dup2\n      mstore\n      0x20\n      add\n      0x00\n      swap1\n    tag_39:\n      dup3\n      dup3\n      lt\n      iszero\n      tag_40\n      jumpi\n      dup4\n      dup3\n      swap1\n      0x00\n      mstore\n      keccak256(0x00, 0x20)\n      add\n      dup1\n      sload\n      tag_42\n      swap1\n      tag_33\n      jump\t// in\n    tag_42:\n      dup1\n      0x1f\n      add\n      0x20\n      dup1\n      swap2\n      div\n      mul\n      0x20\n      add\n      mload(0x40)\n      swap1\n      dup2\n      add\n      0x40\n      mstore\n      dup1\n      swap3\n      swap2\n      swap1\n      dup2\n      dup2\n      mstore\n      0x20\n      add\n      dup3\n      dup1\n      sload\n      tag_43\n      swap1\n      tag_33\n      jump\t// in\n    tag_43:\n      dup1\n      iszero\n      tag_44\n      jumpi\n      dup1\n      0x1f\n      lt\n      tag_45\n      jumpi\n      0x0100\n      dup1\n      dup4\n      sload\n      div\n      mul\n      dup4\n      mstore\n      swap2\n      0x20\n      add\n      swap2\n      jump(tag_44)\n    tag_45:\n      dup3\n      add\n      swap2\n      swap1\n      0x00\n      mstore\n      keccak256(0x00, 0x20)\n      swap1\n    tag_46:\n      dup2\n      sload\n      dup2\n      mstore\n      swap1\n      0x01\n      add\n      swap1\n      0x20\n      add\n      dup1\n      dup4\n      gt\n      tag_46\n      jumpi\n      dup3\n      swap1\n      sub\n      0x1f\n      and\n      dup3\n      add\n      swap2\n    tag_44:\n      pop\n      pop\n      pop\n      pop\n      pop\n      dup2\n      mstore\n      0x20\n      add\n      swap1\n      0x01\n      add\n      swap1\n      jump(tag_39)\n    tag_40:\n      pop\n      pop\n      pop\n      pop\n      swap1\n      pop\n        /* \"submissions/CCan_08/Day3.sol\":303:399  function getCandidateNames() public view returns (string[] memory){... */\n      swap1\n      jump\t// out\n        /* \"submissions/CCan_08/Day3.sol\":158:302  function addCandidateNames(string memory _CandidateNames) public {... */\n    tag_21:\n        /* \"submissions/CCan_08/Day3.sol\":229:243  CandidateNames */\n      0x00\n        /* \"submissions/CCan_08/Day3.sol\":249:264  _CandidateNames */\n      dup2\n        /* \"submissions/CCan_08/Day3.sol\":229:265  CandidateNames.push(_CandidateNames) */\n      swap1\n      dup1\n      0x01\n      dup2\n      sload\n      add\n      dup1\n      dup3\n      sstore\n      dup1\n      swap2\n      pop\n      pop\n      0x01\n      swap1\n      sub\n      swap1\n      0x00\n      mstore\n      keccak256(0x00, 0x20)\n      add\n      0x00\n      swap1\n      swap2\n      swap1\n      swap2\n      swap1\n      swap2\n      pop\n      swap1\n      dup2\n      tag_49\n      swap2\n      swap1\n      tag_50\n      jump\t// in\n    tag_49:\n      pop\n        /* \"submissions/CCan_08/Day3.sol\":298:299  0 */\n      0x00\n        /* \"submissions/CCan_08/Day3.sol\":271:280  voteCount */\n      0x01\n        /* \"submissions/CCan_08/Day3.sol\":281:296  _CandidateNames */\n      dup3\n        /* \"submissions/CCan_08/Day3.sol\":271:297  voteCount[_CandidateNames] */\n      mload(0x40)\n      tag_51\n      swap2\n      swap1\n      tag_52\n      jump\t// in\n    tag_51:\n      swap1\n      dup2\n      mstore\n      0x20\n      add\n      mload(0x40)\n      dup1\n      swap2\n      sub\n      swap1\n      keccak256\n        /* \"submissions/CCan_08/Day3.sol\":271:299  voteCount[_CandidateNames]=0 */\n      dup2\n      swap1\n      sstore\n      pop\n        /* \"submissions/CCan_08/Day3.sol\":158:302  function addCandidateNames(string memory _CandidateNames) public {... */\n      pop\n      jump\t// out\n        /* \"submissions/CCan_08/Day3.sol\":493:613  function getVote(string memory _CandidateNames) public  view returns (uint256){... */\n    tag_24:\n        /* \"submissions/CCan_08/Day3.sol\":563:570  uint256 */\n      0x00\n        /* \"submissions/CCan_08/Day3.sol\":584:593  voteCount */\n      0x01\n        /* \"submissions/CCan_08/Day3.sol\":594:609  _CandidateNames */\n      dup3\n        /* \"submissions/CCan_08/Day3.sol\":584:610  voteCount[_CandidateNames] */\n      mload(0x40)\n      tag_54\n      swap2\n      swap1\n      tag_52\n      jump\t// in\n    tag_54:\n      swap1\n      dup2\n      mstore\n      0x20\n      add\n      mload(0x40)\n      dup1\n      swap2\n      sub\n      swap1\n      keccak256\n      sload\n        /* \"submissions/CCan_08/Day3.sol\":577:610  return voteCount[_CandidateNames] */\n      swap1\n      pop\n        /* \"submissions/CCan_08/Day3.sol\":493:613  function getVote(string memory _CandidateNames) public  view returns (uint256){... */\n      swap2\n      swap1\n      pop\n      jump\t// out\n        /* \"submissions/CCan_08/Day3.sol\":400:492  function vote(string memory _CandidateNames) public {... */\n    tag_29:\n        /* \"submissions/CCan_08/Day3.sol\":488:489  1 */\n      0x01\n        /* \"submissions/CCan_08/Day3.sol\":458:467  voteCount */\n      dup1\n        /* \"submissions/CCan_08/Day3.sol\":468:483  _CandidateNames */\n      dup3\n        /* \"submissions/CCan_08/Day3.sol\":458:484  voteCount[_CandidateNames] */\n      mload(0x40)\n      tag_56\n      swap2\n      swap1\n      tag_52\n      jump\t// in\n    tag_56:\n      swap1\n      dup2\n      mstore\n      0x20\n      add\n      mload(0x40)\n      dup1\n      swap2\n      sub\n      swap1\n      keccak256\n      0x00\n        /* \"submissions/CCan_08/Day3.sol\":458:489  voteCount[_CandidateNames] += 1 */\n      dup3\n      dup3\n      sload\n      tag_57\n      swap2\n      swap1\n      tag_58\n      jump\t// in\n    tag_57:\n      swap3\n      pop\n      pop\n      dup2\n      swap1\n      sstore\n      pop\n        /* \"submissions/CCan_08/Day3.sol\":400:492  function vote(string memory _CandidateNames) public {... */\n      pop\n      jump\t// out\n        /* \"#utility.yul\":7:82   */\n    tag_59:\n        /* \"#utility.yul\":40:46   */\n      0x00\n        /* \"#utility.yul\":73:75   */\n      0x40\n        /* \"#utility.yul\":67:76   */\n      mload\n        /* \"#utility.yul\":57:76   */\n      swap1\n      pop\n        /* \"#utility.yul\":7:82   */\n      swap1\n      jump\t// out\n        /* \"#utility.yul\":88:205   */\n    tag_60:\n        /* \"#utility.yul\":197:198   */\n      0x00\n        /* \"#utility.yul\":194:195   */\n      0x00\n        /* \"#utility.yul\":187:199   */\n      revert\n        /* \"#utility.yul\":211:328   */\n    tag_61:\n        /* \"#utility.yul\":320:321   */\n      0x00\n        /* \"#utility.yul\":317:318   */\n      0x00\n        /* \"#utility.yul\":310:322   */\n      revert\n        /* \"#utility.yul\":334:411   */\n    tag_62:\n        /* \"#utility.yul\":371:378   */\n      0x00\n        /* \"#utility.yul\":400:405   */\n      dup2\n        /* \"#utility.yul\":389:405   */\n      swap1\n      pop\n        /* \"#utility.yul\":334:411   */\n      swap2\n      swap1\n      pop\n      jump\t// out\n        /* \"#utility.yul\":417:539   */\n    tag_63:\n        /* \"#utility.yul\":490:514   */\n      tag_113\n        /* \"#utility.yul\":508:513   */\n      dup2\n        /* \"#utility.yul\":490:514   */\n      tag_62\n      jump\t// in\n    tag_113:\n        /* \"#utility.yul\":483:488   */\n      dup2\n        /* \"#utility.yul\":480:515   */\n      eq\n        /* \"#utility.yul\":470:533   */\n      tag_114\n      jumpi\n        /* \"#utility.yul\":529:530   */\n      0x00\n        /* \"#utility.yul\":526:527   */\n      0x00\n        /* \"#utility.yul\":519:531   */\n      revert\n        /* \"#utility.yul\":470:533   */\n    tag_114:\n        /* \"#utility.yul\":417:539   */\n      pop\n      jump\t// out\n        /* \"#utility.yul\":545:684   */\n    tag_64:\n        /* \"#utility.yul\":591:596   */\n      0x00\n        /* \"#utility.yul\":629:635   */\n      dup2\n        /* \"#utility.yul\":616:636   */\n      calldataload\n        /* \"#utility.yul\":607:636   */\n      swap1\n      pop\n        /* \"#utility.yul\":645:678   */\n      tag_116\n        /* \"#utility.yul\":672:677   */\n      dup2\n        /* \"#utility.yul\":645:678   */\n      tag_63\n      jump\t// in\n    tag_116:\n        /* \"#utility.yul\":545:684   */\n      swap3\n      swap2\n      pop\n      pop\n      jump\t// out\n        /* \"#utility.yul\":690:1019   */\n    tag_10:\n        /* \"#utility.yul\":749:755   */\n      0x00\n        /* \"#utility.yul\":798:800   */\n      0x20\n        /* \"#utility.yul\":786:795   */\n      dup3\n        /* \"#utility.yul\":777:784   */\n      dup5\n        /* \"#utility.yul\":773:796   */\n      sub\n        /* \"#utility.yul\":769:801   */\n      slt\n        /* \"#utility.yul\":766:885   */\n      iszero\n      tag_118\n      jumpi\n        /* \"#utility.yul\":804:883   */\n      tag_119\n      tag_60\n      jump\t// in\n    tag_119:\n        /* \"#utility.yul\":766:885   */\n    tag_118:\n        /* \"#utility.yul\":924:925   */\n      0x00\n        /* \"#utility.yul\":949:1002   */\n      tag_120\n        /* \"#utility.yul\":994:1001   */\n      dup5\n        /* \"#utility.yul\":985:991   */\n      dup3\n        /* \"#utility.yul\":974:983   */\n      dup6\n        /* \"#utility.yul\":970:992   */\n      add\n        /* \"#utility.yul\":949:1002   */\n      tag_64\n      jump\t// in\n    tag_120:\n        /* \"#utility.yul\":939:1002   */\n      swap2\n      pop\n        /* \"#utility.yul\":895:1012   */\n      pop\n        /* \"#utility.yul\":690:1019   */\n      swap3\n      swap2\n      pop\n      pop\n      jump\t// out\n        /* \"#utility.yul\":1025:1124   */\n    tag_65:\n        /* \"#utility.yul\":1077:1083   */\n      0x00\n        /* \"#utility.yul\":1111:1116   */\n      dup2\n        /* \"#utility.yul\":1105:1117   */\n      mload\n        /* \"#utility.yul\":1095:1117   */\n      swap1\n      pop\n        /* \"#utility.yul\":1025:1124   */\n      swap2\n      swap1\n      pop\n      jump\t// out\n        /* \"#utility.yul\":1130:1299   */\n    tag_66:\n        /* \"#utility.yul\":1214:1225   */\n      0x00\n        /* \"#utility.yul\":1248:1254   */\n      dup3\n        /* \"#utility.yul\":1243:1246   */\n      dup3\n        /* \"#utility.yul\":1236:1255   */\n      mstore\n        /* \"#utility.yul\":1288:1292   */\n      0x20\n        /* \"#utility.yul\":1283:1286   */\n      dup3\n        /* \"#utility.yul\":1279:1293   */\n      add\n        /* \"#utility.yul\":1264:1293   */\n      swap1\n      pop\n        /* \"#utility.yul\":1130:1299   */\n      swap3\n      swap2\n      pop\n      pop\n      jump\t// out\n        /* \"#utility.yul\":1305:1444   */\n    tag_67:\n        /* \"#utility.yul\":1394:1400   */\n      dup3\n        /* \"#utility.yul\":1389:1392   */\n      dup2\n        /* \"#utility.yul\":1384:1387   */\n      dup4\n        /* \"#utility.yul\":1378:1401   */\n      mcopy\n        /* \"#utility.yul\":1435:1436   */\n      0x00\n        /* \"#utility.yul\":1426:1432   */\n      dup4\n        /* \"#utility.yul\":1421:1424   */\n      dup4\n        /* \"#utility.yul\":1417:1433   */\n      add\n        /* \"#utility.yul\":1410:1437   */\n      mstore\n        /* \"#utility.yul\":1305:1444   */\n      pop\n      pop\n      pop\n      jump\t// out\n        /* \"#utility.yul\":1450:1552   */\n    tag_68:\n        /* \"#utility.yul\":1491:1497   */\n      0x00\n        /* \"#utility.yul\":1542:1544   */\n      0x1f\n        /* \"#utility.yul\":1538:1545   */\n      not\n        /* \"#utility.yul\":1533:1535   */\n      0x1f\n        /* \"#utility.yul\":1526:1531   */\n      dup4\n        /* \"#utility.yul\":1522:1536   */\n      add\n        /* \"#utility.yul\":1518:1546   */\n      and\n        /* \"#utility.yul\":1508:1546   */\n      swap1\n      pop\n        /* \"#utility.yul\":1450:1552   */\n      swap2\n      swap1\n      pop\n      jump\t// out\n        /* \"#utility.yul\":1558:1935   */\n    tag_69:\n        /* \"#utility.yul\":1646:1649   */\n      0x00\n        /* \"#utility.yul\":1674:1713   */\n      tag_126\n        /* \"#utility.yul\":1707:1712   */\n      dup3\n        /* \"#utility.yul\":1674:1713   */\n      tag_65\n      jump\t// in\n    tag_126:\n        /* \"#utility.yul\":1729:1800   */\n      tag_127\n        /* \"#utility.yul\":1793:1799   */\n      dup2\n        /* \"#utility.yul\":1788:1791   */\n      dup6\n        /* \"#utility.yul\":1729:1800   */\n      tag_66\n      jump\t// in\n    tag_127:\n        /* \"#utility.yul\":1722:1800   */\n      swap4\n      pop\n        /* \"#utility.yul\":1809:1874   */\n      tag_128\n        /* \"#utility.yul\":1867:1873   */\n      dup2\n        /* \"#utility.yul\":1862:1865   */\n      dup6\n        /* \"#utility.yul\":1855:1859   */\n      0x20\n        /* \"#utility.yul\":1848:1853   */\n      dup7\n        /* \"#utility.yul\":1844:1860   */\n      add\n        /* \"#utility.yul\":1809:1874   */\n      tag_67\n      jump\t// in\n    tag_128:\n        /* \"#utility.yul\":1899:1928   */\n      tag_129\n        /* \"#utility.yul\":1921:1927   */\n      dup2\n        /* \"#utility.yul\":1899:1928   */\n      tag_68\n      jump\t// in\n    tag_129:\n        /* \"#utility.yul\":1894:1897   */\n      dup5\n        /* \"#utility.yul\":1890:1929   */\n      add\n        /* \"#utility.yul\":1883:1929   */\n      swap2\n      pop\n        /* \"#utility.yul\":1650:1935   */\n      pop\n        /* \"#utility.yul\":1558:1935   */\n      swap3\n      swap2\n      pop\n      pop\n      jump\t// out\n        /* \"#utility.yul\":1941:2254   */\n    tag_13:\n        /* \"#utility.yul\":2054:2058   */\n      0x00\n        /* \"#utility.yul\":2092:2094   */\n      0x20\n        /* \"#utility.yul\":2081:2090   */\n      dup3\n        /* \"#utility.yul\":2077:2095   */\n      add\n        /* \"#utility.yul\":2069:2095   */\n      swap1\n      pop\n        /* \"#utility.yul\":2141:2150   */\n      dup2\n        /* \"#utility.yul\":2135:2139   */\n      dup2\n        /* \"#utility.yul\":2131:2151   */\n      sub\n        /* \"#utility.yul\":2127:2128   */\n      0x00\n        /* \"#utility.yul\":2116:2125   */\n      dup4\n        /* \"#utility.yul\":2112:2129   */\n      add\n        /* \"#utility.yul\":2105:2152   */\n      mstore\n        /* \"#utility.yul\":2169:2247   */\n      tag_131\n        /* \"#utility.yul\":2242:2246   */\n      dup2\n        /* \"#utility.yul\":2233:2239   */\n      dup5\n        /* \"#utility.yul\":2169:2247   */\n      tag_69\n      jump\t// in\n    tag_131:\n        /* \"#utility.yul\":2161:2247   */\n      swap1\n      pop\n        /* \"#utility.yul\":1941:2254   */\n      swap3\n      swap2\n      pop\n      pop\n      jump\t// out\n        /* \"#utility.yul\":2260:2384   */\n    tag_70:\n        /* \"#utility.yul\":2337:2343   */\n      0x00\n        /* \"#utility.yul\":2371:2376   */\n      dup2\n        /* \"#utility.yul\":2365:2377   */\n      mload\n        /* \"#utility.yul\":2355:2377   */\n      swap1\n      pop\n        /* \"#utility.yul\":2260:2384   */\n      swap2\n      swap1\n      pop\n      jump\t// out\n        /* \"#utility.yul\":2390:2584   */\n    tag_71:\n        /* \"#utility.yul\":2499:2510   */\n      0x00\n        /* \"#utility.yul\":2533:2539   */\n      dup3\n        /* \"#utility.yul\":2528:2531   */\n      dup3\n        /* \"#utility.yul\":2521:2540   */\n      mstore\n        /* \"#utility.yul\":2573:2577   */\n      0x20\n        /* \"#utility.yul\":2568:2571   */\n      dup3\n        /* \"#utility.yul\":2564:2578   */\n      add\n        /* \"#utility.yul\":2549:2578   */\n      swap1\n      pop\n        /* \"#utility.yul\":2390:2584   */\n      swap3\n      swap2\n      pop\n      pop\n      jump\t// out\n        /* \"#utility.yul\":2590:2732   */\n    tag_72:\n        /* \"#utility.yul\":2667:2671   */\n      0x00\n        /* \"#utility.yul\":2690:2693   */\n      dup2\n        /* \"#utility.yul\":2682:2693   */\n      swap1\n      pop\n        /* \"#utility.yul\":2720:2724   */\n      0x20\n        /* \"#utility.yul\":2715:2718   */\n      dup3\n        /* \"#utility.yul\":2711:2725   */\n      add\n        /* \"#utility.yul\":2703:2725   */\n      swap1\n      pop\n        /* \"#utility.yul\":2590:2732   */\n      swap2\n      swap1\n      pop\n      jump\t// out\n        /* \"#utility.yul\":2738:2897   */\n    tag_73:\n        /* \"#utility.yul\":2812:2823   */\n      0x00\n        /* \"#utility.yul\":2846:2852   */\n      dup3\n        /* \"#utility.yul\":2841:2844   */\n      dup3\n        /* \"#utility.yul\":2834:2853   */\n      mstore\n        /* \"#utility.yul\":2886:2890   */\n      0x20\n        /* \"#utility.yul\":2881:2884   */\n      dup3\n        /* \"#utility.yul\":2877:2891   */\n      add\n        /* \"#utility.yul\":2862:2891   */\n      swap1\n      pop\n        /* \"#utility.yul\":2738:2897   */\n      swap3\n      swap2\n      pop\n      pop\n      jump\t// out\n        /* \"#utility.yul\":2903:3260   */\n    tag_74:\n        /* \"#utility.yul\":2981:2984   */\n      0x00\n        /* \"#utility.yul\":3009:3048   */\n      tag_137\n        /* \"#utility.yul\":3042:3047   */\n      dup3\n        /* \"#utility.yul\":3009:3048   */\n      tag_65\n      jump\t// in\n    tag_137:\n        /* \"#utility.yul\":3064:3125   */\n      tag_138\n        /* \"#utility.yul\":3118:3124   */\n      dup2\n        /* \"#utility.yul\":3113:3116   */\n      dup6\n        /* \"#utility.yul\":3064:3125   */\n      tag_73\n      jump\t// in\n    tag_138:\n        /* \"#utility.yul\":3057:3125   */\n      swap4\n      pop\n        /* \"#utility.yul\":3134:3199   */\n      tag_139\n        /* \"#utility.yul\":3192:3198   */\n      dup2\n        /* \"#utility.yul\":3187:3190   */\n      dup6\n        /* \"#utility.yul\":3180:3184   */\n      0x20\n        /* \"#utility.yul\":3173:3178   */\n      dup7\n        /* \"#utility.yul\":3169:3185   */\n      add\n        /* \"#utility.yul\":3134:3199   */\n      tag_67\n      jump\t// in\n    tag_139:\n        /* \"#utility.yul\":3224:3253   */\n      tag_140\n        /* \"#utility.yul\":3246:3252   */\n      dup2\n        /* \"#utility.yul\":3224:3253   */\n      tag_68\n      jump\t// in\n    tag_140:\n        /* \"#utility.yul\":3219:3222   */\n      dup5\n        /* \"#utility.yul\":3215:3254   */\n      add\n        /* \"#utility.yul\":3208:3254   */\n      swap2\n      pop\n        /* \"#utility.yul\":2985:3260   */\n      pop\n        /* \"#utility.yul\":2903:3260   */\n      swap3\n      swap2\n      pop\n      pop\n      jump\t// out\n        /* \"#utility.yul\":3266:3462   */\n    tag_75:\n        /* \"#utility.yul\":3355:3365   */\n      0x00\n        /* \"#utility.yul\":3390:3456   */\n      tag_142\n        /* \"#utility.yul\":3452:3455   */\n      dup4\n        /* \"#utility.yul\":3444:3450   */\n      dup4\n        /* \"#utility.yul\":3390:3456   */\n      tag_74\n      jump\t// in\n    tag_142:\n        /* \"#utility.yul\":3376:3456   */\n      swap1\n      pop\n        /* \"#utility.yul\":3266:3462   */\n      swap3\n      swap2\n      pop\n      pop\n      jump\t// out\n        /* \"#utility.yul\":3468:3591   */\n    tag_76:\n        /* \"#utility.yul\":3548:3552   */\n      0x00\n        /* \"#utility.yul\":3580:3584   */\n      0x20\n        /* \"#utility.yul\":3575:3578   */\n      dup3\n        /* \"#utility.yul\":3571:3585   */\n      add\n        /* \"#utility.yul\":3563:3585   */\n      swap1\n      pop\n        /* \"#utility.yul\":3468:3591   */\n      swap2\n      swap1\n      pop\n      jump\t// out\n        /* \"#utility.yul\":3625:4616   */\n    tag_77:\n        /* \"#utility.yul\":3764:3767   */\n      0x00\n        /* \"#utility.yul\":3793:3857   */\n      tag_145\n        /* \"#utility.yul\":3851:3856   */\n      dup3\n        /* \"#utility.yul\":3793:3857   */\n      tag_70\n      jump\t// in\n    tag_145:\n        /* \"#utility.yul\":3873:3969   */\n      tag_146\n        /* \"#utility.yul\":3962:3968   */\n      dup2\n        /* \"#utility.yul\":3957:3960   */\n      dup6\n        /* \"#utility.yul\":3873:3969   */\n      tag_71\n      jump\t// in\n    tag_146:\n        /* \"#utility.yul\":3866:3969   */\n      swap4\n      pop\n        /* \"#utility.yul\":3995:3998   */\n      dup4\n        /* \"#utility.yul\":4040:4044   */\n      0x20\n        /* \"#utility.yul\":4032:4038   */\n      dup3\n        /* \"#utility.yul\":4028:4045   */\n      mul\n        /* \"#utility.yul\":4023:4026   */\n      dup6\n        /* \"#utility.yul\":4019:4046   */\n      add\n        /* \"#utility.yul\":4070:4136   */\n      tag_147\n        /* \"#utility.yul\":4130:4135   */\n      dup6\n        /* \"#utility.yul\":4070:4136   */\n      tag_72\n      jump\t// in\n    tag_147:\n        /* \"#utility.yul\":4159:4166   */\n      dup1\n        /* \"#utility.yul\":4190:4191   */\n      0x00\n        /* \"#utility.yul\":4175:4571   */\n    tag_148:\n        /* \"#utility.yul\":4200:4206   */\n      dup6\n        /* \"#utility.yul\":4197:4198   */\n      dup2\n        /* \"#utility.yul\":4194:4207   */\n      lt\n        /* \"#utility.yul\":4175:4571   */\n      iszero\n      tag_150\n      jumpi\n        /* \"#utility.yul\":4271:4280   */\n      dup5\n        /* \"#utility.yul\":4265:4269   */\n      dup5\n        /* \"#utility.yul\":4261:4281   */\n      sub\n        /* \"#utility.yul\":4256:4259   */\n      dup10\n        /* \"#utility.yul\":4249:4282   */\n      mstore\n        /* \"#utility.yul\":4322:4328   */\n      dup2\n        /* \"#utility.yul\":4316:4329   */\n      mload\n        /* \"#utility.yul\":4350:4434   */\n      tag_151\n        /* \"#utility.yul\":4429:4433   */\n      dup6\n        /* \"#utility.yul\":4414:4427   */\n      dup3\n        /* \"#utility.yul\":4350:4434   */\n      tag_75\n      jump\t// in\n    tag_151:\n        /* \"#utility.yul\":4342:4434   */\n      swap5\n      pop\n        /* \"#utility.yul\":4457:4527   */\n      tag_152\n        /* \"#utility.yul\":4520:4526   */\n      dup4\n        /* \"#utility.yul\":4457:4527   */\n      tag_76\n      jump\t// in\n    tag_152:\n        /* \"#utility.yul\":4447:4527   */\n      swap3\n      pop\n        /* \"#utility.yul\":4556:4560   */\n      0x20\n        /* \"#utility.yul\":4551:4554   */\n      dup11\n        /* \"#utility.yul\":4547:4561   */\n      add\n        /* \"#utility.yul\":4540:4561   */\n      swap10\n      pop\n        /* \"#utility.yul\":4235:4571   */\n      pop\n        /* \"#utility.yul\":4222:4223   */\n      0x01\n        /* \"#utility.yul\":4219:4220   */\n      dup2\n        /* \"#utility.yul\":4215:4224   */\n      add\n        /* \"#utility.yul\":4210:4224   */\n      swap1\n      pop\n        /* \"#utility.yul\":4175:4571   */\n      jump(tag_148)\n    tag_150:\n        /* \"#utility.yul\":4179:4193   */\n      pop\n        /* \"#utility.yul\":4587:4591   */\n      dup3\n        /* \"#utility.yul\":4580:4591   */\n      swap8\n      pop\n        /* \"#utility.yul\":4607:4610   */\n      dup8\n        /* \"#utility.yul\":4600:4610   */\n      swap6\n      pop\n        /* \"#utility.yul\":3769:4616   */\n      pop\n      pop\n      pop\n      pop\n      pop\n        /* \"#utility.yul\":3625:4616   */\n      swap3\n      swap2\n      pop\n      pop\n      jump\t// out\n        /* \"#utility.yul\":4622:5035   */\n    tag_17:\n        /* \"#utility.yul\":4785:4789   */\n      0x00\n        /* \"#utility.yul\":4823:4825   */\n      0x20\n        /* \"#utility.yul\":4812:4821   */\n      dup3\n        /* \"#utility.yul\":4808:4826   */\n      add\n        /* \"#utility.yul\":4800:4826   */\n      swap1\n      pop\n        /* \"#utility.yul\":4872:4881   */\n      dup2\n        /* \"#utility.yul\":4866:4870   */\n      dup2\n        /* \"#utility.yul\":4862:4882   */\n      sub\n        /* \"#utility.yul\":4858:4859   */\n      0x00\n        /* \"#utility.yul\":4847:4856   */\n      dup4\n        /* \"#utility.yul\":4843:4860   */\n      add\n        /* \"#utility.yul\":4836:4883   */\n      mstore\n        /* \"#utility.yul\":4900:5028   */\n      tag_154\n        /* \"#utility.yul\":5023:5027   */\n      dup2\n        /* \"#utility.yul\":5014:5020   */\n      dup5\n        /* \"#utility.yul\":4900:5028   */\n      tag_77\n      jump\t// in\n    tag_154:\n        /* \"#utility.yul\":4892:5028   */\n      swap1\n      pop\n        /* \"#utility.yul\":4622:5035   */\n      swap3\n      swap2\n      pop\n      pop\n      jump\t// out\n        /* \"#utility.yul\":5041:5158   */\n    tag_78:\n        /* \"#utility.yul\":5150:5151   */\n      0x00\n        /* \"#utility.yul\":5147:5148   */\n      0x00\n        /* \"#utility.yul\":5140:5152   */\n      revert\n        /* \"#utility.yul\":5164:5281   */\n    tag_79:\n        /* \"#utility.yul\":5273:5274   */\n      0x00\n        /* \"#utility.yul\":5270:5271   */\n      0x00\n        /* \"#utility.yul\":5263:5275   */\n      revert\n        /* \"#utility.yul\":5287:5467   */\n    tag_80:\n        /* \"#utility.yul\":5335:5412   */\n      0x4e487b7100000000000000000000000000000000000000000000000000000000\n        /* \"#utility.yul\":5332:5333   */\n      0x00\n        /* \"#utility.yul\":5325:5413   */\n      mstore\n        /* \"#utility.yul\":5432:5436   */\n      0x41\n        /* \"#utility.yul\":5429:5430   */\n      0x04\n        /* \"#utility.yul\":5422:5437   */\n      mstore\n        /* \"#utility.yul\":5456:5460   */\n      0x24\n        /* \"#utility.yul\":5453:5454   */\n      0x00\n        /* \"#utility.yul\":5446:5461   */\n      revert\n        /* \"#utility.yul\":5473:5754   */\n    tag_81:\n        /* \"#utility.yul\":5556:5583   */\n      tag_159\n        /* \"#utility.yul\":5578:5582   */\n      dup3\n        /* \"#utility.yul\":5556:5583   */\n      tag_68\n      jump\t// in\n    tag_159:\n        /* \"#utility.yul\":5548:5554   */\n      dup2\n        /* \"#utility.yul\":5544:5584   */\n      add\n        /* \"#utility.yul\":5686:5692   */\n      dup2\n        /* \"#utility.yul\":5674:5684   */\n      dup2\n        /* \"#utility.yul\":5671:5693   */\n      lt\n        /* \"#utility.yul\":5650:5668   */\n      0xffffffffffffffff\n        /* \"#utility.yul\":5638:5648   */\n      dup3\n        /* \"#utility.yul\":5635:5669   */\n      gt\n        /* \"#utility.yul\":5632:5694   */\n      or\n        /* \"#utility.yul\":5629:5717   */\n      iszero\n      tag_160\n      jumpi\n        /* \"#utility.yul\":5697:5715   */\n      tag_161\n      tag_80\n      jump\t// in\n    tag_161:\n        /* \"#utility.yul\":5629:5717   */\n    tag_160:\n        /* \"#utility.yul\":5737:5747   */\n      dup1\n        /* \"#utility.yul\":5733:5735   */\n      0x40\n        /* \"#utility.yul\":5726:5748   */\n      mstore\n        /* \"#utility.yul\":5516:5754   */\n      pop\n        /* \"#utility.yul\":5473:5754   */\n      pop\n      pop\n      jump\t// out\n        /* \"#utility.yul\":5760:5889   */\n    tag_82:\n        /* \"#utility.yul\":5794:5800   */\n      0x00\n        /* \"#utility.yul\":5821:5841   */\n      tag_163\n      tag_59\n      jump\t// in\n    tag_163:\n        /* \"#utility.yul\":5811:5841   */\n      swap1\n      pop\n        /* \"#utility.yul\":5850:5883   */\n      tag_164\n        /* \"#utility.yul\":5878:5882   */\n      dup3\n        /* \"#utility.yul\":5870:5876   */\n      dup3\n        /* \"#utility.yul\":5850:5883   */\n      tag_81\n      jump\t// in\n    tag_164:\n        /* \"#utility.yul\":5760:5889   */\n      swap2\n      swap1\n      pop\n      jump\t// out\n        /* \"#utility.yul\":5895:6203   */\n    tag_83:\n        /* \"#utility.yul\":5957:5961   */\n      0x00\n        /* \"#utility.yul\":6047:6065   */\n      0xffffffffffffffff\n        /* \"#utility.yul\":6039:6045   */\n      dup3\n        /* \"#utility.yul\":6036:6066   */\n      gt\n        /* \"#utility.yul\":6033:6089   */\n      iszero\n      tag_166\n      jumpi\n        /* \"#utility.yul\":6069:6087   */\n      tag_167\n      tag_80\n      jump\t// in\n    tag_167:\n        /* \"#utility.yul\":6033:6089   */\n    tag_166:\n        /* \"#utility.yul\":6107:6136   */\n      tag_168\n        /* \"#utility.yul\":6129:6135   */\n      dup3\n        /* \"#utility.yul\":6107:6136   */\n      tag_68\n      jump\t// in\n    tag_168:\n        /* \"#utility.yul\":6099:6136   */\n      swap1\n      pop\n        /* \"#utility.yul\":6191:6195   */\n      0x20\n        /* \"#utility.yul\":6185:6189   */\n      dup2\n        /* \"#utility.yul\":6181:6196   */\n      add\n        /* \"#utility.yul\":6173:6196   */\n      swap1\n      pop\n        /* \"#utility.yul\":5895:6203   */\n      swap2\n      swap1\n      pop\n      jump\t// out\n        /* \"#utility.yul\":6209:6357   */\n    tag_84:\n        /* \"#utility.yul\":6307:6313   */\n      dup3\n        /* \"#utility.yul\":6302:6305   */\n      dup2\n        /* \"#utility.yul\":6297:6300   */\n      dup4\n        /* \"#utility.yul\":6284:6314   */\n      calldatacopy\n        /* \"#utility.yul\":6348:6349   */\n      0x00\n        /* \"#utility.yul\":6339:6345   */\n      dup4\n        /* \"#utility.yul\":6334:6337   */\n      dup4\n        /* \"#utility.yul\":6330:6346   */\n      add\n        /* \"#utility.yul\":6323:6350   */\n      mstore\n        /* \"#utility.yul\":6209:6357   */\n      pop\n      pop\n      pop\n      jump\t// out\n        /* \"#utility.yul\":6363:6788   */\n    tag_85:\n        /* \"#utility.yul\":6441:6446   */\n      0x00\n        /* \"#utility.yul\":6466:6532   */\n      tag_171\n        /* \"#utility.yul\":6482:6531   */\n      tag_172\n        /* \"#utility.yul\":6524:6530   */\n      dup5\n        /* \"#utility.yul\":6482:6531   */\n      tag_83\n      jump\t// in\n    tag_172:\n        /* \"#utility.yul\":6466:6532   */\n      tag_82\n      jump\t// in\n    tag_171:\n        /* \"#utility.yul\":6457:6532   */\n      swap1\n      pop\n        /* \"#utility.yul\":6555:6561   */\n      dup3\n        /* \"#utility.yul\":6548:6553   */\n      dup2\n        /* \"#utility.yul\":6541:6562   */\n      mstore\n        /* \"#utility.yul\":6593:6597   */\n      0x20\n        /* \"#utility.yul\":6586:6591   */\n      dup2\n        /* \"#utility.yul\":6582:6598   */\n      add\n        /* \"#utility.yul\":6631:6634   */\n      dup5\n        /* \"#utility.yul\":6622:6628   */\n      dup5\n        /* \"#utility.yul\":6617:6620   */\n      dup5\n        /* \"#utility.yul\":6613:6629   */\n      add\n        /* \"#utility.yul\":6610:6635   */\n      gt\n        /* \"#utility.yul\":6607:6719   */\n      iszero\n      tag_173\n      jumpi\n        /* \"#utility.yul\":6638:6717   */\n      tag_174\n      tag_79\n      jump\t// in\n    tag_174:\n        /* \"#utility.yul\":6607:6719   */\n    tag_173:\n        /* \"#utility.yul\":6728:6782   */\n      tag_175\n        /* \"#utility.yul\":6775:6781   */\n      dup5\n        /* \"#utility.yul\":6770:6773   */\n      dup3\n        /* \"#utility.yul\":6765:6768   */\n      dup6\n        /* \"#utility.yul\":6728:6782   */\n      tag_84\n      jump\t// in\n    tag_175:\n        /* \"#utility.yul\":6447:6788   */\n      pop\n        /* \"#utility.yul\":6363:6788   */\n      swap4\n      swap3\n      pop\n      pop\n      pop\n      jump\t// out\n        /* \"#utility.yul\":6808:7148   */\n    tag_86:\n        /* \"#utility.yul\":6864:6869   */\n      0x00\n        /* \"#utility.yul\":6913:6916   */\n      dup3\n        /* \"#utility.yul\":6906:6910   */\n      0x1f\n        /* \"#utility.yul\":6898:6904   */\n      dup4\n        /* \"#utility.yul\":6894:6911   */\n      add\n        /* \"#utility.yul\":6890:6917   */\n      slt\n        /* \"#utility.yul\":6880:7002   */\n      tag_177\n      jumpi\n        /* \"#utility.yul\":6921:7000   */\n      tag_178\n      tag_78\n      jump\t// in\n    tag_178:\n        /* \"#utility.yul\":6880:7002   */\n    tag_177:\n        /* \"#utility.yul\":7038:7044   */\n      dup2\n        /* \"#utility.yul\":7025:7045   */\n      calldataload\n        /* \"#utility.yul\":7063:7142   */\n      tag_179\n        /* \"#utility.yul\":7138:7141   */\n      dup5\n        /* \"#utility.yul\":7130:7136   */\n      dup3\n        /* \"#utility.yul\":7123:7127   */\n      0x20\n        /* \"#utility.yul\":7115:7121   */\n      dup7\n        /* \"#utility.yul\":7111:7128   */\n      add\n        /* \"#utility.yul\":7063:7142   */\n      tag_85\n      jump\t// in\n    tag_179:\n        /* \"#utility.yul\":7054:7142   */\n      swap2\n      pop\n        /* \"#utility.yul\":6870:7148   */\n      pop\n        /* \"#utility.yul\":6808:7148   */\n      swap3\n      swap2\n      pop\n      pop\n      jump\t// out\n        /* \"#utility.yul\":7154:7663   */\n    tag_20:\n        /* \"#utility.yul\":7223:7229   */\n      0x00\n        /* \"#utility.yul\":7272:7274   */\n      0x20\n        /* \"#utility.yul\":7260:7269   */\n      dup3\n        /* \"#utility.yul\":7251:7258   */\n      dup5\n        /* \"#utility.yul\":7247:7270   */\n      sub\n        /* \"#utility.yul\":7243:7275   */\n      slt\n        /* \"#utility.yul\":7240:7359   */\n      iszero\n      tag_181\n      jumpi\n        /* \"#utility.yul\":7278:7357   */\n      tag_182\n      tag_60\n      jump\t// in\n    tag_182:\n        /* \"#utility.yul\":7240:7359   */\n    tag_181:\n        /* \"#utility.yul\":7426:7427   */\n      0x00\n        /* \"#utility.yul\":7415:7424   */\n      dup3\n        /* \"#utility.yul\":7411:7428   */\n      add\n        /* \"#utility.yul\":7398:7429   */\n      calldataload\n        /* \"#utility.yul\":7456:7474   */\n      0xffffffffffffffff\n        /* \"#utility.yul\":7448:7454   */\n      dup2\n        /* \"#utility.yul\":7445:7475   */\n      gt\n        /* \"#utility.yul\":7442:7559   */\n      iszero\n      tag_183\n      jumpi\n        /* \"#utility.yul\":7478:7557   */\n      tag_184\n      tag_61\n      jump\t// in\n    tag_184:\n        /* \"#utility.yul\":7442:7559   */\n    tag_183:\n        /* \"#utility.yul\":7583:7646   */\n      tag_185\n        /* \"#utility.yul\":7638:7645   */\n      dup5\n        /* \"#utility.yul\":7629:7635   */\n      dup3\n        /* \"#utility.yul\":7618:7627   */\n      dup6\n        /* \"#utility.yul\":7614:7636   */\n      add\n        /* \"#utility.yul\":7583:7646   */\n      tag_86\n      jump\t// in\n    tag_185:\n        /* \"#utility.yul\":7573:7646   */\n      swap2\n      pop\n        /* \"#utility.yul\":7369:7656   */\n      pop\n        /* \"#utility.yul\":7154:7663   */\n      swap3\n      swap2\n      pop\n      pop\n      jump\t// out\n        /* \"#utility.yul\":7669:7787   */\n    tag_87:\n        /* \"#utility.yul\":7756:7780   */\n      tag_187\n        /* \"#utility.yul\":7774:7779   */\n      dup2\n        /* \"#utility.yul\":7756:7780   */\n      tag_62\n      jump\t// in\n    tag_187:\n        /* \"#utility.yul\":7751:7754   */\n      dup3\n        /* \"#utility.yul\":7744:7781   */\n      mstore\n        /* \"#utility.yul\":7669:7787   */\n      pop\n      pop\n      jump\t// out\n        /* \"#utility.yul\":7793:8015   */\n    tag_26:\n        /* \"#utility.yul\":7886:7890   */\n      0x00\n        /* \"#utility.yul\":7924:7926   */\n      0x20\n        /* \"#utility.yul\":7913:7922   */\n      dup3\n        /* \"#utility.yul\":7909:7927   */\n      add\n        /* \"#utility.yul\":7901:7927   */\n      swap1\n      pop\n        /* \"#utility.yul\":7937:8008   */\n      tag_189\n        /* \"#utility.yul\":8005:8006   */\n      0x00\n        /* \"#utility.yul\":7994:8003   */\n      dup4\n        /* \"#utility.yul\":7990:8007   */\n      add\n        /* \"#utility.yul\":7981:7987   */\n      dup5\n        /* \"#utility.yul\":7937:8008   */\n      tag_87\n      jump\t// in\n    tag_189:\n        /* \"#utility.yul\":7793:8015   */\n      swap3\n      swap2\n      pop\n      pop\n      jump\t// out\n        /* \"#utility.yul\":8021:8201   */\n    tag_88:\n        /* \"#utility.yul\":8069:8146   */\n      0x4e487b7100000000000000000000000000000000000000000000000000000000\n        /* \"#utility.yul\":8066:8067   */\n      0x00\n        /* \"#utility.yul\":8059:8147   */\n      mstore\n        /* \"#utility.yul\":8166:8170   */\n      0x22\n        /* \"#utility.yul\":8163:8164   */\n      0x04\n        /* \"#utility.yul\":8156:8171   */\n      mstore\n        /* \"#utility.yul\":8190:8194   */\n      0x24\n        /* \"#utility.yul\":8187:8188   */\n      0x00\n        /* \"#utility.yul\":8180:8195   */\n      revert\n        /* \"#utility.yul\":8207:8527   */\n    tag_33:\n        /* \"#utility.yul\":8251:8257   */\n      0x00\n        /* \"#utility.yul\":8288:8289   */\n      0x02\n        /* \"#utility.yul\":8282:8286   */\n      dup3\n        /* \"#utility.yul\":8278:8290   */\n      div\n        /* \"#utility.yul\":8268:8290   */\n      swap1\n      pop\n        /* \"#utility.yul\":8335:8336   */\n      0x01\n        /* \"#utility.yul\":8329:8333   */\n      dup3\n        /* \"#utility.yul\":8325:8337   */\n      and\n        /* \"#utility.yul\":8356:8374   */\n      dup1\n        /* \"#utility.yul\":8346:8427   */\n      tag_192\n      jumpi\n        /* \"#utility.yul\":8412:8416   */\n      0x7f\n        /* \"#utility.yul\":8404:8410   */\n      dup3\n        /* \"#utility.yul\":8400:8417   */\n      and\n        /* \"#utility.yul\":8390:8417   */\n      swap2\n      pop\n        /* \"#utility.yul\":8346:8427   */\n    tag_192:\n        /* \"#utility.yul\":8474:8476   */\n      0x20\n        /* \"#utility.yul\":8466:8472   */\n      dup3\n        /* \"#utility.yul\":8463:8477   */\n      lt\n        /* \"#utility.yul\":8443:8461   */\n      dup2\n        /* \"#utility.yul\":8440:8478   */\n      sub\n        /* \"#utility.yul\":8437:8521   */\n      tag_193\n      jumpi\n        /* \"#utility.yul\":8493:8511   */\n      tag_194\n      tag_88\n      jump\t// in\n    tag_194:\n        /* \"#utility.yul\":8437:8521   */\n    tag_193:\n        /* \"#utility.yul\":8258:8527   */\n      pop\n        /* \"#utility.yul\":8207:8527   */\n      swap2\n      swap1\n      pop\n      jump\t// out\n        /* \"#utility.yul\":8533:8674   */\n    tag_89:\n        /* \"#utility.yul\":8582:8586   */\n      0x00\n        /* \"#utility.yul\":8605:8608   */\n      dup2\n        /* \"#utility.yul\":8597:8608   */\n      swap1\n      pop\n        /* \"#utility.yul\":8628:8631   */\n      dup2\n        /* \"#utility.yul\":8625:8626   */\n      0x00\n        /* \"#utility.yul\":8618:8632   */\n      mstore\n        /* \"#utility.yul\":8662:8666   */\n      0x20\n        /* \"#utility.yul\":8659:8660   */\n      0x00\n        /* \"#utility.yul\":8649:8667   */\n      keccak256\n        /* \"#utility.yul\":8641:8667   */\n      swap1\n      pop\n        /* \"#utility.yul\":8533:8674   */\n      swap2\n      swap1\n      pop\n      jump\t// out\n        /* \"#utility.yul\":8680:8773   */\n    tag_90:\n        /* \"#utility.yul\":8717:8723   */\n      0x00\n        /* \"#utility.yul\":8764:8766   */\n      0x20\n        /* \"#utility.yul\":8759:8761   */\n      0x1f\n        /* \"#utility.yul\":8752:8757   */\n      dup4\n        /* \"#utility.yul\":8748:8762   */\n      add\n        /* \"#utility.yul\":8744:8767   */\n      div\n        /* \"#utility.yul\":8734:8767   */\n      swap1\n      pop\n        /* \"#utility.yul\":8680:8773   */\n      swap2\n      swap1\n      pop\n      jump\t// out\n        /* \"#utility.yul\":8779:8886   */\n    tag_91:\n        /* \"#utility.yul\":8823:8831   */\n      0x00\n        /* \"#utility.yul\":8873:8878   */\n      dup3\n        /* \"#utility.yul\":8867:8871   */\n      dup3\n        /* \"#utility.yul\":8863:8879   */\n      shl\n        /* \"#utility.yul\":8842:8879   */\n      swap1\n      pop\n        /* \"#utility.yul\":8779:8886   */\n      swap3\n      swap2\n      pop\n      pop\n      jump\t// out\n        /* \"#utility.yul\":8892:9285   */\n    tag_92:\n        /* \"#utility.yul\":8961:8967   */\n      0x00\n        /* \"#utility.yul\":9011:9012   */\n      0x08\n        /* \"#utility.yul\":8999:9009   */\n      dup4\n        /* \"#utility.yul\":8995:9013   */\n      mul\n        /* \"#utility.yul\":9034:9131   */\n      tag_199\n        /* \"#utility.yul\":9064:9130   */\n      0xffffffffffffffffffffffffffffffffffffffffffffffffffffffffffffffff\n        /* \"#utility.yul\":9053:9062   */\n      dup3\n        /* \"#utility.yul\":9034:9131   */\n      tag_91\n      jump\t// in\n    tag_199:\n        /* \"#utility.yul\":9152:9191   */\n      tag_200\n        /* \"#utility.yul\":9182:9190   */\n      dup7\n        /* \"#utility.yul\":9171:9180   */\n      dup4\n        /* \"#utility.yul\":9152:9191   */\n      tag_91\n      jump\t// in\n    tag_200:\n        /* \"#utility.yul\":9140:9191   */\n      swap6\n      pop\n        /* \"#utility.yul\":9224:9228   */\n      dup1\n        /* \"#utility.yul\":9220:9229   */\n      not\n        /* \"#utility.yul\":9213:9218   */\n      dup5\n        /* \"#utility.yul\":9209:9230   */\n      and\n        /* \"#utility.yul\":9200:9230   */\n      swap4\n      pop\n        /* \"#utility.yul\":9273:9277   */\n      dup1\n        /* \"#utility.yul\":9263:9271   */\n      dup7\n        /* \"#utility.yul\":9259:9278   */\n      and\n        /* \"#utility.yul\":9252:9257   */\n      dup5\n        /* \"#utility.yul\":9249:9279   */\n      or\n        /* \"#utility.yul\":9239:9279   */\n      swap3\n      pop\n        /* \"#utility.yul\":8968:9285   */\n      pop\n      pop\n        /* \"#utility.yul\":8892:9285   */\n      swap4\n      swap3\n      pop\n      pop\n      pop\n      jump\t// out\n        /* \"#utility.yul\":9291:9351   */\n    tag_93:\n        /* \"#utility.yul\":9319:9322   */\n      0x00\n        /* \"#utility.yul\":9340:9345   */\n      dup2\n        /* \"#utility.yul\":9333:9345   */\n      swap1\n      pop\n        /* \"#utility.yul\":9291:9351   */\n      swap2\n      swap1\n      pop\n      jump\t// out\n        /* \"#utility.yul\":9357:9499   */\n    tag_94:\n        /* \"#utility.yul\":9407:9416   */\n      0x00\n        /* \"#utility.yul\":9440:9493   */\n      tag_203\n        /* \"#utility.yul\":9458:9492   */\n      tag_204\n        /* \"#utility.yul\":9467:9491   */\n      tag_205\n        /* \"#utility.yul\":9485:9490   */\n      dup5\n        /* \"#utility.yul\":9467:9491   */\n      tag_62\n      jump\t// in\n    tag_205:\n        /* \"#utility.yul\":9458:9492   */\n      tag_93\n      jump\t// in\n    tag_204:\n        /* \"#utility.yul\":9440:9493   */\n      tag_62\n      jump\t// in\n    tag_203:\n        /* \"#utility.yul\":9427:9493   */\n      swap1\n      pop\n        /* \"#utility.yul\":9357:9499   */\n      swap2\n      swap1\n      pop\n      jump\t// out\n        /* \"#utility.yul\":9505:9580   */\n    tag_95:\n        /* \"#utility.yul\":9548:9551   */\n      0x00\n        /* \"#utility.yul\":9569:9574   */\n      dup2\n        /* \"#utility.yul\":9562:9574   */\n      swap1\n      pop\n        /* \"#utility.yul\":9505:9580   */\n      swap2\n      swap1\n      pop\n      jump\t// out\n        /* \"#utility.yul\":9586:9855   */\n    tag_96:\n        /* \"#utility.yul\":9696:9735   */\n      tag_208\n        /* \"#utility.yul\":9727:9734   */\n      dup4\n        /* \"#utility.yul\":9696:9735   */\n      tag_94\n      jump\t// in\n    tag_208:\n        /* \"#utility.yul\":9757:9848   */\n      tag_209\n        /* \"#utility.yul\":9806:9847   */\n      tag_210\n        /* \"#utility.yul\":9830:9846   */\n      dup3\n        /* \"#utility.yul\":9806:9847   */\n      tag_95\n      jump\t// in\n    tag_210:\n        /* \"#utility.yul\":9798:9804   */\n      dup5\n        /* \"#utility.yul\":9791:9795   */\n      dup5\n        /* \"#utility.yul\":9785:9796   */\n      sload\n        /* \"#utility.yul\":9757:9848   */\n      tag_92\n      jump\t// in\n    tag_209:\n        /* \"#utility.yul\":9751:9755   */\n      dup3\n        /* \"#utility.yul\":9744:9849   */\n      sstore\n        /* \"#utility.yul\":9662:9855   */\n      pop\n        /* \"#utility.yul\":9586:9855   */\n      pop\n      pop\n      pop\n      jump\t// out\n        /* \"#utility.yul\":9861:9934   */\n    tag_97:\n        /* \"#utility.yul\":9906:9909   */\n      0x00\n        /* \"#utility.yul\":9927:9928   */\n      0x00\n        /* \"#utility.yul\":9920:9928   */\n      swap1\n      pop\n        /* \"#utility.yul\":9861:9934   */\n      swap1\n      jump\t// out\n        /* \"#utility.yul\":9940:10129   */\n    tag_98:\n        /* \"#utility.yul\":10017:10049   */\n      tag_213\n      tag_97\n      jump\t// in\n    tag_213:\n        /* \"#utility.yul\":10058:10123   */\n      tag_214\n        /* \"#utility.yul\":10116:10122   */\n      dup2\n        /* \"#utility.yul\":10108:10114   */\n      dup5\n        /* \"#utility.yul\":10102:10106   */\n      dup5\n        /* \"#utility.yul\":10058:10123   */\n      tag_96\n      jump\t// in\n    tag_214:\n        /* \"#utility.yul\":9993:10129   */\n      pop\n        /* \"#utility.yul\":9940:10129   */\n      pop\n      pop\n      jump\t// out\n        /* \"#utility.yul\":10135:10321   */\n    tag_99:\n        /* \"#utility.yul\":10195:10315   */\n    tag_216:\n        /* \"#utility.yul\":10212:10215   */\n      dup2\n        /* \"#utility.yul\":10205:10210   */\n      dup2\n        /* \"#utility.yul\":10202:10216   */\n      lt\n        /* \"#utility.yul\":10195:10315   */\n      iszero\n      tag_218\n      jumpi\n        /* \"#utility.yul\":10266:10305   */\n      tag_219\n        /* \"#utility.yul\":10303:10304   */\n      0x00\n        /* \"#utility.yul\":10296:10301   */\n      dup3\n        /* \"#utility.yul\":10266:10305   */\n      tag_98\n      jump\t// in\n    tag_219:\n        /* \"#utility.yul\":10239:10240   */\n      0x01\n        /* \"#utility.yul\":10232:10237   */\n      dup2\n        /* \"#utility.yul\":10228:10241   */\n      add\n        /* \"#utility.yul\":10219:10241   */\n      swap1\n      pop\n        /* \"#utility.yul\":10195:10315   */\n      jump(tag_216)\n    tag_218:\n        /* \"#utility.yul\":10135:10321   */\n      pop\n      pop\n      jump\t// out\n        /* \"#utility.yul\":10327:10870   */\n    tag_100:\n        /* \"#utility.yul\":10428:10430   */\n      0x1f\n        /* \"#utility.yul\":10423:10426   */\n      dup3\n        /* \"#utility.yul\":10420:10431   */\n      gt\n        /* \"#utility.yul\":10417:10863   */\n      iszero\n      tag_221\n      jumpi\n        /* \"#utility.yul\":10462:10500   */\n      tag_222\n        /* \"#utility.yul\":10494:10499   */\n      dup2\n        /* \"#utility.yul\":10462:10500   */\n      tag_89\n      jump\t// in\n    tag_222:\n        /* \"#utility.yul\":10546:10575   */\n      tag_223\n        /* \"#utility.yul\":10564:10574   */\n      dup5\n        /* \"#utility.yul\":10546:10575   */\n      tag_90\n      jump\t// in\n    tag_223:\n        /* \"#utility.yul\":10536:10544   */\n      dup2\n        /* \"#utility.yul\":10532:10576   */\n      add\n        /* \"#utility.yul\":10729:10731   */\n      0x20\n        /* \"#utility.yul\":10717:10727   */\n      dup6\n        /* \"#utility.yul\":10714:10732   */\n      lt\n        /* \"#utility.yul\":10711:10760   */\n      iszero\n      tag_224\n      jumpi\n        /* \"#utility.yul\":10750:10758   */\n      dup2\n        /* \"#utility.yul\":10735:10758   */\n      swap1\n      pop\n        /* \"#utility.yul\":10711:10760   */\n    tag_224:\n        /* \"#utility.yul\":10773:10853   */\n      tag_225\n        /* \"#utility.yul\":10829:10851   */\n      tag_226\n        /* \"#utility.yul\":10847:10850   */\n      dup6\n        /* \"#utility.yul\":10829:10851   */\n      tag_90\n      jump\t// in\n    tag_226:\n        /* \"#utility.yul\":10819:10827   */\n      dup4\n        /* \"#utility.yul\":10815:10852   */\n      add\n        /* \"#utility.yul\":10802:10813   */\n      dup3\n        /* \"#utility.yul\":10773:10853   */\n      tag_99\n      jump\t// in\n    tag_225:\n        /* \"#utility.yul\":10432:10863   */\n      pop\n      pop\n        /* \"#utility.yul\":10417:10863   */\n    tag_221:\n        /* \"#utility.yul\":10327:10870   */\n      pop\n      pop\n      pop\n      jump\t// out\n        /* \"#utility.yul\":10876:10993   */\n    tag_101:\n        /* \"#utility.yul\":10930:10938   */\n      0x00\n        /* \"#utility.yul\":10980:10985   */\n      dup3\n        /* \"#utility.yul\":10974:10978   */\n      dup3\n        /* \"#utility.yul\":10970:10986   */\n      shr\n        /* \"#utility.yul\":10949:10986   */\n      swap1\n      pop\n        /* \"#utility.yul\":10876:10993   */\n      swap3\n      swap2\n      pop\n      pop\n      jump\t// out\n        /* \"#utility.yul\":10999:11168   */\n    tag_102:\n        /* \"#utility.yul\":11043:11049   */\n      0x00\n        /* \"#utility.yul\":11076:11127   */\n      tag_229\n        /* \"#utility.yul\":11124:11125   */\n      0x00\n        /* \"#utility.yul\":11120:11126   */\n      not\n        /* \"#utility.yul\":11112:11117   */\n      dup5\n        /* \"#utility.yul\":11109:11110   */\n      0x08\n        /* \"#utility.yul\":11105:11118   */\n      mul\n        /* \"#utility.yul\":11076:11127   */\n      tag_101\n      jump\t// in\n    tag_229:\n        /* \"#utility.yul\":11072:11128   */\n      not\n        /* \"#utility.yul\":11157:11161   */\n      dup1\n        /* \"#utility.yul\":11151:11155   */\n      dup4\n        /* \"#utility.yul\":11147:11162   */\n      and\n        /* \"#utility.yul\":11137:11162   */\n      swap2\n      pop\n        /* \"#utility.yul\":11050:11168   */\n      pop\n        /* \"#utility.yul\":10999:11168   */\n      swap3\n      swap2\n      pop\n      pop\n      jump\t// out\n        /* \"#utility.yul\":11173:11468   */\n    tag_103:\n        /* \"#utility.yul\":11249:11253   */\n      0x00\n        /* \"#utility.yul\":11395:11424   */\n      tag_231\n        /* \"#utility.yul\":11420:11423   */\n      dup4\n        /* \"#utility.yul\":11414:11418   */\n      dup4\n        /* \"#utility.yul\":11395:11424   */\n      tag_102\n      jump\t// in\n    tag_231:\n        /* \"#utility.yul\":11387:11424   */\n      swap2\n      pop\n        /* \"#utility.yul\":11457:11460   */\n      dup3\n        /* \"#utility.yul\":11454:11455   */\n      0x02\n        /* \"#utility.yul\":11450:11461   */\n      mul\n        /* \"#utility.yul\":11444:11448   */\n      dup3\n        /* \"#utility.yul\":11441:11462   */\n      or\n        /* \"#utility.yul\":11433:11462   */\n      swap1\n      pop\n        /* \"#utility.yul\":11173:11468   */\n      swap3\n      swap2\n      pop\n      pop\n      jump\t// out\n        /* \"#utility.yul\":11473:12868   */\n    tag_50:\n        /* \"#utility.yul\":11590:11627   */\n      tag_233\n        /* \"#utility.yul\":11623:11626   */\n      dup3\n        /* \"#utility.yul\":11590:11627   */\n      tag_65\n      jump\t// in\n    tag_233:\n        /* \"#utility.yul\":11692:11710   */\n      0xffffffffffffffff\n        /* \"#utility.yul\":11684:11690   */\n      dup2\n        /* \"#utility.yul\":11681:11711   */\n      gt\n        /* \"#utility.yul\":11678:11734   */\n      iszero\n      tag_234\n      jumpi\n        /* \"#utility.yul\":11714:11732   */\n      tag_235\n      tag_80\n      jump\t// in\n    tag_235:\n        /* \"#utility.yul\":11678:11734   */\n    tag_234:\n        /* \"#utility.yul\":11758:11796   */\n      tag_236\n        /* \"#utility.yul\":11790:11794   */\n      dup3\n        /* \"#utility.yul\":11784:11795   */\n      sload\n        /* \"#utility.yul\":11758:11796   */\n      tag_33\n      jump\t// in\n    tag_236:\n        /* \"#utility.yul\":11843:11910   */\n      tag_237\n        /* \"#utility.yul\":11903:11909   */\n      dup3\n        /* \"#utility.yul\":11895:11901   */\n      dup3\n        /* \"#utility.yul\":11889:11893   */\n      dup6\n        /* \"#utility.yul\":11843:11910   */\n      tag_100\n      jump\t// in\n    tag_237:\n        /* \"#utility.yul\":11937:11938   */\n      0x00\n        /* \"#utility.yul\":11961:11965   */\n      0x20\n        /* \"#utility.yul\":11948:11965   */\n      swap1\n      pop\n        /* \"#utility.yul\":11993:11995   */\n      0x1f\n        /* \"#utility.yul\":11985:11991   */\n      dup4\n        /* \"#utility.yul\":11982:11996   */\n      gt\n        /* \"#utility.yul\":12010:12011   */\n      0x01\n        /* \"#utility.yul\":12005:12623   */\n      dup2\n      eq\n      tag_239\n      jumpi\n        /* \"#utility.yul\":12667:12668   */\n      0x00\n        /* \"#utility.yul\":12684:12690   */\n      dup5\n        /* \"#utility.yul\":12681:12758   */\n      iszero\n      tag_240\n      jumpi\n        /* \"#utility.yul\":12733:12742   */\n      dup3\n        /* \"#utility.yul\":12728:12731   */\n      dup8\n        /* \"#utility.yul\":12724:12743   */\n      add\n        /* \"#utility.yul\":12718:12744   */\n      mload\n        /* \"#utility.yul\":12709:12744   */\n      swap1\n      pop\n        /* \"#utility.yul\":12681:12758   */\n    tag_240:\n        /* \"#utility.yul\":12784:12851   */\n      tag_241\n        /* \"#utility.yul\":12844:12850   */\n      dup6\n        /* \"#utility.yul\":12837:12842   */\n      dup3\n        /* \"#utility.yul\":12784:12851   */\n      tag_103\n      jump\t// in\n    tag_241:\n        /* \"#utility.yul\":12778:12782   */\n      dup7\n        /* \"#utility.yul\":12771:12852   */\n      sstore\n        /* \"#utility.yul\":12640:12862   */\n      pop\n        /* \"#utility.yul\":11975:12862   */\n      jump(tag_238)\n        /* \"#utility.yul\":12005:12623   */\n    tag_239:\n        /* \"#utility.yul\":12057:12061   */\n      0x1f\n        /* \"#utility.yul\":12053:12062   */\n      not\n        /* \"#utility.yul\":12045:12051   */\n      dup5\n        /* \"#utility.yul\":12041:12063   */\n      and\n        /* \"#utility.yul\":12091:12128   */\n      tag_242\n        /* \"#utility.yul\":12123:12127   */\n      dup7\n        /* \"#utility.yul\":12091:12128   */\n      tag_89\n      jump\t// in\n    tag_242:\n        /* \"#utility.yul\":12150:12151   */\n      0x00\n        /* \"#utility.yul\":12164:12372   */\n    tag_243:\n        /* \"#utility.yul\":12178:12185   */\n      dup3\n        /* \"#utility.yul\":12175:12176   */\n      dup2\n        /* \"#utility.yul\":12172:12186   */\n      lt\n        /* \"#utility.yul\":12164:12372   */\n      iszero\n      tag_245\n      jumpi\n        /* \"#utility.yul\":12257:12266   */\n      dup5\n        /* \"#utility.yul\":12252:12255   */\n      dup10\n        /* \"#utility.yul\":12248:12267   */\n      add\n        /* \"#utility.yul\":12242:12268   */\n      mload\n        /* \"#utility.yul\":12234:12240   */\n      dup3\n        /* \"#utility.yul\":12227:12269   */\n      sstore\n        /* \"#utility.yul\":12308:12309   */\n      0x01\n        /* \"#utility.yul\":12300:12306   */\n      dup3\n        /* \"#utility.yul\":12296:12310   */\n      add\n        /* \"#utility.yul\":12286:12310   */\n      swap2\n      pop\n        /* \"#utility.yul\":12355:12357   */\n      0x20\n        /* \"#utility.yul\":12344:12353   */\n      dup6\n        /* \"#utility.yul\":12340:12358   */\n      add\n        /* \"#utility.yul\":12327:12358   */\n      swap5\n      pop\n        /* \"#utility.yul\":12201:12205   */\n      0x20\n        /* \"#utility.yul\":12198:12199   */\n      dup2\n        /* \"#utility.yul\":12194:12206   */\n      add\n        /* \"#utility.yul\":12189:12206   */\n      swap1\n      pop\n        /* \"#utility.yul\":12164:12372   */\n      jump(tag_243)\n    tag_245:\n        /* \"#utility.yul\":12400:12406   */\n      dup7\n        /* \"#utility.yul\":12391:12398   */\n      dup4\n        /* \"#utility.yul\":12388:12407   */\n      lt\n        /* \"#utility.yul\":12385:12564   */\n      iszero\n      tag_246\n      jumpi\n        /* \"#utility.yul\":12458:12467   */\n      dup5\n        /* \"#utility.yul\":12453:12456   */\n      dup10\n        /* \"#utility.yul\":12449:12468   */\n      add\n        /* \"#utility.yul\":12443:12469   */\n      mload\n        /* \"#utility.yul\":12501:12549   */\n      tag_247\n        /* \"#utility.yul\":12543:12547   */\n      0x1f\n        /* \"#utility.yul\":12535:12541   */\n      dup10\n        /* \"#utility.yul\":12531:12548   */\n      and\n        /* \"#utility.yul\":12520:12529   */\n      dup3\n        /* \"#utility.yul\":12501:12549   */\n      tag_102\n      jump\t// in\n    tag_247:\n        /* \"#utility.yul\":12493:12499   */\n      dup4\n        /* \"#utility.yul\":12486:12550   */\n      sstore\n        /* \"#utility.yul\":12408:12564   */\n      pop\n        /* \"#utility.yul\":12385:12564   */\n    tag_246:\n        /* \"#utility.yul\":12610:12611   */\n      0x01\n        /* \"#utility.yul\":12606:12607   */\n      0x02\n        /* \"#utility.yul\":12598:12604   */\n      dup9\n        /* \"#utility.yul\":12594:12608   */\n      mul\n        /* \"#utility.yul\":12590:12612   */\n      add\n        /* \"#utility.yul\":12584:12588   */\n      dup9\n        /* \"#utility.yul\":12577:12613   */\n      sstore\n        /* \"#utility.yul\":12012:12623   */\n      pop\n      pop\n      pop\n        /* \"#utility.yul\":11975:12862   */\n    tag_238:\n      pop\n        /* \"#utility.yul\":11565:12868   */\n      pop\n      pop\n      pop\n        /* \"#utility.yul\":11473:12868   */\n      pop\n      pop\n      jump\t// out\n        /* \"#utility.yul\":12874:13022   */\n    tag_104:\n        /* \"#utility.yul\":12976:12987   */\n      0x00\n        /* \"#utility.yul\":13013:13016   */\n      dup2\n        /* \"#utility.yul\":12998:13016   */\n      swap1\n      pop\n        /* \"#utility.yul\":12874:13022   */\n      swap3\n      swap2\n      pop\n      pop\n      jump\t// out\n        /* \"#utility.yul\":13028:13418   */\n    tag_105:\n        /* \"#utility.yul\":13134:13137   */\n      0x00\n        /* \"#utility.yul\":13162:13201   */\n      tag_250\n        /* \"#utility.yul\":13195:13200   */\n      dup3\n        /* \"#utility.yul\":13162:13201   */\n      tag_65\n      jump\t// in\n    tag_250:\n        /* \"#utility.yul\":13217:13306   */\n      tag_251\n        /* \"#utility.yul\":13299:13305   */\n      dup2\n        /* \"#utility.yul\":13294:13297   */\n      dup6\n        /* \"#utility.yul\":13217:13306   */\n      tag_104\n      jump\t// in\n    tag_251:\n        /* \"#utility.yul\":13210:13306   */\n      swap4\n      pop\n        /* \"#utility.yul\":13315:13380   */\n      tag_252\n        /* \"#utility.yul\":13373:13379   */\n      dup2\n        /* \"#utility.yul\":13368:13371   */\n      dup6\n        /* \"#utility.yul\":13361:13365   */\n      0x20\n        /* \"#utility.yul\":13354:13359   */\n      dup7\n        /* \"#utility.yul\":13350:13366   */\n      add\n        /* \"#utility.yul\":13315:13380   */\n      tag_67\n      jump\t// in\n    tag_252:\n        /* \"#utility.yul\":13405:13411   */\n      dup1\n        /* \"#utility.yul\":13400:13403   */\n      dup5\n        /* \"#utility.yul\":13396:13412   */\n      add\n        /* \"#utility.yul\":13389:13412   */\n      swap2\n      pop\n        /* \"#utility.yul\":13138:13418   */\n      pop\n        /* \"#utility.yul\":13028:13418   */\n      swap3\n      swap2\n      pop\n      pop\n      jump\t// out\n        /* \"#utility.yul\":13424:13699   */\n    tag_52:\n        /* \"#utility.yul\":13556:13559   */\n      0x00\n        /* \"#utility.yul\":13578:13673   */\n      tag_254\n        /* \"#utility.yul\":13669:13672   */\n      dup3\n        /* \"#utility.yul\":13660:13666   */\n      dup5\n        /* \"#utility.yul\":13578:13673   */\n      tag_105\n      jump\t// in\n    tag_254:\n        /* \"#utility.yul\":13571:13673   */\n      swap2\n      pop\n        /* \"#utility.yul\":13690:13693   */\n      dup2\n        /* \"#utility.yul\":13683:13693   */\n      swap1\n      pop\n        /* \"#utility.yul\":13424:13699   */\n      swap3\n      swap2\n      pop\n      pop\n      jump\t// out\n        /* \"#utility.yul\":13705:13885   */\n    tag_106:\n        /* \"#utility.yul\":13753:13830   */\n      0x4e487b7100000000000000000000000000000000000000000000000000000000\n        /* \"#utility.yul\":13750:13751   */\n      0x00\n        /* \"#utility.yul\":13743:13831   */\n      mstore\n        /* \"#utility.yul\":13850:13854   */\n      0x11\n        /* \"#utility.yul\":13847:13848   */\n      0x04\n        /* \"#utility.yul\":13840:13855   */\n      mstore\n        /* \"#utility.yul\":13874:13878   */\n      0x24\n        /* \"#utility.yul\":13871:13872   */\n      0x00\n        /* \"#utility.yul\":13864:13879   */\n      revert\n        /* \"#utility.yul\":13891:14082   */\n    tag_58:\n        /* \"#utility.yul\":13931:13934   */\n      0x00\n        /* \"#utility.yul\":13950:13970   */\n      tag_257\n        /* \"#utility.yul\":13968:13969   */\n      dup3\n        /* \"#utility.yul\":13950:13970   */\n      tag_62\n      jump\t// in\n    tag_257:\n        /* \"#utility.yul\":13945:13970   */\n      swap2\n      pop\n        /* \"#utility.yul\":13984:14004   */\n      tag_258\n        /* \"#utility.yul\":14002:14003   */\n      dup4\n        /* \"#utility.yul\":13984:14004   */\n      tag_62\n      jump\t// in\n    tag_258:\n        /* \"#utility.yul\":13979:14004   */\n      swap3\n      pop\n        /* \"#utility.yul\":14027:14028   */\n      dup3\n        /* \"#utility.yul\":14024:14025   */\n      dup3\n        /* \"#utility.yul\":14020:14029   */\n      add\n        /* \"#utility.yul\":14013:14029   */\n      swap1\n      pop\n        /* \"#utility.yul\":14048:14051   */\n      dup1\n        /* \"#utility.yul\":14045:14046   */\n      dup3\n        /* \"#utility.yul\":14042:14052   */\n      gt\n        /* \"#utility.yul\":14039:14075   */\n      iszero\n      tag_259\n      jumpi\n        /* \"#utility.yul\":14055:14073   */\n      tag_260\n      tag_106\n      jump\t// in\n    tag_260:\n        /* \"#utility.yul\":14039:14075   */\n    tag_259:\n        /* \"#utility.yul\":13891:14082   */\n      swap3\n      swap2\n      pop\n      pop\n      jump\t// out\n\n    auxdata: 0xa2646970667358221220d90194dd3b08898d28fee66dc590f53a7942b483902df16c2f2161a48a9eb99a64736f6c634300081e0033\n}\n",
				"bytecode": {
					"linkReferences": {},
					"object": "6080604052348015600e575f5ffd5b50610aab8061001c5f395ff3fe608060405234801561000f575f5ffd5b5060043610610055575f3560e01c8063186d9aaa1461005957806372b9d61614610089578063b13593cb146100a7578063baa40e5c146100c3578063fc36e15b146100f3575b5f5ffd5b610073600480360381019061006e9190610380565b61010f565b604051610080919061041b565b60405180910390f35b6100916101b4565b60405161009e919061053e565b60405180910390f35b6100c160048036038101906100bc919061068a565b610287565b005b6100dd60048036038101906100d8919061068a565b6102de565b6040516100ea91906106e0565b60405180910390f35b61010d6004803603810190610108919061068a565b610305565b005b5f818154811061011d575f80fd5b905f5260205f20015f91509050805461013590610726565b80601f016020809104026020016040519081016040528092919081815260200182805461016190610726565b80156101ac5780601f10610183576101008083540402835291602001916101ac565b820191905f5260205f20905b81548152906001019060200180831161018f57829003601f168201915b505050505081565b60605f805480602002602001604051908101604052809291908181526020015f905b8282101561027e578382905f5260205f200180546101f390610726565b80601f016020809104026020016040519081016040528092919081815260200182805461021f90610726565b801561026a5780601f106102415761010080835404028352916020019161026a565b820191905f5260205f20905b81548152906001019060200180831161024d57829003601f168201915b5050505050815260200190600101906101d6565b50505050905090565b5f81908060018154018082558091505060019003905f5260205f20015f9091909190915090816102b791906108f6565b505f6001826040516102c991906109ff565b90815260200160405180910390208190555050565b5f6001826040516102ef91906109ff565b9081526020016040518091039020549050919050565b6001808260405161031691906109ff565b90815260200160405180910390205f8282546103329190610a42565b9250508190555050565b5f604051905090565b5f5ffd5b5f5ffd5b5f819050919050565b61035f8161034d565b8114610369575f5ffd5b50565b5f8135905061037a81610356565b92915050565b5f6020828403121561039557610394610345565b5b5f6103a28482850161036c565b91505092915050565b5f81519050919050565b5f82825260208201905092915050565b8281835e5f83830152505050565b5f601f19601f8301169050919050565b5f6103ed826103ab565b6103f781856103b5565b93506104078185602086016103c5565b610410816103d3565b840191505092915050565b5f6020820190508181035f83015261043381846103e3565b905092915050565b5f81519050919050565b5f82825260208201905092915050565b5f819050602082019050919050565b5f82825260208201905092915050565b5f61047e826103ab565b6104888185610464565b93506104988185602086016103c5565b6104a1816103d3565b840191505092915050565b5f6104b78383610474565b905092915050565b5f602082019050919050565b5f6104d58261043b565b6104df8185610445565b9350836020820285016104f185610455565b805f5b8581101561052c578484038952815161050d85826104ac565b9450610518836104bf565b925060208a019950506001810190506104f4565b50829750879550505050505092915050565b5f6020820190508181035f83015261055681846104cb565b905092915050565b5f5ffd5b5f5ffd5b7f4e487b71000000000000000000000000000000000000000000000000000000005f52604160045260245ffd5b61059c826103d3565b810181811067ffffffffffffffff821117156105bb576105ba610566565b5b80604052505050565b5f6105cd61033c565b90506105d98282610593565b919050565b5f67ffffffffffffffff8211156105f8576105f7610566565b5b610601826103d3565b9050602081019050919050565b828183375f83830152505050565b5f61062e610629846105de565b6105c4565b90508281526020810184848401111561064a57610649610562565b5b61065584828561060e565b509392505050565b5f82601f8301126106715761067061055e565b5b813561068184826020860161061c565b91505092915050565b5f6020828403121561069f5761069e610345565b5b5f82013567ffffffffffffffff8111156106bc576106bb610349565b5b6106c88482850161065d565b91505092915050565b6106da8161034d565b82525050565b5f6020820190506106f35f8301846106d1565b92915050565b7f4e487b71000000000000000000000000000000000000000000000000000000005f52602260045260245ffd5b5f600282049050600182168061073d57607f821691505b6020821081036107505761074f6106f9565b5b50919050565b5f819050815f5260205f209050919050565b5f6020601f8301049050919050565b5f82821b905092915050565b5f600883026107b27fffffffffffffffffffffffffffffffffffffffffffffffffffffffffffffffff82610777565b6107bc8683610777565b95508019841693508086168417925050509392505050565b5f819050919050565b5f6107f76107f26107ed8461034d565b6107d4565b61034d565b9050919050565b5f819050919050565b610810836107dd565b61082461081c826107fe565b848454610783565b825550505050565b5f5f905090565b61083b61082c565b610846818484610807565b505050565b5b818110156108695761085e5f82610833565b60018101905061084c565b5050565b601f8211156108ae5761087f81610756565b61088884610768565b81016020851015610897578190505b6108ab6108a385610768565b83018261084b565b50505b505050565b5f82821c905092915050565b5f6108ce5f19846008026108b3565b1980831691505092915050565b5f6108e683836108bf565b9150826002028217905092915050565b6108ff826103ab565b67ffffffffffffffff81111561091857610917610566565b5b6109228254610726565b61092d82828561086d565b5f60209050601f83116001811461095e575f841561094c578287015190505b61095685826108db565b8655506109bd565b601f19841661096c86610756565b5f5b828110156109935784890151825560018201915060208501945060208101905061096e565b868310156109b057848901516109ac601f8916826108bf565b8355505b6001600288020188555050505b505050505050565b5f81905092915050565b5f6109d9826103ab565b6109e381856109c5565b93506109f38185602086016103c5565b80840191505092915050565b5f610a0a82846109cf565b915081905092915050565b7f4e487b71000000000000000000000000000000000000000000000000000000005f52601160045260245ffd5b5f610a4c8261034d565b9150610a578361034d565b9250828201905080821115610a6f57610a6e610a15565b5b9291505056fea2646970667358221220d90194dd3b08898d28fee66dc590f53a7942b483902df16c2f2161a48a9eb99a64736f6c634300081e0033",
					"opcodes": "PUSH1 0x80 PUSH1 0x40 MSTORE CALLVALUE DUP1 ISZERO PUSH1 0xE JUMPI PUSH0 PUSH0 REVERT JUMPDEST POP PUSH2 0xAAB DUP1 PUSH2 0x1C PUSH0 CODECOPY PUSH0 RETURN INVALID PUSH1 0x80 PUSH1 0x40 MSTORE CALLVALUE DUP1 ISZERO PUSH2 0xF JUMPI PUSH0 PUSH0 REVERT JUMPDEST POP PUSH1 0x4 CALLDATASIZE LT PUSH2 0x55 JUMPI PUSH0 CALLDATALOAD PUSH1 0xE0 SHR DUP1 PUSH4 0x186D9AAA EQ PUSH2 0x59 JUMPI DUP1 PUSH4 0x72B9D616 EQ PUSH2 0x89 JUMPI DUP1 PUSH4 0xB13593CB EQ PUSH2 0xA7 JUMPI DUP1 PUSH4 0xBAA40E5C EQ PUSH2 0xC3 JUMPI DUP1 PUSH4 0xFC36E15B EQ PUSH2 0xF3 JUMPI JUMPDEST PUSH0 PUSH0 REVERT JUMPDEST PUSH2 0x73 PUSH1 0x4 DUP1 CALLDATASIZE SUB DUP2 ADD SWAP1 PUSH2 0x6E SWAP2 SWAP1 PUSH2 0x380 JUMP JUMPDEST PUSH2 0x10F JUMP JUMPDEST PUSH1 0x40 MLOAD PUSH2 0x80 SWAP2 SWAP1 PUSH2 0x41B JUMP JUMPDEST PUSH1 0x40 MLOAD DUP1 SWAP2 SUB SWAP1 RETURN JUMPDEST PUSH2 0x91 PUSH2 0x1B4 JUMP JUMPDEST PUSH1 0x40 MLOAD PUSH2 0x9E SWAP2 SWAP1 PUSH2 0x53E JUMP JUMPDEST PUSH1 0x40 MLOAD DUP1 SWAP2 SUB SWAP1 RETURN JUMPDEST PUSH2 0xC1 PUSH1 0x4 DUP1 CALLDATASIZE SUB DUP2 ADD SWAP1 PUSH2 0xBC SWAP2 SWAP1 PUSH2 0x68A JUMP JUMPDEST PUSH2 0x287 JUMP JUMPDEST STOP JUMPDEST PUSH2 0xDD PUSH1 0x4 DUP1 CALLDATASIZE SUB DUP2 ADD SWAP1 PUSH2 0xD8 SWAP2 SWAP1 PUSH2 0x68A JUMP JUMPDEST PUSH2 0x2DE JUMP JUMPDEST PUSH1 0x40 MLOAD PUSH2 0xEA SWAP2 SWAP1 PUSH2 0x6E0 JUMP JUMPDEST PUSH1 0x40 MLOAD DUP1 SWAP2 SUB SWAP1 RETURN JUMPDEST PUSH2 0x10D PUSH1 0x4 DUP1 CALLDATASIZE SUB DUP2 ADD SWAP1 PUSH2 0x108 SWAP2 SWAP1 PUSH2 0x68A JUMP JUMPDEST PUSH2 0x305 JUMP JUMPDEST STOP JUMPDEST PUSH0 DUP2 DUP2 SLOAD DUP2 LT PUSH2 0x11D JUMPI PUSH0 DUP1 REVERT JUMPDEST SWAP1 PUSH0 MSTORE PUSH1 0x20 PUSH0 KECCAK256 ADD PUSH0 SWAP2 POP SWAP1 POP DUP1 SLOAD PUSH2 0x135 SWAP1 PUSH2 0x726 JUMP JUMPDEST DUP1 PUSH1 0x1F ADD PUSH1 0x20 DUP1 SWAP2 DIV MUL PUSH1 0x20 ADD PUSH1 0x40 MLOAD SWAP1 DUP2 ADD PUSH1 0x40 MSTORE DUP1 SWAP3 SWAP2 SWAP1 DUP2 DUP2 MSTORE PUSH1 0x20 ADD DUP3 DUP1 SLOAD PUSH2 0x161 SWAP1 PUSH2 0x726 JUMP JUMPDEST DUP1 ISZERO PUSH2 0x1AC JUMPI DUP1 PUSH1 0x1F LT PUSH2 0x183 JUMPI PUSH2 0x100 DUP1 DUP4 SLOAD DIV MUL DUP4 MSTORE SWAP2 PUSH1 0x20 ADD SWAP2 PUSH2 0x1AC JUMP JUMPDEST DUP3 ADD SWAP2 SWAP1 PUSH0 MSTORE PUSH1 0x20 PUSH0 KECCAK256 SWAP1 JUMPDEST DUP2 SLOAD DUP2 MSTORE SWAP1 PUSH1 0x1 ADD SWAP1 PUSH1 0x20 ADD DUP1 DUP4 GT PUSH2 0x18F JUMPI DUP3 SWAP1 SUB PUSH1 0x1F AND DUP3 ADD SWAP2 JUMPDEST POP POP POP POP POP DUP2 JUMP JUMPDEST PUSH1 0x60 PUSH0 DUP1 SLOAD DUP1 PUSH1 0x20 MUL PUSH1 0x20 ADD PUSH1 0x40 MLOAD SWAP1 DUP2 ADD PUSH1 0x40 MSTORE DUP1 SWAP3 SWAP2 SWAP1 DUP2 DUP2 MSTORE PUSH1 0x20 ADD PUSH0 SWAP1 JUMPDEST DUP3 DUP3 LT ISZERO PUSH2 0x27E JUMPI DUP4 DUP3 SWAP1 PUSH0 MSTORE PUSH1 0x20 PUSH0 KECCAK256 ADD DUP1 SLOAD PUSH2 0x1F3 SWAP1 PUSH2 0x726 JUMP JUMPDEST DUP1 PUSH1 0x1F ADD PUSH1 0x20 DUP1 SWAP2 DIV MUL PUSH1 0x20 ADD PUSH1 0x40 MLOAD SWAP1 DUP2 ADD PUSH1 0x40 MSTORE DUP1 SWAP3 SWAP2 SWAP1 DUP2 DUP2 MSTORE PUSH1 0x20 ADD DUP3 DUP1 SLOAD PUSH2 0x21F SWAP1 PUSH2 0x726 JUMP JUMPDEST DUP1 ISZERO PUSH2 0x26A JUMPI DUP1 PUSH1 0x1F LT PUSH2 0x241 JUMPI PUSH2 0x100 DUP1 DUP4 SLOAD DIV MUL DUP4 MSTORE SWAP2 PUSH1 0x20 ADD SWAP2 PUSH2 0x26A JUMP JUMPDEST DUP3 ADD SWAP2 SWAP1 PUSH0 MSTORE PUSH1 0x20 PUSH0 KECCAK256 SWAP1 JUMPDEST DUP2 SLOAD DUP2 MSTORE SWAP1 PUSH1 0x1 ADD SWAP1 PUSH1 0x20 ADD DUP1 DUP4 GT PUSH2 0x24D JUMPI DUP3 SWAP1 SUB PUSH1 0x1F AND DUP3 ADD SWAP2 JUMPDEST POP POP POP POP POP DUP2 MSTORE PUSH1 0x20 ADD SWAP1 PUSH1 0x1 ADD SWAP1 PUSH2 0x1D6 JUMP JUMPDEST POP POP POP POP SWAP1 POP SWAP1 JUMP JUMPDEST PUSH0 DUP2 SWAP1 DUP1 PUSH1 0x1 DUP2 SLOAD ADD DUP1 DUP3 SSTORE DUP1 SWAP2 POP POP PUSH1 0x1 SWAP1 SUB SWAP1 PUSH0 MSTORE PUSH1 0x20 PUSH0 KECCAK256 ADD PUSH0 SWAP1 SWAP2 SWAP1 SWAP2 SWAP1 SWAP2 POP SWAP1 DUP2 PUSH2 0x2B7 SWAP2 SWAP1 PUSH2 0x8F6 JUMP JUMPDEST POP PUSH0 PUSH1 0x1 DUP3 PUSH1 0x40 MLOAD PUSH2 0x2C9 SWAP2 SWAP1 PUSH2 0x9FF JUMP JUMPDEST SWAP1 DUP2 MSTORE PUSH1 0x20 ADD PUSH1 0x40 MLOAD DUP1 SWAP2 SUB SWAP1 KECCAK256 DUP2 SWAP1 SSTORE POP POP JUMP JUMPDEST PUSH0 PUSH1 0x1 DUP3 PUSH1 0x40 MLOAD PUSH2 0x2EF SWAP2 SWAP1 PUSH2 0x9FF JUMP JUMPDEST SWAP1 DUP2 MSTORE PUSH1 0x20 ADD PUSH1 0x40 MLOAD DUP1 SWAP2 SUB SWAP1 KECCAK256 SLOAD SWAP1 POP SWAP2 SWAP1 POP JUMP JUMPDEST PUSH1 0x1 DUP1 DUP3 PUSH1 0x40 MLOAD PUSH2 0x316 SWAP2 SWAP1 PUSH2 0x9FF JUMP JUMPDEST SWAP1 DUP2 MSTORE PUSH1 0x20 ADD PUSH1 0x40 MLOAD DUP1 SWAP2 SUB SWAP1 KECCAK256 PUSH0 DUP3 DUP3 SLOAD PUSH2 0x332 SWAP2 SWAP1 PUSH2 0xA42 JUMP JUMPDEST SWAP3 POP POP DUP2 SWAP1 SSTORE POP POP JUMP JUMPDEST PUSH0 PUSH1 0x40 MLOAD SWAP1 POP SWAP1 JUMP JUMPDEST PUSH0 PUSH0 REVERT JUMPDEST PUSH0 PUSH0 REVERT JUMPDEST PUSH0 DUP2 SWAP1 POP SWAP2 SWAP1 POP JUMP JUMPDEST PUSH2 0x35F DUP2 PUSH2 0x34D JUMP JUMPDEST DUP2 EQ PUSH2 0x369 JUMPI PUSH0 PUSH0 REVERT JUMPDEST POP JUMP JUMPDEST PUSH0 DUP2 CALLDATALOAD SWAP1 POP PUSH2 0x37A DUP2 PUSH2 0x356 JUMP JUMPDEST SWAP3 SWAP2 POP POP JUMP JUMPDEST PUSH0 PUSH1 0x20 DUP3 DUP5 SUB SLT ISZERO PUSH2 0x395 JUMPI PUSH2 0x394 PUSH2 0x345 JUMP JUMPDEST JUMPDEST PUSH0 PUSH2 0x3A2 DUP5 DUP3 DUP6 ADD PUSH2 0x36C JUMP JUMPDEST SWAP2 POP POP SWAP3 SWAP2 POP POP JUMP JUMPDEST PUSH0 DUP2 MLOAD SWAP1 POP SWAP2 SWAP1 POP JUMP JUMPDEST PUSH0 DUP3 DUP3 MSTORE PUSH1 0x20 DUP3 ADD SWAP1 POP SWAP3 SWAP2 POP POP JUMP JUMPDEST DUP3 DUP2 DUP4 MCOPY PUSH0 DUP4 DUP4 ADD MSTORE POP POP POP JUMP JUMPDEST PUSH0 PUSH1 0x1F NOT PUSH1 0x1F DUP4 ADD AND SWAP1 POP SWAP2 SWAP1 POP JUMP JUMPDEST PUSH0 PUSH2 0x3ED DUP3 PUSH2 0x3AB JUMP JUMPDEST PUSH2 0x3F7 DUP2 DUP6 PUSH2 0x3B5 JUMP JUMPDEST SWAP4 POP PUSH2 0x407 DUP2 DUP6 PUSH1 0x20 DUP7 ADD PUSH2 0x3C5 JUMP JUMPDEST PUSH2 0x410 DUP2 PUSH2 0x3D3 JUMP JUMPDEST DUP5 ADD SWAP2 POP POP SWAP3 SWAP2 POP POP JUMP JUMPDEST PUSH0 PUSH1 0x20 DUP3 ADD SWAP1 POP DUP2 DUP2 SUB PUSH0 DUP4 ADD MSTORE PUSH2 0x433 DUP2 DUP5 PUSH2 0x3E3 JUMP JUMPDEST SWAP1 POP SWAP3 SWAP2 POP POP JUMP JUMPDEST PUSH0 DUP2 MLOAD SWAP1 POP SWAP2 SWAP1 POP JUMP JUMPDEST PUSH0 DUP3 DUP3 MSTORE PUSH1 0x20 DUP3 ADD SWAP1 POP SWAP3 SWAP2 POP POP JUMP JUMPDEST PUSH0 DUP2 SWAP1 POP PUSH1 0x20 DUP3 ADD SWAP1 POP SWAP2 SWAP1 POP JUMP JUMPDEST PUSH0 DUP3 DUP3 MSTORE PUSH1 0x20 DUP3 ADD SWAP1 POP SWAP3 SWAP2 POP POP JUMP JUMPDEST PUSH0 PUSH2 0x47E DUP3 PUSH2 0x3AB JUMP JUMPDEST PUSH2 0x488 DUP2 DUP6 PUSH2 0x464 JUMP JUMPDEST SWAP4 POP PUSH2 0x498 DUP2 DUP6 PUSH1 0x20 DUP7 ADD PUSH2 0x3C5 JUMP JUMPDEST PUSH2 0x4A1 DUP2 PUSH2 0x3D3 JUMP JUMPDEST DUP5 ADD SWAP2 POP POP SWAP3 SWAP2 POP POP JUMP JUMPDEST PUSH0 PUSH2 0x4B7 DUP4 DUP4 PUSH2 0x474 JUMP JUMPDEST SWAP1 POP SWAP3 SWAP2 POP POP JUMP JUMPDEST PUSH0 PUSH1 0x20 DUP3 ADD SWAP1 POP SWAP2 SWAP1 POP JUMP JUMPDEST PUSH0 PUSH2 0x4D5 DUP3 PUSH2 0x43B JUMP JUMPDEST PUSH2 0x4DF DUP2 DUP6 PUSH2 0x445 JUMP JUMPDEST SWAP4 POP DUP4 PUSH1 0x20 DUP3 MUL DUP6 ADD PUSH2 0x4F1 DUP6 PUSH2 0x455 JUMP JUMPDEST DUP1 PUSH0 JUMPDEST DUP6 DUP2 LT ISZERO PUSH2 0x52C JUMPI DUP5 DUP5 SUB DUP10 MSTORE DUP2 MLOAD PUSH2 0x50D DUP6 DUP3 PUSH2 0x4AC JUMP JUMPDEST SWAP5 POP PUSH2 0x518 DUP4 PUSH2 0x4BF JUMP JUMPDEST SWAP3 POP PUSH1 0x20 DUP11 ADD SWAP10 POP POP PUSH1 0x1 DUP2 ADD SWAP1 POP PUSH2 0x4F4 JUMP JUMPDEST POP DUP3 SWAP8 POP DUP8 SWAP6 POP POP POP POP POP POP SWAP3 SWAP2 POP POP JUMP JUMPDEST PUSH0 PUSH1 0x20 DUP3 ADD SWAP1 POP DUP2 DUP2 SUB PUSH0 DUP4 ADD MSTORE PUSH2 0x556 DUP2 DUP5 PUSH2 0x4CB JUMP JUMPDEST SWAP1 POP SWAP3 SWAP2 POP POP JUMP JUMPDEST PUSH0 PUSH0 REVERT JUMPDEST PUSH0 PUSH0 REVERT JUMPDEST PUSH32 0x4E487B7100000000000000000000000000000000000000000000000000000000 PUSH0 MSTORE PUSH1 0x41 PUSH1 0x4 MSTORE PUSH1 0x24 PUSH0 REVERT JUMPDEST PUSH2 0x59C DUP3 PUSH2 0x3D3 JUMP JUMPDEST DUP2 ADD DUP2 DUP2 LT PUSH8 0xFFFFFFFFFFFFFFFF DUP3 GT OR ISZERO PUSH2 0x5BB JUMPI PUSH2 0x5BA PUSH2 0x566 JUMP JUMPDEST JUMPDEST DUP1 PUSH1 0x40 MSTORE POP POP POP JUMP JUMPDEST PUSH0 PUSH2 0x5CD PUSH2 0x33C JUMP JUMPDEST SWAP1 POP PUSH2 0x5D9 DUP3 DUP3 PUSH2 0x593 JUMP JUMPDEST SWAP2 SWAP1 POP JUMP JUMPDEST PUSH0 PUSH8 0xFFFFFFFFFFFFFFFF DUP3 GT ISZERO PUSH2 0x5F8 JUMPI PUSH2 0x5F7 PUSH2 0x566 JUMP JUMPDEST JUMPDEST PUSH2 0x601 DUP3 PUSH2 0x3D3 JUMP JUMPDEST SWAP1 POP PUSH1 0x20 DUP2 ADD SWAP1 POP SWAP2 SWAP1 POP JUMP JUMPDEST DUP3 DUP2 DUP4 CALLDATACOPY PUSH0 DUP4 DUP4 ADD MSTORE POP POP POP JUMP JUMPDEST PUSH0 PUSH2 0x62E PUSH2 0x629 DUP5 PUSH2 0x5DE JUMP JUMPDEST PUSH2 0x5C4 JUMP JUMPDEST SWAP1 POP DUP3 DUP2 MSTORE PUSH1 0x20 DUP2 ADD DUP5 DUP5 DUP5 ADD GT ISZERO PUSH2 0x64A JUMPI PUSH2 0x649 PUSH2 0x562 JUMP JUMPDEST JUMPDEST PUSH2 0x655 DUP5 DUP3 DUP6 PUSH2 0x60E JUMP JUMPDEST POP SWAP4 SWAP3 POP POP POP JUMP JUMPDEST PUSH0 DUP3 PUSH1 0x1F DUP4 ADD SLT PUSH2 0x671 JUMPI PUSH2 0x670 PUSH2 0x55E JUMP JUMPDEST JUMPDEST DUP2 CALLDATALOAD PUSH2 0x681 DUP5 DUP3 PUSH1 0x20 DUP7 ADD PUSH2 0x61C JUMP JUMPDEST SWAP2 POP POP SWAP3 SWAP2 POP POP JUMP JUMPDEST PUSH0 PUSH1 0x20 DUP3 DUP5 SUB SLT ISZERO PUSH2 0x69F JUMPI PUSH2 0x69E PUSH2 0x345 JUMP JUMPDEST JUMPDEST PUSH0 DUP3 ADD CALLDATALOAD PUSH8 0xFFFFFFFFFFFFFFFF DUP2 GT ISZERO PUSH2 0x6BC JUMPI PUSH2 0x6BB PUSH2 0x349 JUMP JUMPDEST JUMPDEST PUSH2 0x6C8 DUP5 DUP3 DUP6 ADD PUSH2 0x65D JUMP JUMPDEST SWAP2 POP POP SWAP3 SWAP2 POP POP JUMP JUMPDEST PUSH2 0x6DA DUP2 PUSH2 0x34D JUMP JUMPDEST DUP3 MSTORE POP POP JUMP JUMPDEST PUSH0 PUSH1 0x20 DUP3 ADD SWAP1 POP PUSH2 0x6F3 PUSH0 DUP4 ADD DUP5 PUSH2 0x6D1 JUMP JUMPDEST SWAP3 SWAP2 POP POP JUMP JUMPDEST PUSH32 0x4E487B7100000000000000000000000000000000000000000000000000000000 PUSH0 MSTORE PUSH1 0x22 PUSH1 0x4 MSTORE PUSH1 0x24 PUSH0 REVERT JUMPDEST PUSH0 PUSH1 0x2 DUP3 DIV SWAP1 POP PUSH1 0x1 DUP3 AND DUP1 PUSH2 0x73D JUMPI PUSH1 0x7F DUP3 AND SWAP2 POP JUMPDEST PUSH1 0x20 DUP3 LT DUP2 SUB PUSH2 0x750 JUMPI PUSH2 0x74F PUSH2 0x6F9 JUMP JUMPDEST JUMPDEST POP SWAP2 SWAP1 POP JUMP JUMPDEST PUSH0 DUP2 SWAP1 POP DUP2 PUSH0 MSTORE PUSH1 0x20 PUSH0 KECCAK256 SWAP1 POP SWAP2 SWAP1 POP JUMP JUMPDEST PUSH0 PUSH1 0x20 PUSH1 0x1F DUP4 ADD DIV SWAP1 POP SWAP2 SWAP1 POP JUMP JUMPDEST PUSH0 DUP3 DUP3 SHL SWAP1 POP SWAP3 SWAP2 POP POP JUMP JUMPDEST PUSH0 PUSH1 0x8 DUP4 MUL PUSH2 0x7B2 PUSH32 0xFFFFFFFFFFFFFFFFFFFFFFFFFFFFFFFFFFFFFFFFFFFFFFFFFFFFFFFFFFFFFFFF DUP3 PUSH2 0x777 JUMP JUMPDEST PUSH2 0x7BC DUP7 DUP4 PUSH2 0x777 JUMP JUMPDEST SWAP6 POP DUP1 NOT DUP5 AND SWAP4 POP DUP1 DUP7 AND DUP5 OR SWAP3 POP POP POP SWAP4 SWAP3 POP POP POP JUMP JUMPDEST PUSH0 DUP2 SWAP1 POP SWAP2 SWAP1 POP JUMP JUMPDEST PUSH0 PUSH2 0x7F7 PUSH2 0x7F2 PUSH2 0x7ED DUP5 PUSH2 0x34D JUMP JUMPDEST PUSH2 0x7D4 JUMP JUMPDEST PUSH2 0x34D JUMP JUMPDEST SWAP1 POP SWAP2 SWAP1 POP JUMP JUMPDEST PUSH0 DUP2 SWAP1 POP SWAP2 SWAP1 POP JUMP JUMPDEST PUSH2 0x810 DUP4 PUSH2 0x7DD JUMP JUMPDEST PUSH2 0x824 PUSH2 0x81C DUP3 PUSH2 0x7FE JUMP JUMPDEST DUP5 DUP5 SLOAD PUSH2 0x783 JUMP JUMPDEST DUP3 SSTORE POP POP POP POP JUMP JUMPDEST PUSH0 PUSH0 SWAP1 POP SWAP1 JUMP JUMPDEST PUSH2 0x83B PUSH2 0x82C JUMP JUMPDEST PUSH2 0x846 DUP2 DUP5 DUP5 PUSH2 0x807 JUMP JUMPDEST POP POP POP JUMP JUMPDEST JUMPDEST DUP2 DUP2 LT ISZERO PUSH2 0x869 JUMPI PUSH2 0x85E PUSH0 DUP3 PUSH2 0x833 JUMP JUMPDEST PUSH1 0x1 DUP2 ADD SWAP1 POP PUSH2 0x84C JUMP JUMPDEST POP POP JUMP JUMPDEST PUSH1 0x1F DUP3 GT ISZERO PUSH2 0x8AE JUMPI PUSH2 0x87F DUP2 PUSH2 0x756 JUMP JUMPDEST PUSH2 0x888 DUP5 PUSH2 0x768 JUMP JUMPDEST DUP2 ADD PUSH1 0x20 DUP6 LT ISZERO PUSH2 0x897 JUMPI DUP2 SWAP1 POP JUMPDEST PUSH2 0x8AB PUSH2 0x8A3 DUP6 PUSH2 0x768 JUMP JUMPDEST DUP4 ADD DUP3 PUSH2 0x84B JUMP JUMPDEST POP POP JUMPDEST POP POP POP JUMP JUMPDEST PUSH0 DUP3 DUP3 SHR SWAP1 POP SWAP3 SWAP2 POP POP JUMP JUMPDEST PUSH0 PUSH2 0x8CE PUSH0 NOT DUP5 PUSH1 0x8 MUL PUSH2 0x8B3 JUMP JUMPDEST NOT DUP1 DUP4 AND SWAP2 POP POP SWAP3 SWAP2 POP POP JUMP JUMPDEST PUSH0 PUSH2 0x8E6 DUP4 DUP4 PUSH2 0x8BF JUMP JUMPDEST SWAP2 POP DUP3 PUSH1 0x2 MUL DUP3 OR SWAP1 POP SWAP3 SWAP2 POP POP JUMP JUMPDEST PUSH2 0x8FF DUP3 PUSH2 0x3AB JUMP JUMPDEST PUSH8 0xFFFFFFFFFFFFFFFF DUP2 GT ISZERO PUSH2 0x918 JUMPI PUSH2 0x917 PUSH2 0x566 JUMP JUMPDEST JUMPDEST PUSH2 0x922 DUP3 SLOAD PUSH2 0x726 JUMP JUMPDEST PUSH2 0x92D DUP3 DUP3 DUP6 PUSH2 0x86D JUMP JUMPDEST PUSH0 PUSH1 0x20 SWAP1 POP PUSH1 0x1F DUP4 GT PUSH1 0x1 DUP2 EQ PUSH2 0x95E JUMPI PUSH0 DUP5 ISZERO PUSH2 0x94C JUMPI DUP3 DUP8 ADD MLOAD SWAP1 POP JUMPDEST PUSH2 0x956 DUP6 DUP3 PUSH2 0x8DB JUMP JUMPDEST DUP7 SSTORE POP PUSH2 0x9BD JUMP JUMPDEST PUSH1 0x1F NOT DUP5 AND PUSH2 0x96C DUP7 PUSH2 0x756 JUMP JUMPDEST PUSH0 JUMPDEST DUP3 DUP2 LT ISZERO PUSH2 0x993 JUMPI DUP5 DUP10 ADD MLOAD DUP3 SSTORE PUSH1 0x1 DUP3 ADD SWAP2 POP PUSH1 0x20 DUP6 ADD SWAP5 POP PUSH1 0x20 DUP2 ADD SWAP1 POP PUSH2 0x96E JUMP JUMPDEST DUP7 DUP4 LT ISZERO PUSH2 0x9B0 JUMPI DUP5 DUP10 ADD MLOAD PUSH2 0x9AC PUSH1 0x1F DUP10 AND DUP3 PUSH2 0x8BF JUMP JUMPDEST DUP4 SSTORE POP JUMPDEST PUSH1 0x1 PUSH1 0x2 DUP9 MUL ADD DUP9 SSTORE POP POP POP JUMPDEST POP POP POP POP POP POP JUMP JUMPDEST PUSH0 DUP2 SWAP1 POP SWAP3 SWAP2 POP POP JUMP JUMPDEST PUSH0 PUSH2 0x9D9 DUP3 PUSH2 0x3AB JUMP JUMPDEST PUSH2 0x9E3 DUP2 DUP6 PUSH2 0x9C5 JUMP JUMPDEST SWAP4 POP PUSH2 0x9F3 DUP2 DUP6 PUSH1 0x20 DUP7 ADD PUSH2 0x3C5 JUMP JUMPDEST DUP1 DUP5 ADD SWAP2 POP POP SWAP3 SWAP2 POP POP JUMP JUMPDEST PUSH0 PUSH2 0xA0A DUP3 DUP5 PUSH2 0x9CF JUMP JUMPDEST SWAP2 POP DUP2 SWAP1 POP SWAP3 SWAP2 POP POP JUMP JUMPDEST PUSH32 0x4E487B7100000000000000000000000000000000000000000000000000000000 PUSH0 MSTORE PUSH1 0x11 PUSH1 0x4 MSTORE PUSH1 0x24 PUSH0 REVERT JUMPDEST PUSH0 PUSH2 0xA4C DUP3 PUSH2 0x34D JUMP JUMPDEST SWAP2 POP PUSH2 0xA57 DUP4 PUSH2 0x34D JUMP JUMPDEST SWAP3 POP DUP3 DUP3 ADD SWAP1 POP DUP1 DUP3 GT ISZERO PUSH2 0xA6F JUMPI PUSH2 0xA6E PUSH2 0xA15 JUMP JUMPDEST JUMPDEST SWAP3 SWAP2 POP POP JUMP INVALID LOG2 PUSH5 0x6970667358 0x22 SLT KECCAK256 0xD9 ADD SWAP5 0xDD EXTCODESIZE ADDMOD DUP10 DUP14 0x28 INVALID DUPN 0x6D 0xC5 SWAP1 CREATE2 GASPRICE PUSH26 0x42B483902DF16C2F2161A48A9EB99A64736F6C634300081E0033 "
				},
				"gasEstimates": {
					"creation": {
						"codeDepositCost": "546200",
						"executionCost": "579",
						"totalCost": "546779"
					},
					"external": {
						"CandidateNames(uint256)": "infinite",
						"addCandidateNames(string)": "infinite",
						"getCandidateNames()": "infinite",
						"getVote(string)": "infinite",
						"vote(string)": "infinite"
					}
				},
				"methodIdentifiers": {
					"CandidateNames(uint256)": "186d9aaa",
					"addCandidateNames(string)": "b13593cb",
					"getCandidateNames()": "72b9d616",
					"getVote(string)": "baa40e5c",
					"vote(string)": "fc36e15b"
				}
			},
			"storageLayout": {
				"storage": [
					{
						"astId": 4,
						"contract": "submissions/CCan_08/Day3.sol:PullStation",
						"label": "CandidateNames",
						"offset": 0,
						"slot": "0",
						"type": "t_array(t_string_storage)dyn_storage"
					},
					{
						"astId": 8,
						"contract": "submissions/CCan_08/Day3.sol:PullStation",
						"label": "voteCount",
						"offset": 0,
						"slot": "1",
						"type": "t_mapping(t_string_memory_ptr,t_uint256)"
					}
				],
				"types": {
					"t_array(t_string_storage)dyn_storage": {
						"base": "t_string_storage",
						"encoding": "dynamic_array",
						"label": "string[]",
						"numberOfBytes": "32"
					},
					"t_mapping(t_string_memory_ptr,t_uint256)": {
						"encoding": "mapping",
						"key": "t_string_memory_ptr",
						"label": "mapping(string => uint256)",
						"numberOfBytes": "32",
						"value": "t_uint256"
					},
					"t_string_memory_ptr": {
						"encoding": "bytes",
						"label": "string",
						"numberOfBytes": "32"
					},
					"t_string_storage": {
						"encoding": "bytes",
						"label": "string",
						"numberOfBytes": "32"
					},
					"t_uint256": {
						"encoding": "inplace",
						"label": "uint256",
						"numberOfBytes": "32"
					}
				}
			},
			"userdoc": {
				"kind": "user",
				"methods": {},
				"version": 1
			}
		}
	}
}